{
  "address": "0x8dC8e5F718D1BC17368B063958600af5a0090Ba0",
  "abi": [
    {
      "type": "constructor",
      "inputs": [
        {
          "name": "_yieldManager",
          "type": "address",
          "internalType": "contract YieldManager"
        },
        {
          "name": "_owner",
          "type": "address",
          "internalType": "address"
        },
        {
          "name": "_token",
          "type": "address",
          "internalType": "address"
        }
      ],
      "stateMutability": "nonpayable"
    },
    {
      "type": "function",
      "name": "YIELD_MANAGER",
      "inputs": [],
      "outputs": [
        {
          "name": "",
          "type": "address",
          "internalType": "contract YieldManager"
        }
      ],
      "stateMutability": "view"
    },
    {
      "type": "function",
      "name": "commitYield",
      "inputs": [],
      "outputs": [
        {
          "name": "",
          "type": "int256",
          "internalType": "int256"
        }
      ],
      "stateMutability": "nonpayable"
    },
    {
      "type": "function",
      "name": "id",
      "inputs": [],
      "outputs": [
        {
          "name": "",
          "type": "bytes32",
          "internalType": "bytes32"
        }
      ],
      "stateMutability": "view"
    },
    {
      "type": "function",
      "name": "initialize",
      "inputs": [],
      "outputs": [],
      "stateMutability": "nonpayable"
    },
    {
      "type": "function",
      "name": "insuranceBalance",
      "inputs": [],
      "outputs": [
        {
          "name": "",
          "type": "uint256",
          "internalType": "uint256"
        }
      ],
      "stateMutability": "view"
    },
    {
      "type": "function",
      "name": "isStakingEnabled",
      "inputs": [
        {
          "name": "token",
          "type": "address",
          "internalType": "address"
        }
      ],
      "outputs": [
        {
          "name": "",
          "type": "bool",
          "internalType": "bool"
        }
      ],
      "stateMutability": "view"
    },
    {
      "type": "function",
      "name": "name",
      "inputs": [],
      "outputs": [
        {
          "name": "",
          "type": "string",
          "internalType": "string"
        }
      ],
      "stateMutability": "pure"
    },
    {
      "type": "function",
      "name": "owner",
      "inputs": [],
      "outputs": [
        {
          "name": "",
          "type": "address",
          "internalType": "address"
        }
      ],
      "stateMutability": "view"
    },
    {
      "type": "function",
      "name": "payInsurancePremium",
      "inputs": [
        {
          "name": "amount",
          "type": "uint256",
          "internalType": "uint256"
        }
      ],
      "outputs": [],
      "stateMutability": "nonpayable"
    },
    {
      "type": "function",
      "name": "pendingBalance",
      "inputs": [],
      "outputs": [
        {
          "name": "",
          "type": "uint256",
          "internalType": "uint256"
        }
      ],
      "stateMutability": "view"
    },
    {
      "type": "function",
      "name": "preCommitYieldReportDelegateCallHook",
      "inputs": [],
      "outputs": [],
      "stateMutability": "nonpayable"
    },
    {
      "type": "function",
      "name": "recordStakedDeposit",
      "inputs": [
        {
          "name": "amount",
          "type": "uint256",
          "internalType": "uint256"
        }
      ],
      "outputs": [],
      "stateMutability": "nonpayable"
    },
    {
      "type": "function",
      "name": "recordUnstaked",
      "inputs": [
        {
          "name": "pending",
          "type": "uint256",
          "internalType": "uint256"
        },
        {
          "name": "claimed",
          "type": "uint256",
          "internalType": "uint256"
        },
        {
          "name": "expected",
          "type": "uint256",
          "internalType": "uint256"
        }
      ],
      "outputs": [],
      "stateMutability": "nonpayable"
    },
    {
      "type": "function",
      "name": "recordYield",
      "inputs": [
        {
          "name": "amount",
          "type": "int256",
          "internalType": "int256"
        }
      ],
      "outputs": [],
      "stateMutability": "payable"
    },
    {
      "type": "function",
      "name": "renounceOwnership",
      "inputs": [],
      "outputs": [],
      "stateMutability": "nonpayable"
    },
    {
      "type": "function",
      "name": "sendAsset",
      "inputs": [
        {
          "name": "recipient",
          "type": "address",
          "internalType": "address"
        },
        {
          "name": "amount",
          "type": "uint256",
          "internalType": "uint256"
        }
      ],
      "outputs": [],
      "stateMutability": "nonpayable"
    },
    {
      "type": "function",
      "name": "stake",
      "inputs": [
        {
          "name": "amount",
          "type": "uint256",
          "internalType": "uint256"
        }
      ],
      "outputs": [],
      "stateMutability": "nonpayable"
    },
    {
      "type": "function",
      "name": "stakedBalance",
      "inputs": [],
      "outputs": [
        {
          "name": "",
          "type": "uint256",
          "internalType": "uint256"
        }
      ],
      "stateMutability": "view"
    },
    {
      "type": "function",
      "name": "stakedPrincipal",
      "inputs": [],
      "outputs": [
        {
          "name": "",
          "type": "uint256",
          "internalType": "uint256"
        }
      ],
      "stateMutability": "view"
    },
    {
      "type": "function",
      "name": "supportsInsurancePayment",
      "inputs": [],
      "outputs": [
        {
          "name": "",
          "type": "bool",
          "internalType": "bool"
        }
      ],
      "stateMutability": "pure"
    },
    {
      "type": "function",
      "name": "totalValue",
      "inputs": [],
      "outputs": [
        {
          "name": "",
          "type": "uint256",
          "internalType": "uint256"
        }
      ],
      "stateMutability": "view"
    },
    {
      "type": "function",
      "name": "transferOwnership",
      "inputs": [
        {
          "name": "newOwner",
          "type": "address",
          "internalType": "address"
        }
      ],
      "outputs": [],
      "stateMutability": "nonpayable"
    },
    {
      "type": "function",
      "name": "unstake",
      "inputs": [
        {
          "name": "amount",
          "type": "uint256",
          "internalType": "uint256"
        }
      ],
      "outputs": [
        {
          "name": "",
          "type": "uint256",
          "internalType": "uint256"
        },
        {
          "name": "",
          "type": "uint256",
          "internalType": "uint256"
        }
      ],
      "stateMutability": "nonpayable"
    },
    {
      "type": "function",
      "name": "version",
      "inputs": [],
      "outputs": [
        {
          "name": "",
          "type": "string",
          "internalType": "string"
        }
      ],
      "stateMutability": "view"
    },
    {
      "type": "function",
      "name": "withdrawFromInsurance",
      "inputs": [
        {
          "name": "amount",
          "type": "uint256",
          "internalType": "uint256"
        }
      ],
      "outputs": [],
      "stateMutability": "nonpayable"
    },
    {
      "type": "function",
      "name": "yield",
      "inputs": [],
      "outputs": [
        {
          "name": "",
          "type": "int256",
          "internalType": "int256"
        }
      ],
      "stateMutability": "view"
    },
    {
      "type": "event",
      "name": "Claimed",
      "inputs": [
        {
          "name": "provider",
          "type": "bytes32",
          "indexed": true,
          "internalType": "bytes32"
        },
        {
          "name": "claimedAmount",
          "type": "uint256",
          "indexed": false,
          "internalType": "uint256"
        },
        {
          "name": "expectedAmount",
          "type": "uint256",
          "indexed": false,
          "internalType": "uint256"
        }
      ],
      "anonymous": false
    },
    {
      "type": "event",
      "name": "InsurancePremiumPaid",
      "inputs": [
        {
          "name": "provider",
          "type": "bytes32",
          "indexed": true,
          "internalType": "bytes32"
        },
        {
          "name": "amount",
          "type": "uint256",
          "indexed": false,
          "internalType": "uint256"
        }
      ],
      "anonymous": false
    },
    {
      "type": "event",
      "name": "InsuranceWithdrawn",
      "inputs": [
        {
          "name": "provider",
          "type": "bytes32",
          "indexed": true,
          "internalType": "bytes32"
        },
        {
          "name": "amount",
          "type": "uint256",
          "indexed": false,
          "internalType": "uint256"
        }
      ],
      "anonymous": false
    },
    {
      "type": "event",
      "name": "OwnershipTransferred",
      "inputs": [
        {
          "name": "previousOwner",
          "type": "address",
          "indexed": true,
          "internalType": "address"
        },
        {
          "name": "newOwner",
          "type": "address",
          "indexed": true,
          "internalType": "address"
        }
      ],
      "anonymous": false
    },
    {
      "type": "event",
      "name": "Pending",
      "inputs": [
        {
          "name": "provider",
          "type": "bytes32",
          "indexed": true,
          "internalType": "bytes32"
        },
        {
          "name": "amount",
          "type": "uint256",
          "indexed": false,
          "internalType": "uint256"
        }
      ],
      "anonymous": false
    },
    {
      "type": "event",
      "name": "Staked",
      "inputs": [
        {
          "name": "provider",
          "type": "bytes32",
          "indexed": true,
          "internalType": "bytes32"
        },
        {
          "name": "amount",
          "type": "uint256",
          "indexed": false,
          "internalType": "uint256"
        }
      ],
      "anonymous": false
    },
    {
      "type": "event",
      "name": "Unstaked",
      "inputs": [
        {
          "name": "provider",
          "type": "bytes32",
          "indexed": true,
          "internalType": "bytes32"
        },
        {
          "name": "amount",
          "type": "uint256",
          "indexed": false,
          "internalType": "uint256"
        }
      ],
      "anonymous": false
    },
    {
      "type": "event",
      "name": "YieldCommit",
      "inputs": [
        {
          "name": "provider",
          "type": "bytes32",
          "indexed": true,
          "internalType": "bytes32"
        },
        {
          "name": "yield",
          "type": "int256",
          "indexed": false,
          "internalType": "int256"
        }
      ],
      "anonymous": false
    },
    {
      "type": "error",
      "name": "CallerIsNotYieldManager",
      "inputs": []
    },
    {
      "type": "error",
      "name": "ContextIsNotYieldManager",
      "inputs": []
    },
    {
      "type": "error",
      "name": "InsufficientStakableFunds",
      "inputs": []
    },
    {
      "type": "error",
      "name": "NotSupported",
      "inputs": []
    }
  ],
  "transactionHash": "0x9b54e828f5a252e2037dc7742bd67348bee9d57cf70d8a67e212965061d8da23",
  "args": [
    "0x16Cc7b51de361A845AD070ed6E792b2BB720f8c6",
    "0x85a535089054BEd462875cDc1941aa662579e9bD",
    "0x0000000000000000000000000000000000000000"
  ],
  "numDeployments": 1,
  "solcInputHash": "9778d091a5acf256a03d242fa5a61eb7",
  "bytecode": "0x6101406040523480156200001257600080fd5b5060405162001daf38038062001daf833981016040819052620000359162000109565b6001608052600060a081905260c05282828282306001600160a01b038216036200005e57600080fd5b6001600160a01b031660e05262000075336200009e565b62000080826200009e565b6001600160a01b03166101005250503061012052506200015d915050565b600280546001600160a01b038381166001600160a01b0319831681179093556040519116919082907f8be0079c531659141344cd1fd0a4f28419497f9722a3daafe3b4186f6b6457e090600090a35050565b6001600160a01b03811681146200010657600080fd5b50565b6000806000606084860312156200011f57600080fd5b83516200012c81620000f0565b60208501519093506200013f81620000f0565b60408501519092506200015281620000f0565b809150509250925092565b60805160a05160c05160e0516101005161012051611b9962000216600039600081816106840152818161086d0152610c930152600081816104650152610be001526000818161022f015281816105c1015281816106550152818161070001528181610814015281816108a901528181610abd01528181610b1601528181610c3801528181610dbe01528181610e990152818161106701526111f9015260006107b201526000610789015260006107600152611b996000f3fe6080604052600436106101a15760003560e01c80638129fc1c116100e1578063bbaff1e21161008a578063ecc7f64211610064578063ecc7f642146104a2578063ed3de487146104c2578063f2fde38b146104e2578063f304f5e51461050257600080fd5b8063bbaff1e214610413578063d4c3eea014610433578063e0c784551461044857600080fd5b80639b757594116100bb5780639b757594146103be578063a694fc3a146103de578063af640d0f146103fe57600080fd5b80638129fc1c146102c057806385254adf1461037d5780638da5cb5b1461039357600080fd5b80634bfb431f1161014e5780635b9f0016116101285780635b9f00161461032257806366785d93146103355780636922323814610355578063715018a61461036857600080fd5b80634bfb431f146102d757806354fd4d50146102f757806357b4d18e1461030c57600080fd5b8063285939841161017f57806328593984146102765780632e17de781461028b57806347bc4838146102c057600080fd5b80630577d6d5146101a657806306fdde03146101ce578063219ebb9c1461021d575b600080fd5b3480156101b257600080fd5b506101bb610517565b6040519081526020015b60405180910390f35b3480156101da57600080fd5b5060408051808201909152601481527f546573746e65745969656c6450726f766964657200000000000000000000000060208201525b6040516101c59190611747565b34801561022957600080fd5b506102517f000000000000000000000000000000000000000000000000000000000000000081565b60405173ffffffffffffffffffffffffffffffffffffffff90911681526020016101c5565b34801561028257600080fd5b506101bb610581565b34801561029757600080fd5b506102ab6102a6366004611798565b6105a6565b604080519283526020830191909152016101c5565b3480156102cc57600080fd5b506102d56106e8565b005b3480156102e357600080fd5b5060015b60405190151581526020016101c5565b34801561030357600080fd5b50610210610759565b34801561031857600080fd5b506101bb60015481565b34801561032e57600080fd5b50476101bb565b34801561034157600080fd5b506102d5610350366004611798565b6107fc565b6102d5610363366004611798565b6109bf565b34801561037457600080fd5b506102d5610a93565b34801561038957600080fd5b506101bb60005481565b34801561039f57600080fd5b5060025473ffffffffffffffffffffffffffffffffffffffff16610251565b3480156103ca57600080fd5b506102d56103d9366004611798565b610aa5565b3480156103ea57600080fd5b506102d56103f9366004611798565b610c20565b34801561040a57600080fd5b506101bb610d36565b34801561041f57600080fd5b506102d561042e366004611798565b610da6565b34801561043f57600080fd5b506101bb610e6b565b34801561045457600080fd5b506102e76104633660046117d3565b7f000000000000000000000000000000000000000000000000000000000000000073ffffffffffffffffffffffffffffffffffffffff90811691161490565b3480156104ae57600080fd5b506102d56104bd3660046117f7565b610e81565b3480156104ce57600080fd5b506102d56104dd366004611823565b61104f565b3480156104ee57600080fd5b506102d56104fd3660046117d3565b61112b565b34801561050e57600080fd5b506101bb6111df565b6040517f08c379a000000000000000000000000000000000000000000000000000000000815260206004820152600d60248201527f6e6f7420737570706f727465640000000000000000000000000000000000000060448201526000906064015b60405180910390fd5b600061058e6000546112a0565b610597476112a0565b6105a1919061187e565b905090565b6000803073ffffffffffffffffffffffffffffffffffffffff7f00000000000000000000000000000000000000000000000000000000000000001614610618576040517fad5be26a00000000000000000000000000000000000000000000000000000000815260040160405180910390fd5b6040517fed3de48700000000000000000000000000000000000000000000000000000000815273ffffffffffffffffffffffffffffffffffffffff7f000000000000000000000000000000000000000000000000000000000000000081166004830152602482018590527f0000000000000000000000000000000000000000000000000000000000000000169063ed3de48790604401600060405180830381600087803b1580156106c857600080fd5b505af11580156106dc573d6000803e3d6000fd5b50600096945050505050565b3073ffffffffffffffffffffffffffffffffffffffff7f00000000000000000000000000000000000000000000000000000000000000001614610757576040517fad5be26a00000000000000000000000000000000000000000000000000000000815260040160405180910390fd5b565b60606107847f0000000000000000000000000000000000000000000000000000000000000000611356565b6107ad7f0000000000000000000000000000000000000000000000000000000000000000611356565b6107d67f0000000000000000000000000000000000000000000000000000000000000000611356565b6040516020016107e8939291906118f2565b604051602081830303815290604052905090565b3073ffffffffffffffffffffffffffffffffffffffff7f0000000000000000000000000000000000000000000000000000000000000000161461086b576040517fad5be26a00000000000000000000000000000000000000000000000000000000815260040160405180910390fd5b7f000000000000000000000000000000000000000000000000000000000000000073ffffffffffffffffffffffffffffffffffffffff1663ed3de4877f000000000000000000000000000000000000000000000000000000000000000073ffffffffffffffffffffffffffffffffffffffff166389cf32046040518163ffffffff1660e01b8152600401602060405180830381865afa158015610912573d6000803e3d6000fd5b505050506040513d601f19601f820116820180604052508101906109369190611968565b6040517fffffffff0000000000000000000000000000000000000000000000000000000060e084901b16815273ffffffffffffffffffffffffffffffffffffffff9091166004820152602481018490526044015b600060405180830381600087803b1580156109a457600080fd5b505af11580156109b8573d6000803e3d6000fd5b5050505050565b6109c7611493565b60008113156109df578034146109dc57600080fd5b50565b6000610a0060025473ffffffffffffffffffffffffffffffffffffffff1690565b73ffffffffffffffffffffffffffffffffffffffff16610a40837fffffffffffffffffffffffffffffffffffffffffffffffffffffffffffffffff611985565b604051600081818185875af1925050503d8060008114610a7c576040519150601f19603f3d011682016040523d82523d6000602084013e610a81565b606091505b5050905080610a8f57600080fd5b5050565b610a9b611493565b6107576000611514565b3073ffffffffffffffffffffffffffffffffffffffff7f00000000000000000000000000000000000000000000000000000000000000001614610b14576040517fad5be26a00000000000000000000000000000000000000000000000000000000815260040160405180910390fd5b7f000000000000000000000000000000000000000000000000000000000000000073ffffffffffffffffffffffffffffffffffffffff166389cf32046040518163ffffffff1660e01b8152600401602060405180830381865afa158015610b7f573d6000803e3d6000fd5b505050506040513d601f19601f82011682018060405250810190610ba39190611968565b6040517fd1fa5e9800000000000000000000000000000000000000000000000000000000815273ffffffffffffffffffffffffffffffffffffffff7f00000000000000000000000000000000000000000000000000000000000000008116600483015260248201849052919091169063d1fa5e989060440161098a565b3073ffffffffffffffffffffffffffffffffffffffff7f00000000000000000000000000000000000000000000000000000000000000001614610c8f576040517fad5be26a00000000000000000000000000000000000000000000000000000000815260040160405180910390fd5b60007f000000000000000000000000000000000000000000000000000000000000000073ffffffffffffffffffffffffffffffffffffffff168260405160006040518083038185875af1925050503d8060008114610d09576040519150601f19603f3d011682016040523d82523d6000602084013e610d0e565b606091505b5050905080610d1c57600080fd5b81600080828254610d2d9190611a41565b90915550505050565b6000610d7260408051808201909152601481527f546573746e65745969656c6450726f7669646572000000000000000000000000602082015290565b610d7a610759565b604051602001610d8b929190611a59565b60405160208183030381529060405280519060200120905090565b3373ffffffffffffffffffffffffffffffffffffffff7f00000000000000000000000000000000000000000000000000000000000000001614610e15576040517fa1cfbf5900000000000000000000000000000000000000000000000000000000815260040160405180910390fd5b80600080828254610e269190611a41565b90915550610e349050610d36565b6040518281527fad8699b31aa71e27625c441f641b4732d76e1b7475068543aaaee79bd2c3d1f6906020015b60405180910390a250565b6000600154610e774790565b6105a19190611a41565b3373ffffffffffffffffffffffffffffffffffffffff7f00000000000000000000000000000000000000000000000000000000000000001614610ef0576040517fa1cfbf5900000000000000000000000000000000000000000000000000000000815260040160405180910390fd5b610ef98161158b565b8215610fa15781158015610f0c57508083145b610f98576040517f08c379a000000000000000000000000000000000000000000000000000000000815260206004820152602560248201527f696e76616c6964207969656c642070726f766964657220696d706c656d656e7460448201527f6174696f6e0000000000000000000000000000000000000000000000000000006064820152608401610578565b610fa1836115da565b811561104a5782158015610fb457508082145b611040576040517f08c379a000000000000000000000000000000000000000000000000000000000815260206004820152602560248201527f696e76616c6964207969656c642070726f766964657220696d706c656d656e7460448201527f6174696f6e0000000000000000000000000000000000000000000000000000006064820152608401610578565b61104a828261162a565b505050565b3373ffffffffffffffffffffffffffffffffffffffff7f000000000000000000000000000000000000000000000000000000000000000016146110be576040517fa1cfbf5900000000000000000000000000000000000000000000000000000000815260040160405180910390fd5b60008273ffffffffffffffffffffffffffffffffffffffff168260405160006040518083038185875af1925050503d8060008114611118576040519150601f19603f3d011682016040523d82523d6000602084013e61111d565b606091505b505090508061104a57600080fd5b611133611493565b73ffffffffffffffffffffffffffffffffffffffff81166111d6576040517f08c379a000000000000000000000000000000000000000000000000000000000815260206004820152602660248201527f4f776e61626c653a206e6577206f776e657220697320746865207a65726f206160448201527f64647265737300000000000000000000000000000000000000000000000000006064820152608401610578565b6109dc81611514565b60003373ffffffffffffffffffffffffffffffffffffffff7f00000000000000000000000000000000000000000000000000000000000000001614611250576040517fa1cfbf5900000000000000000000000000000000000000000000000000000000815260040160405180910390fd5b600061125a610581565b905047600055611268610d36565b6040518281527ffa0a4034400e62602f330f5e62f285a6baa4bdfb16c11b3ff7c4b65ce7f7d76f9060200160405180910390a2905090565b60007f7fffffffffffffffffffffffffffffffffffffffffffffffffffffffffffffff821115611352576040517f08c379a000000000000000000000000000000000000000000000000000000000815260206004820152602860248201527f53616665436173743a2076616c756520646f65736e27742066697420696e206160448201527f6e20696e743235360000000000000000000000000000000000000000000000006064820152608401610578565b5090565b60608160000361139957505060408051808201909152600181527f3000000000000000000000000000000000000000000000000000000000000000602082015290565b8160005b81156113c357806113ad81611a88565b91506113bc9050600a83611aef565b915061139d565b60008167ffffffffffffffff8111156113de576113de611b03565b6040519080825280601f01601f191660200182016040528015611408576020820181803683370190505b5090505b841561148b5761141d600183611b32565b915061142a600a86611b49565b611435906030611a41565b60f81b81838151811061144a5761144a611b5d565b60200101907effffffffffffffffffffffffffffffffffffffffffffffffffffffffffffff1916908160001a905350611484600a86611aef565b945061140c565b949350505050565b60025473ffffffffffffffffffffffffffffffffffffffff163314610757576040517f08c379a000000000000000000000000000000000000000000000000000000000815260206004820181905260248201527f4f776e61626c653a2063616c6c6572206973206e6f7420746865206f776e65726044820152606401610578565b6002805473ffffffffffffffffffffffffffffffffffffffff8381167fffffffffffffffffffffffff0000000000000000000000000000000000000000831681179093556040519116919082907f8be0079c531659141344cd1fd0a4f28419497f9722a3daafe3b4186f6b6457e090600090a35050565b8060008082825461159c9190611b32565b909155506115aa9050610d36565b6040518281527feaf9a24a861b99687156137f32a9abfa90e5dd93a1eb9fb70cf4400e86b0839a90602001610e60565b80600160008282546115ec9190611a41565b909155506115fa9050610d36565b6040518281527fe1f09d265bac18d7d10d26c357f29ddecd4facd1906bf96ce8fbb33fc34badbc90602001610e60565b808211156116ba576040517f08c379a000000000000000000000000000000000000000000000000000000000815260206004820152602560248201527f696e76616c6964207969656c642070726f766964657220696d706c656d656e7460448201527f6174696f6e0000000000000000000000000000000000000000000000000000006064820152608401610578565b80600160008282546116cc9190611b32565b909155506116da9050610d36565b60408051848152602081018490527f41628d0ba42442e4aa4fc514eeb97bb7154969e70e6678229c836f3b9732ba90910160405180910390a25050565b60005b8381101561173257818101518382015260200161171a565b83811115611741576000848401525b50505050565b6020815260008251806020840152611766816040850160208701611717565b601f017fffffffffffffffffffffffffffffffffffffffffffffffffffffffffffffffe0169190910160400192915050565b6000602082840312156117aa57600080fd5b5035919050565b73ffffffffffffffffffffffffffffffffffffffff811681146109dc57600080fd5b6000602082840312156117e557600080fd5b81356117f0816117b1565b9392505050565b60008060006060848603121561180c57600080fd5b505081359360208301359350604090920135919050565b6000806040838503121561183657600080fd5b8235611841816117b1565b946020939093013593505050565b7f4e487b7100000000000000000000000000000000000000000000000000000000600052601160045260246000fd5b6000808312837f8000000000000000000000000000000000000000000000000000000000000000018312811516156118b8576118b861184f565b837f7fffffffffffffffffffffffffffffffffffffffffffffffffffffffffffffff0183138116156118ec576118ec61184f565b50500390565b60008451611904818460208901611717565b80830190507f2e000000000000000000000000000000000000000000000000000000000000008082528551611940816001850160208a01611717565b6001920191820152835161195b816002840160208801611717565b0160020195945050505050565b60006020828403121561197a57600080fd5b81516117f0816117b1565b60007f7fffffffffffffffffffffffffffffffffffffffffffffffffffffffffffffff6000841360008413858304851182821616156119c6576119c661184f565b7f80000000000000000000000000000000000000000000000000000000000000006000871286820588128184161615611a0157611a0161184f565b60008712925087820587128484161615611a1d57611a1d61184f565b87850587128184161615611a3357611a3361184f565b505050929093029392505050565b60008219821115611a5457611a5461184f565b500190565b60008351611a6b818460208801611717565b835190830190611a7f818360208801611717565b01949350505050565b60007fffffffffffffffffffffffffffffffffffffffffffffffffffffffffffffffff8203611ab957611ab961184f565b5060010190565b7f4e487b7100000000000000000000000000000000000000000000000000000000600052601260045260246000fd5b600082611afe57611afe611ac0565b500490565b7f4e487b7100000000000000000000000000000000000000000000000000000000600052604160045260246000fd5b600082821015611b4457611b4461184f565b500390565b600082611b5857611b58611ac0565b500690565b7f4e487b7100000000000000000000000000000000000000000000000000000000600052603260045260246000fdfea164736f6c634300080f000a",
  "devdoc": {
    "version": 1,
    "kind": "dev",
    "methods": {
      "commitYield()": {
        "returns": {
          "_0": "Amount of yield at this checkpoint."
        }
      },
      "owner()": {
        "details": "Returns the address of the current owner."
      },
      "recordStakedDeposit(uint256)": {
        "params": {
          "amount": "Amount of new staked balance to record."
        }
      },
      "renounceOwnership()": {
        "details": "Leaves the contract without owner. It will not be possible to call `onlyOwner` functions anymore. Can only be called by the current owner. NOTE: Renouncing ownership will leave the contract without an owner, thereby removing any functionality that is only available to the owner."
      },
      "transferOwnership(address)": {
        "details": "Transfers ownership of the contract to a new account (`newOwner`). Can only be called by the current owner."
      },
      "unstake(uint256)": {
        "returns": {
          "_0": "Amount of funds pending in an unstaking delay",
          "_1": "Amount of funds that have been claimed.         The yield provider is expected to return         (pending = 0, claimed = non-zero) if the funds are immediately         available for withdrawal, and (pending = non-zero, claimed = 0)         if the funds are in an unstaking delay."
        }
      },
      "version()": {
        "returns": {
          "_0": "Semver contract version as a string."
        }
      }
    }
  },
  "userdoc": {
    "version": 1,
    "kind": "user",
    "methods": {
      "commitYield()": {
        "notice": "Commit the current amount of yield and checkpoint the accounting         variables."
      },
      "initialize()": {
        "notice": "initialize"
      },
      "insuranceBalance()": {
        "notice": "Gets insurance balance available for the provider's assets."
      },
      "isStakingEnabled(address)": {
        "notice": "Whether staking is enabled for the given asset."
      },
      "payInsurancePremium(uint256)": {
        "notice": "Pay insurance premium during a yield report. Must be called via         `delegatecall` from the YieldManager."
      },
      "preCommitYieldReportDelegateCallHook()": {
        "notice": "A hook that is DELEGATE-CALLed by the Yield Manager for the provider         to perform any actions before the yield report process begins."
      },
      "recordStakedDeposit(uint256)": {
        "notice": "Record a deposit to the stake balance of the provider to track the         principal balance."
      },
      "recordUnstaked(uint256,uint256,uint256)": {
        "notice": "Record a withdraw to the stake balance of the provider to track the         principal balance. This method should be called by the Yield Manager         after delegate-calling the provider's `unstake` method, which should         return the arguments to this method."
      },
      "stake(uint256)": {
        "notice": "Stake YieldManager funds using the provider's yield method/protocol.         Must be called via `delegatecall` from the YieldManager."
      },
      "stakedBalance()": {
        "notice": "Current balance of the provider's staked funds."
      },
      "supportsInsurancePayment()": {
        "notice": "Whether the provider supports yield insurance."
      },
      "totalValue()": {
        "notice": "Total value in the provider's yield method/protocol."
      },
      "unstake(uint256)": {
        "notice": "Unstake YieldManager funds from the provider's yield method/protocol.         Must be called via `delegatecall` from the YieldManager."
      },
      "version()": {
        "notice": "Returns the full semver contract version."
      },
      "withdrawFromInsurance(uint256)": {
        "notice": "Withdraw insurance funds to cover yield losses during a yield report.         Must be called via `delegatecall` from the YieldManager."
      },
      "yield()": {
        "notice": "Current amount of yield gained since the previous commit."
      }
    }
  },
  "storageLayout": {
    "storage": [
      {
        "astId": 20723,
        "contract": "contracts/mainnet-bridge/yield-providers/ETHTestnetYieldProvider.sol:ETHTestnetYieldProvider",
        "label": "stakedPrincipal",
        "offset": 0,
        "slot": "0",
        "type": "t_uint256"
      },
      {
        "astId": 20725,
        "contract": "contracts/mainnet-bridge/yield-providers/ETHTestnetYieldProvider.sol:ETHTestnetYieldProvider",
        "label": "pendingBalance",
        "offset": 0,
        "slot": "1",
        "type": "t_uint256"
      },
      {
        "astId": 28655,
        "contract": "contracts/mainnet-bridge/yield-providers/ETHTestnetYieldProvider.sol:ETHTestnetYieldProvider",
        "label": "_owner",
        "offset": 0,
        "slot": "2",
        "type": "t_address"
      }
    ],
    "types": {
      "t_address": {
        "encoding": "inplace",
        "label": "address",
        "numberOfBytes": "20"
      },
      "t_uint256": {
        "encoding": "inplace",
        "label": "uint256",
        "numberOfBytes": "32"
      }
    }
  }
}