{
  "address": "0x7ec6A6B71654800F9127bc28D9bF12fe56a38958",
  "abi": [
    {
      "type": "constructor",
      "inputs": [],
      "stateMutability": "nonpayable"
    },
    {
      "type": "receive",
      "stateMutability": "payable"
    },
    {
      "type": "function",
      "name": "MAX_INSURANCE_FEE_BIPS",
      "inputs": [],
      "outputs": [
        {
          "name": "",
          "type": "uint256",
          "internalType": "uint256"
        }
      ],
      "stateMutability": "view"
    },
    {
      "type": "function",
      "name": "TOKEN",
      "inputs": [],
      "outputs": [
        {
          "name": "",
          "type": "address",
          "internalType": "address"
        }
      ],
      "stateMutability": "view"
    },
    {
      "type": "function",
      "name": "acceptOwnership",
      "inputs": [],
      "outputs": [],
      "stateMutability": "nonpayable"
    },
    {
      "type": "function",
      "name": "accumulatedNegativeYields",
      "inputs": [],
      "outputs": [
        {
          "name": "",
          "type": "uint256",
          "internalType": "uint256"
        }
      ],
      "stateMutability": "view"
    },
    {
      "type": "function",
      "name": "addProvider",
      "inputs": [
        {
          "name": "provider",
          "type": "address",
          "internalType": "address"
        }
      ],
      "outputs": [],
      "stateMutability": "nonpayable"
    },
    {
      "type": "function",
      "name": "admin",
      "inputs": [],
      "outputs": [
        {
          "name": "",
          "type": "address",
          "internalType": "address"
        }
      ],
      "stateMutability": "view"
    },
    {
      "type": "function",
      "name": "availableBalance",
      "inputs": [],
      "outputs": [
        {
          "name": "",
          "type": "uint256",
          "internalType": "uint256"
        }
      ],
      "stateMutability": "view"
    },
    {
      "type": "function",
      "name": "patexBridge",
      "inputs": [],
      "outputs": [
        {
          "name": "",
          "type": "address",
          "internalType": "address"
        }
      ],
      "stateMutability": "view"
    },
    {
      "type": "function",
      "name": "claimWithdrawal",
      "inputs": [
        {
          "name": "_requestId",
          "type": "uint256",
          "internalType": "uint256"
        },
        {
          "name": "_hintId",
          "type": "uint256",
          "internalType": "uint256"
        }
      ],
      "outputs": [
        {
          "name": "success",
          "type": "bool",
          "internalType": "bool"
        }
      ],
      "stateMutability": "nonpayable"
    },
    {
      "type": "function",
      "name": "commitYieldReport",
      "inputs": [
        {
          "name": "enableInsurance",
          "type": "bool",
          "internalType": "bool"
        }
      ],
      "outputs": [],
      "stateMutability": "nonpayable"
    },
    {
      "type": "function",
      "name": "commitYieldReportAfterInsuranceWithdrawal",
      "inputs": [
        {
          "name": "token",
          "type": "address",
          "internalType": "address"
        },
        {
          "name": "amount",
          "type": "uint256",
          "internalType": "uint256"
        }
      ],
      "outputs": [],
      "stateMutability": "nonpayable"
    },
    {
      "type": "function",
      "name": "finalize",
      "inputs": [
        {
          "name": "requestId",
          "type": "uint256",
          "internalType": "uint256"
        }
      ],
      "outputs": [
        {
          "name": "checkpointId",
          "type": "uint256",
          "internalType": "uint256"
        }
      ],
      "stateMutability": "nonpayable"
    },
    {
      "type": "function",
      "name": "findCheckpointHint",
      "inputs": [
        {
          "name": "_requestId",
          "type": "uint256",
          "internalType": "uint256"
        },
        {
          "name": "_start",
          "type": "uint256",
          "internalType": "uint256"
        },
        {
          "name": "_end",
          "type": "uint256",
          "internalType": "uint256"
        }
      ],
      "outputs": [
        {
          "name": "",
          "type": "uint256",
          "internalType": "uint256"
        }
      ],
      "stateMutability": "view"
    },
    {
      "type": "function",
      "name": "findCheckpointHints",
      "inputs": [
        {
          "name": "_requestIds",
          "type": "uint256[]",
          "internalType": "uint256[]"
        },
        {
          "name": "_firstIndex",
          "type": "uint256",
          "internalType": "uint256"
        },
        {
          "name": "_lastIndex",
          "type": "uint256",
          "internalType": "uint256"
        }
      ],
      "outputs": [
        {
          "name": "hintIds",
          "type": "uint256[]",
          "internalType": "uint256[]"
        }
      ],
      "stateMutability": "view"
    },
    {
      "type": "function",
      "name": "getClaimableEther",
      "inputs": [
        {
          "name": "_requestIds",
          "type": "uint256[]",
          "internalType": "uint256[]"
        },
        {
          "name": "_hintIds",
          "type": "uint256[]",
          "internalType": "uint256[]"
        }
      ],
      "outputs": [
        {
          "name": "claimableEthValues",
          "type": "uint256[]",
          "internalType": "uint256[]"
        }
      ],
      "stateMutability": "view"
    },
    {
      "type": "function",
      "name": "getLastCheckpointId",
      "inputs": [],
      "outputs": [
        {
          "name": "",
          "type": "uint256",
          "internalType": "uint256"
        }
      ],
      "stateMutability": "view"
    },
    {
      "type": "function",
      "name": "getLastFinalizedRequestId",
      "inputs": [],
      "outputs": [
        {
          "name": "",
          "type": "uint256",
          "internalType": "uint256"
        }
      ],
      "stateMutability": "view"
    },
    {
      "type": "function",
      "name": "getLastRequestId",
      "inputs": [],
      "outputs": [
        {
          "name": "",
          "type": "uint256",
          "internalType": "uint256"
        }
      ],
      "stateMutability": "view"
    },
    {
      "type": "function",
      "name": "getLockedBalance",
      "inputs": [],
      "outputs": [
        {
          "name": "",
          "type": "uint256",
          "internalType": "uint256"
        }
      ],
      "stateMutability": "view"
    },
    {
      "type": "function",
      "name": "getProviderInfoAt",
      "inputs": [
        {
          "name": "idx",
          "type": "uint256",
          "internalType": "uint256"
        }
      ],
      "outputs": [
        {
          "name": "info",
          "type": "tuple",
          "internalType": "struct YieldManager.ProviderInfo",
          "components": [
            {
              "name": "id",
              "type": "bytes32",
              "internalType": "bytes32"
            },
            {
              "name": "providerAddress",
              "type": "address",
              "internalType": "address"
            },
            {
              "name": "stakedBalance",
              "type": "uint256",
              "internalType": "uint256"
            },
            {
              "name": "pendingBalance",
              "type": "uint256",
              "internalType": "uint256"
            },
            {
              "name": "stakedPrincipal",
              "type": "uint256",
              "internalType": "uint256"
            },
            {
              "name": "totalValue",
              "type": "uint256",
              "internalType": "uint256"
            },
            {
              "name": "yield",
              "type": "int256",
              "internalType": "int256"
            }
          ]
        }
      ],
      "stateMutability": "view"
    },
    {
      "type": "function",
      "name": "getWithdrawalRequests",
      "inputs": [
        {
          "name": "_owner",
          "type": "address",
          "internalType": "address"
        }
      ],
      "outputs": [
        {
          "name": "requestIds",
          "type": "uint256[]",
          "internalType": "uint256[]"
        }
      ],
      "stateMutability": "view"
    },
    {
      "type": "function",
      "name": "getWithdrawalStatus",
      "inputs": [
        {
          "name": "_requestIds",
          "type": "uint256[]",
          "internalType": "uint256[]"
        }
      ],
      "outputs": [
        {
          "name": "statuses",
          "type": "tuple[]",
          "internalType": "struct WithdrawalQueue.WithdrawalRequestStatus[]",
          "components": [
            {
              "name": "amount",
              "type": "uint256",
              "internalType": "uint256"
            },
            {
              "name": "recipient",
              "type": "address",
              "internalType": "address"
            },
            {
              "name": "timestamp",
              "type": "uint256",
              "internalType": "uint256"
            },
            {
              "name": "isFinalized",
              "type": "bool",
              "internalType": "bool"
            },
            {
              "name": "isClaimed",
              "type": "bool",
              "internalType": "bool"
            }
          ]
        }
      ],
      "stateMutability": "view"
    },
    {
      "type": "function",
      "name": "initialize",
      "inputs": [
        {
          "name": "_portal",
          "type": "address",
          "internalType": "contract PatexPortal"
        },
        {
          "name": "_owner",
          "type": "address",
          "internalType": "address"
        },
        {
          "name": "_postdeploys",
          "type": "address",
          "internalType": "contract Postdeploys"
        }
      ],
      "outputs": [],
      "stateMutability": "nonpayable"
    },
    {
      "type": "function",
      "name": "insurance",
      "inputs": [],
      "outputs": [
        {
          "name": "",
          "type": "address",
          "internalType": "address"
        }
      ],
      "stateMutability": "view"
    },
    {
      "type": "function",
      "name": "insuranceFeeBips",
      "inputs": [],
      "outputs": [
        {
          "name": "",
          "type": "uint256",
          "internalType": "uint256"
        }
      ],
      "stateMutability": "view"
    },
    {
      "type": "function",
      "name": "insuranceWithdrawalBuffer",
      "inputs": [],
      "outputs": [
        {
          "name": "",
          "type": "uint256",
          "internalType": "uint256"
        }
      ],
      "stateMutability": "view"
    },
    {
      "type": "function",
      "name": "owner",
      "inputs": [],
      "outputs": [
        {
          "name": "",
          "type": "address",
          "internalType": "address"
        }
      ],
      "stateMutability": "view"
    },
    {
      "type": "function",
      "name": "pendingOwner",
      "inputs": [],
      "outputs": [
        {
          "name": "",
          "type": "address",
          "internalType": "address"
        }
      ],
      "stateMutability": "view"
    },
    {
      "type": "function",
      "name": "portal",
      "inputs": [],
      "outputs": [
        {
          "name": "",
          "type": "address",
          "internalType": "contract PatexPortal"
        }
      ],
      "stateMutability": "view"
    },
    {
      "type": "function",
      "name": "postdeploys",
      "inputs": [],
      "outputs": [
        {
          "name": "",
          "type": "address",
          "internalType": "contract Postdeploys"
        }
      ],
      "stateMutability": "view"
    },
    {
      "type": "function",
      "name": "recordNegativeYield",
      "inputs": [
        {
          "name": "amount",
          "type": "uint256",
          "internalType": "uint256"
        }
      ],
      "outputs": [],
      "stateMutability": "nonpayable"
    },
    {
      "type": "function",
      "name": "recordStakedDeposit",
      "inputs": [
        {
          "name": "providerAddress",
          "type": "address",
          "internalType": "address"
        },
        {
          "name": "amount",
          "type": "uint256",
          "internalType": "uint256"
        }
      ],
      "outputs": [],
      "stateMutability": "nonpayable"
    },
    {
      "type": "function",
      "name": "removeProvider",
      "inputs": [
        {
          "name": "provider",
          "type": "address",
          "internalType": "address"
        }
      ],
      "outputs": [],
      "stateMutability": "nonpayable"
    },
    {
      "type": "function",
      "name": "renounceOwnership",
      "inputs": [],
      "outputs": [],
      "stateMutability": "nonpayable"
    },
    {
      "type": "function",
      "name": "requestWithdrawal",
      "inputs": [
        {
          "name": "amount",
          "type": "uint256",
          "internalType": "uint256"
        }
      ],
      "outputs": [
        {
          "name": "",
          "type": "uint256",
          "internalType": "uint256"
        }
      ],
      "stateMutability": "nonpayable"
    },
    {
      "type": "function",
      "name": "setAdmin",
      "inputs": [
        {
          "name": "_admin",
          "type": "address",
          "internalType": "address"
        }
      ],
      "outputs": [],
      "stateMutability": "nonpayable"
    },
    {
      "type": "function",
      "name": "setPatexBridge",
      "inputs": [
        {
          "name": "_patexBridge",
          "type": "address",
          "internalType": "address"
        }
      ],
      "outputs": [],
      "stateMutability": "nonpayable"
    },
    {
      "type": "function",
      "name": "setInsurance",
      "inputs": [
        {
          "name": "_insurance",
          "type": "address",
          "internalType": "address"
        },
        {
          "name": "_insuranceFeeBips",
          "type": "uint256",
          "internalType": "uint256"
        },
        {
          "name": "_withdrawalBuffer",
          "type": "uint256",
          "internalType": "uint256"
        }
      ],
      "outputs": [],
      "stateMutability": "nonpayable"
    },
    {
      "type": "function",
      "name": "sharePrice",
      "inputs": [],
      "outputs": [
        {
          "name": "",
          "type": "uint256",
          "internalType": "uint256"
        }
      ],
      "stateMutability": "view"
    },
    {
      "type": "function",
      "name": "stake",
      "inputs": [
        {
          "name": "idx",
          "type": "uint256",
          "internalType": "uint256"
        },
        {
          "name": "providerAddress",
          "type": "address",
          "internalType": "address"
        },
        {
          "name": "amount",
          "type": "uint256",
          "internalType": "uint256"
        }
      ],
      "outputs": [],
      "stateMutability": "nonpayable"
    },
    {
      "type": "function",
      "name": "tokenBalance",
      "inputs": [],
      "outputs": [
        {
          "name": "",
          "type": "uint256",
          "internalType": "uint256"
        }
      ],
      "stateMutability": "view"
    },
    {
      "type": "function",
      "name": "totalProviderValue",
      "inputs": [],
      "outputs": [
        {
          "name": "sum",
          "type": "uint256",
          "internalType": "uint256"
        }
      ],
      "stateMutability": "view"
    },
    {
      "type": "function",
      "name": "totalValue",
      "inputs": [],
      "outputs": [
        {
          "name": "",
          "type": "uint256",
          "internalType": "uint256"
        }
      ],
      "stateMutability": "view"
    },
    {
      "type": "function",
      "name": "transferOwnership",
      "inputs": [
        {
          "name": "newOwner",
          "type": "address",
          "internalType": "address"
        }
      ],
      "outputs": [],
      "stateMutability": "nonpayable"
    },
    {
      "type": "function",
      "name": "unfinalizedRequestNumber",
      "inputs": [],
      "outputs": [
        {
          "name": "",
          "type": "uint256",
          "internalType": "uint256"
        }
      ],
      "stateMutability": "view"
    },
    {
      "type": "function",
      "name": "unstake",
      "inputs": [
        {
          "name": "idx",
          "type": "uint256",
          "internalType": "uint256"
        },
        {
          "name": "providerAddress",
          "type": "address",
          "internalType": "address"
        },
        {
          "name": "amount",
          "type": "uint256",
          "internalType": "uint256"
        }
      ],
      "outputs": [],
      "stateMutability": "nonpayable"
    },
    {
      "type": "function",
      "name": "version",
      "inputs": [],
      "outputs": [
        {
          "name": "",
          "type": "string",
          "internalType": "string"
        }
      ],
      "stateMutability": "view"
    },
    {
      "type": "event",
      "name": "Initialized",
      "inputs": [
        {
          "name": "version",
          "type": "uint8",
          "indexed": false,
          "internalType": "uint8"
        }
      ],
      "anonymous": false
    },
    {
      "type": "event",
      "name": "OwnershipTransferStarted",
      "inputs": [
        {
          "name": "previousOwner",
          "type": "address",
          "indexed": true,
          "internalType": "address"
        },
        {
          "name": "newOwner",
          "type": "address",
          "indexed": true,
          "internalType": "address"
        }
      ],
      "anonymous": false
    },
    {
      "type": "event",
      "name": "OwnershipTransferred",
      "inputs": [
        {
          "name": "previousOwner",
          "type": "address",
          "indexed": true,
          "internalType": "address"
        },
        {
          "name": "newOwner",
          "type": "address",
          "indexed": true,
          "internalType": "address"
        }
      ],
      "anonymous": false
    },
    {
      "type": "event",
      "name": "WithdrawalClaimed",
      "inputs": [
        {
          "name": "requestId",
          "type": "uint256",
          "indexed": true,
          "internalType": "uint256"
        },
        {
          "name": "recipient",
          "type": "address",
          "indexed": true,
          "internalType": "address"
        },
        {
          "name": "amountOfETH",
          "type": "uint256",
          "indexed": false,
          "internalType": "uint256"
        }
      ],
      "anonymous": false
    },
    {
      "type": "event",
      "name": "WithdrawalRequested",
      "inputs": [
        {
          "name": "requestId",
          "type": "uint256",
          "indexed": true,
          "internalType": "uint256"
        },
        {
          "name": "requestor",
          "type": "address",
          "indexed": true,
          "internalType": "address"
        },
        {
          "name": "recipient",
          "type": "address",
          "indexed": true,
          "internalType": "address"
        },
        {
          "name": "amount",
          "type": "uint256",
          "indexed": false,
          "internalType": "uint256"
        }
      ],
      "anonymous": false
    },
    {
      "type": "event",
      "name": "WithdrawalsFinalized",
      "inputs": [
        {
          "name": "from",
          "type": "uint256",
          "indexed": true,
          "internalType": "uint256"
        },
        {
          "name": "to",
          "type": "uint256",
          "indexed": true,
          "internalType": "uint256"
        },
        {
          "name": "checkpointId",
          "type": "uint256",
          "indexed": true,
          "internalType": "uint256"
        },
        {
          "name": "amountOfETHLocked",
          "type": "uint256",
          "indexed": false,
          "internalType": "uint256"
        },
        {
          "name": "timestamp",
          "type": "uint256",
          "indexed": false,
          "internalType": "uint256"
        },
        {
          "name": "sharePrice",
          "type": "uint256",
          "indexed": false,
          "internalType": "uint256"
        }
      ],
      "anonymous": false
    },
    {
      "type": "event",
      "name": "YieldReport",
      "inputs": [
        {
          "name": "yield",
          "type": "int256",
          "indexed": false,
          "internalType": "int256"
        },
        {
          "name": "insurancePremiumPaid",
          "type": "uint256",
          "indexed": false,
          "internalType": "uint256"
        },
        {
          "name": "insuranceWithdrawn",
          "type": "uint256",
          "indexed": false,
          "internalType": "uint256"
        }
      ],
      "anonymous": false
    },
    {
      "type": "error",
      "name": "CallerIsNotAdmin",
      "inputs": []
    },
    {
      "type": "error",
      "name": "CallerIsNotPatexBridge",
      "inputs": []
    },
    {
      "type": "error",
      "name": "CallerIsNotPortal",
      "inputs": []
    },
    {
      "type": "error",
      "name": "CallerIsNotRecipient",
      "inputs": []
    },
    {
      "type": "error",
      "name": "FailedToInitializeProvider",
      "inputs": []
    },
    {
      "type": "error",
      "name": "InsufficientBalance",
      "inputs": []
    },
    {
      "type": "error",
      "name": "InsufficientInsuranceBalance",
      "inputs": []
    },
    {
      "type": "error",
      "name": "InvalidHint",
      "inputs": [
        {
          "name": "_hint",
          "type": "uint256",
          "internalType": "uint256"
        }
      ]
    },
    {
      "type": "error",
      "name": "InvalidRequestId",
      "inputs": [
        {
          "name": "_requestId",
          "type": "uint256",
          "internalType": "uint256"
        }
      ]
    },
    {
      "type": "error",
      "name": "InvalidRequestIdRange",
      "inputs": [
        {
          "name": "startId",
          "type": "uint256",
          "internalType": "uint256"
        },
        {
          "name": "endId",
          "type": "uint256",
          "internalType": "uint256"
        }
      ]
    },
    {
      "type": "error",
      "name": "InvalidSharePrice",
      "inputs": []
    },
    {
      "type": "error",
      "name": "NegativeYieldFromInsuredProvider",
      "inputs": []
    },
    {
      "type": "error",
      "name": "NegativeYieldIncrease",
      "inputs": []
    },
    {
      "type": "error",
      "name": "ProviderAddressDoesNotMatchIndex",
      "inputs": []
    },
    {
      "type": "error",
      "name": "ProviderNotFound",
      "inputs": []
    },
    {
      "type": "error",
      "name": "RequestAlreadyClaimed",
      "inputs": [
        {
          "name": "_requestId",
          "type": "uint256",
          "internalType": "uint256"
        }
      ]
    },
    {
      "type": "error",
      "name": "RequestIdsNotSorted",
      "inputs": []
    },
    {
      "type": "error",
      "name": "RequestNotFoundOrNotFinalized",
      "inputs": [
        {
          "name": "_requestId",
          "type": "uint256",
          "internalType": "uint256"
        }
      ]
    },
    {
      "type": "error",
      "name": "TotalValueIsZero",
      "inputs": []
    },
    {
      "type": "error",
      "name": "WithdrawalTransferFailed",
      "inputs": []
    },
    {
      "type": "error",
      "name": "YieldProviderIsNotMeantForThisManager",
      "inputs": []
    }
  ],
  "transactionHash": "0x6ef859bc7469b117cd821d216c547d74444afda4fca8f796c5303ea8a7c2d445",
  "args": [],
  "numDeployments": 1,
  "solcInputHash": "9778d091a5acf256a03d242fa5a61eb7",
  "bytecode": "0x6101006040523480156200001257600080fd5b5060006080819052600160a05260c081905260e0819052620000369080806200003c565b62000549565b600054610100900460ff16158080156200005d5750600054600160ff909116105b806200008d57506200007a306200018e60201b620029f31760201c565b1580156200008d575060005460ff166001145b620000f65760405162461bcd60e51b815260206004820152602e60248201527f496e697469616c697a61626c653a20636f6e747261637420697320616c72656160448201526d191e481a5b9a5d1a585b1a5e995960921b60648201526084015b60405180910390fd5b6000805460ff1916600117905580156200011a576000805461ff0019166101001790555b60fa80546001600160a01b0319166001600160a01b0384161790556200014184846200019d565b801562000188576000805461ff0019169055604051600181527f7f26b83ff96e1f2b6a682f133852f6798a09c465da95921460cefb38474024989060200160405180910390a15b50505050565b6001600160a01b03163b151590565b600054610100900460ff16620001f95760405162461bcd60e51b815260206004820152602b6024820152600080516020620059d483398151915260448201526a6e697469616c697a696e6760a81b6064820152608401620000ed565b620002036200023b565b6200020d620002a3565b620002188162000466565b5060d080546001600160a01b0319166001600160a01b0392909216919091179055565b600054610100900460ff16620002975760405162461bcd60e51b815260206004820152602b6024820152600080516020620059d483398151915260448201526a6e697469616c697a696e6760a81b6064820152608401620000ed565b620002a162000490565b565b600054610100900460ff16620002ff5760405162461bcd60e51b815260206004820152602b6024820152600080516020620059d483398151915260448201526a6e697469616c697a696e6760a81b6064820152608401620000ed565b604080516080810182526000808252602080830182815264ffffffffff428116858701908152600160608701818152609780548084018255908852975160029889027f354a83ed9988f79f6038d4c7a7dadbad8af32f4ad6df893e0e5807a1b1944ff9810180546001600160801b03939093166001600160801b03199093169290921790915594517f354a83ed9988f79f6038d4c7a7dadbad8af32f4ad6df893e0e5807a1b1944ffa9095018054935191511515600160c81b0260ff60c81b1992909516600160a01b026001600160c81b03199094166001600160a01b03969096169590951792909217919091169190911790915584518086019095528285529084018281526099805492830181559092529251929091027f72a152ddfb8e864297c917af52ea6c1c68aead0fee1a62673fcc7e0c94979d00810192909255517f72a152ddfb8e864297c917af52ea6c1c68aead0fee1a62673fcc7e0c94979d0190910155565b606580546001600160a01b03191690556200048d81620004f7602090811b62002a0f17901c565b50565b600054610100900460ff16620004ec5760405162461bcd60e51b815260206004820152602b6024820152600080516020620059d483398151915260448201526a6e697469616c697a696e6760a81b6064820152608401620000ed565b620002a13362000466565b603380546001600160a01b038381166001600160a01b0319831681179093556040519116919082907f8be0079c531659141344cd1fd0a4f28419497f9722a3daafe3b4186f6b6457e090600090a35050565b60805160a05160c05160e05161544362000591600039600061143c01526000611413015260006113ea0152600081816106380152818161281e015261288601526154436000f3fe60806040526004361061030c5760003560e01c80638a355a571161019a578063cfb39914116100e1578063f0c8c0dd1161008a578063f2fde38b11610064578063f2fde38b14610924578063f851a44014610944578063fe1e7d711461097157600080fd5b8063f0c8c0dd146108bf578063f19d06f0146108df578063f21340e4146108f457600080fd5b8063d6ce7910116100bb578063d6ce791014610854578063e30c397814610874578063e7518fb61461089f57600080fd5b8063cfb39914146107fc578063d11b1ae014610829578063d4c3eea01461083f57600080fd5b8063b1d3c61e11610143578063c0c53b8b1161011d578063c0c53b8b146107a7578063c2fc7aff146107c7578063c97912d8146107dc57600080fd5b8063b1d3c61e1461074f578063b8c4b85a14610765578063bfdbfe831461079257600080fd5b80639e1a4d19116101745780639e1a4d19146107075780639ee679e81461071a578063ab2f0e511461073a57600080fd5b80638a355a571461069c5780638da5cb5b146106bc578063959598c4146106e757600080fd5b806362abe3fa1161025e57806371ea21c21161020757806382bfefc8116101e157806382bfefc814610626578063872697291461065a57806389cf32041461066f57600080fd5b806371ea21c2146105c457806379ba5097146105f15780637d031b651461060657600080fd5b80636f3ed5e3116102385780636f3ed5e31461056f578063704b6c021461058f578063715018a6146105af57600080fd5b806362abe3fa146104d05780636425666b146104fd5780636e9c931c1461054f57600080fd5b80632844be5f116102c057806351787ffa1161029a57806351787ffa1461040257806351a7c7161461048e57806354fd4d50146104ae57600080fd5b80632844be5f146103ad57806346e2577a146103cd5780634f069a13146103ed57600080fd5b806319c2b4c3116102f157806319c2b4c3146103615780631b14ace8146103765780632549e0b11461039857600080fd5b806305261aea146103185780630eb5238c1461034b57600080fd5b3661031357005b600080fd5b34801561032457600080fd5b50610338610333366004614ad6565b610987565b6040519081526020015b60405180910390f35b34801561035757600080fd5b5061033860cf5481565b34801561036d57600080fd5b50609a54610338565b34801561038257600080fd5b50610396610391366004614b11565b610a27565b005b3480156103a457600080fd5b50609d54610338565b3480156103b957600080fd5b506103386103c8366004614b3d565b610b34565b3480156103d957600080fd5b506103966103e8366004614b69565b610d45565b3480156103f957600080fd5b50609b54610338565b34801561040e57600080fd5b5061042261041d366004614ad6565b610f24565b6040516103429190600060e0820190508251825273ffffffffffffffffffffffffffffffffffffffff602084015116602083015260408301516040830152606083015160608301526080830151608083015260a083015160a083015260c083015160c083015292915050565b34801561049a57600080fd5b506103966104a9366004614b86565b61127c565b3480156104ba57600080fd5b506104c36113e3565b6040516103429190614c34565b3480156104dc57600080fd5b506104f06104eb366004614c8c565b611486565b6040516103429190614cdd565b34801561050957600080fd5b5060d05461052a9073ffffffffffffffffffffffffffffffffffffffff1681565b60405173ffffffffffffffffffffffffffffffffffffffff9091168152602001610342565b34801561055b57600080fd5b5061039661056a366004614b86565b6115be565b34801561057b57600080fd5b5061039661058a366004614d21565b61170d565b34801561059b57600080fd5b506103966105aa366004614b69565b611792565b3480156105bb57600080fd5b50610396611801565b3480156105d057600080fd5b5060cc5461052a9073ffffffffffffffffffffffffffffffffffffffff1681565b3480156105fd57600080fd5b50610396611815565b34801561061257600080fd5b506104f0610621366004614b69565b6118ca565b34801561063257600080fd5b5061052a7f000000000000000000000000000000000000000000000000000000000000000081565b34801561066657600080fd5b50610338611901565b34801561067b57600080fd5b5060cb5461052a9073ffffffffffffffffffffffffffffffffffffffff1681565b3480156106a857600080fd5b506103966106b7366004614b69565b61197b565b3480156106c857600080fd5b5060335473ffffffffffffffffffffffffffffffffffffffff1661052a565b3480156106f357600080fd5b50610396610702366004614b11565b61198e565b34801561071357600080fd5b5047610338565b34801561072657600080fd5b50610338610735366004614ad6565b611aa4565b34801561074657600080fd5b50610338611b1b565b34801561075b57600080fd5b5061033860cd5481565b34801561077157600080fd5b50610785610780366004614d56565b611b35565b6040516103429190614d98565b34801561079e57600080fd5b50610338611c2b565b3480156107b357600080fd5b506103966107c2366004614e20565b611ce1565b3480156107d357600080fd5b50610338611eb8565b3480156107e857600080fd5b506104f06107f7366004614e6b565b611eca565b34801561080857600080fd5b5060fa5461052a9073ffffffffffffffffffffffffffffffffffffffff1681565b34801561083557600080fd5b5061033860ce5481565b34801561084b57600080fd5b50610338611f8c565b34801561086057600080fd5b5061039661086f366004614ad6565b611fa8565b34801561088057600080fd5b5060655473ffffffffffffffffffffffffffffffffffffffff1661052a565b3480156108ab57600080fd5b506103966108ba366004614ee5565b61202b565b3480156108cb57600080fd5b506103966108da366004614b69565b612602565b3480156108eb57600080fd5b50609c54610338565b34801561090057600080fd5b5061091461090f366004614f02565b612671565b6040519015158152602001610342565b34801561093057600080fd5b5061039661093f366004614b69565b612943565b34801561095057600080fd5b5060ca5461052a9073ffffffffffffffffffffffffffffffffffffffff1681565b34801561097d57600080fd5b5061033861271081565b60ca5460009073ffffffffffffffffffffffffffffffffffffffff1633146109db576040517f8dfa73db00000000000000000000000000000000000000000000000000000000815260040160405180910390fd5b6000806109f7846109ea611b1b565b6109f2611901565b612a86565b9450909250905080821115610a205760cd54610a1c90610a178385614f53565b612dd3565b60cd555b5050919050565b60ca5473ffffffffffffffffffffffffffffffffffffffff163314610a78576040517f8dfa73db00000000000000000000000000000000000000000000000000000000815260040160405180910390fd5b60cb5473ffffffffffffffffffffffffffffffffffffffff16610a9a57600080fd5b60cb546040517fd1fa5e9800000000000000000000000000000000000000000000000000000000815273ffffffffffffffffffffffffffffffffffffffff8481166004830152602482018490529091169063d1fa5e9890604401600060405180830381600087803b158015610b0e57600080fd5b505af1158015610b22573d6000803e3d6000fd5b50505050610b30600161202b565b5050565b6000831580610b445750609a5484115b15610b83576040517fc969e0f2000000000000000000000000000000000000000000000000000000008152600481018590526024015b60405180910390fd5b609c54831580610b9257508083115b15610bd3576040517f718942570000000000000000000000000000000000000000000000000000000081526004810185905260248101849052604401610b7a565b801580610be15750609b5485115b80610beb57508284115b15610bfa576000915050610d3e565b60998381548110610c0d57610c0d614f6a565b9060005260206000209060020201600001548510610c7e57808303610c355782915050610d3e565b6099610c42846001614f99565b81548110610c5257610c52614f6a565b906000526020600020906002020160000154851015610c745782915050610d3e565b6000915050610d3e565b60998481548110610c9157610c91614f6a565b906000526020600020906002020160000154851015610cb4576000915050610d3e565b836000610cc2600186614f53565b90505b81811115610d395760006002610cdb8484614f99565b610ce6906001614f99565b610cf09190614fe0565b90508760998281548110610d0657610d06614f6a565b90600052602060002090600202016000015411610d2557809250610d33565b610d30600182614f53565b91505b50610cc5565b509150505b9392505050565b610d4d612de9565b3073ffffffffffffffffffffffffffffffffffffffff168173ffffffffffffffffffffffffffffffffffffffff1663219ebb9c6040518163ffffffff1660e01b8152600401602060405180830381865afa158015610daf573d6000803e3d6000fd5b505050506040513d601f19601f82011682018060405250810190610dd39190614ff4565b73ffffffffffffffffffffffffffffffffffffffff1614610e20576040517f8d8eed3b00000000000000000000000000000000000000000000000000000000815260040160405180910390fd5b610e2b60c882612e6a565b5060408051600481526024810182526020810180517bffffffffffffffffffffffffffffffffffffffffffffffffffffffff167f8129fc1c00000000000000000000000000000000000000000000000000000000179052905160009173ffffffffffffffffffffffffffffffffffffffff841691610ea99190615011565b600060405180830381855af49150503d8060008114610ee4576040519150601f19603f3d011682016040523d82523d6000602084013e610ee9565b606091505b5050905080610b30576040517f3ed9126c00000000000000000000000000000000000000000000000000000000815260040160405180910390fd5b610f7d6040518060e0016040528060008019168152602001600073ffffffffffffffffffffffffffffffffffffffff16815260200160008152602001600081526020016000815260200160008152602001600081525090565b6000610f8a60c884612e8c565b90508073ffffffffffffffffffffffffffffffffffffffff1663af640d0f6040518163ffffffff1660e01b8152600401602060405180830381865afa158015610fd7573d6000803e3d6000fd5b505050506040513d601f19601f82011682018060405250810190610ffb919061502d565b825273ffffffffffffffffffffffffffffffffffffffff81166020808401829052604080517f5b9f00160000000000000000000000000000000000000000000000000000000081529051635b9f0016926004808401939192918290030181865afa15801561106d573d6000803e3d6000fd5b505050506040513d601f19601f82011682018060405250810190611091919061502d565b8260400181815250508073ffffffffffffffffffffffffffffffffffffffff166357b4d18e6040518163ffffffff1660e01b8152600401602060405180830381865afa1580156110e5573d6000803e3d6000fd5b505050506040513d601f19601f82011682018060405250810190611109919061502d565b8260600181815250508073ffffffffffffffffffffffffffffffffffffffff166385254adf6040518163ffffffff1660e01b8152600401602060405180830381865afa15801561115d573d6000803e3d6000fd5b505050506040513d601f19601f82011682018060405250810190611181919061502d565b8260800181815250508073ffffffffffffffffffffffffffffffffffffffff1663d4c3eea06040518163ffffffff1660e01b8152600401602060405180830381865afa1580156111d5573d6000803e3d6000fd5b505050506040513d601f19601f820116820180604052508101906111f9919061502d565b8260a00181815250508073ffffffffffffffffffffffffffffffffffffffff1663285939846040518163ffffffff1660e01b8152600401602060405180830381865afa15801561124d573d6000803e3d6000fd5b505050506040513d601f19601f82011682018060405250810190611271919061502d565b60c083015250919050565b60ca5473ffffffffffffffffffffffffffffffffffffffff1633146112cd576040517f8dfa73db00000000000000000000000000000000000000000000000000000000815260040160405180910390fd5b73ffffffffffffffffffffffffffffffffffffffff82166112ef60c885612e8c565b73ffffffffffffffffffffffffffffffffffffffff161461133c576040517f8f700e7900000000000000000000000000000000000000000000000000000000815260040160405180910390fd5b6000806113498484612e98565b6040517fecc7f642000000000000000000000000000000000000000000000000000000008152600481018390526024810182905260448101869052919350915073ffffffffffffffffffffffffffffffffffffffff85169063ecc7f64290606401600060405180830381600087803b1580156113c457600080fd5b505af11580156113d8573d6000803e3d6000fd5b505050505050505050565b606061140e7f0000000000000000000000000000000000000000000000000000000000000000613017565b6114377f0000000000000000000000000000000000000000000000000000000000000000613017565b6114607f0000000000000000000000000000000000000000000000000000000000000000613017565b60405160200161147293929190615046565b604051602081830303815290604052905090565b60608367ffffffffffffffff8111156114a1576114a16150bc565b6040519080825280602002602001820160405280156114ca578160200160208202803683370190505b5090506000805b858110156115b457818787838181106114ec576114ec614f6a565b90506020020135101561152b576040517f374e8bd100000000000000000000000000000000000000000000000000000000815260040160405180910390fd5b61154e87878381811061154057611540614f6a565b905060200201358686610b34565b83828151811061156057611560614f6a565b60200260200101818152505082818151811061157e5761157e614f6a565b6020026020010151945086868281811061159a5761159a614f6a565b905060200201359150806115ad906150eb565b90506114d1565b5050949350505050565b60ca5473ffffffffffffffffffffffffffffffffffffffff16331461160f576040517f8dfa73db00000000000000000000000000000000000000000000000000000000815260040160405180910390fd5b73ffffffffffffffffffffffffffffffffffffffff821661163160c885612e8c565b73ffffffffffffffffffffffffffffffffffffffff161461167e576040517f8f700e7900000000000000000000000000000000000000000000000000000000815260040160405180910390fd5b6116888282613154565b6040517fbbaff1e20000000000000000000000000000000000000000000000000000000081526004810182905273ffffffffffffffffffffffffffffffffffffffff83169063bbaff1e290602401600060405180830381600087803b1580156116f057600080fd5b505af1158015611704573d6000803e3d6000fd5b50505050505050565b611715612de9565b73ffffffffffffffffffffffffffffffffffffffff831661173557600080fd5b61271082111561174457600080fd5b60cb80547fffffffffffffffffffffffff00000000000000000000000000000000000000001673ffffffffffffffffffffffffffffffffffffffff949094169390931790925560ce5560cf55565b61179a612de9565b73ffffffffffffffffffffffffffffffffffffffff81166117ba57600080fd5b60ca80547fffffffffffffffffffffffff00000000000000000000000000000000000000001673ffffffffffffffffffffffffffffffffffffffff92909216919091179055565b611809612de9565b61181360006132b1565b565b606554339073ffffffffffffffffffffffffffffffffffffffff1681146118be576040517f08c379a000000000000000000000000000000000000000000000000000000000815260206004820152602960248201527f4f776e61626c6532537465703a2063616c6c6572206973206e6f74207468652060448201527f6e6577206f776e657200000000000000000000000000000000000000000000006064820152608401610b7a565b6118c7816132b1565b50565b73ffffffffffffffffffffffffffffffffffffffff811660009081526098602052604090206060906118fb906132e2565b92915050565b60008061190c611f8c565b905080600003611948576040517fcbfbb1fc00000000000000000000000000000000000000000000000000000000815260040160405180910390fd5b60cd546119559082614f99565b61196b6b033b2e3c9fd0803ce800000083615123565b6119759190614fe0565b91505090565b611983612de9565b610b3060c8826132ef565b60cc5473ffffffffffffffffffffffffffffffffffffffff1633146119df576040517faebf5e8200000000000000000000000000000000000000000000000000000000815260040160405180910390fd5b6119ea60c883613311565b611a20576040517fb1cd090300000000000000000000000000000000000000000000000000000000815260040160405180910390fd5b6040517fbbaff1e20000000000000000000000000000000000000000000000000000000081526004810182905273ffffffffffffffffffffffffffffffffffffffff83169063bbaff1e290602401600060405180830381600087803b158015611a8857600080fd5b505af1158015611a9c573d6000803e3d6000fd5b505050505050565b60d05460009073ffffffffffffffffffffffffffffffffffffffff163314611af8576040517f5c5536bd00000000000000000000000000000000000000000000000000000000815260040160405180910390fd5b60d0546118fb9073ffffffffffffffffffffffffffffffffffffffff1683613340565b6000611b26609d5490565b611b309047614f53565b905090565b60608167ffffffffffffffff811115611b5057611b506150bc565b604051908082528060200260200182016040528015611bc757816020015b6040805160a0810182526000808252602080830182905292820181905260608201819052608082015282527fffffffffffffffffffffffffffffffffffffffffffffffffffffffffffffffff909201910181611b6e5790505b50905060005b82811015611c2457611bf6848483818110611bea57611bea614f6a565b9050602002013561362a565b828281518110611c0857611c08614f6a565b602002602001018190525080611c1d906150eb565b9050611bcd565b5092915050565b600080611c3860c861389c565b905060005b81811015611cdc57611c5060c882612e8c565b73ffffffffffffffffffffffffffffffffffffffff1663d4c3eea06040518163ffffffff1660e01b8152600401602060405180830381865afa158015611c9a573d6000803e3d6000fd5b505050506040513d601f19601f82011682018060405250810190611cbe919061502d565b611cc89084614f99565b925080611cd4816150eb565b915050611c3d565b505090565b600054610100900460ff1615808015611d015750600054600160ff909116105b80611d1b5750303b158015611d1b575060005460ff166001145b611da7576040517f08c379a000000000000000000000000000000000000000000000000000000000815260206004820152602e60248201527f496e697469616c697a61626c653a20636f6e747261637420697320616c72656160448201527f647920696e697469616c697a65640000000000000000000000000000000000006064820152608401610b7a565b600080547fffffffffffffffffffffffffffffffffffffffffffffffffffffffffffffff001660011790558015611e0557600080547fffffffffffffffffffffffffffffffffffffffffffffffffffffffffffff00ff166101001790555b60fa80547fffffffffffffffffffffffff00000000000000000000000000000000000000001673ffffffffffffffffffffffffffffffffffffffff8416179055611e4f84846138a6565b8015611eb257600080547fffffffffffffffffffffffffffffffffffffffffffffffffffffffffffff00ff169055604051600181527f7f26b83ff96e1f2b6a682f133852f6798a09c465da95921460cefb38474024989060200160405180910390a15b50505050565b6000609b54609a54611b309190614f53565b60608367ffffffffffffffff811115611ee557611ee56150bc565b604051908082528060200260200182016040528015611f0e578160200160208202803683370190505b50905060005b84811015611f8357611f56868683818110611f3157611f31614f6a565b90506020020135858584818110611f4a57611f4a614f6a565b9050602002013561399e565b828281518110611f6857611f68614f6a565b6020908102919091010152611f7c816150eb565b9050611f14565b50949350505050565b6000611f96611c2b565b611f9e611b1b565b611b309190614f99565b333014612011576040517f08c379a000000000000000000000000000000000000000000000000000000000815260206004820152601b60248201527f43616c6c6572206973206e6f74207468697320636f6e747261637400000000006044820152606401610b7a565b8060cd60008282546120239190614f99565b909155505050565b60ca5473ffffffffffffffffffffffffffffffffffffffff16331461207c576040517f8dfa73db00000000000000000000000000000000000000000000000000000000815260040160405180910390fd5b600061208860c861389c565b60cd5490915060008080805b858110156124a4576120af6120aa60c883612e8c565b613a4a565b60006120bc60c883612e8c565b73ffffffffffffffffffffffffffffffffffffffff1663285939846040518163ffffffff1660e01b8152600401602060405180830381865afa158015612106573d6000803e3d6000fd5b505050506040513d601f19601f8201168201806040525081019061212a919061502d565b905060008880156121af575061214160c884612e8c565b73ffffffffffffffffffffffffffffffffffffffff16634bfb431f6040518163ffffffff1660e01b8152600401602060405180830381865afa15801561218b573d6000803e3d6000fd5b505050506040513d601f19601f820116820180604052508101906121af9190615160565b80156121d2575060cb5473ffffffffffffffffffffffffffffffffffffffff1615155b1561231f5760008213156122225761271060ce54836121f19190615123565b6121fb9190614fe0565b905061221161220b60c885612e8c565b82613b72565b61221b8187614f99565b955061231f565b600082121561231f57600060cf5461223984613c1f565b6122439190614f99565b9050600061225260c886612e8c565b73ffffffffffffffffffffffffffffffffffffffff16630577d6d56040518163ffffffff1660e01b8152600401602060405180830381865afa15801561229c573d6000803e3d6000fd5b505050506040513d601f19601f820116820180604052508101906122c0919061502d565b9050818110156122fc576040517f3eb0171300000000000000000000000000000000000000000000000000000000815260040160405180910390fd5b61231061230a60c887612e8c565b83613c36565b61231a8288614f99565b965050505b600061232c60c885612e8c565b73ffffffffffffffffffffffffffffffffffffffff1663f304f5e56040518163ffffffff1660e01b81526004016020604051808303816000875af1158015612378573d6000803e3d6000fd5b505050506040513d601f19601f8201168201806040525081019061239c919061502d565b905089801561241f57506123b160c885612e8c565b73ffffffffffffffffffffffffffffffffffffffff16634bfb431f6040518163ffffffff1660e01b8152600401602060405180830381865afa1580156123fb573d6000803e3d6000fd5b505050506040513d601f19601f8201168201806040525081019061241f9190615160565b8015612442575060cb5473ffffffffffffffffffffffffffffffffffffffff1615155b15612482576000811215612482576040517fef0175db00000000000000000000000000000000000000000000000000000000815260040160405180910390fd5b61248c818661517d565b9450505050808061249c906150eb565b915050612094565b5060cd54156124c5576124b860cd54613ce3565b6124c290826151f1565b90505b60408051828152602081018590529081018390527ede4b58e7863b1e3dce7259a138136239427388d53e4844f369cdee7a81dbf59060600160405180910390a1600081121561254057612538817fffffffffffffffffffffffffffffffffffffffffffffffffffffffffffffffff615265565b60cd556125bd565b600060cd8190558113156125bd576040805160248082018490528251808303909101815260449091019091526020810180517bffffffffffffffffffffffffffffffffffffffffffffffffffffffff167f5b9af12b000000000000000000000000000000000000000000000000000000001790526125bd90613d95565b8580156125cb57508360cd54115b15611a9c576040517fa51b86e200000000000000000000000000000000000000000000000000000000815260040160405180910390fd5b61260a612de9565b73ffffffffffffffffffffffffffffffffffffffff811661262a57600080fd5b60cc80547fffffffffffffffffffffffff00000000000000000000000000000000000000001673ffffffffffffffffffffffffffffffffffffffff92909216919091179055565b6000826000036126b0576040517fc969e0f200000000000000000000000000000000000000000000000000000000815260048101849052602401610b7a565b609b548311156126ef576040517f4ae5022800000000000000000000000000000000000000000000000000000000815260048101849052602401610b7a565b60006097848154811061270457612704614f6a565b906000526020600020906002020190508060010160199054906101000a900460ff1615612760576040517ff0e0cc2d00000000000000000000000000000000000000000000000000000000815260048101859052602401610b7a565b6001810180547fffffffffffff00ffffffffffffffffffffffffffffffffffffffffffffffffff81167901000000000000000000000000000000000000000000000000001790915573ffffffffffffffffffffffffffffffffffffffff163381146127f7576040517ff406fde900000000000000000000000000000000000000000000000000000000815260040160405180910390fd5b60006128038686613e91565b905080609d60008282546128179190614f53565b90915550507f000000000000000000000000000000000000000000000000000000000000000073ffffffffffffffffffffffffffffffffffffffff1661286c5761286582620186a0836140ed565b93506128b2565b6128ad73ffffffffffffffffffffffffffffffffffffffff7f0000000000000000000000000000000000000000000000000000000000000000168383614103565b600193505b836128e9576040517f990586a200000000000000000000000000000000000000000000000000000000815260040160405180910390fd5b8173ffffffffffffffffffffffffffffffffffffffff16867f8adb7a84b2998a8d11cd9284395f95d5a99f160be785ae79998c654979bd3d9a8360405161293291815260200190565b60405180910390a350505092915050565b61294b612de9565b6065805473ffffffffffffffffffffffffffffffffffffffff83167fffffffffffffffffffffffff000000000000000000000000000000000000000090911681179091556129ae60335473ffffffffffffffffffffffffffffffffffffffff1690565b73ffffffffffffffffffffffffffffffffffffffff167f38d16b8cac22d99fc7c124b9cd0de2d3fa1faef420bfe791d8c362d765e2270060405160405180910390a350565b73ffffffffffffffffffffffffffffffffffffffff163b151590565b6033805473ffffffffffffffffffffffffffffffffffffffff8381167fffffffffffffffffffffffff0000000000000000000000000000000000000000831681179093556040519116919082907f8be0079c531659141344cd1fd0a4f28419497f9722a3daafe3b4186f6b6457e090600090a35050565b60008060006b033b2e3c9fd0803ce8000000841115612ad1576040517fe5dd50c300000000000000000000000000000000000000000000000000000000815260040160405180910390fd5b8515612dca57609a54861115612b16576040517fc969e0f200000000000000000000000000000000000000000000000000000000815260048101879052602401610b7a565b609b54808711612b55576040517fc969e0f200000000000000000000000000000000000000000000000000000000815260048101889052602401610b7a565b600060978281548110612b6a57612b6a614f6a565b6000918252602080832060408051608081018252600290940290910180546fffffffffffffffffffffffffffffffff1684526001015473ffffffffffffffffffffffffffffffffffffffff81169284019290925264ffffffffff740100000000000000000000000000000000000000008304169083015260ff790100000000000000000000000000000000000000000000000000909104161515606082015260978054919350908a908110612c2157612c21614f6a565b60009182526020918290206040805160808101825260029390930290910180546fffffffffffffffffffffffffffffffff1680845260019091015473ffffffffffffffffffffffffffffffffffffffff81169484019490945274010000000000000000000000000000000000000000840464ffffffffff169183019190915279010000000000000000000000000000000000000000000000000090920460ff16151560608201528351909250612cd691615321565b6fffffffffffffffffffffffffffffffff1695506b033b2e3c9fd0803ce8000000612d018888615123565b612d0b9190614fe0565b945087851115612d47576040517ff4d678b800000000000000000000000000000000000000000000000000000000815260040160405180910390fd5b6000612d54846001614f99565b905085609d6000828254612d689190614f99565b9091555050609b8a9055612d7c8189614190565b604080518881524260208201529081018a905290955085908b9083907f59382740d48c89a44d8866c8e7071aa24351a82e5f38e4674ab82aa8a18119bc9060600160405180910390a4505050505b93509350939050565b6000818311612de3576000610d3e565b50900390565b60335473ffffffffffffffffffffffffffffffffffffffff163314611813576040517f08c379a000000000000000000000000000000000000000000000000000000000815260206004820181905260248201527f4f776e61626c653a2063616c6c6572206973206e6f7420746865206f776e65726044820152606401610b7a565b6000610d3e8373ffffffffffffffffffffffffffffffffffffffff841661422d565b6000610d3e838361427c565b6000806000808573ffffffffffffffffffffffffffffffffffffffff1685604051602401612ec891815260200190565b604080517fffffffffffffffffffffffffffffffffffffffffffffffffffffffffffffffe08184030181529181526020820180517bffffffffffffffffffffffffffffffffffffffffffffffffffffffff167f2e17de780000000000000000000000000000000000000000000000000000000017905251612f499190615011565b600060405180830381855af49150503d8060008114612f84576040519150601f19603f3d011682016040523d82523d6000602084013e612f89565b606091505b509150915081612ff5576040517f08c379a000000000000000000000000000000000000000000000000000000000815260206004820152601360248201527f64656c656761746563616c6c206661696c6564000000000000000000000000006044820152606401610b7a565b808060200190518101906130099190615352565b9350935050505b9250929050565b60608160000361305a57505060408051808201909152600181527f3000000000000000000000000000000000000000000000000000000000000000602082015290565b8160005b8115613084578061306e816150eb565b915061307d9050600a83614fe0565b915061305e565b60008167ffffffffffffffff81111561309f5761309f6150bc565b6040519080825280601f01601f1916602001820160405280156130c9576020820181803683370190505b5090505b841561314c576130de600183614f53565b91506130eb600a86615376565b6130f6906030614f99565b60f81b81838151811061310b5761310b614f6a565b60200101907effffffffffffffffffffffffffffffffffffffffffffffffffffffffffffff1916908160001a905350613145600a86614fe0565b94506130cd565b949350505050565b60008273ffffffffffffffffffffffffffffffffffffffff168260405160240161318091815260200190565b604080517fffffffffffffffffffffffffffffffffffffffffffffffffffffffffffffffe08184030181529181526020820180517bffffffffffffffffffffffffffffffffffffffffffffffffffffffff167fa694fc3a00000000000000000000000000000000000000000000000000000000179052516132019190615011565b600060405180830381855af49150503d806000811461323c576040519150601f19603f3d011682016040523d82523d6000602084013e613241565b606091505b50509050806132ac576040517f08c379a000000000000000000000000000000000000000000000000000000000815260206004820152601360248201527f64656c656761746563616c6c206661696c6564000000000000000000000000006044820152606401610b7a565b505050565b606580547fffffffffffffffffffffffff00000000000000000000000000000000000000001690556118c781612a0f565b60606000610d3e836142a6565b6000610d3e8373ffffffffffffffffffffffffffffffffffffffff8416614302565b73ffffffffffffffffffffffffffffffffffffffff811660009081526001830160205260408120541515610d3e565b600080609a54905060006097828154811061335d5761335d614f6a565b6000918252602080832060408051608081018252600290940290910180546fffffffffffffffffffffffffffffffff1684526001015473ffffffffffffffffffffffffffffffffffffffff81169284019290925264ffffffffff740100000000000000000000000000000000000000008304169083015260ff79010000000000000000000000000000000000000000000000000090910416151560608201529150613407856143f5565b8251613413919061538a565b9050613420836001614f99565b609a819055604080516080810182526fffffffffffffffffffffffffffffffff808516825273ffffffffffffffffffffffffffffffffffffffff808b16602080850182815264ffffffffff428116878901908152600060608901818152609780546001810182559083528a5160029091027f354a83ed9988f79f6038d4c7a7dadbad8af32f4ad6df893e0e5807a1b1944ff98101805492909b167fffffffffffffffffffffffffffffffff000000000000000000000000000000009092169190911790995593517f354a83ed9988f79f6038d4c7a7dadbad8af32f4ad6df893e0e5807a1b1944ffa9098018054925194511515790100000000000000000000000000000000000000000000000000027fffffffffffff00ffffffffffffffffffffffffffffffffffffffffffffffffff9590941674010000000000000000000000000000000000000000027fffffffffffffff00000000000000000000000000000000000000000000000000909316989097169790971717919091161790925582526098905291909120919550906135b89086614497565b508673ffffffffffffffffffffffffffffffffffffffff163373ffffffffffffffffffffffffffffffffffffffff16867eae2c76ca218353c7995e13a4af773a35837cb6ebb8288092d8190bcd9c8f688960405161361891815260200190565b60405180910390a45050505092915050565b6040805160a0810182526000808252602082018190529181018290526060810182905260808101919091528115806136635750609a5482115b1561369d576040517fc969e0f200000000000000000000000000000000000000000000000000000000815260048101839052602401610b7a565b6000609783815481106136b2576136b2614f6a565b600091825260208083206040805160808101825260029490940290910180546fffffffffffffffffffffffffffffffff16845260019081015473ffffffffffffffffffffffffffffffffffffffff81169385019390935274010000000000000000000000000000000000000000830464ffffffffff169184019190915279010000000000000000000000000000000000000000000000000090910460ff16151560608301529092506097906137679086614f53565b8154811061377757613777614f6a565b60009182526020918290206040805160808101825260029390930290910180546fffffffffffffffffffffffffffffffff1683526001015473ffffffffffffffffffffffffffffffffffffffff81169383019390935274010000000000000000000000000000000000000000830464ffffffffff168282015279010000000000000000000000000000000000000000000000000090920460ff1615156060820152815160a081019092528051845191935082916138349190615321565b6fffffffffffffffffffffffffffffffff168152602001836020015173ffffffffffffffffffffffffffffffffffffffff168152602001836040015164ffffffffff168152602001609b54861115151581526020018360600151151581525092505050919050565b60006118fb825490565b600054610100900460ff1661393d576040517f08c379a000000000000000000000000000000000000000000000000000000000815260206004820152602b60248201527f496e697469616c697a61626c653a20636f6e7472616374206973206e6f74206960448201527f6e697469616c697a696e670000000000000000000000000000000000000000006064820152608401610b7a565b6139456144a3565b61394d614542565b613956816132b1565b5060d080547fffffffffffffffffffffffff00000000000000000000000000000000000000001673ffffffffffffffffffffffffffffffffffffffff92909216919091179055565b60008215806139ae5750609a5483115b156139e8576040517fc969e0f200000000000000000000000000000000000000000000000000000000815260048101849052602401610b7a565b609b548311156139fa575060006118fb565b600060978481548110613a0f57613a0f614f6a565b906000526020600020906002020190508060010160199054906101000a900460ff1615613a405760009150506118fb565b61314c8484613e91565b60408051600481526024810182526020810180517bffffffffffffffffffffffffffffffffffffffffffffffffffffffff167f47bc483800000000000000000000000000000000000000000000000000000000179052905160009173ffffffffffffffffffffffffffffffffffffffff841691613ac79190615011565b600060405180830381855af49150503d8060008114613b02576040519150601f19603f3d011682016040523d82523d6000602084013e613b07565b606091505b5050905080610b30576040517f08c379a000000000000000000000000000000000000000000000000000000000815260206004820152601360248201527f64656c656761746563616c6c206661696c6564000000000000000000000000006044820152606401610b7a565b60008273ffffffffffffffffffffffffffffffffffffffff1682604051602401613b9e91815260200190565b604080517fffffffffffffffffffffffffffffffffffffffffffffffffffffffffffffffe08184030181529181526020820180517bffffffffffffffffffffffffffffffffffffffffffffffffffffffff167f66785d9300000000000000000000000000000000000000000000000000000000179052516132019190615011565b600080821215613c3257816000036118fb565b5090565b60008273ffffffffffffffffffffffffffffffffffffffff1682604051602401613c6291815260200190565b604080517fffffffffffffffffffffffffffffffffffffffffffffffffffffffffffffffe08184030181529181526020820180517bffffffffffffffffffffffffffffffffffffffffffffffffffffffff167f9b75759400000000000000000000000000000000000000000000000000000000179052516132019190615011565b60007f7fffffffffffffffffffffffffffffffffffffffffffffffffffffffffffffff821115613c32576040517f08c379a000000000000000000000000000000000000000000000000000000000815260206004820152602860248201527f53616665436173743a2076616c756520646f65736e27742066697420696e206160448201527f6e20696e743235360000000000000000000000000000000000000000000000006064820152608401610b7a565b60d05460fa54604080517fc1254a55000000000000000000000000000000000000000000000000000000008152905173ffffffffffffffffffffffffffffffffffffffff9384169363e9e05c4293169163c1254a559160048083019260209291908290030181865afa158015613e0f573d6000803e3d6000fd5b505050506040513d601f19601f82011682018060405250810190613e339190614ff4565b600062030d406000866040518663ffffffff1660e01b8152600401613e5c9594939291906153be565b600060405180830381600087803b158015613e7657600080fd5b505af1158015613e8a573d6000803e3d6000fd5b5050505050565b600081600003613ed0576040517fcee778e200000000000000000000000000000000000000000000000000000000815260048101839052602401610b7a565b609c5480831115613f10576040517fcee778e200000000000000000000000000000000000000000000000000000000815260048101849052602401610b7a565b600060998481548110613f2557613f25614f6a565b90600052602060002090600202016040518060400160405290816000820154815260200160018201548152505090508060000151851015613f95576040517fcee778e200000000000000000000000000000000000000000000000000000000815260048101859052602401610b7a565b8184101561402d5760006099613fac866001614f99565b81548110613fbc57613fbc614f6a565b90600052602060002090600202016040518060400160405290816000820154815260200160018201548152505090508060000151861061402b576040517fcee778e200000000000000000000000000000000000000000000000000000000815260048101869052602401610b7a565b505b6000609761403c600188614f53565b8154811061404c5761404c614f6a565b9060005260206000209060020201905060006097878154811061407157614071614f6a565b600091825260208220845460029092020180549093506140a6916fffffffffffffffffffffffffffffffff9081169116615321565b6fffffffffffffffffffffffffffffffff1690506b033b2e3c9fd0803ce80000008460200151826140d79190615123565b6140e19190614fe0565b98975050505050505050565b600080600080600080868989f195945050505050565b6040805173ffffffffffffffffffffffffffffffffffffffff8416602482015260448082018490528251808303909101815260649091019091526020810180517bffffffffffffffffffffffffffffffffffffffffffffffffffffffff167fa9059cbb000000000000000000000000000000000000000000000000000000001790526132ac9084906147c8565b60408051808201909152828152602081018281526099805460018082018355600092835293517f72a152ddfb8e864297c917af52ea6c1c68aead0fee1a62673fcc7e0c94979d0060029092029182015591517f72a152ddfb8e864297c917af52ea6c1c68aead0fee1a62673fcc7e0c94979d0190920191909155609c8054919291839061421e908490614f99565b9091555050609c549392505050565b6000818152600183016020526040812054614274575081546001818101845560008481526020808220909301849055845484825282860190935260409020919091556118fb565b5060006118fb565b600082600001828154811061429357614293614f6a565b9060005260206000200154905092915050565b6060816000018054806020026020016040519081016040528092919081815260200182805480156142f657602002820191906000526020600020905b8154815260200190600101908083116142e2575b50505050509050919050565b600081815260018301602052604081205480156143eb576000614326600183614f53565b855490915060009061433a90600190614f53565b905081811461439f57600086600001828154811061435a5761435a614f6a565b906000526020600020015490508087600001848154811061437d5761437d614f6a565b6000918252602080832090910192909255918252600188019052604090208390555b85548690806143b0576143b0615407565b6001900381819060005260206000200160009055905585600101600086815260200190815260200160002060009055600193505050506118fb565b60009150506118fb565b60006fffffffffffffffffffffffffffffffff821115613c32576040517f08c379a000000000000000000000000000000000000000000000000000000000815260206004820152602760248201527f53616665436173743a2076616c756520646f65736e27742066697420696e203160448201527f32382062697473000000000000000000000000000000000000000000000000006064820152608401610b7a565b6000610d3e838361422d565b600054610100900460ff1661453a576040517f08c379a000000000000000000000000000000000000000000000000000000000815260206004820152602b60248201527f496e697469616c697a61626c653a20636f6e7472616374206973206e6f74206960448201527f6e697469616c697a696e670000000000000000000000000000000000000000006064820152608401610b7a565b6118136148d4565b600054610100900460ff166145d9576040517f08c379a000000000000000000000000000000000000000000000000000000000815260206004820152602b60248201527f496e697469616c697a61626c653a20636f6e7472616374206973206e6f74206960448201527f6e697469616c697a696e670000000000000000000000000000000000000000006064820152608401610b7a565b604080516080810182526000808252602080830182815264ffffffffff428116858701908152600160608701818152609780548084018255908852975160029889027f354a83ed9988f79f6038d4c7a7dadbad8af32f4ad6df893e0e5807a1b1944ff9810180546fffffffffffffffffffffffffffffffff939093167fffffffffffffffffffffffffffffffff000000000000000000000000000000009093169290921790915594517f354a83ed9988f79f6038d4c7a7dadbad8af32f4ad6df893e0e5807a1b1944ffa9095018054935191511515790100000000000000000000000000000000000000000000000000027fffffffffffff00ffffffffffffffffffffffffffffffffffffffffffffffffff9290951674010000000000000000000000000000000000000000027fffffffffffffff0000000000000000000000000000000000000000000000000090941673ffffffffffffffffffffffffffffffffffffffff969096169590951792909217919091169190911790915584518086019095528285529084018281526099805492830181559092529251929091027f72a152ddfb8e864297c917af52ea6c1c68aead0fee1a62673fcc7e0c94979d00810192909255517f72a152ddfb8e864297c917af52ea6c1c68aead0fee1a62673fcc7e0c94979d0190910155565b600061482a826040518060400160405280602081526020017f5361666545524332303a206c6f772d6c6576656c2063616c6c206661696c65648152508573ffffffffffffffffffffffffffffffffffffffff166149749092919063ffffffff16565b8051909150156132ac57808060200190518101906148489190615160565b6132ac576040517f08c379a000000000000000000000000000000000000000000000000000000000815260206004820152602a60248201527f5361666545524332303a204552433230206f7065726174696f6e20646964206e60448201527f6f742073756363656564000000000000000000000000000000000000000000006064820152608401610b7a565b600054610100900460ff1661496b576040517f08c379a000000000000000000000000000000000000000000000000000000000815260206004820152602b60248201527f496e697469616c697a61626c653a20636f6e7472616374206973206e6f74206960448201527f6e697469616c697a696e670000000000000000000000000000000000000000006064820152608401610b7a565b611813336132b1565b606061314c84846000858573ffffffffffffffffffffffffffffffffffffffff85163b6149fd576040517f08c379a000000000000000000000000000000000000000000000000000000000815260206004820152601d60248201527f416464726573733a2063616c6c20746f206e6f6e2d636f6e74726163740000006044820152606401610b7a565b6000808673ffffffffffffffffffffffffffffffffffffffff168587604051614a269190615011565b60006040518083038185875af1925050503d8060008114614a63576040519150601f19603f3d011682016040523d82523d6000602084013e614a68565b606091505b5091509150614a78828286614a83565b979650505050505050565b60608315614a92575081610d3e565b825115614aa25782518084602001fd5b816040517f08c379a0000000000000000000000000000000000000000000000000000000008152600401610b7a9190614c34565b600060208284031215614ae857600080fd5b5035919050565b73ffffffffffffffffffffffffffffffffffffffff811681146118c757600080fd5b60008060408385031215614b2457600080fd5b8235614b2f81614aef565b946020939093013593505050565b600080600060608486031215614b5257600080fd5b505081359360208301359350604090920135919050565b600060208284031215614b7b57600080fd5b8135610d3e81614aef565b600080600060608486031215614b9b57600080fd5b833592506020840135614bad81614aef565b929592945050506040919091013590565b60005b83811015614bd9578181015183820152602001614bc1565b83811115611eb25750506000910152565b60008151808452614c02816020860160208601614bbe565b601f017fffffffffffffffffffffffffffffffffffffffffffffffffffffffffffffffe0169290920160200192915050565b602081526000610d3e6020830184614bea565b60008083601f840112614c5957600080fd5b50813567ffffffffffffffff811115614c7157600080fd5b6020830191508360208260051b850101111561301057600080fd5b60008060008060608587031215614ca257600080fd5b843567ffffffffffffffff811115614cb957600080fd5b614cc587828801614c47565b90989097506020870135966040013595509350505050565b6020808252825182820181905260009190848201906040850190845b81811015614d1557835183529284019291840191600101614cf9565b50909695505050505050565b600080600060608486031215614d3657600080fd5b8335614d4181614aef565b95602085013595506040909401359392505050565b60008060208385031215614d6957600080fd5b823567ffffffffffffffff811115614d8057600080fd5b614d8c85828601614c47565b90969095509350505050565b602080825282518282018190526000919060409081850190868401855b82811015614e13578151805185528681015173ffffffffffffffffffffffffffffffffffffffff1687860152858101518686015260608082015115159086015260809081015115159085015260a09093019290850190600101614db5565b5091979650505050505050565b600080600060608486031215614e3557600080fd5b8335614e4081614aef565b92506020840135614e5081614aef565b91506040840135614e6081614aef565b809150509250925092565b60008060008060408587031215614e8157600080fd5b843567ffffffffffffffff80821115614e9957600080fd5b614ea588838901614c47565b90965094506020870135915080821115614ebe57600080fd5b50614ecb87828801614c47565b95989497509550505050565b80151581146118c757600080fd5b600060208284031215614ef757600080fd5b8135610d3e81614ed7565b60008060408385031215614f1557600080fd5b50508035926020909101359150565b7f4e487b7100000000000000000000000000000000000000000000000000000000600052601160045260246000fd5b600082821015614f6557614f65614f24565b500390565b7f4e487b7100000000000000000000000000000000000000000000000000000000600052603260045260246000fd5b60008219821115614fac57614fac614f24565b500190565b7f4e487b7100000000000000000000000000000000000000000000000000000000600052601260045260246000fd5b600082614fef57614fef614fb1565b500490565b60006020828403121561500657600080fd5b8151610d3e81614aef565b60008251615023818460208701614bbe565b9190910192915050565b60006020828403121561503f57600080fd5b5051919050565b60008451615058818460208901614bbe565b80830190507f2e000000000000000000000000000000000000000000000000000000000000008082528551615094816001850160208a01614bbe565b600192019182015283516150af816002840160208801614bbe565b0160020195945050505050565b7f4e487b7100000000000000000000000000000000000000000000000000000000600052604160045260246000fd5b60007fffffffffffffffffffffffffffffffffffffffffffffffffffffffffffffffff820361511c5761511c614f24565b5060010190565b6000817fffffffffffffffffffffffffffffffffffffffffffffffffffffffffffffffff048311821515161561515b5761515b614f24565b500290565b60006020828403121561517257600080fd5b8151610d3e81614ed7565b6000808212827f7fffffffffffffffffffffffffffffffffffffffffffffffffffffffffffffff038413811516156151b7576151b7614f24565b827f80000000000000000000000000000000000000000000000000000000000000000384128116156151eb576151eb614f24565b50500190565b6000808312837f80000000000000000000000000000000000000000000000000000000000000000183128115161561522b5761522b614f24565b837f7fffffffffffffffffffffffffffffffffffffffffffffffffffffffffffffff01831381161561525f5761525f614f24565b50500390565b60007f7fffffffffffffffffffffffffffffffffffffffffffffffffffffffffffffff6000841360008413858304851182821616156152a6576152a6614f24565b7f800000000000000000000000000000000000000000000000000000000000000060008712868205881281841616156152e1576152e1614f24565b600087129250878205871284841616156152fd576152fd614f24565b8785058712818416161561531357615313614f24565b505050929093029392505050565b60006fffffffffffffffffffffffffffffffff8381169083168181101561534a5761534a614f24565b039392505050565b6000806040838503121561536557600080fd5b505080516020909101519092909150565b60008261538557615385614fb1565b500690565b60006fffffffffffffffffffffffffffffffff8083168185168083038211156153b5576153b5614f24565b01949350505050565b73ffffffffffffffffffffffffffffffffffffffff8616815284602082015263ffffffff84166040820152821515606082015260a060808201526000614a7860a0830184614bea565b7f4e487b7100000000000000000000000000000000000000000000000000000000600052603160045260246000fdfea164736f6c634300080f000a496e697469616c697a61626c653a20636f6e7472616374206973206e6f742069",
  "devdoc": {
    "version": 1,
    "kind": "dev",
    "methods": {
      "acceptOwnership()": {
        "details": "The new owner accepts the ownership transfer."
      },
      "addProvider(address)": {
        "params": {
          "provider": "Address of the yield provider."
        }
      },
      "claimWithdrawal(uint256,uint256)": {
        "details": "can only be called by request.recipient (YieldManager)"
      },
      "commitYieldReport(bool)": {
        "params": {
          "enableInsurance": "Whether insurance should be taken from positive yields        and paid out for negative yields. If false, negative yields will        accumulate and withdrawals will be discounted. If true (and insurance        is supported by the provider), it will guarantee that committed yield        is always non-negative, or else revert. It also guarantees that        accumulated negative yields never increase."
        }
      },
      "finalize(uint256)": {
        "params": {
          "requestId": "Last request id to finalize in this batch."
        }
      },
      "findCheckpointHint(uint256,uint256,uint256)": {
        "details": "View function to find a checkpoint hint to use in `claimWithdrawal()` and `getClaimableEther()`  Search will be performed in the range of `[_firstIndex, _lastIndex]`",
        "params": {
          "_end": "index of the right boundary of the search range, should be less than or equal  to queue.lastCheckpointId",
          "_requestId": "request id to search the checkpoint for",
          "_start": "index of the left boundary of the search range, should be greater than 0"
        },
        "returns": {
          "_0": "hint for later use in other methods or 0 if hint not found in the range"
        }
      },
      "findCheckpointHints(uint256[],uint256,uint256)": {
        "params": {
          "_firstIndex": "left boundary of the search range. Should be greater than 0",
          "_lastIndex": "right boundary of the search range. Should be less than or equal to getLastCheckpointIndex()",
          "_requestIds": "ids of the requests sorted in the ascending order to get hints for"
        },
        "returns": {
          "hintIds": "array of hints used to find required checkpoint for the request"
        }
      },
      "getProviderInfoAt(uint256)": {
        "params": {
          "idx": "Index of the provider."
        },
        "returns": {
          "info": "Accounting report on the yield provider."
        }
      },
      "initialize(address,address,address)": {
        "params": {
          "_owner": "Address of the YieldManager owner.",
          "_portal": "Address of the PatexPortal."
        }
      },
      "owner()": {
        "details": "Returns the address of the current owner."
      },
      "pendingOwner()": {
        "details": "Returns the address of the pending owner."
      },
      "recordStakedDeposit(address,uint256)": {
        "params": {
          "amount": "Amount of additional staked funds.",
          "providerAddress": "Address of yield provider."
        }
      },
      "removeProvider(address)": {
        "params": {
          "provider": "Address of the yield provider."
        }
      },
      "renounceOwnership()": {
        "details": "Leaves the contract without owner. It will not be possible to call `onlyOwner` functions. Can only be called by the current owner. NOTE: Renouncing ownership will leave the contract without an owner, thereby disabling any functionality that is only available to the owner."
      },
      "setAdmin(address)": {
        "params": {
          "_admin": "Address of new admin"
        }
      },
      "setPatexBridge(address)": {
        "params": {
          "_patexBridge": "Address of the L1PatexBridge."
        }
      },
      "setInsurance(address,uint256,uint256)": {
        "params": {
          "_insurance": "Address of the insurance module.",
          "_insuranceFeeBips": "Insurance fee to take from positive yields.",
          "_withdrawalBuffer": "Amount of additional funds to withdraw from insurance."
        }
      },
      "stake(uint256,address,uint256)": {
        "params": {
          "amount": "Amount to stake (wad).",
          "idx": "Index of the provider.",
          "providerAddress": "Address of the provider at index 'idx'."
        }
      },
      "transferOwnership(address)": {
        "details": "Starts the ownership transfer of the contract to a new account. Replaces the pending transfer if there is one. Can only be called by the current owner."
      },
      "unstake(uint256,address,uint256)": {
        "params": {
          "amount": "Amount to stake (wad).",
          "idx": "Index of the provider.",
          "providerAddress": "Address of the provider at index 'idx'."
        }
      },
      "version()": {
        "returns": {
          "_0": "Semver contract version as a string."
        }
      }
    }
  },
  "userdoc": {
    "version": 1,
    "kind": "user",
    "methods": {
      "MAX_INSURANCE_FEE_BIPS()": {
        "notice": "Maximum insurance fee the owner is allowed to set."
      },
      "accumulatedNegativeYields()": {
        "notice": "Sum of negative yields to track the slippage between L2-L1 share price.         If negative yields accumulate, L1 withdrawals are discounted to cover the         loss."
      },
      "addProvider(address)": {
        "notice": "Add a yield provider contract."
      },
      "admin()": {
        "notice": "Address of the admin handling regular tasks such as         `stake`, `unstake`, `claim`, `commitYieldReport`, and         `finalize`."
      },
      "availableBalance()": {
        "notice": "Available balance."
      },
      "patexBridge()": {
        "notice": "Address of the L1PatexBridge."
      },
      "commitYieldReport(bool)": {
        "notice": "Commit yield report."
      },
      "commitYieldReportAfterInsuranceWithdrawal(address,uint256)": {
        "notice": "Helper function to atomically withdraw from insurance and commit yield report.         This function can be used to maintain share price = 1e27 when yield from         the registered providers is not sufficient to cover negative yield from         LidoYieldProvider._claim()."
      },
      "finalize(uint256)": {
        "notice": "Finalize withdrawal requests up to 'requestId'."
      },
      "findCheckpointHints(uint256[],uint256,uint256)": {
        "notice": "Finds the list of hints for the given `_requestIds` searching among the checkpoints with indices  in the range  `[_firstIndex, _lastIndex]`.  NB! Array of request ids should be sorted  NB! `_firstIndex` should be greater than 0, because checkpoint list is 1-based array  Usage: findCheckpointHints(_requestIds, 1, getLastCheckpointIndex())"
      },
      "getLastCheckpointId()": {
        "notice": "return the last checkpoint id in the queue"
      },
      "getLastFinalizedRequestId()": {
        "notice": "id of the last finalized request  NB! requests are indexed from 1, so it returns 0 if there is no finalized requests in the queue"
      },
      "getLastRequestId()": {
        "notice": "id of the last request  NB! requests are indexed from 1, so it returns 0 if there is no requests in the queue"
      },
      "getLockedBalance()": {
        "notice": "amount of ETH on this contract balance that is locked for withdrawal and available to claim  NB! this is the real amount of ETH (i.e. sum of (nominal amount of ETH burned on L2 * sharePrice))"
      },
      "getProviderInfoAt(uint256)": {
        "notice": "Get an accounting report on the current state of a yield provider.         Due to how EnumerableSet works, 'idx' is not guaranteed to be stable         across add/remove operations so admin should verify the idx before         calling state-changing functions (e.g. stake, unstake)."
      },
      "initialize(address,address,address)": {
        "notice": "initializer"
      },
      "insurance()": {
        "notice": "Address of the insurance module."
      },
      "insuranceFeeBips()": {
        "notice": "Current insurance fee in bips."
      },
      "insuranceWithdrawalBuffer()": {
        "notice": "Amount of additional funds to withdraw from insurance.         This buffer addresses the scenario where the transfer of the exact amount of accumulated         negative yields from insurance does not fully pay off the outstanding amount. In Lido's         system, the transfer logic is based on shares, which may lead to discrepancies in the         withdrawal of insurance funds. By including this buffer, the system ensures that when         insurance funds are withdrawn, the total amount withdrawn is the exact required amount         plus an additional buffer. This approach guarantees the complete payoff of any negative         yields, accommodating for any potential rounding discrepancies inherent in the share-based         transfer logic."
      },
      "portal()": {
        "notice": "Address of the PatexPortal."
      },
      "recordNegativeYield(uint256)": {
        "notice": "Report realized negative yield. This is meant to be called inside a YieldProvider         method that is executed via 'delegatecall' by the YieldManager."
      },
      "recordStakedDeposit(address,uint256)": {
        "notice": "Record an increase to the staked funds represented         by the provider."
      },
      "removeProvider(address)": {
        "notice": "Remove a yield provider contract."
      },
      "requestWithdrawal(uint256)": {
        "notice": "Wrapper for WithdrawalQueue._requestWithdrawal"
      },
      "setAdmin(address)": {
        "notice": "Set new admin account to handle regular tasks including         (stake, unstake, claim)."
      },
      "setPatexBridge(address)": {
        "notice": "Set the address of the L1PatexBridge."
      },
      "setInsurance(address,uint256,uint256)": {
        "notice": "Set the yield insurance parameters."
      },
      "sharePrice()": {
        "notice": "Get the share price of the withdrawal token with 1e27 precision.         The share price is capped at 1e27 and can only go down if there         are accumulated negative yields."
      },
      "stake(uint256,address,uint256)": {
        "notice": "Stake funds for a particular yield provider and record the         staked deposit. The stake call is made via 'delegatecall'         so the yield provider implementation is executed with the         yield manager's funds."
      },
      "tokenBalance()": {
        "notice": "Get the amount of the withdrawal token that is held by the yield manager."
      },
      "totalProviderValue()": {
        "notice": "Get the total value of all yield providers denominated in the withdrawal token."
      },
      "totalValue()": {
        "notice": "Get the total value of all yield providers plus the available balance value."
      },
      "unfinalizedRequestNumber()": {
        "notice": "return the number of unfinalized requests in the queue"
      },
      "unstake(uint256,address,uint256)": {
        "notice": "Unstake funds for a particular yield provider and record the         staked withdraw. The stake call is made via 'delegatecall'         so the yield provider implementation is executed with the         yield manager's funds."
      },
      "version()": {
        "notice": "Returns the full semver contract version."
      }
    },
    "events": {
      "YieldReport(int256,uint256,uint256)": {
        "notice": "Emitted when the yield report is committed on L1 and         the yield is communicated to L2."
      }
    },
    "notice": "Coordinates the accounting, asset management and         yield reporting from ETH yield providers."
  },
  "storageLayout": {
    "storage": [
      {
        "astId": 21417,
        "contract": "contracts/mainnet-bridge/ETHYieldManager.sol:ETHYieldManager",
        "label": "_initialized",
        "offset": 0,
        "slot": "0",
        "type": "t_uint8"
      },
      {
        "astId": 21420,
        "contract": "contracts/mainnet-bridge/ETHYieldManager.sol:ETHYieldManager",
        "label": "_initializing",
        "offset": 1,
        "slot": "0",
        "type": "t_bool"
      },
      {
        "astId": 22779,
        "contract": "contracts/mainnet-bridge/ETHYieldManager.sol:ETHYieldManager",
        "label": "__gap",
        "offset": 0,
        "slot": "1",
        "type": "t_array(t_uint256)50_storage"
      },
      {
        "astId": 21264,
        "contract": "contracts/mainnet-bridge/ETHYieldManager.sol:ETHYieldManager",
        "label": "_owner",
        "offset": 0,
        "slot": "51",
        "type": "t_address"
      },
      {
        "astId": 21384,
        "contract": "contracts/mainnet-bridge/ETHYieldManager.sol:ETHYieldManager",
        "label": "__gap",
        "offset": 0,
        "slot": "52",
        "type": "t_array(t_uint256)49_storage"
      },
      {
        "astId": 21173,
        "contract": "contracts/mainnet-bridge/ETHYieldManager.sol:ETHYieldManager",
        "label": "_pendingOwner",
        "offset": 0,
        "slot": "101",
        "type": "t_address"
      },
      {
        "astId": 21252,
        "contract": "contracts/mainnet-bridge/ETHYieldManager.sol:ETHYieldManager",
        "label": "__gap",
        "offset": 0,
        "slot": "102",
        "type": "t_array(t_uint256)49_storage"
      },
      {
        "astId": 17861,
        "contract": "contracts/mainnet-bridge/ETHYieldManager.sol:ETHYieldManager",
        "label": "_requests",
        "offset": 0,
        "slot": "151",
        "type": "t_array(t_struct(WithdrawalRequest)17896_storage)dyn_storage"
      },
      {
        "astId": 17866,
        "contract": "contracts/mainnet-bridge/ETHYieldManager.sol:ETHYieldManager",
        "label": "_requestsByOwner",
        "offset": 0,
        "slot": "152",
        "type": "t_mapping(t_address,t_struct(UintSet)36606_storage)"
      },
      {
        "astId": 17870,
        "contract": "contracts/mainnet-bridge/ETHYieldManager.sol:ETHYieldManager",
        "label": "_checkpoints",
        "offset": 0,
        "slot": "153",
        "type": "t_array(t_struct(Checkpoint)17917_storage)dyn_storage"
      },
      {
        "astId": 17872,
        "contract": "contracts/mainnet-bridge/ETHYieldManager.sol:ETHYieldManager",
        "label": "lastRequestId",
        "offset": 0,
        "slot": "154",
        "type": "t_uint256"
      },
      {
        "astId": 17874,
        "contract": "contracts/mainnet-bridge/ETHYieldManager.sol:ETHYieldManager",
        "label": "lastFinalizedRequestId",
        "offset": 0,
        "slot": "155",
        "type": "t_uint256"
      },
      {
        "astId": 17876,
        "contract": "contracts/mainnet-bridge/ETHYieldManager.sol:ETHYieldManager",
        "label": "lastCheckpointId",
        "offset": 0,
        "slot": "156",
        "type": "t_uint256"
      },
      {
        "astId": 17878,
        "contract": "contracts/mainnet-bridge/ETHYieldManager.sol:ETHYieldManager",
        "label": "lockedBalance",
        "offset": 0,
        "slot": "157",
        "type": "t_uint256"
      },
      {
        "astId": 17883,
        "contract": "contracts/mainnet-bridge/ETHYieldManager.sol:ETHYieldManager",
        "label": "__gap",
        "offset": 0,
        "slot": "158",
        "type": "t_array(t_uint256)42_storage"
      },
      {
        "astId": 16871,
        "contract": "contracts/mainnet-bridge/ETHYieldManager.sol:ETHYieldManager",
        "label": "_providers",
        "offset": 0,
        "slot": "200",
        "type": "t_struct(AddressSet)36449_storage"
      },
      {
        "astId": 16874,
        "contract": "contracts/mainnet-bridge/ETHYieldManager.sol:ETHYieldManager",
        "label": "admin",
        "offset": 0,
        "slot": "202",
        "type": "t_address"
      },
      {
        "astId": 16877,
        "contract": "contracts/mainnet-bridge/ETHYieldManager.sol:ETHYieldManager",
        "label": "insurance",
        "offset": 0,
        "slot": "203",
        "type": "t_address"
      },
      {
        "astId": 16880,
        "contract": "contracts/mainnet-bridge/ETHYieldManager.sol:ETHYieldManager",
        "label": "patexBridge",
        "offset": 0,
        "slot": "204",
        "type": "t_address"
      },
      {
        "astId": 16883,
        "contract": "contracts/mainnet-bridge/ETHYieldManager.sol:ETHYieldManager",
        "label": "accumulatedNegativeYields",
        "offset": 0,
        "slot": "205",
        "type": "t_uint256"
      },
      {
        "astId": 16886,
        "contract": "contracts/mainnet-bridge/ETHYieldManager.sol:ETHYieldManager",
        "label": "insuranceFeeBips",
        "offset": 0,
        "slot": "206",
        "type": "t_uint256"
      },
      {
        "astId": 16889,
        "contract": "contracts/mainnet-bridge/ETHYieldManager.sol:ETHYieldManager",
        "label": "insuranceWithdrawalBuffer",
        "offset": 0,
        "slot": "207",
        "type": "t_uint256"
      },
      {
        "astId": 16893,
        "contract": "contracts/mainnet-bridge/ETHYieldManager.sol:ETHYieldManager",
        "label": "portal",
        "offset": 0,
        "slot": "208",
        "type": "t_contract(PatexPortal)2509"
      },
      {
        "astId": 16898,
        "contract": "contracts/mainnet-bridge/ETHYieldManager.sol:ETHYieldManager",
        "label": "__gap",
        "offset": 0,
        "slot": "209",
        "type": "t_array(t_uint256)41_storage"
      },
      {
        "astId": 14740,
        "contract": "contracts/mainnet-bridge/ETHYieldManager.sol:ETHYieldManager",
        "label": "postdeploys",
        "offset": 0,
        "slot": "250",
        "type": "t_contract(Postdeploys)7926"
      }
    ],
    "types": {
      "t_address": {
        "encoding": "inplace",
        "label": "address",
        "numberOfBytes": "20"
      },
      "t_array(t_bytes32)dyn_storage": {
        "encoding": "dynamic_array",
        "label": "bytes32[]",
        "numberOfBytes": "32",
        "base": "t_bytes32"
      },
      "t_array(t_struct(Checkpoint)17917_storage)dyn_storage": {
        "encoding": "dynamic_array",
        "label": "struct WithdrawalQueue.Checkpoint[]",
        "numberOfBytes": "32",
        "base": "t_struct(Checkpoint)17917_storage"
      },
      "t_array(t_struct(WithdrawalRequest)17896_storage)dyn_storage": {
        "encoding": "dynamic_array",
        "label": "struct WithdrawalQueue.WithdrawalRequest[]",
        "numberOfBytes": "32",
        "base": "t_struct(WithdrawalRequest)17896_storage"
      },
      "t_array(t_uint256)41_storage": {
        "encoding": "inplace",
        "label": "uint256[41]",
        "numberOfBytes": "1312",
        "base": "t_uint256"
      },
      "t_array(t_uint256)42_storage": {
        "encoding": "inplace",
        "label": "uint256[42]",
        "numberOfBytes": "1344",
        "base": "t_uint256"
      },
      "t_array(t_uint256)49_storage": {
        "encoding": "inplace",
        "label": "uint256[49]",
        "numberOfBytes": "1568",
        "base": "t_uint256"
      },
      "t_array(t_uint256)50_storage": {
        "encoding": "inplace",
        "label": "uint256[50]",
        "numberOfBytes": "1600",
        "base": "t_uint256"
      },
      "t_bool": {
        "encoding": "inplace",
        "label": "bool",
        "numberOfBytes": "1"
      },
      "t_bytes32": {
        "encoding": "inplace",
        "label": "bytes32",
        "numberOfBytes": "32"
      },
      "t_contract(PatexPortal)2509": {
        "encoding": "inplace",
        "label": "contract PatexPortal",
        "numberOfBytes": "20"
      },
      "t_contract(Postdeploys)7926": {
        "encoding": "inplace",
        "label": "contract Postdeploys",
        "numberOfBytes": "20"
      },
      "t_mapping(t_address,t_struct(UintSet)36606_storage)": {
        "encoding": "mapping",
        "key": "t_address",
        "label": "mapping(address => struct EnumerableSet.UintSet)",
        "numberOfBytes": "32",
        "value": "t_struct(UintSet)36606_storage"
      },
      "t_mapping(t_bytes32,t_uint256)": {
        "encoding": "mapping",
        "key": "t_bytes32",
        "label": "mapping(bytes32 => uint256)",
        "numberOfBytes": "32",
        "value": "t_uint256"
      },
      "t_struct(AddressSet)36449_storage": {
        "encoding": "inplace",
        "label": "struct EnumerableSet.AddressSet",
        "numberOfBytes": "64",
        "members": [
          {
            "astId": 36448,
            "contract": "contracts/mainnet-bridge/ETHYieldManager.sol:ETHYieldManager",
            "label": "_inner",
            "offset": 0,
            "slot": "0",
            "type": "t_struct(Set)36148_storage"
          }
        ]
      },
      "t_struct(Checkpoint)17917_storage": {
        "encoding": "inplace",
        "label": "struct WithdrawalQueue.Checkpoint",
        "numberOfBytes": "64",
        "members": [
          {
            "astId": 17914,
            "contract": "contracts/mainnet-bridge/ETHYieldManager.sol:ETHYieldManager",
            "label": "fromRequestId",
            "offset": 0,
            "slot": "0",
            "type": "t_uint256"
          },
          {
            "astId": 17916,
            "contract": "contracts/mainnet-bridge/ETHYieldManager.sol:ETHYieldManager",
            "label": "sharePrice",
            "offset": 0,
            "slot": "1",
            "type": "t_uint256"
          }
        ]
      },
      "t_struct(Set)36148_storage": {
        "encoding": "inplace",
        "label": "struct EnumerableSet.Set",
        "numberOfBytes": "64",
        "members": [
          {
            "astId": 36143,
            "contract": "contracts/mainnet-bridge/ETHYieldManager.sol:ETHYieldManager",
            "label": "_values",
            "offset": 0,
            "slot": "0",
            "type": "t_array(t_bytes32)dyn_storage"
          },
          {
            "astId": 36147,
            "contract": "contracts/mainnet-bridge/ETHYieldManager.sol:ETHYieldManager",
            "label": "_indexes",
            "offset": 0,
            "slot": "1",
            "type": "t_mapping(t_bytes32,t_uint256)"
          }
        ]
      },
      "t_struct(UintSet)36606_storage": {
        "encoding": "inplace",
        "label": "struct EnumerableSet.UintSet",
        "numberOfBytes": "64",
        "members": [
          {
            "astId": 36605,
            "contract": "contracts/mainnet-bridge/ETHYieldManager.sol:ETHYieldManager",
            "label": "_inner",
            "offset": 0,
            "slot": "0",
            "type": "t_struct(Set)36148_storage"
          }
        ]
      },
      "t_struct(WithdrawalRequest)17896_storage": {
        "encoding": "inplace",
        "label": "struct WithdrawalQueue.WithdrawalRequest",
        "numberOfBytes": "64",
        "members": [
          {
            "astId": 17886,
            "contract": "contracts/mainnet-bridge/ETHYieldManager.sol:ETHYieldManager",
            "label": "cumulativeAmount",
            "offset": 0,
            "slot": "0",
            "type": "t_uint128"
          },
          {
            "astId": 17889,
            "contract": "contracts/mainnet-bridge/ETHYieldManager.sol:ETHYieldManager",
            "label": "recipient",
            "offset": 0,
            "slot": "1",
            "type": "t_address"
          },
          {
            "astId": 17892,
            "contract": "contracts/mainnet-bridge/ETHYieldManager.sol:ETHYieldManager",
            "label": "timestamp",
            "offset": 20,
            "slot": "1",
            "type": "t_uint40"
          },
          {
            "astId": 17895,
            "contract": "contracts/mainnet-bridge/ETHYieldManager.sol:ETHYieldManager",
            "label": "claimed",
            "offset": 25,
            "slot": "1",
            "type": "t_bool"
          }
        ]
      },
      "t_uint128": {
        "encoding": "inplace",
        "label": "uint128",
        "numberOfBytes": "16"
      },
      "t_uint256": {
        "encoding": "inplace",
        "label": "uint256",
        "numberOfBytes": "32"
      },
      "t_uint40": {
        "encoding": "inplace",
        "label": "uint40",
        "numberOfBytes": "5"
      },
      "t_uint8": {
        "encoding": "inplace",
        "label": "uint8",
        "numberOfBytes": "1"
      }
    }
  }
}