{
  "address": "0x39930ACabE03dC1728a1DAb580b925E16781fa27",
  "abi": [
    {
      "type": "constructor",
      "inputs": [
        {
          "name": "_yieldManager",
          "type": "address",
          "internalType": "contract YieldManager"
        }
      ],
      "stateMutability": "nonpayable"
    },
    {
      "type": "function",
      "name": "admin",
      "inputs": [],
      "outputs": [
        {
          "name": "",
          "type": "address",
          "internalType": "address"
        }
      ],
      "stateMutability": "view"
    },
    {
      "type": "function",
      "name": "coverLoss",
      "inputs": [
        {
          "name": "token",
          "type": "address",
          "internalType": "address"
        },
        {
          "name": "amount",
          "type": "uint256",
          "internalType": "uint256"
        }
      ],
      "outputs": [],
      "stateMutability": "nonpayable"
    },
    {
      "type": "function",
      "name": "initialize",
      "inputs": [
        {
          "name": "_admin",
          "type": "address",
          "internalType": "address"
        }
      ],
      "outputs": [],
      "stateMutability": "nonpayable"
    },
    {
      "type": "function",
      "name": "setAdmin",
      "inputs": [
        {
          "name": "_admin",
          "type": "address",
          "internalType": "address"
        }
      ],
      "outputs": [],
      "stateMutability": "nonpayable"
    },
    {
      "type": "function",
      "name": "version",
      "inputs": [],
      "outputs": [
        {
          "name": "",
          "type": "string",
          "internalType": "string"
        }
      ],
      "stateMutability": "view"
    },
    {
      "type": "event",
      "name": "Initialized",
      "inputs": [
        {
          "name": "version",
          "type": "uint8",
          "indexed": false,
          "internalType": "uint8"
        }
      ],
      "anonymous": false
    },
    {
      "type": "error",
      "name": "CannotSetAdminAsZeroAddress",
      "inputs": []
    },
    {
      "type": "error",
      "name": "InsufficientBalance",
      "inputs": []
    },
    {
      "type": "error",
      "name": "OnlyAdmin",
      "inputs": []
    },
    {
      "type": "error",
      "name": "OnlyAdminOrYieldManager",
      "inputs": []
    }
  ],
  "transactionHash": "0x0d6aa9f4fd5ff9e2b58bbc6c777a09cd1ab5e22bc7ae609f3cf4ffa0e388c995",
  "args": [
    "0x16Cc7b51de361A845AD070ed6E792b2BB720f8c6"
  ],
  "numDeployments": 1,
  "solcInputHash": "9778d091a5acf256a03d242fa5a61eb7",
  "bytecode": "0x61010060405234801561001157600080fd5b506040516200104a3803806200104a833981016040819052610032916101af565b6001608052600060a081905260c08190526001600160a01b03821660e0526100599061005f565b506101df565b600054610100900460ff161580801561007f5750600054600160ff909116105b806100aa5750610098306101a060201b61061d1760201c565b1580156100aa575060005460ff166001145b6101115760405162461bcd60e51b815260206004820152602e60248201527f496e697469616c697a61626c653a20636f6e747261637420697320616c72656160448201526d191e481a5b9a5d1a585b1a5e995960921b606482015260840160405180910390fd5b6000805460ff191660011790558015610134576000805461ff0019166101001790555b6000805462010000600160b01b031916620100006001600160a01b03851602179055801561019c576000805461ff0019169055604051600181527f7f26b83ff96e1f2b6a682f133852f6798a09c465da95921460cefb38474024989060200160405180910390a15b5050565b6001600160a01b03163b151590565b6000602082840312156101c157600080fd5b81516001600160a01b03811681146101d857600080fd5b9392505050565b60805160a05160c05160e051610e2a62000220600039600081816104ba01526105f80152600061016901526000610140015260006101170152610e2a6000f3fe608060405234801561001057600080fd5b50600436106100675760003560e01c8063c4d66de811610050578063c4d66de81461009f578063d1fa5e98146100b2578063f851a440146100c557600080fd5b806354fd4d501461006c578063704b6c021461008a575b600080fd5b610074610110565b6040516100819190610b46565b60405180910390f35b61009d610098366004610bc0565b6101b3565b005b61009d6100ad366004610bc0565b6102a4565b61009d6100c0366004610bdb565b610479565b6000546100eb9062010000900473ffffffffffffffffffffffffffffffffffffffff1681565b60405173ffffffffffffffffffffffffffffffffffffffff9091168152602001610081565b606061013b7f0000000000000000000000000000000000000000000000000000000000000000610639565b6101647f0000000000000000000000000000000000000000000000000000000000000000610639565b61018d7f0000000000000000000000000000000000000000000000000000000000000000610639565b60405160200161019f93929190610c05565b604051602081830303815290604052905090565b60005462010000900473ffffffffffffffffffffffffffffffffffffffff16331461020a576040517f4755657900000000000000000000000000000000000000000000000000000000815260040160405180910390fd5b73ffffffffffffffffffffffffffffffffffffffff8116610257576040517f32e2c87100000000000000000000000000000000000000000000000000000000815260040160405180910390fd5b6000805473ffffffffffffffffffffffffffffffffffffffff90921662010000027fffffffffffffffffffff0000000000000000000000000000000000000000ffff909216919091179055565b600054610100900460ff16158080156102c45750600054600160ff909116105b806102de5750303b1580156102de575060005460ff166001145b61036f576040517f08c379a000000000000000000000000000000000000000000000000000000000815260206004820152602e60248201527f496e697469616c697a61626c653a20636f6e747261637420697320616c72656160448201527f647920696e697469616c697a656400000000000000000000000000000000000060648201526084015b60405180910390fd5b600080547fffffffffffffffffffffffffffffffffffffffffffffffffffffffffffffff0016600117905580156103cd57600080547fffffffffffffffffffffffffffffffffffffffffffffffffffffffffffff00ff166101001790555b600080547fffffffffffffffffffff0000000000000000000000000000000000000000ffff166201000073ffffffffffffffffffffffffffffffffffffffff851602179055801561047557600080547fffffffffffffffffffffffffffffffffffffffffffffffffffffffffffff00ff169055604051600181527f7f26b83ff96e1f2b6a682f133852f6798a09c465da95921460cefb38474024989060200160405180910390a15b5050565b60005462010000900473ffffffffffffffffffffffffffffffffffffffff1633148015906104dd57503373ffffffffffffffffffffffffffffffffffffffff7f00000000000000000000000000000000000000000000000000000000000000001614155b15610514576040517fa960681a00000000000000000000000000000000000000000000000000000000815260040160405180910390fd5b6040517f70a08231000000000000000000000000000000000000000000000000000000008152306004820152819073ffffffffffffffffffffffffffffffffffffffff8416906370a0823190602401602060405180830381865afa158015610580573d6000803e3d6000fd5b505050506040513d601f19601f820116820180604052508101906105a49190610c7b565b10156105dc576040517ff4d678b800000000000000000000000000000000000000000000000000000000815260040160405180910390fd5b61047573ffffffffffffffffffffffffffffffffffffffff83167f000000000000000000000000000000000000000000000000000000000000000083610776565b73ffffffffffffffffffffffffffffffffffffffff163b151590565b60608160000361067c57505060408051808201909152600181527f3000000000000000000000000000000000000000000000000000000000000000602082015290565b8160005b81156106a6578061069081610cc3565b915061069f9050600a83610d2a565b9150610680565b60008167ffffffffffffffff8111156106c1576106c1610d3e565b6040519080825280601f01601f1916602001820160405280156106eb576020820181803683370190505b5090505b841561076e57610700600183610d6d565b915061070d600a86610d84565b610718906030610d98565b60f81b81838151811061072d5761072d610db0565b60200101907effffffffffffffffffffffffffffffffffffffffffffffffffffffffffffff1916908160001a905350610767600a86610d2a565b94506106ef565b949350505050565b6040805173ffffffffffffffffffffffffffffffffffffffff8416602482015260448082018490528251808303909101815260649091019091526020810180517bffffffffffffffffffffffffffffffffffffffffffffffffffffffff167fa9059cbb00000000000000000000000000000000000000000000000000000000179052610803908490610808565b505050565b600061086a826040518060400160405280602081526020017f5361666545524332303a206c6f772d6c6576656c2063616c6c206661696c65648152508573ffffffffffffffffffffffffffffffffffffffff166109149092919063ffffffff16565b80519091501561080357808060200190518101906108889190610ddf565b610803576040517f08c379a000000000000000000000000000000000000000000000000000000000815260206004820152602a60248201527f5361666545524332303a204552433230206f7065726174696f6e20646964206e60448201527f6f742073756363656564000000000000000000000000000000000000000000006064820152608401610366565b6060610923848460008561092d565b90505b9392505050565b6060824710156109bf576040517f08c379a000000000000000000000000000000000000000000000000000000000815260206004820152602660248201527f416464726573733a20696e73756666696369656e742062616c616e636520666f60448201527f722063616c6c00000000000000000000000000000000000000000000000000006064820152608401610366565b73ffffffffffffffffffffffffffffffffffffffff85163b610a3d576040517f08c379a000000000000000000000000000000000000000000000000000000000815260206004820152601d60248201527f416464726573733a2063616c6c20746f206e6f6e2d636f6e74726163740000006044820152606401610366565b6000808673ffffffffffffffffffffffffffffffffffffffff168587604051610a669190610e01565b60006040518083038185875af1925050503d8060008114610aa3576040519150601f19603f3d011682016040523d82523d6000602084013e610aa8565b606091505b5091509150610ab8828286610ac3565b979650505050505050565b60608315610ad2575081610926565b825115610ae25782518084602001fd5b816040517f08c379a00000000000000000000000000000000000000000000000000000000081526004016103669190610b46565b60005b83811015610b31578181015183820152602001610b19565b83811115610b40576000848401525b50505050565b6020815260008251806020840152610b65816040850160208701610b16565b601f017fffffffffffffffffffffffffffffffffffffffffffffffffffffffffffffffe0169190910160400192915050565b803573ffffffffffffffffffffffffffffffffffffffff81168114610bbb57600080fd5b919050565b600060208284031215610bd257600080fd5b61092682610b97565b60008060408385031215610bee57600080fd5b610bf783610b97565b946020939093013593505050565b60008451610c17818460208901610b16565b80830190507f2e000000000000000000000000000000000000000000000000000000000000008082528551610c53816001850160208a01610b16565b60019201918201528351610c6e816002840160208801610b16565b0160020195945050505050565b600060208284031215610c8d57600080fd5b5051919050565b7f4e487b7100000000000000000000000000000000000000000000000000000000600052601160045260246000fd5b60007fffffffffffffffffffffffffffffffffffffffffffffffffffffffffffffffff8203610cf457610cf4610c94565b5060010190565b7f4e487b7100000000000000000000000000000000000000000000000000000000600052601260045260246000fd5b600082610d3957610d39610cfb565b500490565b7f4e487b7100000000000000000000000000000000000000000000000000000000600052604160045260246000fd5b600082821015610d7f57610d7f610c94565b500390565b600082610d9357610d93610cfb565b500690565b60008219821115610dab57610dab610c94565b500190565b7f4e487b7100000000000000000000000000000000000000000000000000000000600052603260045260246000fd5b600060208284031215610df157600080fd5b8151801515811461092657600080fd5b60008251610e13818460208701610b16565b919091019291505056fea164736f6c634300080f000a",
  "devdoc": {
    "version": 1,
    "kind": "dev",
    "methods": {
      "version()": {
        "returns": {
          "_0": "Semver contract version as a string."
        }
      }
    }
  },
  "userdoc": {
    "version": 1,
    "kind": "user",
    "methods": {
      "version()": {
        "notice": "Returns the full semver contract version."
      }
    },
    "notice": "Holds the yield insurance funds and allows yield managers to         withdraw to cover losses."
  },
  "storageLayout": {
    "storage": [
      {
        "astId": 21417,
        "contract": "contracts/mainnet-bridge/Insurance.sol:Insurance",
        "label": "_initialized",
        "offset": 0,
        "slot": "0",
        "type": "t_uint8"
      },
      {
        "astId": 21420,
        "contract": "contracts/mainnet-bridge/Insurance.sol:Insurance",
        "label": "_initializing",
        "offset": 1,
        "slot": "0",
        "type": "t_bool"
      },
      {
        "astId": 14894,
        "contract": "contracts/mainnet-bridge/Insurance.sol:Insurance",
        "label": "admin",
        "offset": 2,
        "slot": "0",
        "type": "t_address"
      }
    ],
    "types": {
      "t_address": {
        "encoding": "inplace",
        "label": "address",
        "numberOfBytes": "20"
      },
      "t_bool": {
        "encoding": "inplace",
        "label": "bool",
        "numberOfBytes": "1"
      },
      "t_uint8": {
        "encoding": "inplace",
        "label": "uint8",
        "numberOfBytes": "1"
      }
    }
  }
}