{
  "address": "0x12AeAEBebab21b0B837bb6e6eaC3eA972254454b",
  "abi": [
    {
      "type": "constructor",
      "inputs": [],
      "stateMutability": "nonpayable"
    },
    {
      "type": "receive",
      "stateMutability": "payable"
    },
    {
      "type": "function",
      "name": "MESSENGER",
      "inputs": [],
      "outputs": [
        {
          "name": "",
          "type": "address",
          "internalType": "contract CrossDomainMessenger"
        }
      ],
      "stateMutability": "view"
    },
    {
      "type": "function",
      "name": "MIN_GAS_DYNAMIC_OVERHEAD_DENOMINATOR",
      "inputs": [],
      "outputs": [
        {
          "name": "",
          "type": "uint64",
          "internalType": "uint64"
        }
      ],
      "stateMutability": "view"
    },
    {
      "type": "function",
      "name": "MIN_GAS_DYNAMIC_OVERHEAD_NUMERATOR",
      "inputs": [],
      "outputs": [
        {
          "name": "",
          "type": "uint64",
          "internalType": "uint64"
        }
      ],
      "stateMutability": "view"
    },
    {
      "type": "function",
      "name": "OHTER_BRIDGE",
      "inputs": [],
      "outputs": [
        {
          "name": "",
          "type": "address",
          "internalType": "contract StandardBridge"
        }
      ],
      "stateMutability": "view"
    },
    {
      "type": "function",
      "name": "baseGas",
      "inputs": [
        {
          "name": "_minGasLimit",
          "type": "uint32",
          "internalType": "uint32"
        }
      ],
      "outputs": [
        {
          "name": "",
          "type": "uint64",
          "internalType": "uint64"
        }
      ],
      "stateMutability": "pure"
    },
    {
      "type": "function",
      "name": "bridgeERC20",
      "inputs": [
        {
          "name": "_localToken",
          "type": "address",
          "internalType": "address"
        },
        {
          "name": "_remoteToken",
          "type": "address",
          "internalType": "address"
        },
        {
          "name": "_amount",
          "type": "uint256",
          "internalType": "uint256"
        },
        {
          "name": "_minGasLimit",
          "type": "uint32",
          "internalType": "uint32"
        },
        {
          "name": "_extraData",
          "type": "bytes",
          "internalType": "bytes"
        }
      ],
      "outputs": [],
      "stateMutability": "nonpayable"
    },
    {
      "type": "function",
      "name": "bridgeERC20To",
      "inputs": [
        {
          "name": "_localToken",
          "type": "address",
          "internalType": "address"
        },
        {
          "name": "_remoteToken",
          "type": "address",
          "internalType": "address"
        },
        {
          "name": "_to",
          "type": "address",
          "internalType": "address"
        },
        {
          "name": "_amount",
          "type": "uint256",
          "internalType": "uint256"
        },
        {
          "name": "_minGasLimit",
          "type": "uint32",
          "internalType": "uint32"
        },
        {
          "name": "_extraData",
          "type": "bytes",
          "internalType": "bytes"
        }
      ],
      "outputs": [],
      "stateMutability": "nonpayable"
    },
    {
      "type": "function",
      "name": "bridgeETH",
      "inputs": [
        {
          "name": "_minGasLimit",
          "type": "uint32",
          "internalType": "uint32"
        },
        {
          "name": "_extraData",
          "type": "bytes",
          "internalType": "bytes"
        }
      ],
      "outputs": [],
      "stateMutability": "payable"
    },
    {
      "type": "function",
      "name": "bridgeETHTo",
      "inputs": [
        {
          "name": "_to",
          "type": "address",
          "internalType": "address"
        },
        {
          "name": "_minGasLimit",
          "type": "uint32",
          "internalType": "uint32"
        },
        {
          "name": "_extraData",
          "type": "bytes",
          "internalType": "bytes"
        }
      ],
      "outputs": [],
      "stateMutability": "payable"
    },
    {
      "type": "function",
      "name": "deposits",
      "inputs": [
        {
          "name": "",
          "type": "address",
          "internalType": "address"
        },
        {
          "name": "",
          "type": "address",
          "internalType": "address"
        }
      ],
      "outputs": [
        {
          "name": "",
          "type": "uint256",
          "internalType": "uint256"
        }
      ],
      "stateMutability": "view"
    },
    {
      "type": "function",
      "name": "ethYieldManager",
      "inputs": [],
      "outputs": [
        {
          "name": "",
          "type": "address",
          "internalType": "contract ETHYieldManager"
        }
      ],
      "stateMutability": "view"
    },
    {
      "type": "function",
      "name": "ethYieldTokens",
      "inputs": [
        {
          "name": "",
          "type": "address",
          "internalType": "address"
        }
      ],
      "outputs": [
        {
          "name": "approved",
          "type": "bool",
          "internalType": "bool"
        },
        {
          "name": "decimals",
          "type": "uint8",
          "internalType": "uint8"
        },
        {
          "name": "provider",
          "type": "address",
          "internalType": "address"
        },
        {
          "name": "reportStakedBalance",
          "type": "bool",
          "internalType": "bool"
        }
      ],
      "stateMutability": "view"
    },
    {
      "type": "function",
      "name": "finalizeBridgeERC20",
      "inputs": [
        {
          "name": "_localToken",
          "type": "address",
          "internalType": "address"
        },
        {
          "name": "_remoteToken",
          "type": "address",
          "internalType": "address"
        },
        {
          "name": "_from",
          "type": "address",
          "internalType": "address"
        },
        {
          "name": "_to",
          "type": "address",
          "internalType": "address"
        },
        {
          "name": "_amount",
          "type": "uint256",
          "internalType": "uint256"
        },
        {
          "name": "_extraData",
          "type": "bytes",
          "internalType": "bytes"
        }
      ],
      "outputs": [],
      "stateMutability": "nonpayable"
    },
    {
      "type": "function",
      "name": "finalizeBridgeETH",
      "inputs": [
        {
          "name": "_from",
          "type": "address",
          "internalType": "address"
        },
        {
          "name": "_to",
          "type": "address",
          "internalType": "address"
        },
        {
          "name": "_amount",
          "type": "uint256",
          "internalType": "uint256"
        },
        {
          "name": "_extraData",
          "type": "bytes",
          "internalType": "bytes"
        }
      ],
      "outputs": [],
      "stateMutability": "payable"
    },
    {
      "type": "function",
      "name": "initialize",
      "inputs": [
        {
          "name": "_portal",
          "type": "address",
          "internalType": "contract PatexPortal"
        },
        {
          "name": "_messenger",
          "type": "address",
          "internalType": "contract CrossDomainMessenger"
        },
        {
          "name": "_usdYieldManager",
          "type": "address",
          "internalType": "contract USDYieldManager"
        },
        {
          "name": "_ethYieldManager",
          "type": "address",
          "internalType": "contract ETHYieldManager"
        },
        {
          "name": "_postdeploys",
          "type": "address",
          "internalType": "contract Postdeploys"
        },
        {
          "name": "_otherBridge",
          "type": "address",
          "internalType": "contract StandardBridge"
        }
      ],
      "outputs": [],
      "stateMutability": "nonpayable"
    },
    {
      "type": "function",
      "name": "messenger",
      "inputs": [],
      "outputs": [
        {
          "name": "",
          "type": "address",
          "internalType": "contract CrossDomainMessenger"
        }
      ],
      "stateMutability": "view"
    },
    {
      "type": "function",
      "name": "otherBridge",
      "inputs": [],
      "outputs": [
        {
          "name": "",
          "type": "address",
          "internalType": "contract StandardBridge"
        }
      ],
      "stateMutability": "view"
    },
    {
      "type": "function",
      "name": "portal",
      "inputs": [],
      "outputs": [
        {
          "name": "",
          "type": "address",
          "internalType": "contract PatexPortal"
        }
      ],
      "stateMutability": "view"
    },
    {
      "type": "function",
      "name": "postdeploys",
      "inputs": [],
      "outputs": [
        {
          "name": "",
          "type": "address",
          "internalType": "contract Postdeploys"
        }
      ],
      "stateMutability": "view"
    },
    {
      "type": "function",
      "name": "setETHYieldToken",
      "inputs": [
        {
          "name": "token",
          "type": "address",
          "internalType": "address"
        },
        {
          "name": "approved",
          "type": "bool",
          "internalType": "bool"
        },
        {
          "name": "decimals",
          "type": "uint8",
          "internalType": "uint8"
        },
        {
          "name": "provider",
          "type": "address",
          "internalType": "address"
        },
        {
          "name": "reportStakedBalance",
          "type": "bool",
          "internalType": "bool"
        }
      ],
      "outputs": [],
      "stateMutability": "nonpayable"
    },
    {
      "type": "function",
      "name": "setUSDYieldToken",
      "inputs": [
        {
          "name": "token",
          "type": "address",
          "internalType": "address"
        },
        {
          "name": "approved",
          "type": "bool",
          "internalType": "bool"
        },
        {
          "name": "decimals",
          "type": "uint8",
          "internalType": "uint8"
        },
        {
          "name": "provider",
          "type": "address",
          "internalType": "address"
        },
        {
          "name": "reportStakedBalance",
          "type": "bool",
          "internalType": "bool"
        }
      ],
      "outputs": [],
      "stateMutability": "nonpayable"
    },
    {
      "type": "function",
      "name": "usdYieldManager",
      "inputs": [],
      "outputs": [
        {
          "name": "",
          "type": "address",
          "internalType": "contract USDYieldManager"
        }
      ],
      "stateMutability": "view"
    },
    {
      "type": "function",
      "name": "usdYieldTokens",
      "inputs": [
        {
          "name": "",
          "type": "address",
          "internalType": "address"
        }
      ],
      "outputs": [
        {
          "name": "approved",
          "type": "bool",
          "internalType": "bool"
        },
        {
          "name": "decimals",
          "type": "uint8",
          "internalType": "uint8"
        },
        {
          "name": "provider",
          "type": "address",
          "internalType": "address"
        },
        {
          "name": "reportStakedBalance",
          "type": "bool",
          "internalType": "bool"
        }
      ],
      "stateMutability": "view"
    },
    {
      "type": "function",
      "name": "version",
      "inputs": [],
      "outputs": [
        {
          "name": "",
          "type": "string",
          "internalType": "string"
        }
      ],
      "stateMutability": "view"
    },
    {
      "type": "event",
      "name": "ERC20BridgeFinalized",
      "inputs": [
        {
          "name": "localToken",
          "type": "address",
          "indexed": true,
          "internalType": "address"
        },
        {
          "name": "remoteToken",
          "type": "address",
          "indexed": true,
          "internalType": "address"
        },
        {
          "name": "from",
          "type": "address",
          "indexed": true,
          "internalType": "address"
        },
        {
          "name": "to",
          "type": "address",
          "indexed": false,
          "internalType": "address"
        },
        {
          "name": "amount",
          "type": "uint256",
          "indexed": false,
          "internalType": "uint256"
        },
        {
          "name": "extraData",
          "type": "bytes",
          "indexed": false,
          "internalType": "bytes"
        }
      ],
      "anonymous": false
    },
    {
      "type": "event",
      "name": "ERC20BridgeInitiated",
      "inputs": [
        {
          "name": "localToken",
          "type": "address",
          "indexed": true,
          "internalType": "address"
        },
        {
          "name": "remoteToken",
          "type": "address",
          "indexed": true,
          "internalType": "address"
        },
        {
          "name": "from",
          "type": "address",
          "indexed": true,
          "internalType": "address"
        },
        {
          "name": "to",
          "type": "address",
          "indexed": false,
          "internalType": "address"
        },
        {
          "name": "amount",
          "type": "uint256",
          "indexed": false,
          "internalType": "uint256"
        },
        {
          "name": "extraData",
          "type": "bytes",
          "indexed": false,
          "internalType": "bytes"
        }
      ],
      "anonymous": false
    },
    {
      "type": "event",
      "name": "ETHBridgeFinalized",
      "inputs": [
        {
          "name": "from",
          "type": "address",
          "indexed": true,
          "internalType": "address"
        },
        {
          "name": "to",
          "type": "address",
          "indexed": true,
          "internalType": "address"
        },
        {
          "name": "amount",
          "type": "uint256",
          "indexed": false,
          "internalType": "uint256"
        },
        {
          "name": "extraData",
          "type": "bytes",
          "indexed": false,
          "internalType": "bytes"
        }
      ],
      "anonymous": false
    },
    {
      "type": "event",
      "name": "ETHBridgeInitiated",
      "inputs": [
        {
          "name": "from",
          "type": "address",
          "indexed": true,
          "internalType": "address"
        },
        {
          "name": "to",
          "type": "address",
          "indexed": true,
          "internalType": "address"
        },
        {
          "name": "amount",
          "type": "uint256",
          "indexed": false,
          "internalType": "uint256"
        },
        {
          "name": "extraData",
          "type": "bytes",
          "indexed": false,
          "internalType": "bytes"
        }
      ],
      "anonymous": false
    },
    {
      "type": "event",
      "name": "Initialized",
      "inputs": [
        {
          "name": "version",
          "type": "uint8",
          "indexed": false,
          "internalType": "uint8"
        }
      ],
      "anonymous": false
    }
  ],
  "transactionHash": "0x37576b1f109f69993ac7bca93db34caa25bbd05466f44421fd4eb1ab754e18b4",
  "args": [],
  "numDeployments": 1,
  "solcInputHash": "9778d091a5acf256a03d242fa5a61eb7",
  "bytecode": "0x60806040523480156200001157600080fd5b50620000236000808080808062000029565b62000265565b600054610100900460ff16158080156200004a5750600054600160ff909116105b806200007a57506200006730620001bb60201b620006fb1760201c565b1580156200007a575060005460ff166001145b620000e35760405162461bcd60e51b815260206004820152602e60248201527f496e697469616c697a61626c653a20636f6e747261637420697320616c72656160448201526d191e481a5b9a5d1a585b1a5e995960921b60648201526084015b60405180910390fd5b6000805460ff19166001179055801562000107576000805461ff0019166101001790555b603680546001600160a01b0319166001600160a01b0389161790556200012e8683620001ca565b603480546001600160a01b038088166001600160a01b0319928316179092556035805487841690831617905560378054928616929091169190911790558015620001b2576000805461ff0019169055604051600181527f7f26b83ff96e1f2b6a682f133852f6798a09c465da95921460cefb38474024989060200160405180910390a15b50505050505050565b6001600160a01b03163b151590565b600054610100900460ff16620002375760405162461bcd60e51b815260206004820152602b60248201527f496e697469616c697a61626c653a20636f6e7472616374206973206e6f74206960448201526a6e697469616c697a696e6760a81b6064820152608401620000da565b600380546001600160a01b039384166001600160a01b03199182161790915560048054929093169116179055565b61384b80620002756000396000f3fe60806040526004361061018f5760003560e01c80637c916ee9116100d6578063cc2a9a5b1161007f578063d9ffb9d611610059578063d9ffb9d61461069b578063e11013dd146106bb578063ebf413eb146106ce57600080fd5b8063cc2a9a5b146105db578063cfb39914146105fb578063d81dc8991461062857600080fd5b8063927ede2d116100b0578063927ede2d14610563578063c89701a21461058e578063c8fb1533146105bb57600080fd5b80637c916ee9146104d257806387087623146104fd5780638f601f661461051d57600080fd5b806333873a171161013857806354fd4d501161011257806354fd4d501461039b5780636425666b146103f15780636734eb241461041e57600080fd5b806333873a171461032e5780633cb747bf1461034e578063540abf731461037b57600080fd5b80631635f5fd116101695780631635f5fd146102b457806326a2ebc9146102c75780632828d7e81461031957600080fd5b80630166a07a1461024e57806309fc88431461026e5780630c5684981461028157600080fd5b3661024957333b15610228576040517f08c379a000000000000000000000000000000000000000000000000000000000815260206004820152603760248201527f5374616e646172644272696467653a2066756e6374696f6e2063616e206f6e6c60448201527f792062652063616c6c65642066726f6d20616e20454f4100000000000000000060648201526084015b60405180910390fd5b61024733333462030d4060405180602001604052806000815250610717565b005b600080fd5b34801561025a57600080fd5b50610247610269366004612ef8565b6108e1565b61024761027c366004612fa9565b610f37565b34801561028d57600080fd5b50610296603f81565b60405167ffffffffffffffff90911681526020015b60405180910390f35b6102476102c2366004612ffc565b61100e565b3480156102d357600080fd5b506034546102f49073ffffffffffffffffffffffffffffffffffffffff1681565b60405173ffffffffffffffffffffffffffffffffffffffff90911681526020016102ab565b34801561032557600080fd5b50610296604081565b34801561033a57600080fd5b5061029661034936600461306f565b611469565b34801561035a57600080fd5b506003546102f49073ffffffffffffffffffffffffffffffffffffffff1681565b34801561038757600080fd5b5061024761039636600461308a565b61149b565b3480156103a757600080fd5b506103e46040518060400160405280600581526020017f312e302e3000000000000000000000000000000000000000000000000000000081525081565b6040516102ab9190613177565b3480156103fd57600080fd5b506036546102f49073ffffffffffffffffffffffffffffffffffffffff1681565b34801561042a57600080fd5b5061049161043936600461318a565b60326020526000908152604090205460ff80821691610100810482169173ffffffffffffffffffffffffffffffffffffffff620100008304169176010000000000000000000000000000000000000000000090041684565b60408051941515855260ff909316602085015273ffffffffffffffffffffffffffffffffffffffff90911691830191909152151560608201526080016102ab565b3480156104de57600080fd5b5060045473ffffffffffffffffffffffffffffffffffffffff166102f4565b34801561050957600080fd5b506102476105183660046131a7565b6114e9565b34801561052957600080fd5b5061055561053836600461322a565b600260209081526000928352604080842090915290825290205481565b6040519081526020016102ab565b34801561056f57600080fd5b5060035473ffffffffffffffffffffffffffffffffffffffff166102f4565b34801561059a57600080fd5b506004546102f49073ffffffffffffffffffffffffffffffffffffffff1681565b3480156105c757600080fd5b506102476105d6366004613271565b6115bd565b3480156105e757600080fd5b506102476105f63660046132e8565b611857565b34801561060757600080fd5b506037546102f49073ffffffffffffffffffffffffffffffffffffffff1681565b34801561063457600080fd5b5061049161064336600461318a565b60336020526000908152604090205460ff80821691610100810482169173ffffffffffffffffffffffffffffffffffffffff620100008304169176010000000000000000000000000000000000000000000090041684565b3480156106a757600080fd5b506102476106b6366004613271565b611a92565b6102476106c936600461336a565b611d0c565b3480156106da57600080fd5b506035546102f49073ffffffffffffffffffffffffffffffffffffffff1681565b73ffffffffffffffffffffffffffffffffffffffff163b151590565b8234146107a6576040517f08c379a000000000000000000000000000000000000000000000000000000000815260206004820152603e60248201527f5374616e646172644272696467653a206272696467696e6720455448206d757360448201527f7420696e636c7564652073756666696369656e74204554482076616c75650000606482015260840161021f565b6107b285858584611d55565b60035460045460405173ffffffffffffffffffffffffffffffffffffffff92831692633dbb202b9287929116907f1635f5fd0000000000000000000000000000000000000000000000000000000090610815908b908b9086908a906024016133cd565b604080517fffffffffffffffffffffffffffffffffffffffffffffffffffffffffffffffe08184030181529181526020820180517bffffffffffffffffffffffffffffffffffffffffffffffffffffffff167fffffffff000000000000000000000000000000000000000000000000000000009485161790525160e086901b90921682526108a892918890600401613416565b6000604051808303818588803b1580156108c157600080fd5b505af11580156108d5573d6000803e3d6000fd5b50505050505050505050565b60035473ffffffffffffffffffffffffffffffffffffffff16331480156109b4575060048054600354604080517f6e296e45000000000000000000000000000000000000000000000000000000008152905173ffffffffffffffffffffffffffffffffffffffff938416949390921692636e296e459282820192602092908290030181865afa158015610978573d6000803e3d6000fd5b505050506040513d601f19601f8201168201806040525081019061099c919061345b565b73ffffffffffffffffffffffffffffffffffffffff16145b610a66576040517f08c379a000000000000000000000000000000000000000000000000000000000815260206004820152604160248201527f5374616e646172644272696467653a2066756e6374696f6e2063616e206f6e6c60448201527f792062652063616c6c65642066726f6d20746865206f7468657220627269646760648201527f6500000000000000000000000000000000000000000000000000000000000000608482015260a40161021f565b3073ffffffffffffffffffffffffffffffffffffffff851603610b0b576040517f08c379a000000000000000000000000000000000000000000000000000000000815260206004820152602360248201527f5374616e646172644272696467653a2063616e6e6f742073656e6420746f207360448201527f656c660000000000000000000000000000000000000000000000000000000000606482015260840161021f565b60035473ffffffffffffffffffffffffffffffffffffffff90811690851603610bb6576040517f08c379a000000000000000000000000000000000000000000000000000000000815260206004820152602860248201527f5374616e646172644272696467653a2063616e6e6f742073656e6420746f206d60448201527f657373656e676572000000000000000000000000000000000000000000000000606482015260840161021f565b603460009054906101000a900473ffffffffffffffffffffffffffffffffffffffff1673ffffffffffffffffffffffffffffffffffffffff166382bfefc86040518163ffffffff1660e01b8152600401602060405180830381865afa158015610c23573d6000803e3d6000fd5b505050506040513d601f19601f82011682018060405250810190610c47919061345b565b73ffffffffffffffffffffffffffffffffffffffff168773ffffffffffffffffffffffffffffffffffffffff1614610d01576040517f08c379a000000000000000000000000000000000000000000000000000000000815260206004820152602660248201527f4c31426c6173744272696467653a20756e737570706f72746564206c6f63616c60448201527f20746f6b656e0000000000000000000000000000000000000000000000000000606482015260840161021f565b603760009054906101000a900473ffffffffffffffffffffffffffffffffffffffff1673ffffffffffffffffffffffffffffffffffffffff166331a0edec6040518163ffffffff1660e01b8152600401602060405180830381865afa158015610d6e573d6000803e3d6000fd5b505050506040513d601f19601f82011682018060405250810190610d92919061345b565b73ffffffffffffffffffffffffffffffffffffffff168673ffffffffffffffffffffffffffffffffffffffff1614610e4c576040517f08c379a000000000000000000000000000000000000000000000000000000000815260206004820152603d60248201527f4c31426c6173744272696467653a206f6e6c7920555344422063616e2062652060448201527f77697468647261776e207468726f756768207468697320627269646765000000606482015260840161021f565b610e90878787878787878080601f016020809104026020016040519081016040528093929190818152602001838380828437600092019190915250611dc292505050565b6034546040517fda95ebf700000000000000000000000000000000000000000000000000000000815273ffffffffffffffffffffffffffffffffffffffff8681166004830152602482018690529091169063da95ebf7906044016020604051808303816000875af1158015610f09573d6000803e3d6000fd5b505050506040513d601f19601f82011682018060405250810190610f2d9190613478565b5050505050505050565b333b15610fc6576040517f08c379a000000000000000000000000000000000000000000000000000000000815260206004820152603760248201527f5374616e646172644272696467653a2066756e6374696f6e2063616e206f6e6c60448201527f792062652063616c6c65642066726f6d20616e20454f41000000000000000000606482015260840161021f565b6110093333348686868080601f01602080910402602001604051908101604052809392919081815260200183838082843760009201919091525061071792505050565b505050565b60035473ffffffffffffffffffffffffffffffffffffffff16331480156110e1575060048054600354604080517f6e296e45000000000000000000000000000000000000000000000000000000008152905173ffffffffffffffffffffffffffffffffffffffff938416949390921692636e296e459282820192602092908290030181865afa1580156110a5573d6000803e3d6000fd5b505050506040513d601f19601f820116820180604052508101906110c9919061345b565b73ffffffffffffffffffffffffffffffffffffffff16145b611193576040517f08c379a000000000000000000000000000000000000000000000000000000000815260206004820152604160248201527f5374616e646172644272696467653a2066756e6374696f6e2063616e206f6e6c60448201527f792062652063616c6c65642066726f6d20746865206f7468657220627269646760648201527f6500000000000000000000000000000000000000000000000000000000000000608482015260a40161021f565b82341115611223576040517f08c379a000000000000000000000000000000000000000000000000000000000815260206004820152603260248201527f4c31426c6173744272696467653a20616d6f756e742073656e7420657863656560448201527f647320616d6f756e742072657175697265640000000000000000000000000000606482015260840161021f565b3073ffffffffffffffffffffffffffffffffffffffff8516036112c8576040517f08c379a000000000000000000000000000000000000000000000000000000000815260206004820152602260248201527f4c31426c6173744272696467653a2063616e6e6f742073656e6420746f20736560448201527f6c66000000000000000000000000000000000000000000000000000000000000606482015260840161021f565b60035473ffffffffffffffffffffffffffffffffffffffff90811690851603611373576040517f08c379a000000000000000000000000000000000000000000000000000000000815260206004820152602760248201527f4c31426c6173744272696467653a2063616e6e6f742073656e6420746f206d6560448201527f7373656e67657200000000000000000000000000000000000000000000000000606482015260840161021f565b6113b585853485858080601f016020809104026020016040519081016040528093929190818152602001838380828437600092019190915250611e4a92505050565b60006113d2855a3460405180602001604052806000815250611ea9565b905080611461576040517f08c379a000000000000000000000000000000000000000000000000000000000815260206004820152602260248201527f4c32426c6173744272696467653a20455448207472616e73666572206661696c60448201527f6564000000000000000000000000000000000000000000000000000000000000606482015260840161021f565b505050505050565b6000603f61147e604063ffffffff85166134c0565b611488919061351f565b6114959062030d40613546565b92915050565b6114e087873388888888888080601f016020809104026020016040519081016040528093929190818152602001838380828437600092019190915250611ec392505050565b50505050505050565b333b15611578576040517f08c379a000000000000000000000000000000000000000000000000000000000815260206004820152603760248201527f5374616e646172644272696467653a2066756e6374696f6e2063616e206f6e6c60448201527f792062652063616c6c65642066726f6d20616e20454f41000000000000000000606482015260840161021f565b61146186863333888888888080601f016020809104026020016040519081016040528093929190818152602001838380828437600092019190915250611ec392505050565b603560009054906101000a900473ffffffffffffffffffffffffffffffffffffffff1673ffffffffffffffffffffffffffffffffffffffff16638da5cb5b6040518163ffffffff1660e01b8152600401602060405180830381865afa15801561162a573d6000803e3d6000fd5b505050506040513d601f19601f8201168201806040525081019061164e919061345b565b73ffffffffffffffffffffffffffffffffffffffff163373ffffffffffffffffffffffffffffffffffffffff1614611708576040517f08c379a000000000000000000000000000000000000000000000000000000000815260206004820152603260248201527f4c31426c6173744272696467653a206f6e6c79204554485969656c644d616e6160448201527f676572206f776e65722063616e2063616c6c0000000000000000000000000000606482015260840161021f565b73ffffffffffffffffffffffffffffffffffffffff851661172857600080fd5b60408051608081018252941515855260ff938416602080870191825273ffffffffffffffffffffffffffffffffffffffff948516878401908152931515606088019081529785166000908152603390915291909120945185549151925196511515760100000000000000000000000000000000000000000000027fffffffffffffffffff00ffffffffffffffffffffffffffffffffffffffffffff979094166201000002969096167fffffffffffffffffff000000000000000000000000000000000000000000ffff92909416610100027fffffffffffffffffffffffffffffffffffffffffffffffffffffffffffff00ff961515969096167fffffffffffffffffffffffffffffffffffffffffffffffffffffffffffff000090911617949094179390931617919091179055565b600054610100900460ff16158080156118775750600054600160ff909116105b806118915750303b158015611891575060005460ff166001145b61191d576040517f08c379a000000000000000000000000000000000000000000000000000000000815260206004820152602e60248201527f496e697469616c697a61626c653a20636f6e747261637420697320616c72656160448201527f647920696e697469616c697a6564000000000000000000000000000000000000606482015260840161021f565b600080547fffffffffffffffffffffffffffffffffffffffffffffffffffffffffffffff00166001179055801561197b57600080547fffffffffffffffffffffffffffffffffffffffffffffffffffffffffffff00ff166101001790555b603680547fffffffffffffffffffffffff00000000000000000000000000000000000000001673ffffffffffffffffffffffffffffffffffffffff89161790556119c58683612931565b6034805473ffffffffffffffffffffffffffffffffffffffff8088167fffffffffffffffffffffffff00000000000000000000000000000000000000009283161790925560358054878416908316179055603780549286169290911691909117905580156114e057600080547fffffffffffffffffffffffffffffffffffffffffffffffffffffffffffff00ff169055604051600181527f7f26b83ff96e1f2b6a682f133852f6798a09c465da95921460cefb38474024989060200160405180910390a150505050505050565b603460009054906101000a900473ffffffffffffffffffffffffffffffffffffffff1673ffffffffffffffffffffffffffffffffffffffff16638da5cb5b6040518163ffffffff1660e01b8152600401602060405180830381865afa158015611aff573d6000803e3d6000fd5b505050506040513d601f19601f82011682018060405250810190611b23919061345b565b73ffffffffffffffffffffffffffffffffffffffff163373ffffffffffffffffffffffffffffffffffffffff1614611bdd576040517f08c379a000000000000000000000000000000000000000000000000000000000815260206004820152603260248201527f4c31426c6173744272696467653a206f6e6c79205553445969656c644d616e6160448201527f676572206f776e65722063616e2063616c6c0000000000000000000000000000606482015260840161021f565b60408051608081018252941515855260ff938416602080870191825273ffffffffffffffffffffffffffffffffffffffff948516878401908152931515606088019081529785166000908152603290915291909120945185549151925196511515760100000000000000000000000000000000000000000000027fffffffffffffffffff00ffffffffffffffffffffffffffffffffffffffffffff979094166201000002969096167fffffffffffffffffff000000000000000000000000000000000000000000ffff92909416610100027fffffffffffffffffffffffffffffffffffffffffffffffffffffffffffff00ff961515969096167fffffffffffffffffffffffffffffffffffffffffffffffffffffffffffff000090911617949094179390931617919091179055565b611d4f3385348686868080601f01602080910402602001604051908101604052809392919081815260200183838082843760009201919091525061071792505050565b50505050565b8273ffffffffffffffffffffffffffffffffffffffff168473ffffffffffffffffffffffffffffffffffffffff167f2849b43074093a05396b6f2a937dee8565b15a48a7b3d4bffb732a5017380af58484604051611db4929190613572565b60405180910390a350505050565b8373ffffffffffffffffffffffffffffffffffffffff168573ffffffffffffffffffffffffffffffffffffffff168773ffffffffffffffffffffffffffffffffffffffff167fd59c65b35445225835c83f50b6ede06a7be047d22e357073e250d9af537518cd868686604051611e3a9392919061358b565b60405180910390a4505050505050565b8273ffffffffffffffffffffffffffffffffffffffff168473ffffffffffffffffffffffffffffffffffffffff167f31b2166ff604fc5672ea5df08a78081d2bc6d746cadce880747f3643d819e83d8484604051611db4929190613572565b600080600080845160208601878a8af19695505050505050565b73ffffffffffffffffffffffffffffffffffffffff8088166000818152603260209081526040808320815160808082018452915460ff80821615158352610100808304821684880152620100008084048b168588015276010000000000000000000000000000000000000000000093849004831615156060808701919091529989526033885297869020865195860187525480831615158652908104821696850196909652958504909716928201929092529490910490911615159183019190915280519091901561255157603760009054906101000a900473ffffffffffffffffffffffffffffffffffffffff1673ffffffffffffffffffffffffffffffffffffffff166331a0edec6040518163ffffffff1660e01b8152600401602060405180830381865afa158015611ffc573d6000803e3d6000fd5b505050506040513d601f19601f82011682018060405250810190612020919061345b565b73ffffffffffffffffffffffffffffffffffffffff168873ffffffffffffffffffffffffffffffffffffffff16146120da576040517f08c379a000000000000000000000000000000000000000000000000000000000815260206004820152603560248201527f4c31426c6173744272696467653a207468697320746f6b656e2063616e206f6e60448201527f6c79206265206272696467656420746f20555344420000000000000000000000606482015260840161021f565b6034546121039073ffffffffffffffffffffffffffffffffffffffff8b8116918a911688612a1b565b600061211886846020015160ff166012612ab0565b6034546040517f89eabf0200000000000000000000000000000000000000000000000000000000815291925060009173ffffffffffffffffffffffffffffffffffffffff909116906389eabf0290612178908e9086908a9060040161358b565b6020604051808303816000875af1158015612197573d6000803e3d6000fd5b505050506040513d601f19601f820116820180604052508101906121bb9190613478565b905083606001511561227c57604084015173ffffffffffffffffffffffffffffffffffffffff166121eb57600080fd5b60345460408581015190517f959598c400000000000000000000000000000000000000000000000000000000815273ffffffffffffffffffffffffffffffffffffffff91821660048201526024810184905291169063959598c490604401600060405180830381600087803b15801561226357600080fd5b505af1158015612277573d6000803e3d6000fd5b505050505b61228a8b8b8b8b858a612b06565b600354603754604080517ff8c62274000000000000000000000000000000000000000000000000000000008152905173ffffffffffffffffffffffffffffffffffffffff93841693633dbb202b93169163f8c622749160048083019260209291908290030181865afa158015612304573d6000803e3d6000fd5b505050506040513d601f19601f82011682018060405250810190612328919061345b565b603754604080517f31a0edec00000000000000000000000000000000000000000000000000000000815290517f0166a07a000000000000000000000000000000000000000000000000000000009273ffffffffffffffffffffffffffffffffffffffff16916331a0edec9160048083019260209291908290030181865afa1580156123b7573d6000803e3d6000fd5b505050506040513d601f19601f820116820180604052508101906123db919061345b565b603460009054906101000a900473ffffffffffffffffffffffffffffffffffffffff1673ffffffffffffffffffffffffffffffffffffffff166382bfefc86040518163ffffffff1660e01b8152600401602060405180830381865afa158015612448573d6000803e3d6000fd5b505050506040513d601f19601f8201168201806040525081019061246c919061345b565b8e8e888d604051602401612485969594939291906135c9565b604080517fffffffffffffffffffffffffffffffffffffffffffffffffffffffffffffffe08184030181529181526020820180517bffffffffffffffffffffffffffffffffffffffffffffffffffffffff167fffffffff000000000000000000000000000000000000000000000000000000009485161790525160e085901b909216825261251892918b90600401613416565b600060405180830381600087803b15801561253257600080fd5b505af1158015612546573d6000803e3d6000fd5b505050505050612926565b80511561289e5773ffffffffffffffffffffffffffffffffffffffff8816156125fc576040517f08c379a000000000000000000000000000000000000000000000000000000000815260206004820152603460248201527f4c31426c6173744272696467653a207468697320746f6b656e2063616e206f6e60448201527f6c79206265206272696467656420746f20455448000000000000000000000000606482015260840161021f565b6035546126259073ffffffffffffffffffffffffffffffffffffffff8b8116918a911688612a1b565b8060600151156126e457604081015173ffffffffffffffffffffffffffffffffffffffff1661265357600080fd5b60355460408281015190517f959598c400000000000000000000000000000000000000000000000000000000815273ffffffffffffffffffffffffffffffffffffffff91821660048201526024810188905291169063959598c490604401600060405180830381600087803b1580156126cb57600080fd5b505af11580156126df573d6000803e3d6000fd5b505050505b60006126f986836020015160ff166012612ab0565b90506127098a8a8a8a8589612b06565b603654603754604080517ff8c62274000000000000000000000000000000000000000000000000000000008152905173ffffffffffffffffffffffffffffffffffffffff9384169363e9e05c4293169163f8c622749160048083019260209291908290030181865afa158015612783573d6000803e3d6000fd5b505050506040513d601f19601f820116820180604052508101906127a7919061345b565b836127b189611469565b600063a47a5c3560e01b8e8e898d6040516024016127d294939291906133cd565b604080517fffffffffffffffffffffffffffffffffffffffffffffffffffffffffffffffe08184030181529181526020820180517bffffffffffffffffffffffffffffffffffffffffffffffffffffffff167fffffffff000000000000000000000000000000000000000000000000000000009485161790525160e088901b90921682526128669594939291600401613624565b600060405180830381600087803b15801561288057600080fd5b505af1158015612894573d6000803e3d6000fd5b5050505050612926565b6040517f08c379a000000000000000000000000000000000000000000000000000000000815260206004820152602c60248201527f4c31426c6173744272696467653a2062726964676520746f6b656e206973206e60448201527f6f7420737570706f727465640000000000000000000000000000000000000000606482015260840161021f565b505050505050505050565b600054610100900460ff166129c8576040517f08c379a000000000000000000000000000000000000000000000000000000000815260206004820152602b60248201527f496e697469616c697a61626c653a20636f6e7472616374206973206e6f74206960448201527f6e697469616c697a696e67000000000000000000000000000000000000000000606482015260840161021f565b6003805473ffffffffffffffffffffffffffffffffffffffff9384167fffffffffffffffffffffffff00000000000000000000000000000000000000009182161790915560048054929093169116179055565b6040805173ffffffffffffffffffffffffffffffffffffffff85811660248301528416604482015260648082018490528251808303909101815260849091019091526020810180517bffffffffffffffffffffffffffffffffffffffffffffffffffffffff167f23b872dd00000000000000000000000000000000000000000000000000000000179052611d4f908590612b7e565b600081831115612ae057612ac48284613671565b612acf90600a6137a8565b612ad990856137b4565b9050612aff565b612aea8383613671565b612af590600a6137a8565b612ad990856137c8565b9392505050565b8373ffffffffffffffffffffffffffffffffffffffff168573ffffffffffffffffffffffffffffffffffffffff168773ffffffffffffffffffffffffffffffffffffffff167f7ff126db8024424bbfd9826e8ab82ff59136289ea440b04b39a0df1b03b9cabf868686604051611e3a9392919061358b565b6000612be0826040518060400160405280602081526020017f5361666545524332303a206c6f772d6c6576656c2063616c6c206661696c65648152508573ffffffffffffffffffffffffffffffffffffffff16612c8a9092919063ffffffff16565b8051909150156110095780806020019051810190612bfe9190613805565b611009576040517f08c379a000000000000000000000000000000000000000000000000000000000815260206004820152602a60248201527f5361666545524332303a204552433230206f7065726174696f6e20646964206e60448201527f6f74207375636365656400000000000000000000000000000000000000000000606482015260840161021f565b6060612c998484600085612ca1565b949350505050565b606082471015612d33576040517f08c379a000000000000000000000000000000000000000000000000000000000815260206004820152602660248201527f416464726573733a20696e73756666696369656e742062616c616e636520666f60448201527f722063616c6c0000000000000000000000000000000000000000000000000000606482015260840161021f565b73ffffffffffffffffffffffffffffffffffffffff85163b612db1576040517f08c379a000000000000000000000000000000000000000000000000000000000815260206004820152601d60248201527f416464726573733a2063616c6c20746f206e6f6e2d636f6e7472616374000000604482015260640161021f565b6000808673ffffffffffffffffffffffffffffffffffffffff168587604051612dda9190613822565b60006040518083038185875af1925050503d8060008114612e17576040519150601f19603f3d011682016040523d82523d6000602084013e612e1c565b606091505b5091509150612e2c828286612e37565b979650505050505050565b60608315612e46575081612aff565b825115612e565782518084602001fd5b816040517f08c379a000000000000000000000000000000000000000000000000000000000815260040161021f9190613177565b73ffffffffffffffffffffffffffffffffffffffff81168114612eac57600080fd5b50565b60008083601f840112612ec157600080fd5b50813567ffffffffffffffff811115612ed957600080fd5b602083019150836020828501011115612ef157600080fd5b9250929050565b600080600080600080600060c0888a031215612f1357600080fd5b8735612f1e81612e8a565b96506020880135612f2e81612e8a565b95506040880135612f3e81612e8a565b94506060880135612f4e81612e8a565b93506080880135925060a088013567ffffffffffffffff811115612f7157600080fd5b612f7d8a828b01612eaf565b989b979a50959850939692959293505050565b803563ffffffff81168114612fa457600080fd5b919050565b600080600060408486031215612fbe57600080fd5b612fc784612f90565b9250602084013567ffffffffffffffff811115612fe357600080fd5b612fef86828701612eaf565b9497909650939450505050565b60008060008060006080868803121561301457600080fd5b853561301f81612e8a565b9450602086013561302f81612e8a565b935060408601359250606086013567ffffffffffffffff81111561305257600080fd5b61305e88828901612eaf565b969995985093965092949392505050565b60006020828403121561308157600080fd5b612aff82612f90565b600080600080600080600060c0888a0312156130a557600080fd5b87356130b081612e8a565b965060208801356130c081612e8a565b955060408801356130d081612e8a565b9450606088013593506130e560808901612f90565b925060a088013567ffffffffffffffff811115612f7157600080fd5b60005b8381101561311c578181015183820152602001613104565b83811115611d4f5750506000910152565b60008151808452613145816020860160208601613101565b601f017fffffffffffffffffffffffffffffffffffffffffffffffffffffffffffffffe0169290920160200192915050565b602081526000612aff602083018461312d565b60006020828403121561319c57600080fd5b8135612aff81612e8a565b60008060008060008060a087890312156131c057600080fd5b86356131cb81612e8a565b955060208701356131db81612e8a565b9450604087013593506131f060608801612f90565b9250608087013567ffffffffffffffff81111561320c57600080fd5b61321889828a01612eaf565b979a9699509497509295939492505050565b6000806040838503121561323d57600080fd5b823561324881612e8a565b9150602083013561325881612e8a565b809150509250929050565b8015158114612eac57600080fd5b600080600080600060a0868803121561328957600080fd5b853561329481612e8a565b945060208601356132a481613263565b9350604086013560ff811681146132ba57600080fd5b925060608601356132ca81612e8a565b915060808601356132da81613263565b809150509295509295909350565b60008060008060008060c0878903121561330157600080fd5b863561330c81612e8a565b9550602087013561331c81612e8a565b9450604087013561332c81612e8a565b9350606087013561333c81612e8a565b9250608087013561334c81612e8a565b915060a087013561335c81612e8a565b809150509295509295509295565b6000806000806060858703121561338057600080fd5b843561338b81612e8a565b935061339960208601612f90565b9250604085013567ffffffffffffffff8111156133b557600080fd5b6133c187828801612eaf565b95989497509550505050565b600073ffffffffffffffffffffffffffffffffffffffff80871683528086166020840152508360408301526080606083015261340c608083018461312d565b9695505050505050565b73ffffffffffffffffffffffffffffffffffffffff84168152606060208201526000613445606083018561312d565b905063ffffffff83166040830152949350505050565b60006020828403121561346d57600080fd5b8151612aff81612e8a565b60006020828403121561348a57600080fd5b5051919050565b7f4e487b7100000000000000000000000000000000000000000000000000000000600052601160045260246000fd5b600067ffffffffffffffff808316818516818304811182151516156134e7576134e7613491565b02949350505050565b7f4e487b7100000000000000000000000000000000000000000000000000000000600052601260045260246000fd5b600067ffffffffffffffff8084168061353a5761353a6134f0565b92169190910492915050565b600067ffffffffffffffff80831681851680830382111561356957613569613491565b01949350505050565b828152604060208201526000612c99604083018461312d565b73ffffffffffffffffffffffffffffffffffffffff841681528260208201526060604082015260006135c0606083018461312d565b95945050505050565b600073ffffffffffffffffffffffffffffffffffffffff80891683528088166020840152808716604084015280861660608401525083608083015260c060a083015261361860c083018461312d565b98975050505050505050565b73ffffffffffffffffffffffffffffffffffffffff8616815284602082015267ffffffffffffffff84166040820152821515606082015260a060808201526000612e2c60a083018461312d565b60008282101561368357613683613491565b500390565b600181815b808511156136e157817fffffffffffffffffffffffffffffffffffffffffffffffffffffffffffffffff048211156136c7576136c7613491565b808516156136d457918102915b93841c939080029061368d565b509250929050565b6000826136f857506001611495565b8161370557506000611495565b816001811461371b576002811461372557613741565b6001915050611495565b60ff84111561373657613736613491565b50506001821b611495565b5060208310610133831016604e8410600b8410161715613764575081810a611495565b61376e8383613688565b807fffffffffffffffffffffffffffffffffffffffffffffffffffffffffffffffff048211156137a0576137a0613491565b029392505050565b6000612aff83836136e9565b6000826137c3576137c36134f0565b500490565b6000817fffffffffffffffffffffffffffffffffffffffffffffffffffffffffffffffff048311821515161561380057613800613491565b500290565b60006020828403121561381757600080fd5b8151612aff81613263565b60008251613834818460208701613101565b919091019291505056fea164736f6c634300080f000a",
  "devdoc": {
    "version": 1,
    "kind": "dev",
    "methods": {
      "MESSENGER()": {},
      "baseGas(uint32)": {
        "params": {
          "_minGasLimit": "Minimum desired gas limit when deposit goes to target."
        },
        "returns": {
          "_0": "Amount of gas required to guarantee deposit receipt."
        }
      },
      "bridgeERC20(address,address,uint256,uint32,bytes)": {
        "params": {
          "_amount": "Amount of local tokens to deposit.",
          "_extraData": "Extra data to be sent with the transaction. Note that the recipient will                     not be triggered with this data, but it will be emitted and can be used                     to identify the transaction.",
          "_localToken": "Address of the ERC20 on this chain.",
          "_minGasLimit": "Minimum amount of gas that the bridge can be relayed with.",
          "_remoteToken": "Address of the corresponding token on the remote chain."
        }
      },
      "bridgeERC20To(address,address,address,uint256,uint32,bytes)": {
        "params": {
          "_amount": "Amount of local tokens to deposit.",
          "_extraData": "Extra data to be sent with the transaction. Note that the recipient will                     not be triggered with this data, but it will be emitted and can be used                     to identify the transaction.",
          "_localToken": "Address of the ERC20 on this chain.",
          "_minGasLimit": "Minimum amount of gas that the bridge can be relayed with.",
          "_remoteToken": "Address of the corresponding token on the remote chain.",
          "_to": "Address of the receiver."
        }
      },
      "bridgeETH(uint32,bytes)": {
        "params": {
          "_extraData": "Extra data to be sent with the transaction. Note that the recipient will                     not be triggered with this data, but it will be emitted and can be used                     to identify the transaction.",
          "_minGasLimit": "Minimum amount of gas that the bridge can be relayed with."
        }
      },
      "bridgeETHTo(address,uint32,bytes)": {
        "params": {
          "_extraData": "Extra data to be sent with the transaction. Note that the recipient will                     not be triggered with this data, but it will be emitted and can be used                     to identify the transaction.",
          "_minGasLimit": "Minimum amount of gas that the bridge can be relayed with.",
          "_to": "Address of the receiver."
        }
      },
      "constructor": {},
      "finalizeBridgeERC20(address,address,address,address,uint256,bytes)": {
        "params": {
          "_amount": "Amount of the ERC20 being bridged.",
          "_extraData": "Extra data to be sent with the transaction. Note that the recipient will                     not be triggered with this data, but it will be emitted and can be used                     to identify the transaction.",
          "_from": "Address of the sender.",
          "_localToken": "Address of the ERC20 on this chain.",
          "_remoteToken": "Address of the corresponding token on the remote chain.",
          "_to": "Address of the receiver."
        }
      },
      "finalizeBridgeETH(address,address,uint256,bytes)": {
        "params": {
          "_amount": "Amount of ETH being bridged.",
          "_extraData": "Extra data to be sent with the transaction. Note that the recipient will                   not be triggered with this data, but it will be emitted and can be used                   to identify the transaction.",
          "_from": "Address of the sender.",
          "_to": "Address of the receiver."
        }
      },
      "initialize(address,address,address,address,address)": {
        "params": {
          "_ethYieldManager": "Address of the ETHYieldManager.",
          "_messenger": "Address of the L1CrossDomainMessenger.",
          "_portal": "Address of the PatexPortal.",
          "_usdYieldManager": "Address of the USDYieldManager."
        }
      },
      "setETHYieldToken(address,bool,uint8,address,bool)": {
        "params": {
          "approved": "Whether the token is an approved yield token.",
          "decimals": "Number of token decimals.",
          "provider": "Address of the yield provider for the token.",
          "reportStakedBalance": "Whether a deposit needs to be reported to the yield provider.",
          "token": "Address of token."
        }
      },
      "setUSDYieldToken(address,bool,uint8,address,bool)": {
        "params": {
          "approved": "Whether the token is an approved yield token.",
          "decimals": "Number of token decimals.",
          "provider": "Address of the yield provider for the token.",
          "reportStakedBalance": "Whether a deposit needs to be reported to the yield provider.",
          "token": "Address of token."
        }
      }
    }
  },
  "userdoc": {
    "version": 1,
    "kind": "user",
    "methods": {
      "MESSENGER()": {
        "notice": "Getter for messenger contract."
      },
      "MIN_GAS_DYNAMIC_OVERHEAD_DENOMINATOR()": {
        "notice": "Denominator for dynamic overhead added to the base gas for a message."
      },
      "MIN_GAS_DYNAMIC_OVERHEAD_NUMERATOR()": {
        "notice": "Numerator for dynamic overhead added to the base gas for a message."
      },
      "OTHER_BRIDGE()": {
        "notice": "Corresponding bridge on the other domain."
      },
      "baseGas(uint32)": {
        "notice": "Computes the amount of gas required to guarantee that a given deposit will be         received on the other chain without running out of gas."
      },
      "bridgeERC20(address,address,uint256,uint32,bytes)": {
        "notice": "Sends ERC20 tokens to the sender's address on the other chain. Note that if the         ERC20 token on the other chain does not recognize the local token as the correct         pair token, the ERC20 bridge will fail and the tokens will be returned to sender on         this chain."
      },
      "bridgeERC20To(address,address,address,uint256,uint32,bytes)": {
        "notice": "Sends ERC20 tokens to a receiver's address on the other chain. Note that if the         ERC20 token on the other chain does not recognize the local token as the correct         pair token, the ERC20 bridge will fail and the tokens will be returned to sender on         this chain."
      },
      "bridgeETH(uint32,bytes)": {
        "notice": "Sends ETH to the sender's address on the other chain."
      },
      "bridgeETHTo(address,uint32,bytes)": {
        "notice": "Sends ETH to a receiver's address on the other chain. Note that if ETH is sent to a         smart contract and the call fails, the ETH will be temporarily locked in the         StandardBridge on the other chain until the call is replayed. If the call cannot be         replayed with any amount of gas (call always reverts), then the ETH will be         permanently locked in the StandardBridge on the other chain. ETH will also         be locked if the receiver is the other bridge, because finalizeBridgeETH will revert         in that case."
      },
      "constructor": {
        "notice": "Constructs the L1PatexBridge contract."
      },
      "deposits(address,address)": {
        "notice": "Mapping that stores deposits for a given pair of local and remote tokens."
      },
      "ethYieldManager()": {
        "notice": "Address of the ETH Yield Manager."
      },
      "ethYieldTokens(address)": {
        "notice": "Mapping of potential deposit tokens to whether they're         approved as ETH yield tokens and additional metadata."
      },
      "finalizeBridgeERC20(address,address,address,address,uint256,bytes)": {
        "notice": "Finalizes an ERC20 bridge on this chain. Can only be triggered by the other         PatexBridge contract on the remote chain."
      },
      "finalizeBridgeETH(address,address,uint256,bytes)": {
        "notice": "Patex: This function is modified from StandardBridge to enable discounted withdrawals on L1. The `msg.value` check is less strict and `msg.value` is used instead of `_amount` in the following steps."
      },
      "initialize(address,address,address,address,address)": {
        "notice": "Initializer"
      },
      "messenger()": {
        "notice": "Messenger contract on this domain. This public getter is deprecated         and will be removed in the future. Please use `messenger` instead."
      },
      "otherBridge()": {
        "notice": "Getter for the remote domain bridge contract."
      },
      "portal()": {
        "notice": "Address of the PatexPortal."
      },
      "setETHYieldToken(address,bool,uint8,address,bool)": {
        "notice": "Add/remove an approved ETH yield token."
      },
      "setUSDYieldToken(address,bool,uint8,address,bool)": {
        "notice": "Add/remove an approved USD yield token."
      },
      "usdYieldManager()": {
        "notice": "Address of the USD Yield Manager."
      },
      "usdYieldTokens(address)": {
        "notice": "Mapping of potential deposit tokens to whether they're         approved as USD yield tokens and additional metadata."
      },
      "version()": {
        "notice": "Semantic version."
      }
    },
    "events": {
      "ERC20BridgeFinalized(address,address,address,address,uint256,bytes)": {
        "notice": "Emitted when an ERC20 bridge is finalized on this chain."
      },
      "ERC20BridgeInitiated(address,address,address,address,uint256,bytes)": {
        "notice": "Emitted when an ERC20 bridge is initiated to the other chain."
      },
      "ETHBridgeFinalized(address,address,uint256,bytes)": {
        "notice": "Emitted when an ETH bridge is finalized on this chain."
      },
      "ETHBridgeInitiated(address,address,uint256,bytes)": {
        "notice": "Emitted when an ETH bridge is initiated to the other chain."
      }
    },
    "notice": "The L1PatexBridge is responsible for transferring ETH and yield-bearing ERC20 tokens between L1 and L2.         The current implementation converts all deposited USD tokens to DAI before bridging them to L2 to mint USDB.         Hence, the amount of USDB that is minted on L2 will be equal to the amount of DAI that is received on L1.         This is done to simplify the yield management, as DSR is the only yield provider that is currently supported.         When non-DAI USD tokens are deposited, the user is expected to provide the minimum amount of DAI that should         be received (i.e. the minimum amount of USDB that should be minted on L2). This amount must be specified         in the extraData field of the deposit transaction (uint256 minAmountInWad)."
  },
  "storageLayout": {
    "storage": [
      {
        "astId": 21417,
        "contract": "contracts/mainnet-bridge/L1PatexBridge.sol:L1PatexBridge",
        "label": "_initialized",
        "offset": 0,
        "slot": "0",
        "type": "t_uint8"
      },
      {
        "astId": 21420,
        "contract": "contracts/mainnet-bridge/L1PatexBridge.sol:L1PatexBridge",
        "label": "_initializing",
        "offset": 1,
        "slot": "0",
        "type": "t_bool"
      },
      {
        "astId": 27319,
        "contract": "contracts/mainnet-bridge/L1PatexBridge.sol:L1PatexBridge",
        "label": "spacer_0_2_20",
        "offset": 2,
        "slot": "0",
        "type": "t_address"
      },
      {
        "astId": 27322,
        "contract": "contracts/mainnet-bridge/L1PatexBridge.sol:L1PatexBridge",
        "label": "spacer_1_0_20",
        "offset": 0,
        "slot": "1",
        "type": "t_address"
      },
      {
        "astId": 27329,
        "contract": "contracts/mainnet-bridge/L1PatexBridge.sol:L1PatexBridge",
        "label": "deposits",
        "offset": 0,
        "slot": "2",
        "type": "t_mapping(t_address,t_mapping(t_address,t_uint256))"
      },
      {
        "astId": 27333,
        "contract": "contracts/mainnet-bridge/L1PatexBridge.sol:L1PatexBridge",
        "label": "messenger",
        "offset": 0,
        "slot": "3",
        "type": "t_contract(CrossDomainMessenger)25361"
      },
      {
        "astId": 27338,
        "contract": "contracts/mainnet-bridge/L1PatexBridge.sol:L1PatexBridge",
        "label": "__gap",
        "offset": 0,
        "slot": "4",
        "type": "t_array(t_uint256)46_storage"
      },
      {
        "astId": 15097,
        "contract": "contracts/mainnet-bridge/L1PatexBridge.sol:L1PatexBridge",
        "label": "usdYieldTokens",
        "offset": 0,
        "slot": "50",
        "type": "t_mapping(t_address,t_struct(YieldToken)15083_storage)"
      },
      {
        "astId": 15103,
        "contract": "contracts/mainnet-bridge/L1PatexBridge.sol:L1PatexBridge",
        "label": "ethYieldTokens",
        "offset": 0,
        "slot": "51",
        "type": "t_mapping(t_address,t_struct(YieldToken)15083_storage)"
      },
      {
        "astId": 15107,
        "contract": "contracts/mainnet-bridge/L1PatexBridge.sol:L1PatexBridge",
        "label": "usdYieldManager",
        "offset": 0,
        "slot": "52",
        "type": "t_contract(USDYieldManager)16802"
      },
      {
        "astId": 15111,
        "contract": "contracts/mainnet-bridge/L1PatexBridge.sol:L1PatexBridge",
        "label": "ethYieldManager",
        "offset": 0,
        "slot": "53",
        "type": "t_contract(ETHYieldManager)14871"
      },
      {
        "astId": 15115,
        "contract": "contracts/mainnet-bridge/L1PatexBridge.sol:L1PatexBridge",
        "label": "portal",
        "offset": 0,
        "slot": "54",
        "type": "t_contract(PatexPortal)2509"
      },
      {
        "astId": 15118,
        "contract": "contracts/mainnet-bridge/L1PatexBridge.sol:L1PatexBridge",
        "label": "postdeploys",
        "offset": 0,
        "slot": "55",
        "type": "t_contract(Postdeploys)7926"
      }
    ],
    "types": {
      "t_address": {
        "encoding": "inplace",
        "label": "address",
        "numberOfBytes": "20"
      },
      "t_array(t_uint256)46_storage": {
        "encoding": "inplace",
        "label": "uint256[46]",
        "numberOfBytes": "1472",
        "base": "t_uint256"
      },
      "t_bool": {
        "encoding": "inplace",
        "label": "bool",
        "numberOfBytes": "1"
      },
      "t_contract(CrossDomainMessenger)25361": {
        "encoding": "inplace",
        "label": "contract CrossDomainMessenger",
        "numberOfBytes": "20"
      },
      "t_contract(ETHYieldManager)14871": {
        "encoding": "inplace",
        "label": "contract ETHYieldManager",
        "numberOfBytes": "20"
      },
      "t_contract(PatexPortal)2509": {
        "encoding": "inplace",
        "label": "contract PatexPortal",
        "numberOfBytes": "20"
      },
      "t_contract(Postdeploys)7926": {
        "encoding": "inplace",
        "label": "contract Postdeploys",
        "numberOfBytes": "20"
      },
      "t_contract(USDYieldManager)16802": {
        "encoding": "inplace",
        "label": "contract USDYieldManager",
        "numberOfBytes": "20"
      },
      "t_mapping(t_address,t_mapping(t_address,t_uint256))": {
        "encoding": "mapping",
        "key": "t_address",
        "label": "mapping(address => mapping(address => uint256))",
        "numberOfBytes": "32",
        "value": "t_mapping(t_address,t_uint256)"
      },
      "t_mapping(t_address,t_struct(YieldToken)15083_storage)": {
        "encoding": "mapping",
        "key": "t_address",
        "label": "mapping(address => struct L1PatexBridge.YieldToken)",
        "numberOfBytes": "32",
        "value": "t_struct(YieldToken)15083_storage"
      },
      "t_mapping(t_address,t_uint256)": {
        "encoding": "mapping",
        "key": "t_address",
        "label": "mapping(address => uint256)",
        "numberOfBytes": "32",
        "value": "t_uint256"
      },
      "t_struct(YieldToken)15083_storage": {
        "encoding": "inplace",
        "label": "struct L1PatexBridge.YieldToken",
        "numberOfBytes": "32",
        "members": [
          {
            "astId": 15076,
            "contract": "contracts/mainnet-bridge/L1PatexBridge.sol:L1PatexBridge",
            "label": "approved",
            "offset": 0,
            "slot": "0",
            "type": "t_bool"
          },
          {
            "astId": 15078,
            "contract": "contracts/mainnet-bridge/L1PatexBridge.sol:L1PatexBridge",
            "label": "decimals",
            "offset": 1,
            "slot": "0",
            "type": "t_uint8"
          },
          {
            "astId": 15080,
            "contract": "contracts/mainnet-bridge/L1PatexBridge.sol:L1PatexBridge",
            "label": "provider",
            "offset": 2,
            "slot": "0",
            "type": "t_address"
          },
          {
            "astId": 15082,
            "contract": "contracts/mainnet-bridge/L1PatexBridge.sol:L1PatexBridge",
            "label": "reportStakedBalance",
            "offset": 22,
            "slot": "0",
            "type": "t_bool"
          }
        ]
      },
      "t_uint256": {
        "encoding": "inplace",
        "label": "uint256",
        "numberOfBytes": "32"
      },
      "t_uint8": {
        "encoding": "inplace",
        "label": "uint8",
        "numberOfBytes": "1"
      }
    }
  }
}