{
  "address": "0xc8b46b96677DD818bc02d5EC717407D8099A56Aa",
  "abi": [
    {
      "type": "constructor",
      "inputs": [
        {
          "name": "_yieldManager",
          "type": "address",
          "internalType": "contract YieldManager"
        }
      ],
      "stateMutability": "nonpayable"
    },
    {
      "type": "function",
      "name": "LIDO",
      "inputs": [],
      "outputs": [
        {
          "name": "",
          "type": "address",
          "internalType": "contract ILido"
        }
      ],
      "stateMutability": "view"
    },
    {
      "type": "function",
      "name": "THIS",
      "inputs": [],
      "outputs": [
        {
          "name": "",
          "type": "address",
          "internalType": "address"
        }
      ],
      "stateMutability": "view"
    },
    {
      "type": "function",
      "name": "WITHDRAWAL_QUEUE",
      "inputs": [],
      "outputs": [
        {
          "name": "",
          "type": "address",
          "internalType": "contract IWithdrawalQueue"
        }
      ],
      "stateMutability": "view"
    },
    {
      "type": "function",
      "name": "YIELD_MANAGER",
      "inputs": [],
      "outputs": [
        {
          "name": "",
          "type": "address",
          "internalType": "contract YieldManager"
        }
      ],
      "stateMutability": "view"
    },
    {
      "type": "function",
      "name": "claimBatchSize",
      "inputs": [],
      "outputs": [
        {
          "name": "",
          "type": "uint256",
          "internalType": "uint256"
        }
      ],
      "stateMutability": "view"
    },
    {
      "type": "function",
      "name": "commitYield",
      "inputs": [],
      "outputs": [
        {
          "name": "",
          "type": "int256",
          "internalType": "int256"
        }
      ],
      "stateMutability": "nonpayable"
    },
    {
      "type": "function",
      "name": "enqueueUnstakeRequest",
      "inputs": [
        {
          "name": "lidoRequestId",
          "type": "uint256",
          "internalType": "uint256"
        }
      ],
      "outputs": [],
      "stateMutability": "nonpayable"
    },
    {
      "type": "function",
      "name": "id",
      "inputs": [],
      "outputs": [
        {
          "name": "",
          "type": "bytes32",
          "internalType": "bytes32"
        }
      ],
      "stateMutability": "view"
    },
    {
      "type": "function",
      "name": "initialize",
      "inputs": [],
      "outputs": [],
      "stateMutability": "nonpayable"
    },
    {
      "type": "function",
      "name": "insuranceBalance",
      "inputs": [],
      "outputs": [
        {
          "name": "",
          "type": "uint256",
          "internalType": "uint256"
        }
      ],
      "stateMutability": "view"
    },
    {
      "type": "function",
      "name": "isStakingEnabled",
      "inputs": [
        {
          "name": "token",
          "type": "address",
          "internalType": "address"
        }
      ],
      "outputs": [
        {
          "name": "",
          "type": "bool",
          "internalType": "bool"
        }
      ],
      "stateMutability": "view"
    },
    {
      "type": "function",
      "name": "lastClaimedIndex",
      "inputs": [],
      "outputs": [
        {
          "name": "",
          "type": "uint256",
          "internalType": "uint256"
        }
      ],
      "stateMutability": "view"
    },
    {
      "type": "function",
      "name": "lastUnstakeRequestIndex",
      "inputs": [],
      "outputs": [
        {
          "name": "",
          "type": "uint256",
          "internalType": "uint256"
        }
      ],
      "stateMutability": "view"
    },
    {
      "type": "function",
      "name": "name",
      "inputs": [],
      "outputs": [
        {
          "name": "",
          "type": "string",
          "internalType": "string"
        }
      ],
      "stateMutability": "pure"
    },
    {
      "type": "function",
      "name": "payInsurancePremium",
      "inputs": [
        {
          "name": "amount",
          "type": "uint256",
          "internalType": "uint256"
        }
      ],
      "outputs": [],
      "stateMutability": "nonpayable"
    },
    {
      "type": "function",
      "name": "pendingBalance",
      "inputs": [],
      "outputs": [
        {
          "name": "",
          "type": "uint256",
          "internalType": "uint256"
        }
      ],
      "stateMutability": "view"
    },
    {
      "type": "function",
      "name": "preCommitYieldReportDelegateCallHook",
      "inputs": [],
      "outputs": [],
      "stateMutability": "nonpayable"
    },
    {
      "type": "function",
      "name": "recordClaimed",
      "inputs": [
        {
          "name": "claimed",
          "type": "uint256",
          "internalType": "uint256"
        },
        {
          "name": "expected",
          "type": "uint256",
          "internalType": "uint256"
        }
      ],
      "outputs": [],
      "stateMutability": "nonpayable"
    },
    {
      "type": "function",
      "name": "recordStakedDeposit",
      "inputs": [
        {
          "name": "amount",
          "type": "uint256",
          "internalType": "uint256"
        }
      ],
      "outputs": [],
      "stateMutability": "nonpayable"
    },
    {
      "type": "function",
      "name": "recordUnstaked",
      "inputs": [
        {
          "name": "pending",
          "type": "uint256",
          "internalType": "uint256"
        },
        {
          "name": "claimed",
          "type": "uint256",
          "internalType": "uint256"
        },
        {
          "name": "expected",
          "type": "uint256",
          "internalType": "uint256"
        }
      ],
      "outputs": [],
      "stateMutability": "nonpayable"
    },
    {
      "type": "function",
      "name": "setLastClaimedIndex",
      "inputs": [
        {
          "name": "index",
          "type": "uint256",
          "internalType": "uint256"
        }
      ],
      "outputs": [],
      "stateMutability": "nonpayable"
    },
    {
      "type": "function",
      "name": "stake",
      "inputs": [
        {
          "name": "amount",
          "type": "uint256",
          "internalType": "uint256"
        }
      ],
      "outputs": [],
      "stateMutability": "nonpayable"
    },
    {
      "type": "function",
      "name": "stakedBalance",
      "inputs": [],
      "outputs": [
        {
          "name": "",
          "type": "uint256",
          "internalType": "uint256"
        }
      ],
      "stateMutability": "view"
    },
    {
      "type": "function",
      "name": "stakedPrincipal",
      "inputs": [],
      "outputs": [
        {
          "name": "",
          "type": "uint256",
          "internalType": "uint256"
        }
      ],
      "stateMutability": "view"
    },
    {
      "type": "function",
      "name": "supportsInsurancePayment",
      "inputs": [],
      "outputs": [
        {
          "name": "",
          "type": "bool",
          "internalType": "bool"
        }
      ],
      "stateMutability": "view"
    },
    {
      "type": "function",
      "name": "totalValue",
      "inputs": [],
      "outputs": [
        {
          "name": "",
          "type": "uint256",
          "internalType": "uint256"
        }
      ],
      "stateMutability": "view"
    },
    {
      "type": "function",
      "name": "unstake",
      "inputs": [
        {
          "name": "amount",
          "type": "uint256",
          "internalType": "uint256"
        }
      ],
      "outputs": [
        {
          "name": "pending",
          "type": "uint256",
          "internalType": "uint256"
        },
        {
          "name": "claimed",
          "type": "uint256",
          "internalType": "uint256"
        }
      ],
      "stateMutability": "nonpayable"
    },
    {
      "type": "function",
      "name": "unstakeRequests",
      "inputs": [
        {
          "name": "",
          "type": "uint256",
          "internalType": "uint256"
        }
      ],
      "outputs": [
        {
          "name": "",
          "type": "uint256",
          "internalType": "uint256"
        }
      ],
      "stateMutability": "view"
    },
    {
      "type": "function",
      "name": "version",
      "inputs": [],
      "outputs": [
        {
          "name": "",
          "type": "string",
          "internalType": "string"
        }
      ],
      "stateMutability": "view"
    },
    {
      "type": "function",
      "name": "withdrawFromInsurance",
      "inputs": [
        {
          "name": "amount",
          "type": "uint256",
          "internalType": "uint256"
        }
      ],
      "outputs": [],
      "stateMutability": "nonpayable"
    },
    {
      "type": "function",
      "name": "yield",
      "inputs": [],
      "outputs": [
        {
          "name": "",
          "type": "int256",
          "internalType": "int256"
        }
      ],
      "stateMutability": "view"
    },
    {
      "type": "event",
      "name": "Claimed",
      "inputs": [
        {
          "name": "provider",
          "type": "bytes32",
          "indexed": true,
          "internalType": "bytes32"
        },
        {
          "name": "claimedAmount",
          "type": "uint256",
          "indexed": false,
          "internalType": "uint256"
        },
        {
          "name": "expectedAmount",
          "type": "uint256",
          "indexed": false,
          "internalType": "uint256"
        }
      ],
      "anonymous": false
    },
    {
      "type": "event",
      "name": "InsurancePremiumPaid",
      "inputs": [
        {
          "name": "provider",
          "type": "bytes32",
          "indexed": true,
          "internalType": "bytes32"
        },
        {
          "name": "amount",
          "type": "uint256",
          "indexed": false,
          "internalType": "uint256"
        }
      ],
      "anonymous": false
    },
    {
      "type": "event",
      "name": "InsuranceWithdrawn",
      "inputs": [
        {
          "name": "provider",
          "type": "bytes32",
          "indexed": true,
          "internalType": "bytes32"
        },
        {
          "name": "amount",
          "type": "uint256",
          "indexed": false,
          "internalType": "uint256"
        }
      ],
      "anonymous": false
    },
    {
      "type": "event",
      "name": "LidoUnstakeInitiated",
      "inputs": [
        {
          "name": "requestId",
          "type": "uint256",
          "indexed": true,
          "internalType": "uint256"
        },
        {
          "name": "amount",
          "type": "uint256",
          "indexed": false,
          "internalType": "uint256"
        }
      ],
      "anonymous": false
    },
    {
      "type": "event",
      "name": "Pending",
      "inputs": [
        {
          "name": "provider",
          "type": "bytes32",
          "indexed": true,
          "internalType": "bytes32"
        },
        {
          "name": "amount",
          "type": "uint256",
          "indexed": false,
          "internalType": "uint256"
        }
      ],
      "anonymous": false
    },
    {
      "type": "event",
      "name": "Staked",
      "inputs": [
        {
          "name": "provider",
          "type": "bytes32",
          "indexed": true,
          "internalType": "bytes32"
        },
        {
          "name": "amount",
          "type": "uint256",
          "indexed": false,
          "internalType": "uint256"
        }
      ],
      "anonymous": false
    },
    {
      "type": "event",
      "name": "Unstaked",
      "inputs": [
        {
          "name": "provider",
          "type": "bytes32",
          "indexed": true,
          "internalType": "bytes32"
        },
        {
          "name": "amount",
          "type": "uint256",
          "indexed": false,
          "internalType": "uint256"
        }
      ],
      "anonymous": false
    },
    {
      "type": "event",
      "name": "YieldCommit",
      "inputs": [
        {
          "name": "provider",
          "type": "bytes32",
          "indexed": true,
          "internalType": "bytes32"
        },
        {
          "name": "yield",
          "type": "int256",
          "indexed": false,
          "internalType": "int256"
        }
      ],
      "anonymous": false
    },
    {
      "type": "error",
      "name": "CallerIsNotYieldManager",
      "inputs": []
    },
    {
      "type": "error",
      "name": "ContextIsNotYieldManager",
      "inputs": []
    },
    {
      "type": "error",
      "name": "InsufficientStakableFunds",
      "inputs": []
    },
    {
      "type": "error",
      "name": "NotSupported",
      "inputs": []
    }
  ],
  "transactionHash": "0x67a1d0e219cc066c845fca4d53728914aa6c5b5ee35ef5123f1a05f257bd0a62",
  "args": [
    "0x16Cc7b51de361A845AD070ed6E792b2BB720f8c6"
  ],
  "numDeployments": 1,
  "solcInputHash": "bbe63474dbe0c303153316eba8515534",
  "bytecode": "0x610140604052600a610120523480156200001857600080fd5b5060405162003016380380620030168339810160408190526200003b91620000ab565b6001608052600060a081905260c05280306001600160a01b038216036200006157600080fd5b6001600160a01b031660e0525030610100526002805460018101825560009182527f405787fa12a823e0f2b7631cc41b3ba8828b3321ca811111fa75cd3aa3bb5ace0155620000dd565b600060208284031215620000be57600080fd5b81516001600160a01b0381168114620000d657600080fd5b9392505050565b60805160a05160c05160e0516101005161012051612e25620001f16000396000818161024c01528181611ca40152611cdf015260008181610273015281816107b20152611b0d0152600081816102c7015281816104ae01528181610622015281816107070152818161089b015281816109160152818161098d01528181610b1701528181610b7b01528181610c7701528181610df201528181610f4f01528181611017015281816110bb01528181611182015281816112fb015281816113540152818161153301528181611608015281816117420152818161191201528181611ab201528181611fc7015281816122c701526123d601526000610a9001526000610a6701526000610a3e0152612e256000f3fe608060405234801561001057600080fd5b50600436106101e55760003560e01c8063699340f41161010f578063bbaff1e2116100a2578063ecc7f64211610071578063ecc7f64214610443578063f304f5e514610456578063f87975af1461045e578063fffdfcdd1461047157600080fd5b8063bbaff1e214610402578063d4c3eea014610415578063d6696c341461041d578063e0c784551461043057600080fd5b80638b21f170116100de5780638b21f170146103b95780639b757594146103d4578063a694fc3a146103e7578063af640d0f146103fa57600080fd5b8063699340f41461037a5780638129fc1c1461039557806385254adf1461039d5780638607cfbc146103a657600080fd5b80632e17de781161018757806354fd4d501161015657806354fd4d501461034e57806357b4d18e146103565780635b9f00161461035f57806366785d931461036757600080fd5b80632e17de78146102f157806347bc48381461031957806349fbb83c146103235780634bfb431f1461033657600080fd5b80630b6014e9116101c35780630b6014e91461026e5780631223a75a146102ba578063219ebb9c146102c257806328593984146102e957600080fd5b80630577d6d5146101ea57806306fdde03146102055780630975e11314610247575b600080fd5b6101f261047a565b6040519081526020015b60405180910390f35b60408051808201909152601181527f4c69646f5969656c6450726f766964657200000000000000000000000000000060208201525b6040516101fc9190612752565b6101f27f000000000000000000000000000000000000000000000000000000000000000081565b6102957f000000000000000000000000000000000000000000000000000000000000000081565b60405173ffffffffffffffffffffffffffffffffffffffff90911681526020016101fc565b6101f26105ce565b6102957f000000000000000000000000000000000000000000000000000000000000000081565b6101f26105e0565b6103046102ff3660046127a3565b610607565b604080519283526020830191909152016101fc565b610321610883565b005b6103216103313660046127a3565b6108fe565b61033e610972565b60405190151581526020016101fc565b61023a610a37565b6101f260015481565b6101f2610ada565b6103216103753660046127a3565b610b63565b610295731583c7b3f4c3b008720e6bce5726336b0ab25fdd81565b610321610dda565b6101f260005481565b6103216103b43660046127a3565b610fff565b610295733e3fe7dbc6b4c189e7128855dd526361c49b40af81565b6103216103e23660046127a3565b6110a3565b6103216103f53660046127a3565b6112e3565b6101f26114ab565b6103216104103660046127a3565b61151b565b6101f26115d9565b61032161042b3660046127bc565b6115f0565b61033e61043e366004612800565b611669565b610321610451366004612824565b61172a565b6101f26118f8565b6101f261046c3660046127a3565b6119c0565b6101f260035481565b6000733e3fe7dbc6b4c189e7128855dd526361c49b40af73ffffffffffffffffffffffffffffffffffffffff166370a082317f000000000000000000000000000000000000000000000000000000000000000073ffffffffffffffffffffffffffffffffffffffff166389cf32046040518163ffffffff1660e01b8152600401602060405180830381865afa158015610517573d6000803e3d6000fd5b505050506040513d601f19601f8201168201806040525081019061053b9190612850565b6040517fffffffff0000000000000000000000000000000000000000000000000000000060e084901b16815273ffffffffffffffffffffffffffffffffffffffff90911660048201526024015b602060405180830381865afa1580156105a5573d6000803e3d6000fd5b505050506040513d601f19601f820116820180604052508101906105c9919061286d565b905090565b6002546000906105c9906001906128b5565b60006105ed6000546119e1565b6105fd6105f8610ada565b6119e1565b6105c991906128cc565b6000803073ffffffffffffffffffffffffffffffffffffffff7f00000000000000000000000000000000000000000000000000000000000000001614610679576040517fad5be26a00000000000000000000000000000000000000000000000000000000815260040160405180910390fd5b6040805160018082528183019092526000916020808301908036833701905050905083816000815181106106af576106af61296f565b60209081029190910101526040517fd6681042000000000000000000000000000000000000000000000000000000008152600090731583c7b3f4c3b008720e6bce5726336b0ab25fdd9063d66810429061072f9085907f0000000000000000000000000000000000000000000000000000000000000000906004016129d9565b6000604051808303816000875af115801561074e573d6000803e3d6000fd5b505050506040513d6000823e601f3d9081017fffffffffffffffffffffffffffffffffffffffffffffffffffffffffffffffe01682016040526107949190810190612aad565b6000815181106107a6576107a661296f565b602002602001015190507f000000000000000000000000000000000000000000000000000000000000000073ffffffffffffffffffffffffffffffffffffffff16638607cfbc826040518263ffffffff1660e01b815260040161080b91815260200190565b600060405180830381600087803b15801561082557600080fd5b505af1158015610839573d6000803e3d6000fd5b50505050807f3a08f8b9539a8aa14387f6b7142791e654c662badc5fe365c2d742f55f8cd3488660405161086f91815260200190565b60405180910390a250929360009350915050565b3073ffffffffffffffffffffffffffffffffffffffff7f000000000000000000000000000000000000000000000000000000000000000016146108f2576040517fad5be26a00000000000000000000000000000000000000000000000000000000815260040160405180910390fd5b6108fa611a97565b5050565b3373ffffffffffffffffffffffffffffffffffffffff7f0000000000000000000000000000000000000000000000000000000000000000161461096d576040517fa1cfbf5900000000000000000000000000000000000000000000000000000000815260040160405180910390fd5b600355565b60008073ffffffffffffffffffffffffffffffffffffffff167f000000000000000000000000000000000000000000000000000000000000000073ffffffffffffffffffffffffffffffffffffffff166389cf32046040518163ffffffff1660e01b8152600401602060405180830381865afa1580156109f6573d6000803e3d6000fd5b505050506040513d601f19601f82011682018060405250810190610a1a9190612850565b73ffffffffffffffffffffffffffffffffffffffff161415905090565b6060610a627f0000000000000000000000000000000000000000000000000000000000000000612459565b610a8b7f0000000000000000000000000000000000000000000000000000000000000000612459565b610ab47f0000000000000000000000000000000000000000000000000000000000000000612459565b604051602001610ac693929190612b43565b604051602081830303815290604052905090565b6040517f70a0823100000000000000000000000000000000000000000000000000000000815273ffffffffffffffffffffffffffffffffffffffff7f0000000000000000000000000000000000000000000000000000000000000000166004820152600090733e3fe7dbc6b4c189e7128855dd526361c49b40af906370a0823190602401610588565b3073ffffffffffffffffffffffffffffffffffffffff7f00000000000000000000000000000000000000000000000000000000000000001614610bd2576040517fad5be26a00000000000000000000000000000000000000000000000000000000815260040160405180910390fd5b610bda610972565b610c45576040517f08c379a000000000000000000000000000000000000000000000000000000000815260206004820152601760248201527f696e737572616e6365206e6f7420737570706f7274656400000000000000000060448201526064015b60405180910390fd5b733e3fe7dbc6b4c189e7128855dd526361c49b40af73ffffffffffffffffffffffffffffffffffffffff1663a9059cbb7f000000000000000000000000000000000000000000000000000000000000000073ffffffffffffffffffffffffffffffffffffffff166389cf32046040518163ffffffff1660e01b8152600401602060405180830381865afa158015610ce0573d6000803e3d6000fd5b505050506040513d601f19601f82011682018060405250810190610d049190612850565b6040517fffffffff0000000000000000000000000000000000000000000000000000000060e084901b16815273ffffffffffffffffffffffffffffffffffffffff9091166004820152602481018490526044016020604051808303816000875af1158015610d76573d6000803e3d6000fd5b505050506040513d601f19601f82011682018060405250810190610d9a9190612bce565b50610da36114ab565b6040518281527faffd2c8a23858f2212a849a3444eb4c3fb22123fbca27db6fe859fa0d4c5cc3f906020015b60405180910390a250565b3073ffffffffffffffffffffffffffffffffffffffff7f00000000000000000000000000000000000000000000000000000000000000001614610e49576040517fad5be26a00000000000000000000000000000000000000000000000000000000815260040160405180910390fd5b6040517f095ea7b3000000000000000000000000000000000000000000000000000000008152731583c7b3f4c3b008720e6bce5726336b0ab25fdd60048201527fffffffffffffffffffffffffffffffffffffffffffffffffffffffffffffffff6024820152733e3fe7dbc6b4c189e7128855dd526361c49b40af9063095ea7b3906044016020604051808303816000875af1158015610eed573d6000803e3d6000fd5b505050506040513d601f19601f82011682018060405250810190610f119190612bce565b506040517f095ea7b300000000000000000000000000000000000000000000000000000000815273ffffffffffffffffffffffffffffffffffffffff7f00000000000000000000000000000000000000000000000000000000000000001660048201527fffffffffffffffffffffffffffffffffffffffffffffffffffffffffffffffff6024820152733e3fe7dbc6b4c189e7128855dd526361c49b40af9063095ea7b3906044016020604051808303816000875af1158015610fd8573d6000803e3d6000fd5b505050506040513d601f19601f82011682018060405250810190610ffc9190612bce565b50565b3373ffffffffffffffffffffffffffffffffffffffff7f0000000000000000000000000000000000000000000000000000000000000000161461106e576040517fa1cfbf5900000000000000000000000000000000000000000000000000000000815260040160405180910390fd5b600280546001810182556000919091527f405787fa12a823e0f2b7631cc41b3ba8828b3321ca811111fa75cd3aa3bb5ace0155565b3073ffffffffffffffffffffffffffffffffffffffff7f00000000000000000000000000000000000000000000000000000000000000001614611112576040517fad5be26a00000000000000000000000000000000000000000000000000000000815260040160405180910390fd5b61111a610972565b611180576040517f08c379a000000000000000000000000000000000000000000000000000000000815260206004820152601760248201527f696e737572616e6365206e6f7420737570706f727465640000000000000000006044820152606401610c3c565b7f000000000000000000000000000000000000000000000000000000000000000073ffffffffffffffffffffffffffffffffffffffff166389cf32046040518163ffffffff1660e01b8152600401602060405180830381865afa1580156111eb573d6000803e3d6000fd5b505050506040513d601f19601f8201168201806040525081019061120f9190612850565b6040517fd1fa5e98000000000000000000000000000000000000000000000000000000008152733e3fe7dbc6b4c189e7128855dd526361c49b40af60048201526024810183905273ffffffffffffffffffffffffffffffffffffffff919091169063d1fa5e9890604401600060405180830381600087803b15801561129357600080fd5b505af11580156112a7573d6000803e3d6000fd5b505050506112b36114ab565b6040518281527fb3043c5816fb49ca84ebff0b0bb517bd2622af93452a267f3404513cf549fc1b90602001610dcf565b3073ffffffffffffffffffffffffffffffffffffffff7f00000000000000000000000000000000000000000000000000000000000000001614611352576040517fad5be26a00000000000000000000000000000000000000000000000000000000815260040160405180910390fd5b7f000000000000000000000000000000000000000000000000000000000000000073ffffffffffffffffffffffffffffffffffffffff1663ab2f0e516040518163ffffffff1660e01b8152600401602060405180830381865afa1580156113bd573d6000803e3d6000fd5b505050506040513d601f19601f820116820180604052508101906113e1919061286d565b81111561141a576040517fc18c8c7e00000000000000000000000000000000000000000000000000000000815260040160405180910390fd5b6040517fa1903eab00000000000000000000000000000000000000000000000000000000815260006004820152733e3fe7dbc6b4c189e7128855dd526361c49b40af9063a1903eab90839060240160206040518083038185885af1158015611486573d6000803e3d6000fd5b50505050506040513d601f19601f820116820180604052508101906108fa919061286d565b60006114e760408051808201909152601181527f4c69646f5969656c6450726f7669646572000000000000000000000000000000602082015290565b6114ef610a37565b604051602001611500929190612be9565b60405160208183030381529060405280519060200120905090565b3373ffffffffffffffffffffffffffffffffffffffff7f0000000000000000000000000000000000000000000000000000000000000000161461158a576040517fa1cfbf5900000000000000000000000000000000000000000000000000000000815260040160405180910390fd5b8060008082825461159b9190612c18565b909155506115a990506114ab565b6040518281527fad8699b31aa71e27625c441f641b4732d76e1b7475068543aaaee79bd2c3d1f690602001610dcf565b60006001546115e6610ada565b6105c99190612c18565b3373ffffffffffffffffffffffffffffffffffffffff7f0000000000000000000000000000000000000000000000000000000000000000161461165f576040517fa1cfbf5900000000000000000000000000000000000000000000000000000000815260040160405180910390fd5b6108fa8282612596565b600073ffffffffffffffffffffffffffffffffffffffff8216733e3fe7dbc6b4c189e7128855dd526361c49b40af1480156117245750733e3fe7dbc6b4c189e7128855dd526361c49b40af73ffffffffffffffffffffffffffffffffffffffff16631ea7ca896040518163ffffffff1660e01b8152600401602060405180830381865afa1580156116fe573d6000803e3d6000fd5b505050506040513d601f19601f820116820180604052508101906117229190612bce565b155b92915050565b3373ffffffffffffffffffffffffffffffffffffffff7f00000000000000000000000000000000000000000000000000000000000000001614611799576040517fa1cfbf5900000000000000000000000000000000000000000000000000000000815260040160405180910390fd5b6117a281612683565b821561184a57811580156117b557508083145b611841576040517f08c379a000000000000000000000000000000000000000000000000000000000815260206004820152602560248201527f696e76616c6964207969656c642070726f766964657220696d706c656d656e7460448201527f6174696f6e0000000000000000000000000000000000000000000000000000006064820152608401610c3c565b61184a836126d2565b81156118f3578215801561185d57508082145b6118e9576040517f08c379a000000000000000000000000000000000000000000000000000000000815260206004820152602560248201527f696e76616c6964207969656c642070726f766964657220696d706c656d656e7460448201527f6174696f6e0000000000000000000000000000000000000000000000000000006064820152608401610c3c565b6118f38282612596565b505050565b60003373ffffffffffffffffffffffffffffffffffffffff7f00000000000000000000000000000000000000000000000000000000000000001614611969576040517fa1cfbf5900000000000000000000000000000000000000000000000000000000815260040160405180910390fd5b60006119736105e0565b905061197d610ada565b6000556119886114ab565b6040518281527ffa0a4034400e62602f330f5e62f285a6baa4bdfb16c11b3ff7c4b65ce7f7d76f9060200160405180910390a2905090565b600281815481106119d057600080fd5b600091825260209091200154905081565b60007f7fffffffffffffffffffffffffffffffffffffffffffffffffffffffffffffff821115611a93576040517f08c379a000000000000000000000000000000000000000000000000000000000815260206004820152602860248201527f53616665436173743a2076616c756520646f65736e27742066697420696e206160448201527f6e20696e743235360000000000000000000000000000000000000000000000006064820152608401610c3c565b5090565b6000803073ffffffffffffffffffffffffffffffffffffffff7f00000000000000000000000000000000000000000000000000000000000000001614611b09576040517fad5be26a00000000000000000000000000000000000000000000000000000000815260040160405180910390fd5b60007f0000000000000000000000000000000000000000000000000000000000000000905060008173ffffffffffffffffffffffffffffffffffffffff1663fffdfcdd6040518163ffffffff1660e01b8152600401602060405180830381865afa158015611b7b573d6000803e3d6000fd5b505050506040513d601f19601f82011682018060405250810190611b9f919061286d565b905060008273ffffffffffffffffffffffffffffffffffffffff16631223a75a6040518163ffffffff1660e01b8152600401602060405180830381865afa158015611bee573d6000803e3d6000fd5b505050506040513d601f19601f82011682018060405250810190611c12919061286d565b9050808203611c28575060009485945092505050565b808210611c91576040517f08c379a000000000000000000000000000000000000000000000000000000000815260206004820152601360248201527f696e76616c696420636c61696d20696e646578000000000000000000000000006044820152606401610c3c565b6000611c9e836001612c18565b905060007f0000000000000000000000000000000000000000000000000000000000000000611ccd85856128b5565b11611cd85782611d0e565b6001611d047f000000000000000000000000000000000000000000000000000000000000000084612c18565b611d0e91906128b5565b90506000611d1c83836128b5565b611d27906001612c18565b67ffffffffffffffff811115611d3f57611d3f612940565b604051908082528060200260200182016040528015611d68578160200160208202803683370190505b509050825b828111611e3b576040517ff87975af0000000000000000000000000000000000000000000000000000000081526004810182905273ffffffffffffffffffffffffffffffffffffffff88169063f87975af90602401602060405180830381865afa158015611ddf573d6000803e3d6000fd5b505050506040513d601f19601f82011682018060405250810190611e03919061286d565b82611e0e86846128b5565b81518110611e1e57611e1e61296f565b602090810291909101015280611e3381612c30565b915050611d6d565b6040517fb8c4b85a000000000000000000000000000000000000000000000000000000008152600090731583c7b3f4c3b008720e6bce5726336b0ab25fdd9063b8c4b85a90611e8e908690600401612c68565b600060405180830381865afa158015611eab573d6000803e3d6000fd5b505050506040513d6000823e601f3d9081017fffffffffffffffffffffffffffffffffffffffffffffffffffffffffffffffe0168201604052611ef19190810190612c7b565b9050600091505b8051821015611f8857808281518110611f1357611f1361296f565b6020026020010151608001518015611f465750808281518110611f3857611f3861296f565b602002602001015160a00151155b15611f8857808281518110611f5d57611f5d61296f565b60200260200101516000015189611f749190612c18565b985081611f8081612c30565b925050611ef8565b6000611f948884612c18565b9050878103611fb0575060009a8b9a5098505050505050505050565b73ffffffffffffffffffffffffffffffffffffffff7f0000000000000000000000000000000000000000000000000000000000000000163160008467ffffffffffffffff81111561200357612003612940565b60405190808252806020026020018201604052801561202c578160200160208202803683370190505b50905060005b858110156120835786818151811061204c5761204c61296f565b60200260200101518282815181106120665761206661296f565b60209081029190910101528061207b81612c30565b915050612032565b506000731583c7b3f4c3b008720e6bce5726336b0ab25fdd73ffffffffffffffffffffffffffffffffffffffff166362abe3fa836001731583c7b3f4c3b008720e6bce5726336b0ab25fdd73ffffffffffffffffffffffffffffffffffffffff1663526eae3e6040518163ffffffff1660e01b8152600401602060405180830381865afa158015612118573d6000803e3d6000fd5b505050506040513d601f19601f8201168201806040525081019061213c919061286d565b6040518463ffffffff1660e01b815260040161215a93929190612d6e565b600060405180830381865afa158015612177573d6000803e3d6000fd5b505050506040513d6000823e601f3d9081017fffffffffffffffffffffffffffffffffffffffffffffffffffffffffffffffe01682016040526121bd9190810190612aad565b6040517f49fbb83c0000000000000000000000000000000000000000000000000000000081526004810186905290915073ffffffffffffffffffffffffffffffffffffffff8d16906349fbb83c90602401600060405180830381600087803b15801561222857600080fd5b505af115801561223c573d6000803e3d6000fd5b50506040517fe3afe0a3000000000000000000000000000000000000000000000000000000008152731583c7b3f4c3b008720e6bce5726336b0ab25fdd925063e3afe0a391506122929085908590600401612d93565b600060405180830381600087803b1580156122ac57600080fd5b505af11580156122c0573d6000803e3d6000fd5b50505050827f000000000000000000000000000000000000000000000000000000000000000073ffffffffffffffffffffffffffffffffffffffff163161230791906128b5565b6040517fd6696c3400000000000000000000000000000000000000000000000000000000815260048101829052602481018f9052909e5073ffffffffffffffffffffffffffffffffffffffff8d169063d6696c3490604401600060405180830381600087803b15801561237957600080fd5b505af115801561238d573d6000803e3d6000fd5b5050505060008e8e61239f91906128b5565b90508015612448576040517fd6ce7910000000000000000000000000000000000000000000000000000000008152600481018290527f000000000000000000000000000000000000000000000000000000000000000073ffffffffffffffffffffffffffffffffffffffff169063d6ce791090602401600060405180830381600087803b15801561242f57600080fd5b505af1158015612443573d6000803e3d6000fd5b505050505b505050505050505050505050509091565b60608160000361249c57505060408051808201909152600181527f3000000000000000000000000000000000000000000000000000000000000000602082015290565b8160005b81156124c657806124b081612c30565b91506124bf9050600a83612df0565b91506124a0565b60008167ffffffffffffffff8111156124e1576124e1612940565b6040519080825280601f01601f19166020018201604052801561250b576020820181803683370190505b5090505b841561258e576125206001836128b5565b915061252d600a86612e04565b612538906030612c18565b60f81b81838151811061254d5761254d61296f565b60200101907effffffffffffffffffffffffffffffffffffffffffffffffffffffffffffff1916908160001a905350612587600a86612df0565b945061250f565b949350505050565b80821115612626576040517f08c379a000000000000000000000000000000000000000000000000000000000815260206004820152602560248201527f696e76616c6964207969656c642070726f766964657220696d706c656d656e7460448201527f6174696f6e0000000000000000000000000000000000000000000000000000006064820152608401610c3c565b806001600082825461263891906128b5565b9091555061264690506114ab565b60408051848152602081018490527f41628d0ba42442e4aa4fc514eeb97bb7154969e70e6678229c836f3b9732ba90910160405180910390a25050565b8060008082825461269491906128b5565b909155506126a290506114ab565b6040518281527feaf9a24a861b99687156137f32a9abfa90e5dd93a1eb9fb70cf4400e86b0839a90602001610dcf565b80600160008282546126e49190612c18565b909155506126f290506114ab565b6040518281527fe1f09d265bac18d7d10d26c357f29ddecd4facd1906bf96ce8fbb33fc34badbc90602001610dcf565b60005b8381101561273d578181015183820152602001612725565b8381111561274c576000848401525b50505050565b6020815260008251806020840152612771816040850160208701612722565b601f017fffffffffffffffffffffffffffffffffffffffffffffffffffffffffffffffe0169190910160400192915050565b6000602082840312156127b557600080fd5b5035919050565b600080604083850312156127cf57600080fd5b50508035926020909101359150565b73ffffffffffffffffffffffffffffffffffffffff81168114610ffc57600080fd5b60006020828403121561281257600080fd5b813561281d816127de565b9392505050565b60008060006060848603121561283957600080fd5b505081359360208301359350604090920135919050565b60006020828403121561286257600080fd5b815161281d816127de565b60006020828403121561287f57600080fd5b5051919050565b7f4e487b7100000000000000000000000000000000000000000000000000000000600052601160045260246000fd5b6000828210156128c7576128c7612886565b500390565b6000808312837f80000000000000000000000000000000000000000000000000000000000000000183128115161561290657612906612886565b837f7fffffffffffffffffffffffffffffffffffffffffffffffffffffffffffffff01831381161561293a5761293a612886565b50500390565b7f4e487b7100000000000000000000000000000000000000000000000000000000600052604160045260246000fd5b7f4e487b7100000000000000000000000000000000000000000000000000000000600052603260045260246000fd5b600081518084526020808501945080840160005b838110156129ce578151875295820195908201906001016129b2565b509495945050505050565b6040815260006129ec604083018561299e565b905073ffffffffffffffffffffffffffffffffffffffff831660208301529392505050565b60405160c0810167ffffffffffffffff81118282101715612a3457612a34612940565b60405290565b604051601f82017fffffffffffffffffffffffffffffffffffffffffffffffffffffffffffffffe016810167ffffffffffffffff81118282101715612a8157612a81612940565b604052919050565b600067ffffffffffffffff821115612aa357612aa3612940565b5060051b60200190565b60006020808385031215612ac057600080fd5b825167ffffffffffffffff811115612ad757600080fd5b8301601f81018513612ae857600080fd5b8051612afb612af682612a89565b612a3a565b81815260059190911b82018301908381019087831115612b1a57600080fd5b928401925b82841015612b3857835182529284019290840190612b1f565b979650505050505050565b60008451612b55818460208901612722565b80830190507f2e000000000000000000000000000000000000000000000000000000000000008082528551612b91816001850160208a01612722565b60019201918201528351612bac816002840160208801612722565b0160020195945050505050565b80518015158114612bc957600080fd5b919050565b600060208284031215612be057600080fd5b61281d82612bb9565b60008351612bfb818460208801612722565b835190830190612c0f818360208801612722565b01949350505050565b60008219821115612c2b57612c2b612886565b500190565b60007fffffffffffffffffffffffffffffffffffffffffffffffffffffffffffffffff8203612c6157612c61612886565b5060010190565b60208152600061281d602083018461299e565b60006020808385031215612c8e57600080fd5b825167ffffffffffffffff811115612ca557600080fd5b8301601f81018513612cb657600080fd5b8051612cc4612af682612a89565b81815260c09182028301840191848201919088841115612ce357600080fd5b938501935b83851015612d625780858a031215612d005760008081fd5b612d08612a11565b855181528686015187820152604080870151612d23816127de565b90820152606086810151908201526080612d3e818801612bb9565b9082015260a0612d4f878201612bb9565b9082015283529384019391850191612ce8565b50979650505050505050565b606081526000612d81606083018661299e565b60208301949094525060400152919050565b604081526000612da6604083018561299e565b8281036020840152612db8818561299e565b95945050505050565b7f4e487b7100000000000000000000000000000000000000000000000000000000600052601260045260246000fd5b600082612dff57612dff612dc1565b500490565b600082612e1357612e13612dc1565b50069056fea164736f6c634300080f000a",
  "devdoc": {
    "version": 1,
    "kind": "dev",
    "methods": {
      "commitYield()": {
        "returns": {
          "_0": "Amount of yield at this checkpoint."
        }
      },
      "constructor": {
        "params": {
          "_yieldManager": "Address of the yield manager for the underlying        yield asset of this provider."
        }
      },
      "recordStakedDeposit(uint256)": {
        "params": {
          "amount": "Amount of new staked balance to record."
        }
      },
      "unstake(uint256)": {
        "returns": {
          "claimed": "Amount of funds that have been claimed.         The yield provider is expected to return         (pending = 0, claimed = non-zero) if the funds are immediately         available for withdrawal, and (pending = non-zero, claimed = 0)         if the funds are in an unstaking delay.",
          "pending": "Amount of funds pending in an unstaking delay"
        }
      },
      "version()": {
        "returns": {
          "_0": "Semver contract version as a string."
        }
      }
    },
    "events": {
      "LidoUnstakeInitiated(uint256,uint256)": {
        "params": {
          "amount": "Amount requested for withdrawal.",
          "requestId": "Lido WitdrawalQueue requestId."
        }
      }
    },
    "title": "LidoYieldProvider"
  },
  "userdoc": {
    "version": 1,
    "kind": "user",
    "methods": {
      "commitYield()": {
        "notice": "Commit the current amount of yield and checkpoint the accounting         variables."
      },
      "initialize()": {
        "notice": "initialize"
      },
      "insuranceBalance()": {
        "notice": "Gets insurance balance available for the provider's assets."
      },
      "isStakingEnabled(address)": {
        "notice": "Whether staking is enabled for the given asset."
      },
      "payInsurancePremium(uint256)": {
        "notice": "Pay insurance premium during a yield report. Must be called via         `delegatecall` from the YieldManager."
      },
      "preCommitYieldReportDelegateCallHook()": {
        "notice": "A hook that is DELEGATE-CALLed by the Yield Manager for the provider         to perform any actions before the yield report process begins."
      },
      "recordStakedDeposit(uint256)": {
        "notice": "Record a deposit to the stake balance of the provider to track the         principal balance."
      },
      "recordUnstaked(uint256,uint256,uint256)": {
        "notice": "Record a withdraw to the stake balance of the provider to track the         principal balance. This method should be called by the Yield Manager         after delegate-calling the provider's `unstake` method, which should         return the arguments to this method."
      },
      "stake(uint256)": {
        "notice": "Stake YieldManager funds using the provider's yield method/protocol.         Must be called via `delegatecall` from the YieldManager."
      },
      "stakedBalance()": {
        "notice": "Current balance of the provider's staked funds."
      },
      "supportsInsurancePayment()": {
        "notice": "Whether the provider supports yield insurance."
      },
      "totalValue()": {
        "notice": "Total value in the provider's yield method/protocol."
      },
      "unstake(uint256)": {
        "notice": "Unstake YieldManager funds from the provider's yield method/protocol.         Must be called via `delegatecall` from the YieldManager."
      },
      "version()": {
        "notice": "Returns the full semver contract version."
      },
      "withdrawFromInsurance(uint256)": {
        "notice": "Withdraw insurance funds to cover yield losses during a yield report.         Must be called via `delegatecall` from the YieldManager."
      },
      "yield()": {
        "notice": "Current amount of yield gained since the previous commit."
      }
    },
    "events": {
      "LidoUnstakeInitiated(uint256,uint256)": {
        "notice": "Emitted when a withdrawal is requested from Lido."
      }
    },
    "notice": "Provider for the Lido (ETH) yield source."
  },
  "storageLayout": {
    "storage": [
      {
        "astId": 20706,
        "contract": "contracts/mainnet-bridge/yield-providers/LidoYieldProvider.sol:LidoYieldProvider",
        "label": "stakedPrincipal",
        "offset": 0,
        "slot": "0",
        "type": "t_uint256"
      },
      {
        "astId": 20708,
        "contract": "contracts/mainnet-bridge/yield-providers/LidoYieldProvider.sol:LidoYieldProvider",
        "label": "pendingBalance",
        "offset": 0,
        "slot": "1",
        "type": "t_uint256"
      },
      {
        "astId": 19690,
        "contract": "contracts/mainnet-bridge/yield-providers/LidoYieldProvider.sol:LidoYieldProvider",
        "label": "unstakeRequests",
        "offset": 0,
        "slot": "2",
        "type": "t_array(t_uint256)dyn_storage"
      },
      {
        "astId": 19692,
        "contract": "contracts/mainnet-bridge/yield-providers/LidoYieldProvider.sol:LidoYieldProvider",
        "label": "lastClaimedIndex",
        "offset": 0,
        "slot": "3",
        "type": "t_uint256"
      }
    ],
    "types": {
      "t_array(t_uint256)dyn_storage": {
        "encoding": "dynamic_array",
        "label": "uint256[]",
        "numberOfBytes": "32",
        "base": "t_uint256"
      },
      "t_uint256": {
        "encoding": "inplace",
        "label": "uint256",
        "numberOfBytes": "32"
      }
    }
  }
}