{
  "address": "0xe6cD43D5E4F8eA80E39a05d4CeC1fb25328ee8da",
  "abi": [
    {
      "type": "constructor",
      "inputs": [],
      "stateMutability": "nonpayable"
    },
    {
      "type": "receive",
      "stateMutability": "payable"
    },
    {
      "type": "function",
      "name": "GUARDIAN",
      "inputs": [],
      "outputs": [
        {
          "name": "",
          "type": "address",
          "internalType": "address"
        }
      ],
      "stateMutability": "view"
    },
    {
      "type": "function",
      "name": "L2_ORACLE",
      "inputs": [],
      "outputs": [
        {
          "name": "",
          "type": "address",
          "internalType": "contract L2OutputOracle"
        }
      ],
      "stateMutability": "view"
    },
    {
      "type": "function",
      "name": "SYSTEM_CONFIG",
      "inputs": [],
      "outputs": [
        {
          "name": "",
          "type": "address",
          "internalType": "contract SystemConfig"
        }
      ],
      "stateMutability": "view"
    },
    {
      "type": "function",
      "name": "depositTransaction",
      "inputs": [
        {
          "name": "_to",
          "type": "address",
          "internalType": "address"
        },
        {
          "name": "_value",
          "type": "uint256",
          "internalType": "uint256"
        },
        {
          "name": "_gasLimit",
          "type": "uint64",
          "internalType": "uint64"
        },
        {
          "name": "_isCreation",
          "type": "bool",
          "internalType": "bool"
        },
        {
          "name": "_data",
          "type": "bytes",
          "internalType": "bytes"
        }
      ],
      "outputs": [],
      "stateMutability": "payable"
    },
    {
      "type": "function",
      "name": "donateETH",
      "inputs": [],
      "outputs": [],
      "stateMutability": "payable"
    },
    {
      "type": "function",
      "name": "finalizeWithdrawalTransaction",
      "inputs": [
        {
          "name": "hintId",
          "type": "uint256",
          "internalType": "uint256"
        },
        {
          "name": "_tx",
          "type": "tuple",
          "internalType": "struct Types.WithdrawalTransaction",
          "components": [
            {
              "name": "nonce",
              "type": "uint256",
              "internalType": "uint256"
            },
            {
              "name": "sender",
              "type": "address",
              "internalType": "address"
            },
            {
              "name": "target",
              "type": "address",
              "internalType": "address"
            },
            {
              "name": "value",
              "type": "uint256",
              "internalType": "uint256"
            },
            {
              "name": "gasLimit",
              "type": "uint256",
              "internalType": "uint256"
            },
            {
              "name": "data",
              "type": "bytes",
              "internalType": "bytes"
            }
          ]
        }
      ],
      "outputs": [],
      "stateMutability": "nonpayable"
    },
    {
      "type": "function",
      "name": "finalizedWithdrawals",
      "inputs": [
        {
          "name": "",
          "type": "bytes32",
          "internalType": "bytes32"
        }
      ],
      "outputs": [
        {
          "name": "",
          "type": "bool",
          "internalType": "bool"
        }
      ],
      "stateMutability": "view"
    },
    {
      "type": "function",
      "name": "guardian",
      "inputs": [],
      "outputs": [
        {
          "name": "",
          "type": "address",
          "internalType": "address"
        }
      ],
      "stateMutability": "view"
    },
    {
      "type": "function",
      "name": "initialize",
      "inputs": [
        {
          "name": "_l2Oracle",
          "type": "address",
          "internalType": "contract L2OutputOracle"
        },
        {
          "name": "_guardian",
          "type": "address",
          "internalType": "address"
        },
        {
          "name": "_systemConfig",
          "type": "address",
          "internalType": "contract SystemConfig"
        },
        {
          "name": "_paused",
          "type": "bool",
          "internalType": "bool"
        },
        {
          "name": "_yieldManager",
          "type": "address",
          "internalType": "contract ETHYieldManager"
        },
        {
          "name": "_postdeploys",
          "type": "address",
          "internalType": "contract Postdeploys"
        }
      ],
      "outputs": [],
      "stateMutability": "nonpayable"
    },
    {
      "type": "function",
      "name": "isOutputFinalized",
      "inputs": [
        {
          "name": "_l2OutputIndex",
          "type": "uint256",
          "internalType": "uint256"
        }
      ],
      "outputs": [
        {
          "name": "",
          "type": "bool",
          "internalType": "bool"
        }
      ],
      "stateMutability": "view"
    },
    {
      "type": "function",
      "name": "l2Oracle",
      "inputs": [],
      "outputs": [
        {
          "name": "",
          "type": "address",
          "internalType": "contract L2OutputOracle"
        }
      ],
      "stateMutability": "view"
    },
    {
      "type": "function",
      "name": "l2Sender",
      "inputs": [],
      "outputs": [
        {
          "name": "",
          "type": "address",
          "internalType": "address"
        }
      ],
      "stateMutability": "view"
    },
    {
      "type": "function",
      "name": "minimumGasLimit",
      "inputs": [
        {
          "name": "_byteCount",
          "type": "uint64",
          "internalType": "uint64"
        }
      ],
      "outputs": [
        {
          "name": "",
          "type": "uint64",
          "internalType": "uint64"
        }
      ],
      "stateMutability": "pure"
    },
    {
      "type": "function",
      "name": "params",
      "inputs": [],
      "outputs": [
        {
          "name": "prevBaseFee",
          "type": "uint128",
          "internalType": "uint128"
        },
        {
          "name": "prevBoughtGas",
          "type": "uint64",
          "internalType": "uint64"
        },
        {
          "name": "prevBlockNum",
          "type": "uint64",
          "internalType": "uint64"
        }
      ],
      "stateMutability": "view"
    },
    {
      "type": "function",
      "name": "pause",
      "inputs": [],
      "outputs": [],
      "stateMutability": "nonpayable"
    },
    {
      "type": "function",
      "name": "paused",
      "inputs": [],
      "outputs": [
        {
          "name": "",
          "type": "bool",
          "internalType": "bool"
        }
      ],
      "stateMutability": "view"
    },
    {
      "type": "function",
      "name": "postdeploys",
      "inputs": [],
      "outputs": [
        {
          "name": "",
          "type": "address",
          "internalType": "contract Postdeploys"
        }
      ],
      "stateMutability": "view"
    },
    {
      "type": "function",
      "name": "proveWithdrawalTransaction",
      "inputs": [
        {
          "name": "_tx",
          "type": "tuple",
          "internalType": "struct Types.WithdrawalTransaction",
          "components": [
            {
              "name": "nonce",
              "type": "uint256",
              "internalType": "uint256"
            },
            {
              "name": "sender",
              "type": "address",
              "internalType": "address"
            },
            {
              "name": "target",
              "type": "address",
              "internalType": "address"
            },
            {
              "name": "value",
              "type": "uint256",
              "internalType": "uint256"
            },
            {
              "name": "gasLimit",
              "type": "uint256",
              "internalType": "uint256"
            },
            {
              "name": "data",
              "type": "bytes",
              "internalType": "bytes"
            }
          ]
        },
        {
          "name": "_l2OutputIndex",
          "type": "uint256",
          "internalType": "uint256"
        },
        {
          "name": "_outputRootProof",
          "type": "tuple",
          "internalType": "struct Types.OutputRootProof",
          "components": [
            {
              "name": "version",
              "type": "bytes32",
              "internalType": "bytes32"
            },
            {
              "name": "stateRoot",
              "type": "bytes32",
              "internalType": "bytes32"
            },
            {
              "name": "messagePasserStorageRoot",
              "type": "bytes32",
              "internalType": "bytes32"
            },
            {
              "name": "latestBlockhash",
              "type": "bytes32",
              "internalType": "bytes32"
            }
          ]
        },
        {
          "name": "_withdrawalProof",
          "type": "bytes[]",
          "internalType": "bytes[]"
        }
      ],
      "outputs": [],
      "stateMutability": "nonpayable"
    },
    {
      "type": "function",
      "name": "provenWithdrawals",
      "inputs": [
        {
          "name": "",
          "type": "bytes32",
          "internalType": "bytes32"
        }
      ],
      "outputs": [
        {
          "name": "outputRoot",
          "type": "bytes32",
          "internalType": "bytes32"
        },
        {
          "name": "timestamp",
          "type": "uint128",
          "internalType": "uint128"
        },
        {
          "name": "l2OutputIndex",
          "type": "uint128",
          "internalType": "uint128"
        },
        {
          "name": "requestId",
          "type": "uint256",
          "internalType": "uint256"
        }
      ],
      "stateMutability": "view"
    },
    {
      "type": "function",
      "name": "systemConfig",
      "inputs": [],
      "outputs": [
        {
          "name": "",
          "type": "address",
          "internalType": "contract SystemConfig"
        }
      ],
      "stateMutability": "view"
    },
    {
      "type": "function",
      "name": "unpause",
      "inputs": [],
      "outputs": [],
      "stateMutability": "nonpayable"
    },
    {
      "type": "function",
      "name": "version",
      "inputs": [],
      "outputs": [
        {
          "name": "",
          "type": "string",
          "internalType": "string"
        }
      ],
      "stateMutability": "view"
    },
    {
      "type": "function",
      "name": "yieldManager",
      "inputs": [],
      "outputs": [
        {
          "name": "",
          "type": "address",
          "internalType": "contract ETHYieldManager"
        }
      ],
      "stateMutability": "view"
    },
    {
      "type": "event",
      "name": "Initialized",
      "inputs": [
        {
          "name": "version",
          "type": "uint8",
          "indexed": false,
          "internalType": "uint8"
        }
      ],
      "anonymous": false
    },
    {
      "type": "event",
      "name": "Paused",
      "inputs": [
        {
          "name": "account",
          "type": "address",
          "indexed": false,
          "internalType": "address"
        }
      ],
      "anonymous": false
    },
    {
      "type": "event",
      "name": "TransactionDeposited",
      "inputs": [
        {
          "name": "from",
          "type": "address",
          "indexed": true,
          "internalType": "address"
        },
        {
          "name": "to",
          "type": "address",
          "indexed": true,
          "internalType": "address"
        },
        {
          "name": "version",
          "type": "uint256",
          "indexed": true,
          "internalType": "uint256"
        },
        {
          "name": "opaqueData",
          "type": "bytes",
          "indexed": false,
          "internalType": "bytes"
        }
      ],
      "anonymous": false
    },
    {
      "type": "event",
      "name": "Unpaused",
      "inputs": [
        {
          "name": "account",
          "type": "address",
          "indexed": false,
          "internalType": "address"
        }
      ],
      "anonymous": false
    },
    {
      "type": "event",
      "name": "WithdrawalFinalized",
      "inputs": [
        {
          "name": "withdrawalHash",
          "type": "bytes32",
          "indexed": true,
          "internalType": "bytes32"
        },
        {
          "name": "hintId",
          "type": "uint256",
          "indexed": true,
          "internalType": "uint256"
        },
        {
          "name": "success",
          "type": "bool",
          "indexed": false,
          "internalType": "bool"
        }
      ],
      "anonymous": false
    },
    {
      "type": "event",
      "name": "WithdrawalProven",
      "inputs": [
        {
          "name": "withdrawalHash",
          "type": "bytes32",
          "indexed": true,
          "internalType": "bytes32"
        },
        {
          "name": "from",
          "type": "address",
          "indexed": true,
          "internalType": "address"
        },
        {
          "name": "to",
          "type": "address",
          "indexed": true,
          "internalType": "address"
        },
        {
          "name": "requestId",
          "type": "uint256",
          "indexed": false,
          "internalType": "uint256"
        }
      ],
      "anonymous": false
    }
  ],
  "transactionHash": "0x42bc7ec0dab4487cf480c422cee7613d7351c24fd16571245120feac1555cce8",
  "args": [],
  "numDeployments": 1,
  "solcInputHash": "bbe63474dbe0c303153316eba8515534",
  "bytecode": "0x60806040523480156200001157600080fd5b506200002460008080600181806200002a565b62000254565b600054600a90610100900460ff161580156200004d575060005460ff8083169116105b620000b65760405162461bcd60e51b815260206004820152602e60248201527f496e697469616c697a61626c653a20636f6e747261637420697320616c72656160448201526d191e481a5b9a5d1a585b1a5e995960921b60648201526084015b60405180910390fd5b6000805461ffff191660ff8316176101001790556032546001600160a01b0316620000f057603280546001600160a01b03191661dead1790555b60358054603680546001600160a01b03199081166001600160a01b038a8116919091179092556037805482168b84161790556001600160a81b03199092166101008b83160260ff191617871515179092556038805482168684161790556039805490911691841691909117905562000167620001b1565b6000805461ff001916905560405160ff821681527f7f26b83ff96e1f2b6a682f133852f6798a09c465da95921460cefb38474024989060200160405180910390a150505050505050565b600054610100900460ff166200021e5760405162461bcd60e51b815260206004820152602b60248201527f496e697469616c697a61626c653a20636f6e7472616374206973206e6f74206960448201526a6e697469616c697a696e6760a81b6064820152608401620000ad565b60408051606081018252633b9aca0080825260006020830152436001600160401b031691909201819052600160c01b0217600155565b615d7580620002646000396000f3fe6080604052600436106101835760003560e01c80638456cb59116100d6578063a35d99df1161007f578063e965084c11610059578063e965084c14610596578063e9e05c4214610636578063f04987501461064957600080fd5b8063a35d99df1461048f578063cfb39914146104c8578063cff0ab96146104f557600080fd5b80639b5f694a116100b05780639b5f694a146104005780639bf62d8214610432578063a14238e71461045f57600080fd5b80638456cb59146103cb5780638b4c40b0146101c75780639876bb08146103e057600080fd5b80634870496f116101385780636dbffb78116101125780636dbffb7814610353578063724c184c1461037357806380b7af181461039e57600080fd5b80634870496f146102b357806354fd4d50146102d35780635c975abb1461032957600080fd5b80633dca9c41116101695780633dca9c41146102515780633f4ba83a14610271578063452a93201461028657600080fd5b80621c2ff6146101ce57806333d7e2bd1461022457600080fd5b366101c95760385473ffffffffffffffffffffffffffffffffffffffff1633146101c7576101c73334620186a0600060405180602001604052806000815250610674565b005b600080fd5b3480156101da57600080fd5b50603554610100900473ffffffffffffffffffffffffffffffffffffffff165b60405173ffffffffffffffffffffffffffffffffffffffff90911681526020015b60405180910390f35b34801561023057600080fd5b506036546101fa9073ffffffffffffffffffffffffffffffffffffffff1681565b34801561025d57600080fd5b506101c761026c3660046152f7565b610d63565b34801561027d57600080fd5b506101c7611695565b34801561029257600080fd5b506037546101fa9073ffffffffffffffffffffffffffffffffffffffff1681565b3480156102bf57600080fd5b506101c76102ce36600461533e565b61179a565b3480156102df57600080fd5b5061031c6040518060400160405280600681526020017f312e31302e30000000000000000000000000000000000000000000000000000081525081565b60405161021b9190615494565b34801561033557600080fd5b506035546103439060ff1681565b604051901515815260200161021b565b34801561035f57600080fd5b5061034361036e3660046154a7565b611f83565b34801561037f57600080fd5b5060375473ffffffffffffffffffffffffffffffffffffffff166101fa565b3480156103aa57600080fd5b506038546101fa9073ffffffffffffffffffffffffffffffffffffffff1681565b3480156103d757600080fd5b506101c7612042565b3480156103ec57600080fd5b506101c76103fb3660046154ce565b612143565b34801561040c57600080fd5b506035546101fa90610100900473ffffffffffffffffffffffffffffffffffffffff1681565b34801561043e57600080fd5b506032546101fa9073ffffffffffffffffffffffffffffffffffffffff1681565b34801561046b57600080fd5b5061034361047a3660046154a7565b60336020526000908152604090205460ff1681565b34801561049b57600080fd5b506104af6104aa36600461556d565b6123a3565b60405167ffffffffffffffff909116815260200161021b565b3480156104d457600080fd5b506039546101fa9073ffffffffffffffffffffffffffffffffffffffff1681565b34801561050157600080fd5b5060015461055d906fffffffffffffffffffffffffffffffff81169067ffffffffffffffff7001000000000000000000000000000000008204811691780100000000000000000000000000000000000000000000000090041683565b604080516fffffffffffffffffffffffffffffffff909416845267ffffffffffffffff928316602085015291169082015260600161021b565b3480156105a257600080fd5b506105fd6105b13660046154a7565b60346020526000908152604090208054600182015460029092015490916fffffffffffffffffffffffffffffffff80821692700100000000000000000000000000000000909204169084565b60405161021b94939291909384526fffffffffffffffffffffffffffffffff928316602085015291166040830152606082015260800190565b6101c7610644366004615588565b610674565b34801561065557600080fd5b5060365473ffffffffffffffffffffffffffffffffffffffff166101fa565b8260005a905083156107295773ffffffffffffffffffffffffffffffffffffffff871615610729576040517f08c379a000000000000000000000000000000000000000000000000000000000815260206004820152603d60248201527f5061746578506f7274616c3a206d7573742073656e6420746f2061646472657360448201527f73283029207768656e206372656174696e67206120636f6e747261637400000060648201526084015b60405180910390fd5b61073383516123a3565b67ffffffffffffffff168567ffffffffffffffff1610156107d6576040517f08c379a000000000000000000000000000000000000000000000000000000000815260206004820152603560248201527f5061746578506f7274616c3a20676173206c696d6974206d75737420636f766560448201527f7220696e737472696e7369632067617320636f737400000000000000000000006064820152608401610720565b6201d4c083511115610844576040517f08c379a000000000000000000000000000000000000000000000000000000000815260206004820152601b60248201527f5061746578506f7274616c3a206461746120746f6f206c6172676500000000006044820152606401610720565b33328114610865575033731111000000000000000000000000000000001111015b6060736e8836f050a315611208a5cd7e228701563d09c573ffffffffffffffffffffffffffffffffffffffff8316148015906108cb575073c207fa4b17ca710ba53f06feff56ca9d315915b773ffffffffffffffffffffffffffffffffffffffff831614155b8015610901575073bf9ad762dbae603bc8fc79dfd3fb26f2b9740e8773ffffffffffffffffffffffffffffffffffffffff831614155b61090a57600080fd5b603960009054906101000a900473ffffffffffffffffffffffffffffffffffffffff1673ffffffffffffffffffffffffffffffffffffffff1663f8c622746040518163ffffffff1660e01b8152600401602060405180830381865afa158015610977573d6000803e3d6000fd5b505050506040513d601f19601f8201168201806040525081019061099b9190615605565b73ffffffffffffffffffffffffffffffffffffffff168973ffffffffffffffffffffffffffffffffffffffff1603610bfb57603860009054906101000a900473ffffffffffffffffffffffffffffffffffffffff1673ffffffffffffffffffffffffffffffffffffffff166371ea21c26040518163ffffffff1660e01b8152600401602060405180830381865afa158015610a3a573d6000803e3d6000fd5b505050506040513d601f19601f82011682018060405250810190610a5e9190615605565b73ffffffffffffffffffffffffffffffffffffffff163373ffffffffffffffffffffffffffffffffffffffff16141580610b3f5750603854604080517f71ea21c2000000000000000000000000000000000000000000000000000000008152905160009273ffffffffffffffffffffffffffffffffffffffff16916371ea21c29160048083019260209291908290030181865afa158015610b03573d6000803e3d6000fd5b505050506040513d601f19601f82011682018060405250810190610b279190615605565b73ffffffffffffffffffffffffffffffffffffffff16145b15610bcc576040517f08c379a000000000000000000000000000000000000000000000000000000000815260206004820152602d60248201527f5061746578506f7274616c3a206f6e6c792074686520426c617374427269646760448201527f652063616e206465706f736974000000000000000000000000000000000000006064820152608401610720565b8788888888604051602001610be5959493929190615622565b6040516020818303038152906040529050610c26565b3488888888604051602001610c14959493929190615622565b60405160208183030381529060405290505b3415610ce757603854600090610c569073ffffffffffffffffffffffffffffffffffffffff16620186a0346123bc565b905080610ce5576040517f08c379a000000000000000000000000000000000000000000000000000000000815260206004820152603060248201527f5061746578506f7274616c3a20455448207472616e7366657220746f2059696560448201527f6c644d616e61676572206661696c6564000000000000000000000000000000006064820152608401610720565b505b60008973ffffffffffffffffffffffffffffffffffffffff168373ffffffffffffffffffffffffffffffffffffffff167fb3813568d9991fc951961fcb4c784893574240a28925604d09fc577c55bb7c3284604051610d469190615494565b60405180910390a45050610d5a82826123d4565b50505050505050565b60355460ff1615610dd0576040517f08c379a000000000000000000000000000000000000000000000000000000000815260206004820152601360248201527f5061746578506f7274616c3a20706175736564000000000000000000000000006044820152606401610720565b60325473ffffffffffffffffffffffffffffffffffffffff1661dead14610e79576040517f08c379a000000000000000000000000000000000000000000000000000000000815260206004820152603c60248201527f5061746578506f7274616c3a2063616e206f6e6c792074726967676572206f6e60448201527f65207769746864726177616c20706572207472616e73616374696f6e000000006064820152608401610720565b6000610e8482612701565b600081815260346020908152604080832081516080810183528154815260018201546fffffffffffffffffffffffffffffffff80821695830186905270010000000000000000000000000000000090910416928101929092526002015460608201529293509003610f77576040517f08c379a000000000000000000000000000000000000000000000000000000000815260206004820152602f60248201527f5061746578506f7274616c3a207769746864726177616c20686173206e6f742060448201527f6265656e2070726f76656e2079657400000000000000000000000000000000006064820152608401610720565b603560019054906101000a900473ffffffffffffffffffffffffffffffffffffffff1673ffffffffffffffffffffffffffffffffffffffff1663887862726040518163ffffffff1660e01b8152600401602060405180830381865afa158015610fe4573d6000803e3d6000fd5b505050506040513d601f19601f820116820180604052508101906110089190615687565b81602001516fffffffffffffffffffffffffffffffff1610156110d3576040517f08c379a000000000000000000000000000000000000000000000000000000000815260206004820152604860248201527f5061746578506f7274616c3a207769746864726177616c2074696d657374616d60448201527f70206c657373207468616e204c32204f7261636c65207374617274696e67207460648201527f696d657374616d70000000000000000000000000000000000000000000000000608482015260a401610720565b6110f281602001516fffffffffffffffffffffffffffffffff1661274e565b6111a4576040517f08c379a000000000000000000000000000000000000000000000000000000000815260206004820152604260248201527f5061746578506f7274616c3a2070726f76656e207769746864726177616c206660448201527f696e616c697a6174696f6e20706572696f6420686173206e6f7420656c61707360648201527f6564000000000000000000000000000000000000000000000000000000000000608482015260a401610720565b60355460408281015190517fa25ae5570000000000000000000000000000000000000000000000000000000081526fffffffffffffffffffffffffffffffff9091166004820152600091610100900473ffffffffffffffffffffffffffffffffffffffff169063a25ae55790602401606060405180830381865afa158015611230573d6000803e3d6000fd5b505050506040513d601f19601f8201168201806040525081019061125491906156c0565b825181519192501461130e576040517f08c379a000000000000000000000000000000000000000000000000000000000815260206004820152604660248201527f5061746578506f7274616c3a206f757470757420726f6f742070726f76656e2060448201527f6973206e6f74207468652073616d652061732063757272656e74206f7574707560648201527f7420726f6f740000000000000000000000000000000000000000000000000000608482015260a401610720565b61132d81602001516fffffffffffffffffffffffffffffffff1661274e565b6113bb57604080517f08c379a00000000000000000000000000000000000000000000000000000000081526020600482015260248101919091527f5061746578506f7274616c3a206f75747075742070726f706f73616c2066696e60448201527f616c697a6174696f6e20706572696f6420686173206e6f7420656c61707365646064820152608401610720565b60008381526033602052604090205460ff161561145a576040517f08c379a000000000000000000000000000000000000000000000000000000000815260206004820152603260248201527f5061746578506f7274616c3a207769746864726177616c2068617320616c726560448201527f616479206265656e2066696e616c697a656400000000000000000000000000006064820152608401610720565b6000838152603360209081526040822080547fffffffffffffffffffffffffffffffffffffffffffffffffffffffffffffff001660011790558501516032805473ffffffffffffffffffffffffffffffffffffffff9092167fffffffffffffffffffffffff00000000000000000000000000000000000000009092169190911790556060850151156115975760385460608401516040517ff21340e4000000000000000000000000000000000000000000000000000000008152600481019190915260248101889052479173ffffffffffffffffffffffffffffffffffffffff169063f21340e4906044016020604051808303816000875af1158015611564573d6000803e3d6000fd5b505050506040513d601f19601f820116820180604052508101906115889190615725565b506115938147615771565b9150505b60006115b186604001518760800151848960a001516127f3565b603280547fffffffffffffffffffffffff00000000000000000000000000000000000000001661dead179055604051909150879086907f36d89e6190aa646d1a48286f8ad05e60a144483f42fd7e0ea08baba79343645b9061161890851515815260200190565b60405180910390a38015801561162e5750326001145b15610d5a576040517f08c379a000000000000000000000000000000000000000000000000000000000815260206004820152601e60248201527f5061746578506f7274616c3a207769746864726177616c206661696c656400006044820152606401610720565b60375473ffffffffffffffffffffffffffffffffffffffff16331461173c576040517f08c379a000000000000000000000000000000000000000000000000000000000815260206004820152602660248201527f5061746578506f7274616c3a206f6e6c7920677561726469616e2063616e207560448201527f6e706175736500000000000000000000000000000000000000000000000000006064820152608401610720565b603580547fffffffffffffffffffffffffffffffffffffffffffffffffffffffffffffff001690556040513381527f5db9ee0a495bf2e6ff9c91a7834c1ba4fdd244a5e8aa4e537bd38aeae4b073aa906020015b60405180910390a1565b60355460ff1615611807576040517f08c379a000000000000000000000000000000000000000000000000000000000815260206004820152601360248201527f5061746578506f7274616c3a20706175736564000000000000000000000000006044820152606401610720565b3073ffffffffffffffffffffffffffffffffffffffff16856040015173ffffffffffffffffffffffffffffffffffffffff16036118c6576040517f08c379a000000000000000000000000000000000000000000000000000000000815260206004820152603c60248201527f5061746578506f7274616c3a20796f752063616e6e6f742073656e64206d657360448201527f736167657320746f2074686520706f7274616c20636f6e7472616374000000006064820152608401610720565b6035546040517fa25ae55700000000000000000000000000000000000000000000000000000000815260048101869052600091610100900473ffffffffffffffffffffffffffffffffffffffff169063a25ae55790602401606060405180830381865afa15801561193b573d6000803e3d6000fd5b505050506040513d601f19601f8201168201806040525081019061195f91906156c0565b51905061197961197436869003860186615788565b61284d565b8114611a07576040517f08c379a000000000000000000000000000000000000000000000000000000000815260206004820152602660248201527f5061746578506f7274616c3a20696e76616c6964206f757470757420726f6f7460448201527f2070726f6f6600000000000000000000000000000000000000000000000000006064820152608401610720565b6000611a1287612701565b60008181526034602090815260409182902082516080810184528154815260018201546fffffffffffffffffffffffffffffffff8082169483018590527001000000000000000000000000000000009091041693810193909352600201546060830152919250901580611b345750805160355460408084015190517fa25ae5570000000000000000000000000000000000000000000000000000000081526fffffffffffffffffffffffffffffffff909116600482015261010090910473ffffffffffffffffffffffffffffffffffffffff169063a25ae55790602401606060405180830381865afa158015611b0c573d6000803e3d6000fd5b505050506040513d601f19601f82011682018060405250810190611b3091906156c0565b5114155b611bc0576040517f08c379a000000000000000000000000000000000000000000000000000000000815260206004820152603460248201527f5061746578506f7274616c3a207769746864726177616c20686173682068617360448201527f20616c7265616479206265656e2070726f76656e0000000000000000000000006064820152608401610720565b60408051602081018490526000918101829052606001604080517fffffffffffffffffffffffffffffffffffffffffffffffffffffffffffffffe081840301815282825280516020918201209083018190529250611c899101604080517fffffffffffffffffffffffffffffffffffffffffffffffffffffffffffffffe0818403018152828201909152600182527f0100000000000000000000000000000000000000000000000000000000000000602083015290611c7f888a6157ee565b8a6040013561288c565b611d15576040517f08c379a000000000000000000000000000000000000000000000000000000000815260206004820152602f60248201527f5061746578506f7274616c3a20696e76616c6964207769746864726177616c2060448201527f696e636c7573696f6e2070726f6f6600000000000000000000000000000000006064820152608401610720565b6000808a60600151118015611d3e575060208301516fffffffffffffffffffffffffffffffff16155b15611dea5760385460608b01516040517f9ee679e800000000000000000000000000000000000000000000000000000000815273ffffffffffffffffffffffffffffffffffffffff90921691639ee679e891611da09160040190815260200190565b6020604051808303816000875af1158015611dbf573d6000803e3d6000fd5b505050506040513d601f19601f82011682018060405250810190611de39190615687565b9050611df1565b5060608201515b60385460408b015173ffffffffffffffffffffffffffffffffffffffff918216911603611ea0576040517f08c379a000000000000000000000000000000000000000000000000000000000815260206004820152603260248201527f4f7074696d69736d506f7274616c3a20756e617574686f72697a65642063616c60448201527f6c20746f207969656c64206d616e6167657200000000000000000000000000006064820152608401610720565b604080516080810182528681526fffffffffffffffffffffffffffffffff42811660208084019182528d83168486019081526060850187815260008b81526034845287902095518655925190518416700100000000000000000000000000000000029316929092176001840155516002909201919091558b820151908c0151915173ffffffffffffffffffffffffffffffffffffffff918216929091169086907f5d5446905f1f582d57d04ced5b1bed0f1a6847bcee57f7dd9d6f2ec12ab9ec2e90611f6f9086815260200190565b60405180910390a450505050505050505050565b6035546040517fa25ae5570000000000000000000000000000000000000000000000000000000081526004810183905260009161203c9161010090910473ffffffffffffffffffffffffffffffffffffffff169063a25ae55790602401606060405180830381865afa158015611ffd573d6000803e3d6000fd5b505050506040513d601f19601f8201168201806040525081019061202191906156c0565b602001516fffffffffffffffffffffffffffffffff1661274e565b92915050565b60375473ffffffffffffffffffffffffffffffffffffffff1633146120e8576040517f08c379a0000000000000000000000000000000000000000000000000000000008152602060048201526024808201527f5061746578506f7274616c3a206f6e6c7920677561726469616e2063616e207060448201527f61757365000000000000000000000000000000000000000000000000000000006064820152608401610720565b603580547fffffffffffffffffffffffffffffffffffffffffffffffffffffffffffffff001660011790556040513381527f62e78cea01bee320cd4e420270b5ea74000d11b0c9f74754ebdbfc544b05a25890602001611790565b600054600a90610100900460ff16158015612165575060005460ff8083169116105b6121f1576040517f08c379a000000000000000000000000000000000000000000000000000000000815260206004820152602e60248201527f496e697469616c697a61626c653a20636f6e747261637420697320616c72656160448201527f647920696e697469616c697a65640000000000000000000000000000000000006064820152608401610720565b600080547fffffffffffffffffffffffffffffffffffffffffffffffffffffffffffff00001660ff83161761010017905560325473ffffffffffffffffffffffffffffffffffffffff1661226c57603280547fffffffffffffffffffffffff00000000000000000000000000000000000000001661dead1790555b60358054603680547fffffffffffffffffffffffff000000000000000000000000000000000000000090811673ffffffffffffffffffffffffffffffffffffffff8a8116919091179092556037805482168b84161790557fffffffffffffffffffffff0000000000000000000000000000000000000000009092166101008b8316027fffffffffffffffffffffffffffffffffffffffffffffffffffffffffffffff001617871515179092556038805482168684161790556039805490911691841691909117905561233c6128b0565b600080547fffffffffffffffffffffffffffffffffffffffffffffffffffffffffffff00ff16905560405160ff821681527f7f26b83ff96e1f2b6a682f133852f6798a09c465da95921460cefb38474024989060200160405180910390a150505050505050565b60006123b0826010615872565b61203c906152086158a2565b600080600080600080868989f19150505b9392505050565b60015460009061240a907801000000000000000000000000000000000000000000000000900467ffffffffffffffff1643615771565b90506000612416612993565b90506000816020015160ff16826000015163ffffffff1661243791906158fd565b9050821561256e5760015460009061246e908390700100000000000000000000000000000000900467ffffffffffffffff16615965565b90506000836040015160ff168361248591906159d9565b6001546124a59084906fffffffffffffffffffffffffffffffff166159d9565b6124af91906158fd565b600154909150600090612500906124d99084906fffffffffffffffffffffffffffffffff16615a95565b866060015163ffffffff168760a001516fffffffffffffffffffffffffffffffff16612a59565b9050600186111561252f5761252c6124d982876040015160ff1660018a6125279190615771565b612a76565b90505b6fffffffffffffffffffffffffffffffff16780100000000000000000000000000000000000000000000000067ffffffffffffffff4316021760015550505b600180548691906010906125a1908490700100000000000000000000000000000000900467ffffffffffffffff166158a2565b92506101000a81548167ffffffffffffffff021916908367ffffffffffffffff160217905550816000015163ffffffff16600160000160109054906101000a900467ffffffffffffffff1667ffffffffffffffff161315612684576040517f08c379a000000000000000000000000000000000000000000000000000000000815260206004820152603e60248201527f5265736f757263654d65746572696e673a2063616e6e6f7420627579206d6f7260448201527f6520676173207468616e20617661696c61626c6520676173206c696d697400006064820152608401610720565b6001546000906126b0906fffffffffffffffffffffffffffffffff1667ffffffffffffffff8816615b09565b905060006126c248633b9aca00612acb565b6126cc9083615b46565b905060005a6126db9088615771565b9050808211156126f7576126f76126f28284615771565b612ae2565b5050505050505050565b80516020808301516040808501516060860151608087015160a08801519351600097612731979096959101615b5a565b604051602081830303815290604052805190602001209050919050565b6000603560019054906101000a900473ffffffffffffffffffffffffffffffffffffffff1673ffffffffffffffffffffffffffffffffffffffff1663f4daa2916040518163ffffffff1660e01b8152600401602060405180830381865afa1580156127bd573d6000803e3d6000fd5b505050506040513d601f19601f820116820180604052508101906127e19190615687565b6127eb9083615bb1565b421192915050565b600080603f60c88601604002045a1015612836576308c379a06000526020805278185361666543616c6c3a204e6f7420656e6f756768206761736058526064601cfd5b600080845160208601878a5af19695505050505050565b60008160000151826020015183604001518460600151604051602001612731949392919093845260208401929092526040830152606082015260800190565b60008061289886612b10565b90506128a681868686612b42565b9695505050505050565b600054610100900460ff16612947576040517f08c379a000000000000000000000000000000000000000000000000000000000815260206004820152602b60248201527f496e697469616c697a61626c653a20636f6e7472616374206973206e6f74206960448201527f6e697469616c697a696e670000000000000000000000000000000000000000006064820152608401610720565b60408051606081018252633b9aca00808252600060208301524367ffffffffffffffff169190920181905278010000000000000000000000000000000000000000000000000217600155565b6040805160c08082018352600080835260208301819052828401819052606083018190526080830181905260a083015260365483517fcc731b020000000000000000000000000000000000000000000000000000000081529351929373ffffffffffffffffffffffffffffffffffffffff9091169263cc731b02926004808401939192918290030181865afa158015612a30573d6000803e3d6000fd5b505050506040513d601f19601f82011682018060405250810190612a549190615bee565b905090565b6000612a6e612a688585612b72565b83612b82565b949350505050565b6000670de0b6b3a7640000612ab7612a8e85836158fd565b612aa090670de0b6b3a7640000615965565b612ab285670de0b6b3a76400006159d9565b612b91565b612ac190866159d9565b612a6e91906158fd565b600081831015612adb57816123cd565b5090919050565b6000805a90505b825a612af59083615771565b1015612b0b57612b0482615c8d565b9150612ae9565b505050565b60608180519060200120604051602001612b2c91815260200190565b6040516020818303038152906040529050919050565b6000612b6984612b53878686612bc2565b8051602091820120825192909101919091201490565b95945050505050565b600081831215612adb57816123cd565b6000818312612adb57816123cd565b60006123cd670de0b6b3a764000083612ba98661364a565b612bb391906159d9565b612bbd91906158fd565b61388e565b60606000845111612c2f576040517f08c379a000000000000000000000000000000000000000000000000000000000815260206004820152601560248201527f4d65726b6c65547269653a20656d707479206b657900000000000000000000006044820152606401610720565b6000612c3a84613acd565b90506000612c4786613bbc565b9050600084604051602001612c5e91815260200190565b60405160208183030381529060405290506000805b84518110156135c1576000858281518110612c9057612c90615cc5565b602002602001015190508451831115612d2b576040517f08c379a000000000000000000000000000000000000000000000000000000000815260206004820152602e60248201527f4d65726b6c65547269653a206b657920696e646578206578636565647320746f60448201527f74616c206b6579206c656e6774680000000000000000000000000000000000006064820152608401610720565b82600003612de45780518051602091820120604051612d7992612d5392910190815260200190565b604051602081830303815290604052858051602091820120825192909101919091201490565b612ddf576040517f08c379a000000000000000000000000000000000000000000000000000000000815260206004820152601d60248201527f4d65726b6c65547269653a20696e76616c696420726f6f7420686173680000006044820152606401610720565b612f3b565b805151602011612e9a5780518051602091820120604051612e0e92612d5392910190815260200190565b612ddf576040517f08c379a000000000000000000000000000000000000000000000000000000000815260206004820152602760248201527f4d65726b6c65547269653a20696e76616c6964206c6172676520696e7465726e60448201527f616c2068617368000000000000000000000000000000000000000000000000006064820152608401610720565b805184516020808701919091208251919092012014612f3b576040517f08c379a000000000000000000000000000000000000000000000000000000000815260206004820152602660248201527f4d65726b6c65547269653a20696e76616c696420696e7465726e616c206e6f6460448201527f65206861736800000000000000000000000000000000000000000000000000006064820152608401610720565b612f4760106001615bb1565b8160200151510361312857845183036130c0576000612f838260200151601081518110612f7657612f76615cc5565b6020026020010151613d57565b90506000815111613016576040517f08c379a000000000000000000000000000000000000000000000000000000000815260206004820152603b60248201527f4d65726b6c65547269653a2076616c7565206c656e677468206d75737420626560448201527f2067726561746572207468616e207a65726f20286272616e63682900000000006064820152608401610720565b600187516130249190615771565b83146130b2576040517f08c379a000000000000000000000000000000000000000000000000000000000815260206004820152603a60248201527f4d65726b6c65547269653a2076616c7565206e6f6465206d757374206265206c60448201527f617374206e6f646520696e2070726f6f6620286272616e6368290000000000006064820152608401610720565b96506123cd95505050505050565b60008584815181106130d4576130d4615cc5565b602001015160f81c60f81b60f81c9050600082602001518260ff16815181106130ff576130ff615cc5565b6020026020010151905061311281613eb7565b955061311f600186615bb1565b945050506135ae565b60028160200151510361352657600061314082613edc565b905060008160008151811061315757613157615cc5565b016020015160f81c9050600061316e600283615cf4565b613179906002615d16565b9050600061318a848360ff16613f00565b905060006131988a89613f00565b905060006131a68383613f36565b905080835114613238576040517f08c379a000000000000000000000000000000000000000000000000000000000815260206004820152603a60248201527f4d65726b6c65547269653a20706174682072656d61696e646572206d7573742060448201527f736861726520616c6c206e6962626c65732077697468206b65790000000000006064820152608401610720565b60ff85166002148061324d575060ff85166003145b1561344157808251146132e2576040517f08c379a000000000000000000000000000000000000000000000000000000000815260206004820152603d60248201527f4d65726b6c65547269653a206b65792072656d61696e646572206d757374206260448201527f65206964656e746963616c20746f20706174682072656d61696e6465720000006064820152608401610720565b60006132fe8860200151600181518110612f7657612f76615cc5565b90506000815111613391576040517f08c379a000000000000000000000000000000000000000000000000000000000815260206004820152603960248201527f4d65726b6c65547269653a2076616c7565206c656e677468206d75737420626560448201527f2067726561746572207468616e207a65726f20286c65616629000000000000006064820152608401610720565b60018d5161339f9190615771565b891461342d576040517f08c379a000000000000000000000000000000000000000000000000000000000815260206004820152603860248201527f4d65726b6c65547269653a2076616c7565206e6f6465206d757374206265206c60448201527f617374206e6f646520696e2070726f6f6620286c6561662900000000000000006064820152608401610720565b9c506123cd9b505050505050505050505050565b60ff85161580613454575060ff85166001145b1561349357613480876020015160018151811061347357613473615cc5565b6020026020010151613eb7565b995061348c818a615bb1565b985061351b565b6040517f08c379a000000000000000000000000000000000000000000000000000000000815260206004820152603260248201527f4d65726b6c65547269653a2072656365697665642061206e6f6465207769746860448201527f20616e20756e6b6e6f776e2070726566697800000000000000000000000000006064820152608401610720565b5050505050506135ae565b6040517f08c379a000000000000000000000000000000000000000000000000000000000815260206004820152602860248201527f4d65726b6c65547269653a20726563656976656420616e20756e70617273656160448201527f626c65206e6f64650000000000000000000000000000000000000000000000006064820152608401610720565b50806135b981615c8d565b915050612c73565b506040517f08c379a000000000000000000000000000000000000000000000000000000000815260206004820152602560248201527f4d65726b6c65547269653a2072616e206f7574206f662070726f6f6620656c6560448201527f6d656e74730000000000000000000000000000000000000000000000000000006064820152608401610720565b60008082136136b5576040517f08c379a000000000000000000000000000000000000000000000000000000000815260206004820152600960248201527f554e444546494e454400000000000000000000000000000000000000000000006044820152606401610720565b600060606136c284613fe5565b03609f8181039490941b90931c6c465772b2bbbb5f824b15207a3081018102606090811d6d0388eaa27412d5aca026815d636e018202811d6d0df99ac502031bf953eff472fdcc018202811d6d13cdffb29d51d99322bdff5f2211018202811d6d0a0f742023def783a307a986912e018202811d6d01920d8043ca89b5239253284e42018202811d6c0b7a86d7375468fac667a0a527016c29508e458543d8aa4df2abee7883018302821d6d0139601a2efabe717e604cbb4894018302821d6d02247f7a7b6594320649aa03aba1018302821d7fffffffffffffffffffffffffffffffffffffff73c0c716a594e00d54e3c4cbc9018302821d7ffffffffffffffffffffffffffffffffffffffdc7b88c420e53a9890533129f6f01830290911d7fffffffffffffffffffffffffffffffffffffff465fda27eb4d63ded474e5f832019091027ffffffffffffffff5f6af8f7b3396644f18e157960000000000000000000000000105711340daa0d5f769dba1915cef59f0815a5506027d0267a36c0c95b3975ab3ee5b203a7614a3f75373f047d803ae7b6687f2b393909302929092017d57115e47018c7177eebf7cd370a3356a1b7863008a5ae8028c72b88642840160ae1d92915050565b60007ffffffffffffffffffffffffffffffffffffffffffffffffdb731c958f34d94c182136138bf57506000919050565b680755bf798b4a1bf1e58212613931576040517f08c379a000000000000000000000000000000000000000000000000000000000815260206004820152600c60248201527f4558505f4f564552464c4f5700000000000000000000000000000000000000006044820152606401610720565b6503782dace9d9604e83901b059150600060606bb17217f7d1cf79abc9e3b39884821b056b80000000000000000000000001901d6bb17217f7d1cf79abc9e3b39881029093037fffffffffffffffffffffffffffffffffffffffdbf3ccf1604d263450f02a550481018102606090811d6d0277594991cfc85f6e2461837cd9018202811d7fffffffffffffffffffffffffffffffffffffe5adedaa1cb095af9e4da10e363c018202811d6db1bbb201f443cf962f1a1d3db4a5018202811d7ffffffffffffffffffffffffffffffffffffd38dc772608b0ae56cce01296c0eb018202811d6e05180bb14799ab47a8a8cb2a527d57016d02d16720577bd19bf614176fe9ea6c10fe68e7fd37d0007b713f765084018402831d9081019084017ffffffffffffffffffffffffffffffffffffffe2c69812cf03b0763fd454a8f7e010290911d6e0587f503bb6ea29d25fcb7401964500190910279d835ebba824c98fb31b83b2ca45c000000000000000000000000010574029d9dc38563c32e5c2f6dc192ee70ef65f9978af30260c3939093039290921c92915050565b805160609060008167ffffffffffffffff811115613aed57613aed615117565b604051908082528060200260200182016040528015613b3257816020015b6040805180820190915260608082526020820152815260200190600190039081613b0b5790505b50905060005b82811015613bb4576040518060400160405280868381518110613b5d57613b5d615cc5565b60200260200101518152602001613b8c878481518110613b7f57613b7f615cc5565b60200260200101516140bb565b815250828281518110613ba157613ba1615cc5565b6020908102919091010152600101613b38565b509392505050565b80516060906000613bce826002615b09565b67ffffffffffffffff811115613be657613be6615117565b6040519080825280601f01601f191660200182016040528015613c10576020820181803683370190505b5090506000805b83811015613d4d57858181518110613c3157613c31615cc5565b6020910101517fff000000000000000000000000000000000000000000000000000000000000008116925060041c7f0ff00000000000000000000000000000000000000000000000000000000000001683613c8d836002615b09565b81518110613c9d57613c9d615cc5565b60200101907effffffffffffffffffffffffffffffffffffffffffffffffffffffffffffff1916908160001a9053507f0f00000000000000000000000000000000000000000000000000000000000000821683613cfb836002615b09565b613d06906001615bb1565b81518110613d1657613d16615cc5565b60200101907effffffffffffffffffffffffffffffffffffffffffffffffffffffffffffff1916908160001a905350600101613c17565b5090949350505050565b60606000806000613d67856140ce565b919450925090506000816001811115613d8257613d82615d39565b14613e0f576040517f08c379a000000000000000000000000000000000000000000000000000000000815260206004820152603960248201527f524c505265616465723a206465636f646564206974656d207479706520666f7260448201527f206279746573206973206e6f7420612064617461206974656d000000000000006064820152608401610720565b613e198284615bb1565b855114613ea8576040517f08c379a000000000000000000000000000000000000000000000000000000000815260206004820152603460248201527f524c505265616465723a2062797465732076616c756520636f6e7461696e732060448201527f616e20696e76616c69642072656d61696e6465720000000000000000000000006064820152608401610720565b612b6985602001518484614b3b565b60606020826000015110613ed357613ece82613d57565b61203c565b61203c82614bdc565b606061203c613efb8360200151600081518110612f7657612f76615cc5565b613bbc565b606082518210613f1f575060408051602081019091526000815261203c565b6123cd8383848651613f319190615771565b614bf2565b60008060008351855110613f4b578351613f4e565b84515b90505b8082108015613fd55750838281518110613f6d57613f6d615cc5565b602001015160f81c60f81b7effffffffffffffffffffffffffffffffffffffffffffffffffffffffffffff1916858381518110613fac57613fac615cc5565b01602001517fff0000000000000000000000000000000000000000000000000000000000000016145b15613bb457816001019150613f51565b6000808211614050576040517f08c379a000000000000000000000000000000000000000000000000000000000815260206004820152600960248201527f554e444546494e454400000000000000000000000000000000000000000000006044820152606401610720565b5060016fffffffffffffffffffffffffffffffff821160071b82811c67ffffffffffffffff1060061b1782811c63ffffffff1060051b1782811c61ffff1060041b1782811c60ff10600390811b90911783811c600f1060021b1783811c909110821b1791821c111790565b606061203c6140c983614dca565b614eb3565b60008060008084600001511161418c576040517f08c379a000000000000000000000000000000000000000000000000000000000815260206004820152604a60248201527f524c505265616465723a206c656e677468206f6620616e20524c50206974656d60448201527f206d7573742062652067726561746572207468616e207a65726f20746f20626560648201527f206465636f6461626c6500000000000000000000000000000000000000000000608482015260a401610720565b6020840151805160001a607f81116141b1576000600160009450945094505050614b34565b60b781116143bf5760006141c6608083615771565b905080876000015111614281576040517f08c379a000000000000000000000000000000000000000000000000000000000815260206004820152604e60248201527f524c505265616465723a206c656e677468206f6620636f6e74656e74206d757360448201527f742062652067726561746572207468616e20737472696e67206c656e6774682060648201527f2873686f727420737472696e6729000000000000000000000000000000000000608482015260a401610720565b6001838101517fff000000000000000000000000000000000000000000000000000000000000001690821415806142fa57507f80000000000000000000000000000000000000000000000000000000000000007fff00000000000000000000000000000000000000000000000000000000000000821610155b6143ac576040517f08c379a000000000000000000000000000000000000000000000000000000000815260206004820152604d60248201527f524c505265616465723a20696e76616c6964207072656669782c2073696e676c60448201527f652062797465203c203078383020617265206e6f74207072656669786564202860648201527f73686f727420737472696e672900000000000000000000000000000000000000608482015260a401610720565b5060019550935060009250614b34915050565b60bf811161470d5760006143d460b783615771565b90508087600001511161448f576040517f08c379a000000000000000000000000000000000000000000000000000000000815260206004820152605160248201527f524c505265616465723a206c656e677468206f6620636f6e74656e74206d757360448201527f74206265203e207468616e206c656e677468206f6620737472696e67206c656e60648201527f67746820286c6f6e6720737472696e6729000000000000000000000000000000608482015260a401610720565b60018301517fff0000000000000000000000000000000000000000000000000000000000000016600081900361456d576040517f08c379a000000000000000000000000000000000000000000000000000000000815260206004820152604a60248201527f524c505265616465723a206c656e677468206f6620636f6e74656e74206d757360448201527f74206e6f74206861766520616e79206c656164696e67207a65726f7320286c6f60648201527f6e6720737472696e672900000000000000000000000000000000000000000000608482015260a401610720565b600184015160088302610100031c60378111614631576040517f08c379a000000000000000000000000000000000000000000000000000000000815260206004820152604860248201527f524c505265616465723a206c656e677468206f6620636f6e74656e74206d757360448201527f742062652067726561746572207468616e20353520627974657320286c6f6e6760648201527f20737472696e6729000000000000000000000000000000000000000000000000608482015260a401610720565b61463b8184615bb1565b8951116146f0576040517f08c379a000000000000000000000000000000000000000000000000000000000815260206004820152604c60248201527f524c505265616465723a206c656e677468206f6620636f6e74656e74206d757360448201527f742062652067726561746572207468616e20746f74616c206c656e677468202860648201527f6c6f6e6720737472696e67290000000000000000000000000000000000000000608482015260a401610720565b6146fb836001615bb1565b9750955060009450614b349350505050565b60f781116147ee57600061472260c083615771565b9050808760000151116147dd576040517f08c379a000000000000000000000000000000000000000000000000000000000815260206004820152604a60248201527f524c505265616465723a206c656e677468206f6620636f6e74656e74206d757360448201527f742062652067726561746572207468616e206c697374206c656e67746820287360648201527f686f7274206c6973742900000000000000000000000000000000000000000000608482015260a401610720565b600195509350849250614b34915050565b60006147fb60f783615771565b9050808760000151116148b6576040517f08c379a000000000000000000000000000000000000000000000000000000000815260206004820152604d60248201527f524c505265616465723a206c656e677468206f6620636f6e74656e74206d757360448201527f74206265203e207468616e206c656e677468206f66206c697374206c656e677460648201527f6820286c6f6e67206c6973742900000000000000000000000000000000000000608482015260a401610720565b60018301517fff00000000000000000000000000000000000000000000000000000000000000166000819003614994576040517f08c379a000000000000000000000000000000000000000000000000000000000815260206004820152604860248201527f524c505265616465723a206c656e677468206f6620636f6e74656e74206d757360448201527f74206e6f74206861766520616e79206c656164696e67207a65726f7320286c6f60648201527f6e67206c69737429000000000000000000000000000000000000000000000000608482015260a401610720565b600184015160088302610100031c60378111614a58576040517f08c379a000000000000000000000000000000000000000000000000000000000815260206004820152604660248201527f524c505265616465723a206c656e677468206f6620636f6e74656e74206d757360448201527f742062652067726561746572207468616e20353520627974657320286c6f6e6760648201527f206c697374290000000000000000000000000000000000000000000000000000608482015260a401610720565b614a628184615bb1565b895111614b17576040517f08c379a000000000000000000000000000000000000000000000000000000000815260206004820152604a60248201527f524c505265616465723a206c656e677468206f6620636f6e74656e74206d757360448201527f742062652067726561746572207468616e20746f74616c206c656e677468202860648201527f6c6f6e67206c6973742900000000000000000000000000000000000000000000608482015260a401610720565b614b22836001615bb1565b9750955060019450614b349350505050565b9193909250565b606060008267ffffffffffffffff811115614b5857614b58615117565b6040519080825280601f01601f191660200182016040528015614b82576020820181803683370190505b50905082600003614b945790506123cd565b6000614ba08587615bb1565b90506020820160005b85811015614bc1578281015182820152602001614ba9565b85811115614bd0576000868301525b50919695505050505050565b606061203c826020015160008460000151614b3b565b60608182601f011015614c61576040517f08c379a000000000000000000000000000000000000000000000000000000000815260206004820152600e60248201527f736c6963655f6f766572666c6f770000000000000000000000000000000000006044820152606401610720565b828284011015614ccd576040517f08c379a000000000000000000000000000000000000000000000000000000000815260206004820152600e60248201527f736c6963655f6f766572666c6f770000000000000000000000000000000000006044820152606401610720565b81830184511015614d3a576040517f08c379a000000000000000000000000000000000000000000000000000000000815260206004820152601160248201527f736c6963655f6f75744f66426f756e64730000000000000000000000000000006044820152606401610720565b606082158015614d595760405191506000825260208201604052614dc1565b6040519150601f8416801560200281840101858101878315602002848b0101015b81831015614d92578051835260209283019201614d7a565b5050858452601f017fffffffffffffffffffffffffffffffffffffffffffffffffffffffffffffffe016604052505b50949350505050565b60408051808201909152600080825260208201526000825111614e95576040517f08c379a000000000000000000000000000000000000000000000000000000000815260206004820152604a60248201527f524c505265616465723a206c656e677468206f6620616e20524c50206974656d60448201527f206d7573742062652067726561746572207468616e207a65726f20746f20626560648201527f206465636f6461626c6500000000000000000000000000000000000000000000608482015260a401610720565b50604080518082019091528151815260209182019181019190915290565b60606000806000614ec3856140ce565b919450925090506001816001811115614ede57614ede615d39565b14614f6b576040517f08c379a000000000000000000000000000000000000000000000000000000000815260206004820152603860248201527f524c505265616465723a206465636f646564206974656d207479706520666f7260448201527f206c697374206973206e6f742061206c697374206974656d00000000000000006064820152608401610720565b8451614f778385615bb1565b14615004576040517f08c379a000000000000000000000000000000000000000000000000000000000815260206004820152603260248201527f524c505265616465723a206c697374206974656d2068617320616e20696e766160448201527f6c696420646174612072656d61696e64657200000000000000000000000000006064820152608401610720565b6040805160208082526104208201909252600091816020015b604080518082019091526000808252602082015281526020019060019003908161501d5790505090506000845b875181101561510b576000806150906040518060400160405280858d600001516150749190615771565b8152602001858d602001516150899190615bb1565b90526140ce565b5091509150604051806040016040528083836150ac9190615bb1565b8152602001848c602001516150c19190615bb1565b8152508585815181106150d6576150d6615cc5565b60209081029190910101526150ec600185615bb1565b93506150f88183615bb1565b6151029084615bb1565b9250505061504a565b50815295945050505050565b7f4e487b7100000000000000000000000000000000000000000000000000000000600052604160045260246000fd5b604051601f82017fffffffffffffffffffffffffffffffffffffffffffffffffffffffffffffffe016810167ffffffffffffffff8111828210171561518d5761518d615117565b604052919050565b73ffffffffffffffffffffffffffffffffffffffff811681146151b757600080fd5b50565b600082601f8301126151cb57600080fd5b813567ffffffffffffffff8111156151e5576151e5615117565b61521660207fffffffffffffffffffffffffffffffffffffffffffffffffffffffffffffffe0601f84011601615146565b81815284602083860101111561522b57600080fd5b816020850160208301376000918101602001919091529392505050565b600060c0828403121561525a57600080fd5b60405160c0810167ffffffffffffffff828210818311171561527e5761527e615117565b81604052829350843583526020850135915061529982615195565b816020840152604085013591506152af82615195565b816040840152606085013560608401526080850135608084015260a08501359150808211156152dd57600080fd5b506152ea858286016151ba565b60a0830152505092915050565b6000806040838503121561530a57600080fd5b82359150602083013567ffffffffffffffff81111561532857600080fd5b61533485828601615248565b9150509250929050565b600080600080600085870360e081121561535757600080fd5b863567ffffffffffffffff8082111561536f57600080fd5b61537b8a838b01615248565b97506020890135965060807fffffffffffffffffffffffffffffffffffffffffffffffffffffffffffffffc0840112156153b457600080fd5b60408901955060c08901359250808311156153ce57600080fd5b828901925089601f8401126153e257600080fd5b82359150808211156153f357600080fd5b508860208260051b840101111561540957600080fd5b959894975092955050506020019190565b60005b8381101561543557818101518382015260200161541d565b83811115615444576000848401525b50505050565b6000815180845261546281602086016020860161541a565b601f017fffffffffffffffffffffffffffffffffffffffffffffffffffffffffffffffe0169290920160200192915050565b6020815260006123cd602083018461544a565b6000602082840312156154b957600080fd5b5035919050565b80151581146151b757600080fd5b60008060008060008060c087890312156154e757600080fd5b86356154f281615195565b9550602087013561550281615195565b9450604087013561551281615195565b93506060870135615522816154c0565b9250608087013561553281615195565b915060a087013561554281615195565b809150509295509295509295565b803567ffffffffffffffff8116811461556857600080fd5b919050565b60006020828403121561557f57600080fd5b6123cd82615550565b600080600080600060a086880312156155a057600080fd5b85356155ab81615195565b9450602086013593506155c060408701615550565b925060608601356155d0816154c0565b9150608086013567ffffffffffffffff8111156155ec57600080fd5b6155f8888289016151ba565b9150509295509295909350565b60006020828403121561561757600080fd5b81516123cd81615195565b8581528460208201527fffffffffffffffff0000000000000000000000000000000000000000000000008460c01b16604082015282151560f81b60488201526000825161567681604985016020870161541a565b919091016049019695505050505050565b60006020828403121561569957600080fd5b5051919050565b80516fffffffffffffffffffffffffffffffff8116811461556857600080fd5b6000606082840312156156d257600080fd5b6040516060810181811067ffffffffffffffff821117156156f5576156f5615117565b60405282518152615708602084016156a0565b6020820152615719604084016156a0565b60408201529392505050565b60006020828403121561573757600080fd5b81516123cd816154c0565b7f4e487b7100000000000000000000000000000000000000000000000000000000600052601160045260246000fd5b60008282101561578357615783615742565b500390565b60006080828403121561579a57600080fd5b6040516080810181811067ffffffffffffffff821117156157bd576157bd615117565b8060405250823581526020830135602082015260408301356040820152606083013560608201528091505092915050565b600067ffffffffffffffff8084111561580957615809615117565b8360051b602061581a818301615146565b86815291850191818101903684111561583257600080fd5b865b848110156158665780358681111561584c5760008081fd5b61585836828b016151ba565b845250918301918301615834565b50979650505050505050565b600067ffffffffffffffff8083168185168183048111821515161561589957615899615742565b02949350505050565b600067ffffffffffffffff8083168185168083038211156158c5576158c5615742565b01949350505050565b7f4e487b7100000000000000000000000000000000000000000000000000000000600052601260045260246000fd5b60008261590c5761590c6158ce565b7fffffffffffffffffffffffffffffffffffffffffffffffffffffffffffffffff83147f80000000000000000000000000000000000000000000000000000000000000008314161561596057615960615742565b500590565b6000808312837f80000000000000000000000000000000000000000000000000000000000000000183128115161561599f5761599f615742565b837f7fffffffffffffffffffffffffffffffffffffffffffffffffffffffffffffff0183138116156159d3576159d3615742565b50500390565b60007f7fffffffffffffffffffffffffffffffffffffffffffffffffffffffffffffff600084136000841385830485118282161615615a1a57615a1a615742565b7f80000000000000000000000000000000000000000000000000000000000000006000871286820588128184161615615a5557615a55615742565b60008712925087820587128484161615615a7157615a71615742565b87850587128184161615615a8757615a87615742565b505050929093029392505050565b6000808212827f7fffffffffffffffffffffffffffffffffffffffffffffffffffffffffffffff03841381151615615acf57615acf615742565b827f8000000000000000000000000000000000000000000000000000000000000000038412811615615b0357615b03615742565b50500190565b6000817fffffffffffffffffffffffffffffffffffffffffffffffffffffffffffffffff0483118215151615615b4157615b41615742565b500290565b600082615b5557615b556158ce565b500490565b868152600073ffffffffffffffffffffffffffffffffffffffff808816602084015280871660408401525084606083015283608083015260c060a0830152615ba560c083018461544a565b98975050505050505050565b60008219821115615bc457615bc4615742565b500190565b805163ffffffff8116811461556857600080fd5b805160ff8116811461556857600080fd5b600060c08284031215615c0057600080fd5b60405160c0810181811067ffffffffffffffff82111715615c2357615c23615117565b604052615c2f83615bc9565b8152615c3d60208401615bdd565b6020820152615c4e60408401615bdd565b6040820152615c5f60608401615bc9565b6060820152615c7060808401615bc9565b6080820152615c8160a084016156a0565b60a08201529392505050565b60007fffffffffffffffffffffffffffffffffffffffffffffffffffffffffffffffff8203615cbe57615cbe615742565b5060010190565b7f4e487b7100000000000000000000000000000000000000000000000000000000600052603260045260246000fd5b600060ff831680615d0757615d076158ce565b8060ff84160691505092915050565b600060ff821660ff841680821015615d3057615d30615742565b90039392505050565b7f4e487b7100000000000000000000000000000000000000000000000000000000600052602160045260246000fdfea164736f6c634300080f000a",
  "devdoc": {
    "version": 1,
    "kind": "dev",
    "methods": {
      "GUARDIAN()": {},
      "L2_ORACLE()": {},
      "SYSTEM_CONFIG()": {},
      "depositTransaction(address,uint256,uint64,bool,bytes)": {
        "params": {
          "_data": "Data to trigger the recipient with.",
          "_gasLimit": "Minimum L2 gas limit (can be greater than or equal to this value).",
          "_isCreation": "Whether or not the transaction is a contract creation.",
          "_to": "Target address on L2.",
          "_value": "ETH value to send to the recipient."
        }
      },
      "finalizeWithdrawalTransaction(uint256,(uint256,address,address,uint256,uint256,bytes))": {
        "params": {
          "_tx": "Withdrawal transaction to finalize.",
          "hintId": "Hint ID of the withdrawal transaction to finalize. The caller can find this value by calling ETHYieldManager.findCheckpointHint()."
        }
      },
      "initialize(address,address,address,bool,address,address)": {
        "params": {
          "_guardian": "Address that can pause withdrawals.",
          "_l2Oracle": "Address of the L2OutputOracle contract.",
          "_paused": "Sets the contract's pausability state.",
          "_systemConfig": "Address of the SystemConfig contract."
        }
      },
      "isOutputFinalized(uint256)": {
        "params": {
          "_l2OutputIndex": "Index of the L2 output to check."
        },
        "returns": {
          "_0": "Whether or not the output is finalized."
        }
      },
      "minimumGasLimit(uint64)": {
        "params": {
          "_byteCount": "Number of bytes in the calldata."
        },
        "returns": {
          "_0": "The minimum gas limit for a deposit."
        }
      },
      "proveWithdrawalTransaction((uint256,address,address,uint256,uint256,bytes),uint256,(bytes32,bytes32,bytes32,bytes32),bytes[])": {
        "params": {
          "_l2OutputIndex": "L2 output index to prove against.",
          "_outputRootProof": "Inclusion proof of the L2ToL1MessagePasser contract's storage root.",
          "_tx": "Withdrawal transaction to finalize.",
          "_withdrawalProof": "Inclusion proof of the withdrawal in L2ToL1MessagePasser contract."
        }
      }
    },
    "events": {
      "Paused(address)": {
        "params": {
          "account": "Address of the account triggering the pause."
        }
      },
      "TransactionDeposited(address,address,uint256,bytes)": {
        "params": {
          "from": "Address that triggered the deposit transaction.",
          "opaqueData": "ABI encoded deposit data to be parsed off-chain.",
          "to": "Address that the deposit transaction is directed to.",
          "version": "Version of this deposit transaction event."
        }
      },
      "Unpaused(address)": {
        "params": {
          "account": "Address of the account triggering the unpause."
        }
      },
      "WithdrawalFinalized(bytes32,uint256,bool)": {
        "params": {
          "hintId": "is the checkpoint ID produce by YieldManager",
          "success": "Whether the withdrawal transaction was successful.",
          "withdrawalHash": "Hash of the withdrawal transaction."
        }
      },
      "WithdrawalProven(bytes32,address,address,uint256)": {
        "params": {
          "requestId": "Id of the withdrawal request",
          "withdrawalHash": "Hash of the withdrawal transaction."
        }
      }
    }
  },
  "userdoc": {
    "version": 1,
    "kind": "user",
    "methods": {
      "GUARDIAN()": {
        "notice": "Getter for the Guardian"
      },
      "L2_ORACLE()": {
        "notice": "Getter for the L2OutputOracle"
      },
      "SYSTEM_CONFIG()": {
        "notice": "Getter for the SystemConfig"
      },
      "depositTransaction(address,uint256,uint64,bool,bytes)": {
        "notice": "Accepts deposits of ETH and data, and emits a TransactionDeposited event for use in         deriving deposit transactions. Note that if a deposit is made by a contract, its         address will be aliased when retrieved using `tx.origin` or `msg.sender`. Consider         using the CrossDomainMessenger contracts for a simpler developer experience."
      },
      "donateETH()": {
        "notice": "Accepts ETH value without triggering a deposit to L2. This function mainly exists         for the sake of the migration between the legacy Patex system and Bedrock."
      },
      "finalizeWithdrawalTransaction(uint256,(uint256,address,address,uint256,uint256,bytes))": {
        "notice": "Finalizes a withdrawal transaction."
      },
      "finalizedWithdrawals(bytes32)": {
        "notice": "A list of withdrawal hashes which have been successfully finalized."
      },
      "guardian()": {
        "notice": "Address that has the ability to pause and unpause withdrawals."
      },
      "initialize(address,address,address,bool,address,address)": {
        "notice": "Initializer."
      },
      "isOutputFinalized(uint256)": {
        "notice": "Determine if a given output is finalized. Reverts if the call to         L2_ORACLE.getL2Output reverts. Returns a boolean otherwise."
      },
      "l2Oracle()": {
        "notice": "Address of the L2OutputOracle contract."
      },
      "l2Sender()": {
        "notice": "Address of the L2 account which initiated a withdrawal in this transaction. If the         of this variable is the default L2 sender address, then we are NOT inside of a call         to finalizeWithdrawalTransaction."
      },
      "minimumGasLimit(uint64)": {
        "notice": "Computes the minimum gas limit for a deposit.         The minimum gas limit linearly increases based on the size of the calldata.         This is to prevent users from creating L2 resource usage without paying for it.         This function can be used when interacting with the portal to ensure forwards         compatibility."
      },
      "params()": {
        "notice": "EIP-1559 style gas parameters."
      },
      "pause()": {
        "notice": "Pause deposits and withdrawals."
      },
      "paused()": {
        "notice": "Determines if cross domain messaging is paused. When set to true,         withdrawals are paused. This may be removed in the future."
      },
      "proveWithdrawalTransaction((uint256,address,address,uint256,uint256,bytes),uint256,(bytes32,bytes32,bytes32,bytes32),bytes[])": {
        "notice": "Proves a withdrawal transaction."
      },
      "provenWithdrawals(bytes32)": {
        "notice": "A mapping of withdrawal hashes to `ProvenWithdrawal` data."
      },
      "systemConfig()": {
        "notice": "Address of the SystemConfig contract."
      },
      "unpause()": {
        "notice": "Unpause deposits and withdrawals."
      },
      "version()": {
        "notice": "Semantic version."
      },
      "yieldManager()": {
        "notice": "Address of the ETH yield manager."
      }
    },
    "events": {
      "Paused(address)": {
        "notice": "Emitted when the pause is triggered."
      },
      "TransactionDeposited(address,address,uint256,bytes)": {
        "notice": "Emitted when a transaction is deposited from L1 to L2. The parameters of this event         are read by the rollup node and used to derive deposit transactions on L2."
      },
      "Unpaused(address)": {
        "notice": "Emitted when the pause is lifted."
      },
      "WithdrawalFinalized(bytes32,uint256,bool)": {
        "notice": "Emitted when a withdrawal transaction is finalized."
      },
      "WithdrawalProven(bytes32,address,address,uint256)": {
        "notice": "Emitted when a withdrawal transaction is proven."
      }
    },
    "notice": "The PatexPortal is a low-level contract responsible for passing messages between L1         and L2. Messages sent directly to the PatexPortal have no form of replayability.         Users are encouraged to use the L1CrossDomainMessenger for a higher-level interface."
  },
  "storageLayout": {
    "storage": [
      {
        "astId": 28829,
        "contract": "contracts/L1/PatexPortal.sol:PatexPortal",
        "label": "_initialized",
        "offset": 0,
        "slot": "0",
        "type": "t_uint8"
      },
      {
        "astId": 28832,
        "contract": "contracts/L1/PatexPortal.sol:PatexPortal",
        "label": "_initializing",
        "offset": 1,
        "slot": "0",
        "type": "t_bool"
      },
      {
        "astId": 2535,
        "contract": "contracts/L1/PatexPortal.sol:PatexPortal",
        "label": "params",
        "offset": 0,
        "slot": "1",
        "type": "t_struct(ResourceParams)2518_storage"
      },
      {
        "astId": 2540,
        "contract": "contracts/L1/PatexPortal.sol:PatexPortal",
        "label": "__gap",
        "offset": 0,
        "slot": "2",
        "type": "t_array(t_uint256)48_storage"
      },
      {
        "astId": 1605,
        "contract": "contracts/L1/PatexPortal.sol:PatexPortal",
        "label": "l2Sender",
        "offset": 0,
        "slot": "50",
        "type": "t_address"
      },
      {
        "astId": 1610,
        "contract": "contracts/L1/PatexPortal.sol:PatexPortal",
        "label": "finalizedWithdrawals",
        "offset": 0,
        "slot": "51",
        "type": "t_mapping(t_bytes32,t_bool)"
      },
      {
        "astId": 1616,
        "contract": "contracts/L1/PatexPortal.sol:PatexPortal",
        "label": "provenWithdrawals",
        "offset": 0,
        "slot": "52",
        "type": "t_mapping(t_bytes32,t_struct(ProvenWithdrawal)1590_storage)"
      },
      {
        "astId": 1619,
        "contract": "contracts/L1/PatexPortal.sol:PatexPortal",
        "label": "paused",
        "offset": 0,
        "slot": "53",
        "type": "t_bool"
      },
      {
        "astId": 1623,
        "contract": "contracts/L1/PatexPortal.sol:PatexPortal",
        "label": "l2Oracle",
        "offset": 1,
        "slot": "53",
        "type": "t_contract(L2OutputOracle)1546"
      },
      {
        "astId": 1627,
        "contract": "contracts/L1/PatexPortal.sol:PatexPortal",
        "label": "systemConfig",
        "offset": 0,
        "slot": "54",
        "type": "t_contract(SystemConfig)3258"
      },
      {
        "astId": 1630,
        "contract": "contracts/L1/PatexPortal.sol:PatexPortal",
        "label": "guardian",
        "offset": 0,
        "slot": "55",
        "type": "t_address"
      },
      {
        "astId": 1634,
        "contract": "contracts/L1/PatexPortal.sol:PatexPortal",
        "label": "yieldManager",
        "offset": 0,
        "slot": "56",
        "type": "t_contract(ETHYieldManager)14857"
      },
      {
        "astId": 1637,
        "contract": "contracts/L1/PatexPortal.sol:PatexPortal",
        "label": "postdeploys",
        "offset": 0,
        "slot": "57",
        "type": "t_contract(Postdeploys)7912"
      }
    ],
    "types": {
      "t_address": {
        "encoding": "inplace",
        "label": "address",
        "numberOfBytes": "20"
      },
      "t_array(t_uint256)48_storage": {
        "encoding": "inplace",
        "label": "uint256[48]",
        "numberOfBytes": "1536",
        "base": "t_uint256"
      },
      "t_bool": {
        "encoding": "inplace",
        "label": "bool",
        "numberOfBytes": "1"
      },
      "t_bytes32": {
        "encoding": "inplace",
        "label": "bytes32",
        "numberOfBytes": "32"
      },
      "t_contract(ETHYieldManager)14857": {
        "encoding": "inplace",
        "label": "contract ETHYieldManager",
        "numberOfBytes": "20"
      },
      "t_contract(L2OutputOracle)1546": {
        "encoding": "inplace",
        "label": "contract L2OutputOracle",
        "numberOfBytes": "20"
      },
      "t_contract(Postdeploys)7912": {
        "encoding": "inplace",
        "label": "contract Postdeploys",
        "numberOfBytes": "20"
      },
      "t_contract(SystemConfig)3258": {
        "encoding": "inplace",
        "label": "contract SystemConfig",
        "numberOfBytes": "20"
      },
      "t_mapping(t_bytes32,t_bool)": {
        "encoding": "mapping",
        "key": "t_bytes32",
        "label": "mapping(bytes32 => bool)",
        "numberOfBytes": "32",
        "value": "t_bool"
      },
      "t_mapping(t_bytes32,t_struct(ProvenWithdrawal)1590_storage)": {
        "encoding": "mapping",
        "key": "t_bytes32",
        "label": "mapping(bytes32 => struct PatexPortal.ProvenWithdrawal)",
        "numberOfBytes": "32",
        "value": "t_struct(ProvenWithdrawal)1590_storage"
      },
      "t_struct(ProvenWithdrawal)1590_storage": {
        "encoding": "inplace",
        "label": "struct PatexPortal.ProvenWithdrawal",
        "numberOfBytes": "96",
        "members": [
          {
            "astId": 1583,
            "contract": "contracts/L1/PatexPortal.sol:PatexPortal",
            "label": "outputRoot",
            "offset": 0,
            "slot": "0",
            "type": "t_bytes32"
          },
          {
            "astId": 1585,
            "contract": "contracts/L1/PatexPortal.sol:PatexPortal",
            "label": "timestamp",
            "offset": 0,
            "slot": "1",
            "type": "t_uint128"
          },
          {
            "astId": 1587,
            "contract": "contracts/L1/PatexPortal.sol:PatexPortal",
            "label": "l2OutputIndex",
            "offset": 16,
            "slot": "1",
            "type": "t_uint128"
          },
          {
            "astId": 1589,
            "contract": "contracts/L1/PatexPortal.sol:PatexPortal",
            "label": "requestId",
            "offset": 0,
            "slot": "2",
            "type": "t_uint256"
          }
        ]
      },
      "t_struct(ResourceParams)2518_storage": {
        "encoding": "inplace",
        "label": "struct ResourceMetering.ResourceParams",
        "numberOfBytes": "32",
        "members": [
          {
            "astId": 2513,
            "contract": "contracts/L1/PatexPortal.sol:PatexPortal",
            "label": "prevBaseFee",
            "offset": 0,
            "slot": "0",
            "type": "t_uint128"
          },
          {
            "astId": 2515,
            "contract": "contracts/L1/PatexPortal.sol:PatexPortal",
            "label": "prevBoughtGas",
            "offset": 16,
            "slot": "0",
            "type": "t_uint64"
          },
          {
            "astId": 2517,
            "contract": "contracts/L1/PatexPortal.sol:PatexPortal",
            "label": "prevBlockNum",
            "offset": 24,
            "slot": "0",
            "type": "t_uint64"
          }
        ]
      },
      "t_uint128": {
        "encoding": "inplace",
        "label": "uint128",
        "numberOfBytes": "16"
      },
      "t_uint256": {
        "encoding": "inplace",
        "label": "uint256",
        "numberOfBytes": "32"
      },
      "t_uint64": {
        "encoding": "inplace",
        "label": "uint64",
        "numberOfBytes": "8"
      },
      "t_uint8": {
        "encoding": "inplace",
        "label": "uint8",
        "numberOfBytes": "1"
      }
    }
  }
}