{
  "address": "0xA6f27fA3C60eC70D5aC7Ea53cAd339498bc1580e",
  "abi": [
    {
      "inputs": [
        {
          "internalType": "contract L2OutputOracle",
          "name": "_l2Oracle",
          "type": "address"
        },
        {
          "internalType": "address",
          "name": "_guardian",
          "type": "address"
        },
        {
          "internalType": "bool",
          "name": "_paused",
          "type": "bool"
        },
        {
          "internalType": "contract SystemConfig",
          "name": "_config",
          "type": "address"
        }
      ],
      "stateMutability": "nonpayable",
      "type": "constructor"
    },
    {
      "anonymous": false,
      "inputs": [
        {
          "indexed": false,
          "internalType": "uint8",
          "name": "version",
          "type": "uint8"
        }
      ],
      "name": "Initialized",
      "type": "event"
    },
    {
      "anonymous": false,
      "inputs": [
        {
          "indexed": false,
          "internalType": "address",
          "name": "account",
          "type": "address"
        }
      ],
      "name": "Paused",
      "type": "event"
    },
    {
      "anonymous": false,
      "inputs": [
        {
          "indexed": true,
          "internalType": "address",
          "name": "from",
          "type": "address"
        },
        {
          "indexed": true,
          "internalType": "address",
          "name": "to",
          "type": "address"
        },
        {
          "indexed": true,
          "internalType": "uint256",
          "name": "version",
          "type": "uint256"
        },
        {
          "indexed": false,
          "internalType": "bytes",
          "name": "opaqueData",
          "type": "bytes"
        }
      ],
      "name": "TransactionDeposited",
      "type": "event"
    },
    {
      "anonymous": false,
      "inputs": [
        {
          "indexed": false,
          "internalType": "address",
          "name": "account",
          "type": "address"
        }
      ],
      "name": "Unpaused",
      "type": "event"
    },
    {
      "anonymous": false,
      "inputs": [
        {
          "indexed": true,
          "internalType": "bytes32",
          "name": "withdrawalHash",
          "type": "bytes32"
        },
        {
          "indexed": false,
          "internalType": "bool",
          "name": "success",
          "type": "bool"
        }
      ],
      "name": "WithdrawalFinalized",
      "type": "event"
    },
    {
      "anonymous": false,
      "inputs": [
        {
          "indexed": true,
          "internalType": "bytes32",
          "name": "withdrawalHash",
          "type": "bytes32"
        },
        {
          "indexed": true,
          "internalType": "address",
          "name": "from",
          "type": "address"
        },
        {
          "indexed": true,
          "internalType": "address",
          "name": "to",
          "type": "address"
        }
      ],
      "name": "WithdrawalProven",
      "type": "event"
    },
    {
      "inputs": [],
      "name": "GUARDIAN",
      "outputs": [
        {
          "internalType": "address",
          "name": "",
          "type": "address"
        }
      ],
      "stateMutability": "view",
      "type": "function"
    },
    {
      "inputs": [],
      "name": "L2_ORACLE",
      "outputs": [
        {
          "internalType": "contract L2OutputOracle",
          "name": "",
          "type": "address"
        }
      ],
      "stateMutability": "view",
      "type": "function"
    },
    {
      "inputs": [],
      "name": "SYSTEM_CONFIG",
      "outputs": [
        {
          "internalType": "contract SystemConfig",
          "name": "",
          "type": "address"
        }
      ],
      "stateMutability": "view",
      "type": "function"
    },
    {
      "inputs": [
        {
          "internalType": "address",
          "name": "_to",
          "type": "address"
        },
        {
          "internalType": "uint256",
          "name": "_value",
          "type": "uint256"
        },
        {
          "internalType": "uint64",
          "name": "_gasLimit",
          "type": "uint64"
        },
        {
          "internalType": "bool",
          "name": "_isCreation",
          "type": "bool"
        },
        {
          "internalType": "bytes",
          "name": "_data",
          "type": "bytes"
        }
      ],
      "name": "depositTransaction",
      "outputs": [],
      "stateMutability": "payable",
      "type": "function"
    },
    {
      "inputs": [],
      "name": "donateETH",
      "outputs": [],
      "stateMutability": "payable",
      "type": "function"
    },
    {
      "inputs": [
        {
          "components": [
            {
              "internalType": "uint256",
              "name": "nonce",
              "type": "uint256"
            },
            {
              "internalType": "address",
              "name": "sender",
              "type": "address"
            },
            {
              "internalType": "address",
              "name": "target",
              "type": "address"
            },
            {
              "internalType": "uint256",
              "name": "value",
              "type": "uint256"
            },
            {
              "internalType": "uint256",
              "name": "gasLimit",
              "type": "uint256"
            },
            {
              "internalType": "bytes",
              "name": "data",
              "type": "bytes"
            }
          ],
          "internalType": "struct Types.WithdrawalTransaction",
          "name": "_tx",
          "type": "tuple"
        }
      ],
      "name": "finalizeWithdrawalTransaction",
      "outputs": [],
      "stateMutability": "nonpayable",
      "type": "function"
    },
    {
      "inputs": [
        {
          "internalType": "bytes32",
          "name": "",
          "type": "bytes32"
        }
      ],
      "name": "finalizedWithdrawals",
      "outputs": [
        {
          "internalType": "bool",
          "name": "",
          "type": "bool"
        }
      ],
      "stateMutability": "view",
      "type": "function"
    },
    {
      "inputs": [
        {
          "internalType": "bool",
          "name": "_paused",
          "type": "bool"
        }
      ],
      "name": "initialize",
      "outputs": [],
      "stateMutability": "nonpayable",
      "type": "function"
    },
    {
      "inputs": [
        {
          "internalType": "uint256",
          "name": "_l2OutputIndex",
          "type": "uint256"
        }
      ],
      "name": "isOutputFinalized",
      "outputs": [
        {
          "internalType": "bool",
          "name": "",
          "type": "bool"
        }
      ],
      "stateMutability": "view",
      "type": "function"
    },
    {
      "inputs": [],
      "name": "l2Sender",
      "outputs": [
        {
          "internalType": "address",
          "name": "",
          "type": "address"
        }
      ],
      "stateMutability": "view",
      "type": "function"
    },
    {
      "inputs": [],
      "name": "params",
      "outputs": [
        {
          "internalType": "uint128",
          "name": "prevBaseFee",
          "type": "uint128"
        },
        {
          "internalType": "uint64",
          "name": "prevBoughtGas",
          "type": "uint64"
        },
        {
          "internalType": "uint64",
          "name": "prevBlockNum",
          "type": "uint64"
        }
      ],
      "stateMutability": "view",
      "type": "function"
    },
    {
      "inputs": [],
      "name": "pause",
      "outputs": [],
      "stateMutability": "nonpayable",
      "type": "function"
    },
    {
      "inputs": [],
      "name": "paused",
      "outputs": [
        {
          "internalType": "bool",
          "name": "",
          "type": "bool"
        }
      ],
      "stateMutability": "view",
      "type": "function"
    },
    {
      "inputs": [
        {
          "components": [
            {
              "internalType": "uint256",
              "name": "nonce",
              "type": "uint256"
            },
            {
              "internalType": "address",
              "name": "sender",
              "type": "address"
            },
            {
              "internalType": "address",
              "name": "target",
              "type": "address"
            },
            {
              "internalType": "uint256",
              "name": "value",
              "type": "uint256"
            },
            {
              "internalType": "uint256",
              "name": "gasLimit",
              "type": "uint256"
            },
            {
              "internalType": "bytes",
              "name": "data",
              "type": "bytes"
            }
          ],
          "internalType": "struct Types.WithdrawalTransaction",
          "name": "_tx",
          "type": "tuple"
        },
        {
          "internalType": "uint256",
          "name": "_l2OutputIndex",
          "type": "uint256"
        },
        {
          "components": [
            {
              "internalType": "bytes32",
              "name": "version",
              "type": "bytes32"
            },
            {
              "internalType": "bytes32",
              "name": "stateRoot",
              "type": "bytes32"
            },
            {
              "internalType": "bytes32",
              "name": "messagePasserStorageRoot",
              "type": "bytes32"
            },
            {
              "internalType": "bytes32",
              "name": "latestBlockhash",
              "type": "bytes32"
            }
          ],
          "internalType": "struct Types.OutputRootProof",
          "name": "_outputRootProof",
          "type": "tuple"
        },
        {
          "internalType": "bytes[]",
          "name": "_withdrawalProof",
          "type": "bytes[]"
        }
      ],
      "name": "proveWithdrawalTransaction",
      "outputs": [],
      "stateMutability": "nonpayable",
      "type": "function"
    },
    {
      "inputs": [
        {
          "internalType": "bytes32",
          "name": "",
          "type": "bytes32"
        }
      ],
      "name": "provenWithdrawals",
      "outputs": [
        {
          "internalType": "bytes32",
          "name": "outputRoot",
          "type": "bytes32"
        },
        {
          "internalType": "uint128",
          "name": "timestamp",
          "type": "uint128"
        },
        {
          "internalType": "uint128",
          "name": "l2OutputIndex",
          "type": "uint128"
        }
      ],
      "stateMutability": "view",
      "type": "function"
    },
    {
      "inputs": [],
      "name": "unpause",
      "outputs": [],
      "stateMutability": "nonpayable",
      "type": "function"
    },
    {
      "inputs": [],
      "name": "version",
      "outputs": [
        {
          "internalType": "string",
          "name": "",
          "type": "string"
        }
      ],
      "stateMutability": "view",
      "type": "function"
    },
    {
      "stateMutability": "payable",
      "type": "receive"
    }
  ],
  "transactionHash": "0xd2931c430b116db279b87ba0c103a60fd973079e730df6f7cd440def973b10cf",
  "args": [
    "0x89704C05fd168a551a9C40952430f3f4788b7abd",
    "0x89a2cde14eca522d5477c1aee617039e4d0eeb60",
    true,
    "0x04c9303d5727335d067e5085704976110F9F088e"
  ],
  "numDeployments": 1,
  "solcInputHash": "7405211d9f0f35afd9a76eef47fecf72",
  "bytecode": "0x6101406040523480156200001257600080fd5b506040516200594e3803806200594e833981016040819052620000359162000296565b60016080819052600360a05260c0526001600160a01b0380851660e052838116610120528116610100526200006a8262000074565b5050505062000302565b600054610100900460ff1615808015620000955750600054600160ff909116105b80620000c55750620000b230620001cb60201b62001b501760201c565b158015620000c5575060005460ff166001145b6200012e5760405162461bcd60e51b815260206004820152602e60248201527f496e697469616c697a61626c653a20636f6e747261637420697320616c72656160448201526d191e481a5b9a5d1a585b1a5e995960921b60648201526084015b60405180910390fd5b6000805460ff19166001179055801562000152576000805461ff0019166101001790555b603280546001600160a01b03191661dead1790556035805483151560ff1990911617905562000180620001da565b8015620001c7576000805461ff0019169055604051600181527f7f26b83ff96e1f2b6a682f133852f6798a09c465da95921460cefb38474024989060200160405180910390a15b5050565b6001600160a01b03163b151590565b600054610100900460ff16620002475760405162461bcd60e51b815260206004820152602b60248201527f496e697469616c697a61626c653a20636f6e7472616374206973206e6f74206960448201526a6e697469616c697a696e6760a81b606482015260840162000125565b60408051606081018252633b9aca0080825260006020830152436001600160401b031691909201819052600160c01b0217600155565b6001600160a01b03811681146200029357600080fd5b50565b60008060008060808587031215620002ad57600080fd5b8451620002ba816200027d565b6020860151909450620002cd816200027d565b60408601519093508015158114620002e457600080fd5b6060860151909250620002f7816200027d565b939692955090935050565b60805160a05160c05160e05161010051610120516155bd620003916000396000818161024e015281816106c80152610fcb015260008181610474015261229a01526000818161014f0152818161093101528181610b1201528181610f27015281816112e001528181611552015261208a01526000610e9201526000610e6901526000610e4001526155bd6000f3fe6080604052600436106101115760003560e01c80638b4c40b0116100a5578063cff0ab9611610074578063e965084c11610059578063e965084c146103c3578063e9e05c421461044f578063f04987501461046257600080fd5b8063cff0ab9614610302578063d53a822f146103a357600080fd5b80638b4c40b0146101365780638c3152e9146102855780639bf62d82146102a5578063a14238e7146102d257600080fd5b80635c975abb116100e15780635c975abb146101f25780636dbffb781461021c578063724c184c1461023c5780638456cb591461027057600080fd5b80621c2ff61461013d5780633f4ba83a1461019b5780634870496f146101b057806354fd4d50146101d057600080fd5b36610138576101363334620186a0600060405180602001604052806000815250610496565b005b600080fd5b34801561014957600080fd5b506101717f000000000000000000000000000000000000000000000000000000000000000081565b60405173ffffffffffffffffffffffffffffffffffffffff90911681526020015b60405180910390f35b3480156101a757600080fd5b506101366106b0565b3480156101bc57600080fd5b506101366101cb366004614bc6565b6107d3565b3480156101dc57600080fd5b506101e5610e39565b6040516101929190614d1c565b3480156101fe57600080fd5b5060355461020c9060ff1681565b6040519015158152602001610192565b34801561022857600080fd5b5061020c610237366004614d2f565b610edc565b34801561024857600080fd5b506101717f000000000000000000000000000000000000000000000000000000000000000081565b34801561027c57600080fd5b50610136610fb3565b34801561029157600080fd5b506101366102a0366004614d48565b6110d2565b3480156102b157600080fd5b506032546101719073ffffffffffffffffffffffffffffffffffffffff1681565b3480156102de57600080fd5b5061020c6102ed366004614d2f565b60336020526000908152604090205460ff1681565b34801561030e57600080fd5b5060015461036a906fffffffffffffffffffffffffffffffff81169067ffffffffffffffff7001000000000000000000000000000000008204811691780100000000000000000000000000000000000000000000000090041683565b604080516fffffffffffffffffffffffffffffffff909416845267ffffffffffffffff9283166020850152911690820152606001610192565b3480156103af57600080fd5b506101366103be366004614d8d565b611963565b3480156103cf57600080fd5b506104216103de366004614d2f565b603460205260009081526040902080546001909101546fffffffffffffffffffffffffffffffff8082169170010000000000000000000000000000000090041683565b604080519384526fffffffffffffffffffffffffffffffff9283166020850152911690820152606001610192565b61013661045d366004614da8565b610496565b34801561046e57600080fd5b506101717f000000000000000000000000000000000000000000000000000000000000000081565b8260005a9050831561054b5773ffffffffffffffffffffffffffffffffffffffff87161561054b576040517f08c379a000000000000000000000000000000000000000000000000000000000815260206004820152603d60248201527f5061746578506f7274616c3a206d7573742073656e6420746f2061646472657360448201527f73283029207768656e206372656174696e67206120636f6e747261637400000060648201526084015b60405180910390fd5b6152088567ffffffffffffffff1610156105e7576040517f08c379a000000000000000000000000000000000000000000000000000000000815260206004820152603560248201527f5061746578506f7274616c3a20676173206c696d6974206d75737420636f766560448201527f7220696e737472696e7369632067617320636f737400000000000000000000006064820152608401610542565b33328114610608575033731111000000000000000000000000000000001111015b60003488888888604051602001610623959493929190614e2d565b604051602081830303815290604052905060008973ffffffffffffffffffffffffffffffffffffffff168373ffffffffffffffffffffffffffffffffffffffff167fb3813568d9991fc951961fcb4c784893574240a28925604d09fc577c55bb7c32846040516106939190614d1c565b60405180910390a450506106a78282611b6c565b50505050505050565b3373ffffffffffffffffffffffffffffffffffffffff7f00000000000000000000000000000000000000000000000000000000000000001614610775576040517f08c379a000000000000000000000000000000000000000000000000000000000815260206004820152602660248201527f5061746578506f7274616c3a206f6e6c7920677561726469616e2063616e207560448201527f6e706175736500000000000000000000000000000000000000000000000000006064820152608401610542565b603580547fffffffffffffffffffffffffffffffffffffffffffffffffffffffffffffff001690556040513381527f5db9ee0a495bf2e6ff9c91a7834c1ba4fdd244a5e8aa4e537bd38aeae4b073aa906020015b60405180910390a1565b60355460ff1615610840576040517f08c379a000000000000000000000000000000000000000000000000000000000815260206004820152601360248201527f5061746578506f7274616c3a20706175736564000000000000000000000000006044820152606401610542565b3073ffffffffffffffffffffffffffffffffffffffff16856040015173ffffffffffffffffffffffffffffffffffffffff16036108ff576040517f08c379a000000000000000000000000000000000000000000000000000000000815260206004820152603c60248201527f5061746578506f7274616c3a20796f752063616e6e6f742073656e64206d657360448201527f736167657320746f2074686520706f7274616c20636f6e7472616374000000006064820152608401610542565b6040517fa25ae557000000000000000000000000000000000000000000000000000000008152600481018590526000907f000000000000000000000000000000000000000000000000000000000000000073ffffffffffffffffffffffffffffffffffffffff169063a25ae55790602401606060405180830381865afa15801561098d573d6000803e3d6000fd5b505050506040513d601f19601f820116820180604052508101906109b19190614eb2565b5190506109cb6109c636869003860186614f17565b611e99565b8114610a59576040517f08c379a000000000000000000000000000000000000000000000000000000000815260206004820152602660248201527f5061746578506f7274616c3a20696e76616c6964206f757470757420726f6f7460448201527f2070726f6f6600000000000000000000000000000000000000000000000000006064820152608401610542565b6000610a6487611ef5565b6000818152603460209081526040918290208251606081018452815481526001909101546fffffffffffffffffffffffffffffffff8082169383018490527001000000000000000000000000000000009091041692810192909252919250901580610b965750805160408083015190517fa25ae5570000000000000000000000000000000000000000000000000000000081526fffffffffffffffffffffffffffffffff90911660048201527f000000000000000000000000000000000000000000000000000000000000000073ffffffffffffffffffffffffffffffffffffffff169063a25ae55790602401606060405180830381865afa158015610b6e573d6000803e3d6000fd5b505050506040513d601f19601f82011682018060405250810190610b929190614eb2565b5114155b610c22576040517f08c379a000000000000000000000000000000000000000000000000000000000815260206004820152603460248201527f5061746578506f7274616c3a207769746864726177616c20686173682068617360448201527f20616c7265616479206265656e2070726f76656e0000000000000000000000006064820152608401610542565b60408051602081018490526000918101829052606001604080517fffffffffffffffffffffffffffffffffffffffffffffffffffffffffffffffe081840301815282825280516020918201209083018190529250610ceb9101604080517fffffffffffffffffffffffffffffffffffffffffffffffffffffffffffffffe0818403018152828201909152600182527f0100000000000000000000000000000000000000000000000000000000000000602083015290610ce1888a614f7d565b8a60400135611f25565b610d77576040517f08c379a000000000000000000000000000000000000000000000000000000000815260206004820152602f60248201527f5061746578506f7274616c3a20696e76616c6964207769746864726177616c2060448201527f696e636c7573696f6e2070726f6f6600000000000000000000000000000000006064820152608401610542565b604080516060810182528581526fffffffffffffffffffffffffffffffff42811660208084019182528c831684860190815260008981526034835286812095518655925190518416700100000000000000000000000000000000029316929092176001909301929092558b830151908c0151925173ffffffffffffffffffffffffffffffffffffffff918216939091169186917f67a6208cfcc0801d50f6cbe764733f4fddf66ac0b04442061a8a8c0cb6b63f629190a4505050505050505050565b6060610e647f0000000000000000000000000000000000000000000000000000000000000000611f49565b610e8d7f0000000000000000000000000000000000000000000000000000000000000000611f49565b610eb67f0000000000000000000000000000000000000000000000000000000000000000611f49565b604051602001610ec893929190615001565b604051602081830303815290604052905090565b6040517fa25ae55700000000000000000000000000000000000000000000000000000000815260048101829052600090610fad9073ffffffffffffffffffffffffffffffffffffffff7f0000000000000000000000000000000000000000000000000000000000000000169063a25ae55790602401606060405180830381865afa158015610f6e573d6000803e3d6000fd5b505050506040513d601f19601f82011682018060405250810190610f929190614eb2565b602001516fffffffffffffffffffffffffffffffff16612086565b92915050565b3373ffffffffffffffffffffffffffffffffffffffff7f00000000000000000000000000000000000000000000000000000000000000001614611077576040517f08c379a0000000000000000000000000000000000000000000000000000000008152602060048201526024808201527f5061746578506f7274616c3a206f6e6c7920677561726469616e2063616e207060448201527f61757365000000000000000000000000000000000000000000000000000000006064820152608401610542565b603580547fffffffffffffffffffffffffffffffffffffffffffffffffffffffffffffff001660011790556040513381527f62e78cea01bee320cd4e420270b5ea74000d11b0c9f74754ebdbfc544b05a258906020016107c9565b60355460ff161561113f576040517f08c379a000000000000000000000000000000000000000000000000000000000815260206004820152601360248201527f5061746578506f7274616c3a20706175736564000000000000000000000000006044820152606401610542565b60325473ffffffffffffffffffffffffffffffffffffffff1661dead146111e8576040517f08c379a000000000000000000000000000000000000000000000000000000000815260206004820152603c60248201527f5061746578506f7274616c3a2063616e206f6e6c792074726967676572206f6e60448201527f65207769746864726177616c20706572207472616e73616374696f6e000000006064820152608401610542565b60006111f382611ef5565b60008181526034602090815260408083208151606081018352815481526001909101546fffffffffffffffffffffffffffffffff808216948301859052700100000000000000000000000000000000909104169181019190915292935090036112de576040517f08c379a000000000000000000000000000000000000000000000000000000000815260206004820152602f60248201527f5061746578506f7274616c3a207769746864726177616c20686173206e6f742060448201527f6265656e2070726f76656e2079657400000000000000000000000000000000006064820152608401610542565b7f000000000000000000000000000000000000000000000000000000000000000073ffffffffffffffffffffffffffffffffffffffff1663887862726040518163ffffffff1660e01b8152600401602060405180830381865afa158015611349573d6000803e3d6000fd5b505050506040513d601f19601f8201168201806040525081019061136d9190615077565b81602001516fffffffffffffffffffffffffffffffff161015611438576040517f08c379a000000000000000000000000000000000000000000000000000000000815260206004820152604860248201527f5061746578506f7274616c3a207769746864726177616c2074696d657374616d60448201527f70206c657373207468616e204c32204f7261636c65207374617274696e67207460648201527f696d657374616d70000000000000000000000000000000000000000000000000608482015260a401610542565b61145781602001516fffffffffffffffffffffffffffffffff16612086565b611509576040517f08c379a000000000000000000000000000000000000000000000000000000000815260206004820152604260248201527f5061746578506f7274616c3a2070726f76656e207769746864726177616c206660448201527f696e616c697a6174696f6e20706572696f6420686173206e6f7420656c61707360648201527f6564000000000000000000000000000000000000000000000000000000000000608482015260a401610542565b60408181015190517fa25ae5570000000000000000000000000000000000000000000000000000000081526fffffffffffffffffffffffffffffffff90911660048201526000907f000000000000000000000000000000000000000000000000000000000000000073ffffffffffffffffffffffffffffffffffffffff169063a25ae55790602401606060405180830381865afa1580156115ae573d6000803e3d6000fd5b505050506040513d601f19601f820116820180604052508101906115d29190614eb2565b825181519192501461168c576040517f08c379a000000000000000000000000000000000000000000000000000000000815260206004820152604660248201527f5061746578506f7274616c3a206f757470757420726f6f742070726f76656e2060448201527f6973206e6f74207468652073616d652061732063757272656e74206f7574707560648201527f7420726f6f740000000000000000000000000000000000000000000000000000608482015260a401610542565b6116ab81602001516fffffffffffffffffffffffffffffffff16612086565b61173957604080517f08c379a00000000000000000000000000000000000000000000000000000000081526020600482015260248101919091527f5061746578506f7274616c3a206f75747075742070726f706f73616c2066696e60448201527f616c697a6174696f6e20706572696f6420686173206e6f7420656c61707365646064820152608401610542565b60008381526033602052604090205460ff16156117d8576040517f08c379a000000000000000000000000000000000000000000000000000000000815260206004820152603260248201527f5061746578506f7274616c3a207769746864726177616c2068617320616c726560448201527f616479206265656e2066696e616c697a656400000000000000000000000000006064820152608401610542565b600083815260336020908152604080832080547fffffffffffffffffffffffffffffffffffffffffffffffffffffffffffffff00166001179055908601516032805473ffffffffffffffffffffffffffffffffffffffff9092167fffffffffffffffffffffffff00000000000000000000000000000000000000009092169190911790558501516080860151606087015160a088015161187a93929190612129565b603280547fffffffffffffffffffffffff00000000000000000000000000000000000000001661dead17905560405190915084907fdb5c7652857aa163daadd670e116628fb42e869d8ac4251ef8971d9e5727df1b906118df90841515815260200190565b60405180910390a2801580156118f55750326001145b1561195c576040517f08c379a000000000000000000000000000000000000000000000000000000000815260206004820152601e60248201527f5061746578506f7274616c3a207769746864726177616c206661696c656400006044820152606401610542565b5050505050565b600054610100900460ff16158080156119835750600054600160ff909116105b8061199d5750303b15801561199d575060005460ff166001145b611a29576040517f08c379a000000000000000000000000000000000000000000000000000000000815260206004820152602e60248201527f496e697469616c697a61626c653a20636f6e747261637420697320616c72656160448201527f647920696e697469616c697a65640000000000000000000000000000000000006064820152608401610542565b600080547fffffffffffffffffffffffffffffffffffffffffffffffffffffffffffffff001660011790558015611a8757600080547fffffffffffffffffffffffffffffffffffffffffffffffffffffffffffff00ff166101001790555b603280547fffffffffffffffffffffffff00000000000000000000000000000000000000001661dead179055603580548315157fffffffffffffffffffffffffffffffffffffffffffffffffffffffffffffff00909116179055611ae9612183565b8015611b4c57600080547fffffffffffffffffffffffffffffffffffffffffffffffffffffffffffff00ff169055604051600181527f7f26b83ff96e1f2b6a682f133852f6798a09c465da95921460cefb38474024989060200160405180910390a15b5050565b73ffffffffffffffffffffffffffffffffffffffff163b151590565b600154600090611ba2907801000000000000000000000000000000000000000000000000900467ffffffffffffffff16436150bf565b90506000611bae612266565b90506000816020015160ff16826000015163ffffffff16611bcf9190615105565b90508215611d0657600154600090611c06908390700100000000000000000000000000000000900467ffffffffffffffff1661516d565b90506000836040015160ff1683611c1d91906151e1565b600154611c3d9084906fffffffffffffffffffffffffffffffff166151e1565b611c479190615105565b600154909150600090611c9890611c719084906fffffffffffffffffffffffffffffffff1661529d565b866060015163ffffffff168760a001516fffffffffffffffffffffffffffffffff1661232c565b90506001861115611cc757611cc4611c7182876040015160ff1660018a611cbf91906150bf565b61234b565b90505b6fffffffffffffffffffffffffffffffff16780100000000000000000000000000000000000000000000000067ffffffffffffffff4316021760015550505b60018054869190601090611d39908490700100000000000000000000000000000000900467ffffffffffffffff16615311565b92506101000a81548167ffffffffffffffff021916908367ffffffffffffffff160217905550816000015163ffffffff16600160000160109054906101000a900467ffffffffffffffff1667ffffffffffffffff161315611e1c576040517f08c379a000000000000000000000000000000000000000000000000000000000815260206004820152603e60248201527f5265736f757263654d65746572696e673a2063616e6e6f7420627579206d6f7260448201527f6520676173207468616e20617661696c61626c6520676173206c696d697400006064820152608401610542565b600154600090611e48906fffffffffffffffffffffffffffffffff1667ffffffffffffffff881661533d565b90506000611e5a48633b9aca006123a0565b611e64908361537a565b905060005a611e7390886150bf565b905080821115611e8f57611e8f611e8a82846150bf565b6123b7565b5050505050505050565b60008160000151826020015183604001518460600151604051602001611ed8949392919093845260208401929092526040830152606082015260800190565b604051602081830303815290604052805190602001209050919050565b80516020808301516040808501516060860151608087015160a08801519351600097611ed897909695910161538e565b600080611f31866123e5565b9050611f3f81868686612417565b9695505050505050565b606081600003611f8c57505060408051808201909152600181527f3000000000000000000000000000000000000000000000000000000000000000602082015290565b8160005b8115611fb65780611fa0816153e5565b9150611faf9050600a8361537a565b9150611f90565b60008167ffffffffffffffff811115611fd157611fd16149ec565b6040519080825280601f01601f191660200182016040528015611ffb576020820181803683370190505b5090505b841561207e576120106001836150bf565b915061201d600a8661541d565b612028906030615431565b60f81b81838151811061203d5761203d615449565b60200101907effffffffffffffffffffffffffffffffffffffffffffffffffffffffffffff1916908160001a905350612077600a8661537a565b9450611fff565b949350505050565b60007f000000000000000000000000000000000000000000000000000000000000000073ffffffffffffffffffffffffffffffffffffffff1663f4daa2916040518163ffffffff1660e01b8152600401602060405180830381865afa1580156120f3573d6000803e3d6000fd5b505050506040513d601f19601f820116820180604052508101906121179190615077565b6121219083615431565b421192915050565b600080603f60c88601604002045a101561216c576308c379a06000526020805278185361666543616c6c3a204e6f7420656e6f756768206761736058526064601cfd5b600080845160208601878a5af19695505050505050565b600054610100900460ff1661221a576040517f08c379a000000000000000000000000000000000000000000000000000000000815260206004820152602b60248201527f496e697469616c697a61626c653a20636f6e7472616374206973206e6f74206960448201527f6e697469616c697a696e670000000000000000000000000000000000000000006064820152608401610542565b60408051606081018252633b9aca00808252600060208301524367ffffffffffffffff169190920181905278010000000000000000000000000000000000000000000000000217600155565b6040805160c081018252600080825260208201819052918101829052606081018290526080810182905260a08101919091527f000000000000000000000000000000000000000000000000000000000000000073ffffffffffffffffffffffffffffffffffffffff1663cc731b026040518163ffffffff1660e01b815260040160c060405180830381865afa158015612303573d6000803e3d6000fd5b505050506040513d601f19601f82011682018060405250810190612327919061549d565b905090565b600061234161233b8585612447565b83612457565b90505b9392505050565b6000670de0b6b3a764000061238c6123638583615105565b61237590670de0b6b3a764000061516d565b61238785670de0b6b3a76400006151e1565b612466565b61239690866151e1565b6123419190615105565b6000818310156123b05781612344565b5090919050565b6000805a90505b825a6123ca90836150bf565b10156123e0576123d9826153e5565b91506123be565b505050565b6060818051906020012060405160200161240191815260200190565b6040516020818303038152906040529050919050565b600061243e84612428878686612497565b8051602091820120825192909101919091201490565b95945050505050565b6000818312156123b05781612344565b60008183126123b05781612344565b6000612344670de0b6b3a76400008361247e86612f1f565b61248891906151e1565b6124929190615105565b613163565b60606000845111612504576040517f08c379a000000000000000000000000000000000000000000000000000000000815260206004820152601560248201527f4d65726b6c65547269653a20656d707479206b657900000000000000000000006044820152606401610542565b600061250f846133a2565b9050600061251c86613491565b905060008460405160200161253391815260200190565b60405160208183030381529060405290506000805b8451811015612e9657600085828151811061256557612565615449565b602002602001015190508451831115612600576040517f08c379a000000000000000000000000000000000000000000000000000000000815260206004820152602e60248201527f4d65726b6c65547269653a206b657920696e646578206578636565647320746f60448201527f74616c206b6579206c656e6774680000000000000000000000000000000000006064820152608401610542565b826000036126b9578051805160209182012060405161264e9261262892910190815260200190565b604051602081830303815290604052858051602091820120825192909101919091201490565b6126b4576040517f08c379a000000000000000000000000000000000000000000000000000000000815260206004820152601d60248201527f4d65726b6c65547269653a20696e76616c696420726f6f7420686173680000006044820152606401610542565b612810565b80515160201161276f57805180516020918201206040516126e39261262892910190815260200190565b6126b4576040517f08c379a000000000000000000000000000000000000000000000000000000000815260206004820152602760248201527f4d65726b6c65547269653a20696e76616c6964206c6172676520696e7465726e60448201527f616c2068617368000000000000000000000000000000000000000000000000006064820152608401610542565b805184516020808701919091208251919092012014612810576040517f08c379a000000000000000000000000000000000000000000000000000000000815260206004820152602660248201527f4d65726b6c65547269653a20696e76616c696420696e7465726e616c206e6f6460448201527f65206861736800000000000000000000000000000000000000000000000000006064820152608401610542565b61281c60106001615431565b816020015151036129fd5784518303612995576000612858826020015160108151811061284b5761284b615449565b602002602001015161362c565b905060008151116128eb576040517f08c379a000000000000000000000000000000000000000000000000000000000815260206004820152603b60248201527f4d65726b6c65547269653a2076616c7565206c656e677468206d75737420626560448201527f2067726561746572207468616e207a65726f20286272616e63682900000000006064820152608401610542565b600187516128f991906150bf565b8314612987576040517f08c379a000000000000000000000000000000000000000000000000000000000815260206004820152603a60248201527f4d65726b6c65547269653a2076616c7565206e6f6465206d757374206265206c60448201527f617374206e6f646520696e2070726f6f6620286272616e6368290000000000006064820152608401610542565b965061234495505050505050565b60008584815181106129a9576129a9615449565b602001015160f81c60f81b60f81c9050600082602001518260ff16815181106129d4576129d4615449565b602002602001015190506129e78161378c565b95506129f4600186615431565b94505050612e83565b600281602001515103612dfb576000612a15826137b1565b9050600081600081518110612a2c57612a2c615449565b016020015160f81c90506000612a4360028361553c565b612a4e90600261555e565b90506000612a5f848360ff166137d5565b90506000612a6d8a896137d5565b90506000612a7b838361380b565b905080835114612b0d576040517f08c379a000000000000000000000000000000000000000000000000000000000815260206004820152603a60248201527f4d65726b6c65547269653a20706174682072656d61696e646572206d7573742060448201527f736861726520616c6c206e6962626c65732077697468206b65790000000000006064820152608401610542565b60ff851660021480612b22575060ff85166003145b15612d165780825114612bb7576040517f08c379a000000000000000000000000000000000000000000000000000000000815260206004820152603d60248201527f4d65726b6c65547269653a206b65792072656d61696e646572206d757374206260448201527f65206964656e746963616c20746f20706174682072656d61696e6465720000006064820152608401610542565b6000612bd3886020015160018151811061284b5761284b615449565b90506000815111612c66576040517f08c379a000000000000000000000000000000000000000000000000000000000815260206004820152603960248201527f4d65726b6c65547269653a2076616c7565206c656e677468206d75737420626560448201527f2067726561746572207468616e207a65726f20286c65616629000000000000006064820152608401610542565b60018d51612c7491906150bf565b8914612d02576040517f08c379a000000000000000000000000000000000000000000000000000000000815260206004820152603860248201527f4d65726b6c65547269653a2076616c7565206e6f6465206d757374206265206c60448201527f617374206e6f646520696e2070726f6f6620286c6561662900000000000000006064820152608401610542565b9c506123449b505050505050505050505050565b60ff85161580612d29575060ff85166001145b15612d6857612d558760200151600181518110612d4857612d48615449565b602002602001015161378c565b9950612d61818a615431565b9850612df0565b6040517f08c379a000000000000000000000000000000000000000000000000000000000815260206004820152603260248201527f4d65726b6c65547269653a2072656365697665642061206e6f6465207769746860448201527f20616e20756e6b6e6f776e2070726566697800000000000000000000000000006064820152608401610542565b505050505050612e83565b6040517f08c379a000000000000000000000000000000000000000000000000000000000815260206004820152602860248201527f4d65726b6c65547269653a20726563656976656420616e20756e70617273656160448201527f626c65206e6f64650000000000000000000000000000000000000000000000006064820152608401610542565b5080612e8e816153e5565b915050612548565b506040517f08c379a000000000000000000000000000000000000000000000000000000000815260206004820152602560248201527f4d65726b6c65547269653a2072616e206f7574206f662070726f6f6620656c6560448201527f6d656e74730000000000000000000000000000000000000000000000000000006064820152608401610542565b6000808213612f8a576040517f08c379a000000000000000000000000000000000000000000000000000000000815260206004820152600960248201527f554e444546494e454400000000000000000000000000000000000000000000006044820152606401610542565b60006060612f97846138ba565b03609f8181039490941b90931c6c465772b2bbbb5f824b15207a3081018102606090811d6d0388eaa27412d5aca026815d636e018202811d6d0df99ac502031bf953eff472fdcc018202811d6d13cdffb29d51d99322bdff5f2211018202811d6d0a0f742023def783a307a986912e018202811d6d01920d8043ca89b5239253284e42018202811d6c0b7a86d7375468fac667a0a527016c29508e458543d8aa4df2abee7883018302821d6d0139601a2efabe717e604cbb4894018302821d6d02247f7a7b6594320649aa03aba1018302821d7fffffffffffffffffffffffffffffffffffffff73c0c716a594e00d54e3c4cbc9018302821d7ffffffffffffffffffffffffffffffffffffffdc7b88c420e53a9890533129f6f01830290911d7fffffffffffffffffffffffffffffffffffffff465fda27eb4d63ded474e5f832019091027ffffffffffffffff5f6af8f7b3396644f18e157960000000000000000000000000105711340daa0d5f769dba1915cef59f0815a5506027d0267a36c0c95b3975ab3ee5b203a7614a3f75373f047d803ae7b6687f2b393909302929092017d57115e47018c7177eebf7cd370a3356a1b7863008a5ae8028c72b88642840160ae1d92915050565b60007ffffffffffffffffffffffffffffffffffffffffffffffffdb731c958f34d94c1821361319457506000919050565b680755bf798b4a1bf1e58212613206576040517f08c379a000000000000000000000000000000000000000000000000000000000815260206004820152600c60248201527f4558505f4f564552464c4f5700000000000000000000000000000000000000006044820152606401610542565b6503782dace9d9604e83901b059150600060606bb17217f7d1cf79abc9e3b39884821b056b80000000000000000000000001901d6bb17217f7d1cf79abc9e3b39881029093037fffffffffffffffffffffffffffffffffffffffdbf3ccf1604d263450f02a550481018102606090811d6d0277594991cfc85f6e2461837cd9018202811d7fffffffffffffffffffffffffffffffffffffe5adedaa1cb095af9e4da10e363c018202811d6db1bbb201f443cf962f1a1d3db4a5018202811d7ffffffffffffffffffffffffffffffffffffd38dc772608b0ae56cce01296c0eb018202811d6e05180bb14799ab47a8a8cb2a527d57016d02d16720577bd19bf614176fe9ea6c10fe68e7fd37d0007b713f765084018402831d9081019084017ffffffffffffffffffffffffffffffffffffffe2c69812cf03b0763fd454a8f7e010290911d6e0587f503bb6ea29d25fcb7401964500190910279d835ebba824c98fb31b83b2ca45c000000000000000000000000010574029d9dc38563c32e5c2f6dc192ee70ef65f9978af30260c3939093039290921c92915050565b805160609060008167ffffffffffffffff8111156133c2576133c26149ec565b60405190808252806020026020018201604052801561340757816020015b60408051808201909152606080825260208201528152602001906001900390816133e05790505b50905060005b8281101561348957604051806040016040528086838151811061343257613432615449565b6020026020010151815260200161346187848151811061345457613454615449565b6020026020010151613990565b81525082828151811061347657613476615449565b602090810291909101015260010161340d565b509392505050565b805160609060006134a382600261533d565b67ffffffffffffffff8111156134bb576134bb6149ec565b6040519080825280601f01601f1916602001820160405280156134e5576020820181803683370190505b5090506000805b838110156136225785818151811061350657613506615449565b6020910101517fff000000000000000000000000000000000000000000000000000000000000008116925060041c7f0ff0000000000000000000000000000000000000000000000000000000000000168361356283600261533d565b8151811061357257613572615449565b60200101907effffffffffffffffffffffffffffffffffffffffffffffffffffffffffffff1916908160001a9053507f0f000000000000000000000000000000000000000000000000000000000000008216836135d083600261533d565b6135db906001615431565b815181106135eb576135eb615449565b60200101907effffffffffffffffffffffffffffffffffffffffffffffffffffffffffffff1916908160001a9053506001016134ec565b5090949350505050565b6060600080600061363c856139a3565b91945092509050600081600181111561365757613657615581565b146136e4576040517f08c379a000000000000000000000000000000000000000000000000000000000815260206004820152603960248201527f524c505265616465723a206465636f646564206974656d207479706520666f7260448201527f206279746573206973206e6f7420612064617461206974656d000000000000006064820152608401610542565b6136ee8284615431565b85511461377d576040517f08c379a000000000000000000000000000000000000000000000000000000000815260206004820152603460248201527f524c505265616465723a2062797465732076616c756520636f6e7461696e732060448201527f616e20696e76616c69642072656d61696e6465720000000000000000000000006064820152608401610542565b61243e85602001518484614410565b606060208260000151106137a8576137a38261362c565b610fad565b610fad826144b1565b6060610fad6137d0836020015160008151811061284b5761284b615449565b613491565b6060825182106137f45750604080516020810190915260008152610fad565b612344838384865161380691906150bf565b6144c7565b60008060008351855110613820578351613823565b84515b90505b80821080156138aa575083828151811061384257613842615449565b602001015160f81c60f81b7effffffffffffffffffffffffffffffffffffffffffffffffffffffffffffff191685838151811061388157613881615449565b01602001517fff0000000000000000000000000000000000000000000000000000000000000016145b1561348957816001019150613826565b6000808211613925576040517f08c379a000000000000000000000000000000000000000000000000000000000815260206004820152600960248201527f554e444546494e454400000000000000000000000000000000000000000000006044820152606401610542565b5060016fffffffffffffffffffffffffffffffff821160071b82811c67ffffffffffffffff1060061b1782811c63ffffffff1060051b1782811c61ffff1060041b1782811c60ff10600390811b90911783811c600f1060021b1783811c909110821b1791821c111790565b6060610fad61399e8361469f565b614788565b600080600080846000015111613a61576040517f08c379a000000000000000000000000000000000000000000000000000000000815260206004820152604a60248201527f524c505265616465723a206c656e677468206f6620616e20524c50206974656d60448201527f206d7573742062652067726561746572207468616e207a65726f20746f20626560648201527f206465636f6461626c6500000000000000000000000000000000000000000000608482015260a401610542565b6020840151805160001a607f8111613a86576000600160009450945094505050614409565b60b78111613c94576000613a9b6080836150bf565b905080876000015111613b56576040517f08c379a000000000000000000000000000000000000000000000000000000000815260206004820152604e60248201527f524c505265616465723a206c656e677468206f6620636f6e74656e74206d757360448201527f742062652067726561746572207468616e20737472696e67206c656e6774682060648201527f2873686f727420737472696e6729000000000000000000000000000000000000608482015260a401610542565b6001838101517fff00000000000000000000000000000000000000000000000000000000000000169082141580613bcf57507f80000000000000000000000000000000000000000000000000000000000000007fff00000000000000000000000000000000000000000000000000000000000000821610155b613c81576040517f08c379a000000000000000000000000000000000000000000000000000000000815260206004820152604d60248201527f524c505265616465723a20696e76616c6964207072656669782c2073696e676c60448201527f652062797465203c203078383020617265206e6f74207072656669786564202860648201527f73686f727420737472696e672900000000000000000000000000000000000000608482015260a401610542565b5060019550935060009250614409915050565b60bf8111613fe2576000613ca960b7836150bf565b905080876000015111613d64576040517f08c379a000000000000000000000000000000000000000000000000000000000815260206004820152605160248201527f524c505265616465723a206c656e677468206f6620636f6e74656e74206d757360448201527f74206265203e207468616e206c656e677468206f6620737472696e67206c656e60648201527f67746820286c6f6e6720737472696e6729000000000000000000000000000000608482015260a401610542565b60018301517fff00000000000000000000000000000000000000000000000000000000000000166000819003613e42576040517f08c379a000000000000000000000000000000000000000000000000000000000815260206004820152604a60248201527f524c505265616465723a206c656e677468206f6620636f6e74656e74206d757360448201527f74206e6f74206861766520616e79206c656164696e67207a65726f7320286c6f60648201527f6e6720737472696e672900000000000000000000000000000000000000000000608482015260a401610542565b600184015160088302610100031c60378111613f06576040517f08c379a000000000000000000000000000000000000000000000000000000000815260206004820152604860248201527f524c505265616465723a206c656e677468206f6620636f6e74656e74206d757360448201527f742062652067726561746572207468616e20353520627974657320286c6f6e6760648201527f20737472696e6729000000000000000000000000000000000000000000000000608482015260a401610542565b613f108184615431565b895111613fc5576040517f08c379a000000000000000000000000000000000000000000000000000000000815260206004820152604c60248201527f524c505265616465723a206c656e677468206f6620636f6e74656e74206d757360448201527f742062652067726561746572207468616e20746f74616c206c656e677468202860648201527f6c6f6e6720737472696e67290000000000000000000000000000000000000000608482015260a401610542565b613fd0836001615431565b97509550600094506144099350505050565b60f781116140c3576000613ff760c0836150bf565b9050808760000151116140b2576040517f08c379a000000000000000000000000000000000000000000000000000000000815260206004820152604a60248201527f524c505265616465723a206c656e677468206f6620636f6e74656e74206d757360448201527f742062652067726561746572207468616e206c697374206c656e67746820287360648201527f686f7274206c6973742900000000000000000000000000000000000000000000608482015260a401610542565b600195509350849250614409915050565b60006140d060f7836150bf565b90508087600001511161418b576040517f08c379a000000000000000000000000000000000000000000000000000000000815260206004820152604d60248201527f524c505265616465723a206c656e677468206f6620636f6e74656e74206d757360448201527f74206265203e207468616e206c656e677468206f66206c697374206c656e677460648201527f6820286c6f6e67206c6973742900000000000000000000000000000000000000608482015260a401610542565b60018301517fff00000000000000000000000000000000000000000000000000000000000000166000819003614269576040517f08c379a000000000000000000000000000000000000000000000000000000000815260206004820152604860248201527f524c505265616465723a206c656e677468206f6620636f6e74656e74206d757360448201527f74206e6f74206861766520616e79206c656164696e67207a65726f7320286c6f60648201527f6e67206c69737429000000000000000000000000000000000000000000000000608482015260a401610542565b600184015160088302610100031c6037811161432d576040517f08c379a000000000000000000000000000000000000000000000000000000000815260206004820152604660248201527f524c505265616465723a206c656e677468206f6620636f6e74656e74206d757360448201527f742062652067726561746572207468616e20353520627974657320286c6f6e6760648201527f206c697374290000000000000000000000000000000000000000000000000000608482015260a401610542565b6143378184615431565b8951116143ec576040517f08c379a000000000000000000000000000000000000000000000000000000000815260206004820152604a60248201527f524c505265616465723a206c656e677468206f6620636f6e74656e74206d757360448201527f742062652067726561746572207468616e20746f74616c206c656e677468202860648201527f6c6f6e67206c6973742900000000000000000000000000000000000000000000608482015260a401610542565b6143f7836001615431565b97509550600194506144099350505050565b9193909250565b606060008267ffffffffffffffff81111561442d5761442d6149ec565b6040519080825280601f01601f191660200182016040528015614457576020820181803683370190505b50905082600003614469579050612344565b60006144758587615431565b90506020820160005b8581101561449657828101518282015260200161447e565b858111156144a5576000868301525b50919695505050505050565b6060610fad826020015160008460000151614410565b60608182601f011015614536576040517f08c379a000000000000000000000000000000000000000000000000000000000815260206004820152600e60248201527f736c6963655f6f766572666c6f770000000000000000000000000000000000006044820152606401610542565b8282840110156145a2576040517f08c379a000000000000000000000000000000000000000000000000000000000815260206004820152600e60248201527f736c6963655f6f766572666c6f770000000000000000000000000000000000006044820152606401610542565b8183018451101561460f576040517f08c379a000000000000000000000000000000000000000000000000000000000815260206004820152601160248201527f736c6963655f6f75744f66426f756e64730000000000000000000000000000006044820152606401610542565b60608215801561462e5760405191506000825260208201604052614696565b6040519150601f8416801560200281840101858101878315602002848b0101015b8183101561466757805183526020928301920161464f565b5050858452601f017fffffffffffffffffffffffffffffffffffffffffffffffffffffffffffffffe016604052505b50949350505050565b6040805180820190915260008082526020820152600082511161476a576040517f08c379a000000000000000000000000000000000000000000000000000000000815260206004820152604a60248201527f524c505265616465723a206c656e677468206f6620616e20524c50206974656d60448201527f206d7573742062652067726561746572207468616e207a65726f20746f20626560648201527f206465636f6461626c6500000000000000000000000000000000000000000000608482015260a401610542565b50604080518082019091528151815260209182019181019190915290565b60606000806000614798856139a3565b9194509250905060018160018111156147b3576147b3615581565b14614840576040517f08c379a000000000000000000000000000000000000000000000000000000000815260206004820152603860248201527f524c505265616465723a206465636f646564206974656d207479706520666f7260448201527f206c697374206973206e6f742061206c697374206974656d00000000000000006064820152608401610542565b845161484c8385615431565b146148d9576040517f08c379a000000000000000000000000000000000000000000000000000000000815260206004820152603260248201527f524c505265616465723a206c697374206974656d2068617320616e20696e766160448201527f6c696420646174612072656d61696e64657200000000000000000000000000006064820152608401610542565b6040805160208082526104208201909252600091816020015b60408051808201909152600080825260208201528152602001906001900390816148f25790505090506000845b87518110156149e0576000806149656040518060400160405280858d6000015161494991906150bf565b8152602001858d6020015161495e9190615431565b90526139a3565b5091509150604051806040016040528083836149819190615431565b8152602001848c602001516149969190615431565b8152508585815181106149ab576149ab615449565b60209081029190910101526149c1600185615431565b93506149cd8183615431565b6149d79084615431565b9250505061491f565b50815295945050505050565b7f4e487b7100000000000000000000000000000000000000000000000000000000600052604160045260246000fd5b604051601f82017fffffffffffffffffffffffffffffffffffffffffffffffffffffffffffffffe016810167ffffffffffffffff81118282101715614a6257614a626149ec565b604052919050565b803573ffffffffffffffffffffffffffffffffffffffff81168114614a8e57600080fd5b919050565b600082601f830112614aa457600080fd5b813567ffffffffffffffff811115614abe57614abe6149ec565b614aef60207fffffffffffffffffffffffffffffffffffffffffffffffffffffffffffffffe0601f84011601614a1b565b818152846020838601011115614b0457600080fd5b816020850160208301376000918101602001919091529392505050565b600060c08284031215614b3357600080fd5b60405160c0810167ffffffffffffffff8282108183111715614b5757614b576149ec565b8160405282935084358352614b6e60208601614a6a565b6020840152614b7f60408601614a6a565b6040840152606085013560608401526080850135608084015260a0850135915080821115614bac57600080fd5b50614bb985828601614a93565b60a0830152505092915050565b600080600080600085870360e0811215614bdf57600080fd5b863567ffffffffffffffff80821115614bf757600080fd5b614c038a838b01614b21565b97506020890135965060807fffffffffffffffffffffffffffffffffffffffffffffffffffffffffffffffc084011215614c3c57600080fd5b60408901955060c0890135925080831115614c5657600080fd5b828901925089601f840112614c6a57600080fd5b8235915080821115614c7b57600080fd5b508860208260051b8401011115614c9157600080fd5b959894975092955050506020019190565b60005b83811015614cbd578181015183820152602001614ca5565b83811115614ccc576000848401525b50505050565b60008151808452614cea816020860160208601614ca2565b601f017fffffffffffffffffffffffffffffffffffffffffffffffffffffffffffffffe0169290920160200192915050565b6020815260006123446020830184614cd2565b600060208284031215614d4157600080fd5b5035919050565b600060208284031215614d5a57600080fd5b813567ffffffffffffffff811115614d7157600080fd5b61207e84828501614b21565b80358015158114614a8e57600080fd5b600060208284031215614d9f57600080fd5b61234482614d7d565b600080600080600060a08688031215614dc057600080fd5b614dc986614a6a565b945060208601359350604086013567ffffffffffffffff8082168214614dee57600080fd5b819450614dfd60608901614d7d565b93506080880135915080821115614e1357600080fd5b50614e2088828901614a93565b9150509295509295909350565b8581528460208201527fffffffffffffffff0000000000000000000000000000000000000000000000008460c01b16604082015282151560f81b604882015260008251614e81816049850160208701614ca2565b919091016049019695505050505050565b80516fffffffffffffffffffffffffffffffff81168114614a8e57600080fd5b600060608284031215614ec457600080fd5b6040516060810181811067ffffffffffffffff82111715614ee757614ee76149ec565b60405282518152614efa60208401614e92565b6020820152614f0b60408401614e92565b60408201529392505050565b600060808284031215614f2957600080fd5b6040516080810181811067ffffffffffffffff82111715614f4c57614f4c6149ec565b8060405250823581526020830135602082015260408301356040820152606083013560608201528091505092915050565b600067ffffffffffffffff80841115614f9857614f986149ec565b8360051b6020614fa9818301614a1b565b868152918501918181019036841115614fc157600080fd5b865b84811015614ff557803586811115614fdb5760008081fd5b614fe736828b01614a93565b845250918301918301614fc3565b50979650505050505050565b60008451615013818460208901614ca2565b80830190507f2e00000000000000000000000000000000000000000000000000000000000000808252855161504f816001850160208a01614ca2565b6001920191820152835161506a816002840160208801614ca2565b0160020195945050505050565b60006020828403121561508957600080fd5b5051919050565b7f4e487b7100000000000000000000000000000000000000000000000000000000600052601160045260246000fd5b6000828210156150d1576150d1615090565b500390565b7f4e487b7100000000000000000000000000000000000000000000000000000000600052601260045260246000fd5b600082615114576151146150d6565b7fffffffffffffffffffffffffffffffffffffffffffffffffffffffffffffffff83147f80000000000000000000000000000000000000000000000000000000000000008314161561516857615168615090565b500590565b6000808312837f8000000000000000000000000000000000000000000000000000000000000000018312811516156151a7576151a7615090565b837f7fffffffffffffffffffffffffffffffffffffffffffffffffffffffffffffff0183138116156151db576151db615090565b50500390565b60007f7fffffffffffffffffffffffffffffffffffffffffffffffffffffffffffffff60008413600084138583048511828216161561522257615222615090565b7f8000000000000000000000000000000000000000000000000000000000000000600087128682058812818416161561525d5761525d615090565b6000871292508782058712848416161561527957615279615090565b8785058712818416161561528f5761528f615090565b505050929093029392505050565b6000808212827f7fffffffffffffffffffffffffffffffffffffffffffffffffffffffffffffff038413811516156152d7576152d7615090565b827f800000000000000000000000000000000000000000000000000000000000000003841281161561530b5761530b615090565b50500190565b600067ffffffffffffffff80831681851680830382111561533457615334615090565b01949350505050565b6000817fffffffffffffffffffffffffffffffffffffffffffffffffffffffffffffffff048311821515161561537557615375615090565b500290565b600082615389576153896150d6565b500490565b868152600073ffffffffffffffffffffffffffffffffffffffff808816602084015280871660408401525084606083015283608083015260c060a08301526153d960c0830184614cd2565b98975050505050505050565b60007fffffffffffffffffffffffffffffffffffffffffffffffffffffffffffffffff820361541657615416615090565b5060010190565b60008261542c5761542c6150d6565b500690565b6000821982111561544457615444615090565b500190565b7f4e487b7100000000000000000000000000000000000000000000000000000000600052603260045260246000fd5b805163ffffffff81168114614a8e57600080fd5b805160ff81168114614a8e57600080fd5b600060c082840312156154af57600080fd5b60405160c0810181811067ffffffffffffffff821117156154d2576154d26149ec565b6040526154de83615478565b81526154ec6020840161548c565b60208201526154fd6040840161548c565b604082015261550e60608401615478565b606082015261551f60808401615478565b608082015261553060a08401614e92565b60a08201529392505050565b600060ff83168061554f5761554f6150d6565b8060ff84160691505092915050565b600060ff821660ff84168082101561557857615578615090565b90039392505050565b7f4e487b7100000000000000000000000000000000000000000000000000000000600052602160045260246000fdfea164736f6c634300080f000a",
  "devdoc": {
    "version": 1,
    "kind": "dev",
    "methods": {
      "constructor": {
        "params": {
          "_config": "Address of the SystemConfig contract.",
          "_guardian": "Address that can pause deposits and withdrawals.",
          "_l2Oracle": "Address of the L2OutputOracle contract.",
          "_paused": "Sets the contract's pausability state."
        }
      },
      "depositTransaction(address,uint256,uint64,bool,bytes)": {
        "params": {
          "_data": "Data to trigger the recipient with.",
          "_gasLimit": "Minimum L2 gas limit (can be greater than or equal to this value).",
          "_isCreation": "Whether or not the transaction is a contract creation.",
          "_to": "Target address on L2.",
          "_value": "ETH value to send to the recipient."
        }
      },
      "finalizeWithdrawalTransaction((uint256,address,address,uint256,uint256,bytes))": {
        "params": {
          "_tx": "Withdrawal transaction to finalize."
        }
      },
      "isOutputFinalized(uint256)": {
        "params": {
          "_l2OutputIndex": "Index of the L2 output to check."
        },
        "returns": {
          "_0": "Whether or not the output is finalized."
        }
      },
      "proveWithdrawalTransaction((uint256,address,address,uint256,uint256,bytes),uint256,(bytes32,bytes32,bytes32,bytes32),bytes[])": {
        "params": {
          "_l2OutputIndex": "L2 output index to prove against.",
          "_outputRootProof": "Inclusion proof of the L2ToL1MessagePasser contract's storage root.",
          "_tx": "Withdrawal transaction to finalize.",
          "_withdrawalProof": "Inclusion proof of the withdrawal in L2ToL1MessagePasser contract."
        }
      },
      "version()": {
        "returns": {
          "_0": "Semver contract version as a string."
        }
      }
    },
    "events": {
      "Paused(address)": {
        "params": {
          "account": "Address of the account triggering the pause."
        }
      },
      "TransactionDeposited(address,address,uint256,bytes)": {
        "params": {
          "from": "Address that triggered the deposit transaction.",
          "opaqueData": "ABI encoded deposit data to be parsed off-chain.",
          "to": "Address that the deposit transaction is directed to.",
          "version": "Version of this deposit transaction event."
        }
      },
      "Unpaused(address)": {
        "params": {
          "account": "Address of the account triggering the unpause."
        }
      },
      "WithdrawalFinalized(bytes32,bool)": {
        "params": {
          "success": "Whether the withdrawal transaction was successful.",
          "withdrawalHash": "Hash of the withdrawal transaction."
        }
      },
      "WithdrawalProven(bytes32,address,address)": {
        "params": {
          "withdrawalHash": "Hash of the withdrawal transaction."
        }
      }
    }
  },
  "userdoc": {
    "version": 1,
    "kind": "user",
    "methods": {
      "GUARDIAN()": {
        "notice": "Address that has the ability to pause and unpause withdrawals."
      },
      "L2_ORACLE()": {
        "notice": "Address of the L2OutputOracle contract."
      },
      "SYSTEM_CONFIG()": {
        "notice": "Address of the SystemConfig contract."
      },
      "depositTransaction(address,uint256,uint64,bool,bytes)": {
        "notice": "Accepts deposits of ETH and data, and emits a TransactionDeposited event for use in         deriving deposit transactions. Note that if a deposit is made by a contract, its         address will be aliased when retrieved using `tx.origin` or `msg.sender`. Consider         using the CrossDomainMessenger contracts for a simpler developer experience."
      },
      "donateETH()": {
        "notice": "Accepts ETH value without triggering a deposit to L2. This function mainly exists         for the sake of the migration between the legacy Patex system and Bedrock."
      },
      "finalizeWithdrawalTransaction((uint256,address,address,uint256,uint256,bytes))": {
        "notice": "Finalizes a withdrawal transaction."
      },
      "finalizedWithdrawals(bytes32)": {
        "notice": "A list of withdrawal hashes which have been successfully finalized."
      },
      "initialize(bool)": {
        "notice": "Initializer."
      },
      "isOutputFinalized(uint256)": {
        "notice": "Determine if a given output is finalized. Reverts if the call to         L2_ORACLE.getL2Output reverts. Returns a boolean otherwise."
      },
      "l2Sender()": {
        "notice": "Address of the L2 account which initiated a withdrawal in this transaction. If the         of this variable is the default L2 sender address, then we are NOT inside of a call         to finalizeWithdrawalTransaction."
      },
      "params()": {
        "notice": "EIP-1559 style gas parameters."
      },
      "pause()": {
        "notice": "Pause deposits and withdrawals."
      },
      "paused()": {
        "notice": "Determines if cross domain messaging is paused. When set to true,         withdrawals are paused. This may be removed in the future."
      },
      "proveWithdrawalTransaction((uint256,address,address,uint256,uint256,bytes),uint256,(bytes32,bytes32,bytes32,bytes32),bytes[])": {
        "notice": "Proves a withdrawal transaction."
      },
      "provenWithdrawals(bytes32)": {
        "notice": "A mapping of withdrawal hashes to `ProvenWithdrawal` data."
      },
      "unpause()": {
        "notice": "Unpause deposits and withdrawals."
      },
      "version()": {
        "notice": "Returns the full semver contract version."
      }
    },
    "events": {
      "Paused(address)": {
        "notice": "Emitted when the pause is triggered."
      },
      "TransactionDeposited(address,address,uint256,bytes)": {
        "notice": "Emitted when a transaction is deposited from L1 to L2. The parameters of this event         are read by the rollup node and used to derive deposit transactions on L2."
      },
      "Unpaused(address)": {
        "notice": "Emitted when the pause is lifted."
      },
      "WithdrawalFinalized(bytes32,bool)": {
        "notice": "Emitted when a withdrawal transaction is finalized."
      },
      "WithdrawalProven(bytes32,address,address)": {
        "notice": "Emitted when a withdrawal transaction is proven."
      }
    },
    "notice": "The PatexPortal is a low-level contract responsible for passing messages between L1         and L2. Messages sent directly to the PatexPortal have no form of replayability.         Users are encouraged to use the L1CrossDomainMessenger for a higher-level interface."
  },
  "storageLayout": {
    "storage": [
      {
        "astId": 49460,
        "contract": "contracts/L1/PatexPortal.sol:PatexPortal",
        "label": "_initialized",
        "offset": 0,
        "slot": "0",
        "type": "t_uint8"
      },
      {
        "astId": 49463,
        "contract": "contracts/L1/PatexPortal.sol:PatexPortal",
        "label": "_initializing",
        "offset": 1,
        "slot": "0",
        "type": "t_bool"
      },
      {
        "astId": 1920,
        "contract": "contracts/L1/PatexPortal.sol:PatexPortal",
        "label": "params",
        "offset": 0,
        "slot": "1",
        "type": "t_struct(ResourceParams)1903_storage"
      },
      {
        "astId": 1925,
        "contract": "contracts/L1/PatexPortal.sol:PatexPortal",
        "label": "__gap",
        "offset": 0,
        "slot": "2",
        "type": "t_array(t_uint256)48_storage"
      },
      {
        "astId": 1293,
        "contract": "contracts/L1/PatexPortal.sol:PatexPortal",
        "label": "l2Sender",
        "offset": 0,
        "slot": "50",
        "type": "t_address"
      },
      {
        "astId": 1298,
        "contract": "contracts/L1/PatexPortal.sol:PatexPortal",
        "label": "finalizedWithdrawals",
        "offset": 0,
        "slot": "51",
        "type": "t_mapping(t_bytes32,t_bool)"
      },
      {
        "astId": 1304,
        "contract": "contracts/L1/PatexPortal.sol:PatexPortal",
        "label": "provenWithdrawals",
        "offset": 0,
        "slot": "52",
        "type": "t_mapping(t_bytes32,t_struct(ProvenWithdrawal)1271_storage)"
      },
      {
        "astId": 1307,
        "contract": "contracts/L1/PatexPortal.sol:PatexPortal",
        "label": "paused",
        "offset": 0,
        "slot": "53",
        "type": "t_bool"
      }
    ],
    "types": {
      "t_address": {
        "encoding": "inplace",
        "label": "address",
        "numberOfBytes": "20"
      },
      "t_array(t_uint256)48_storage": {
        "encoding": "inplace",
        "label": "uint256[48]",
        "numberOfBytes": "1536",
        "base": "t_uint256"
      },
      "t_bool": {
        "encoding": "inplace",
        "label": "bool",
        "numberOfBytes": "1"
      },
      "t_bytes32": {
        "encoding": "inplace",
        "label": "bytes32",
        "numberOfBytes": "32"
      },
      "t_mapping(t_bytes32,t_bool)": {
        "encoding": "mapping",
        "key": "t_bytes32",
        "label": "mapping(bytes32 => bool)",
        "numberOfBytes": "32",
        "value": "t_bool"
      },
      "t_mapping(t_bytes32,t_struct(ProvenWithdrawal)1271_storage)": {
        "encoding": "mapping",
        "key": "t_bytes32",
        "label": "mapping(bytes32 => struct PatexPortal.ProvenWithdrawal)",
        "numberOfBytes": "32",
        "value": "t_struct(ProvenWithdrawal)1271_storage"
      },
      "t_struct(ProvenWithdrawal)1271_storage": {
        "encoding": "inplace",
        "label": "struct PatexPortal.ProvenWithdrawal",
        "numberOfBytes": "64",
        "members": [
          {
            "astId": 1266,
            "contract": "contracts/L1/PatexPortal.sol:PatexPortal",
            "label": "outputRoot",
            "offset": 0,
            "slot": "0",
            "type": "t_bytes32"
          },
          {
            "astId": 1268,
            "contract": "contracts/L1/PatexPortal.sol:PatexPortal",
            "label": "timestamp",
            "offset": 0,
            "slot": "1",
            "type": "t_uint128"
          },
          {
            "astId": 1270,
            "contract": "contracts/L1/PatexPortal.sol:PatexPortal",
            "label": "l2OutputIndex",
            "offset": 16,
            "slot": "1",
            "type": "t_uint128"
          }
        ]
      },
      "t_struct(ResourceParams)1903_storage": {
        "encoding": "inplace",
        "label": "struct ResourceMetering.ResourceParams",
        "numberOfBytes": "32",
        "members": [
          {
            "astId": 1898,
            "contract": "contracts/L1/PatexPortal.sol:PatexPortal",
            "label": "prevBaseFee",
            "offset": 0,
            "slot": "0",
            "type": "t_uint128"
          },
          {
            "astId": 1900,
            "contract": "contracts/L1/PatexPortal.sol:PatexPortal",
            "label": "prevBoughtGas",
            "offset": 16,
            "slot": "0",
            "type": "t_uint64"
          },
          {
            "astId": 1902,
            "contract": "contracts/L1/PatexPortal.sol:PatexPortal",
            "label": "prevBlockNum",
            "offset": 24,
            "slot": "0",
            "type": "t_uint64"
          }
        ]
      },
      "t_uint128": {
        "encoding": "inplace",
        "label": "uint128",
        "numberOfBytes": "16"
      },
      "t_uint256": {
        "encoding": "inplace",
        "label": "uint256",
        "numberOfBytes": "32"
      },
      "t_uint64": {
        "encoding": "inplace",
        "label": "uint64",
        "numberOfBytes": "8"
      },
      "t_uint8": {
        "encoding": "inplace",
        "label": "uint8",
        "numberOfBytes": "1"
      }
    }
  }
}