{
  "address": "0x1621b1aA541a3D62242BAdc5EEf7ebD4983a928A",
  "abi": [
    {
      "inputs": [
        {
          "internalType": "contract PatexPortal",
          "name": "_portal",
          "type": "address"
        }
      ],
      "stateMutability": "nonpayable",
      "type": "constructor"
    },
    {
      "inputs": [],
      "name": "PORTAL",
      "outputs": [
        {
          "internalType": "contract PatexPortal",
          "name": "",
          "type": "address"
        }
      ],
      "stateMutability": "view",
      "type": "function"
    },
    {
      "inputs": [],
      "name": "donate",
      "outputs": [],
      "stateMutability": "nonpayable",
      "type": "function"
    }
  ],
  "transactionHash": "0x7eab486ad1b8bbd634afbcf5bb3ac7f853abb6dfb7de5170af4b6fb08bef256c",
  "args": [
    "0x0d6e11E2A3B2B3a245bf839c07D775983aCB787d"
  ],
  "numDeployments": 1,
  "solcInputHash": "7405211d9f0f35afd9a76eef47fecf72",
  "bytecode": "0x60a060405234801561001057600080fd5b506040516101b53803806101b583398101604081905261002f91610040565b6001600160a01b0316608052610070565b60006020828403121561005257600080fd5b81516001600160a01b038116811461006957600080fd5b9392505050565b6080516101256100906000396000818160400152609701526101256000f3fe608060405234801561001057600080fd5b50600436106100365760003560e01c80630ff754ea1461003b578063ed88c68e1461008b575b600080fd5b6100627f000000000000000000000000000000000000000000000000000000000000000081565b60405173ffffffffffffffffffffffffffffffffffffffff909116815260200160405180910390f35b610093610095565b005b7f000000000000000000000000000000000000000000000000000000000000000073ffffffffffffffffffffffffffffffffffffffff16638b4c40b0476040518263ffffffff1660e01b81526004016000604051808303818588803b1580156100fd57600080fd5b505af1158015610111573d6000803e3d6000fd5b505050505056fea164736f6c634300080f000a",
  "devdoc": {
    "version": 1,
    "kind": "dev",
    "methods": {
      "constructor": {
        "params": {
          "_portal": "Address of the PatexPortal contract."
        }
      }
    },
    "title": "PortalSender"
  },
  "userdoc": {
    "version": 1,
    "kind": "user",
    "methods": {
      "PORTAL()": {
        "notice": "Address of the PatexPortal contract."
      },
      "donate()": {
        "notice": "Sends balance of this contract to the PatexPortal."
      }
    },
    "notice": "The PortalSender is a simple intermediate contract that will transfer the balance of the         L1StandardBridge to the PatexPortal during the Bedrock migration."
  }
}