{
  "address": "0xfb59E86Ed2aB89410BEC3f8d21E462cdF650c7c4",
  "abi": [
    {
      "inputs": [
        {
          "internalType": "address",
          "name": "_recipient",
          "type": "address"
        }
      ],
      "stateMutability": "nonpayable",
      "type": "constructor"
    },
    {
      "anonymous": false,
      "inputs": [
        {
          "indexed": false,
          "internalType": "uint256",
          "name": "value",
          "type": "uint256"
        },
        {
          "indexed": false,
          "internalType": "address",
          "name": "to",
          "type": "address"
        },
        {
          "indexed": false,
          "internalType": "address",
          "name": "from",
          "type": "address"
        }
      ],
      "name": "Withdrawal",
      "type": "event"
    },
    {
      "inputs": [],
      "name": "MIN_WITHDRAWAL_AMOUNT",
      "outputs": [
        {
          "internalType": "uint256",
          "name": "",
          "type": "uint256"
        }
      ],
      "stateMutability": "view",
      "type": "function"
    },
    {
      "inputs": [],
      "name": "RECIPIENT",
      "outputs": [
        {
          "internalType": "address",
          "name": "",
          "type": "address"
        }
      ],
      "stateMutability": "view",
      "type": "function"
    },
    {
      "inputs": [],
      "name": "totalProcessed",
      "outputs": [
        {
          "internalType": "uint256",
          "name": "",
          "type": "uint256"
        }
      ],
      "stateMutability": "view",
      "type": "function"
    },
    {
      "inputs": [],
      "name": "version",
      "outputs": [
        {
          "internalType": "string",
          "name": "",
          "type": "string"
        }
      ],
      "stateMutability": "view",
      "type": "function"
    },
    {
      "inputs": [],
      "name": "withdraw",
      "outputs": [],
      "stateMutability": "nonpayable",
      "type": "function"
    },
    {
      "stateMutability": "payable",
      "type": "receive"
    }
  ],
  "transactionHash": "0x6846ab96de91d782c3279dc1745833b5f7b5c976eb8c363940e0f0f6fd124b26",
  "args": [
    "0x85a535089054bed462875cdc1941aa662579e9bd"
  ],
  "numDeployments": 1,
  "solcInputHash": "b7921e6312e532119939f391874183b4",
  "bytecode": "0x61012060405234801561001157600080fd5b506040516108e03803806108e083398101604081905261003091610058565b600160808190526001600160a01b0390911660a05260c081905260e052600061010052610088565b60006020828403121561006a57600080fd5b81516001600160a01b038116811461008157600080fd5b9392505050565b60805160a05160c05160e051610100516108006100e060003960006103d3015260006103aa01526000610381015260008181607c015281816102570152610319015260008181610137015261015b01526108006000f3fe60806040526004361061005e5760003560e01c806354fd4d501161004357806354fd4d50146100df57806384411d6514610101578063d3e5792b1461012557600080fd5b80630d9019e11461006a5780633ccfd60b146100c857600080fd5b3661006557005b600080fd5b34801561007657600080fd5b5061009e7f000000000000000000000000000000000000000000000000000000000000000081565b60405173ffffffffffffffffffffffffffffffffffffffff90911681526020015b60405180910390f35b3480156100d457600080fd5b506100dd610159565b005b3480156100eb57600080fd5b506100f461037a565b6040516100bf91906105d4565b34801561010d57600080fd5b5061011760005481565b6040519081526020016100bf565b34801561013157600080fd5b506101177f000000000000000000000000000000000000000000000000000000000000000081565b7f0000000000000000000000000000000000000000000000000000000000000000471015610233576040517f08c379a000000000000000000000000000000000000000000000000000000000815260206004820152604a60248201527f4665655661756c743a207769746864726177616c20616d6f756e74206d75737460448201527f2062652067726561746572207468616e206d696e696d756d207769746864726160648201527f77616c20616d6f756e7400000000000000000000000000000000000000000000608482015260a40160405180910390fd5b600047905080600080828254610249919061061d565b9091555050604080518281527f000000000000000000000000000000000000000000000000000000000000000073ffffffffffffffffffffffffffffffffffffffff166020820152338183015290517fc8a211cc64b6ed1b50595a9fcb1932b6d1e5a6e8ef15b60e5b1f988ea9086bba9181900360600190a1604080516020810182526000815290517fe11013dd0000000000000000000000000000000000000000000000000000000081527342000000000000000000000000000000000000109163e11013dd918491610345917f0000000000000000000000000000000000000000000000000000000000000000916188b891600401610635565b6000604051808303818588803b15801561035e57600080fd5b505af1158015610372573d6000803e3d6000fd5b505050505050565b60606103a57f000000000000000000000000000000000000000000000000000000000000000061041d565b6103ce7f000000000000000000000000000000000000000000000000000000000000000061041d565b6103f77f000000000000000000000000000000000000000000000000000000000000000061041d565b60405160200161040993929190610679565b604051602081830303815290604052905090565b60608160000361046057505060408051808201909152600181527f3000000000000000000000000000000000000000000000000000000000000000602082015290565b8160005b811561048a5780610474816106ef565b91506104839050600a83610756565b9150610464565b60008167ffffffffffffffff8111156104a5576104a561076a565b6040519080825280601f01601f1916602001820160405280156104cf576020820181803683370190505b5090505b8415610552576104e4600183610799565b91506104f1600a866107b0565b6104fc90603061061d565b60f81b818381518110610511576105116107c4565b60200101907effffffffffffffffffffffffffffffffffffffffffffffffffffffffffffff1916908160001a90535061054b600a86610756565b94506104d3565b949350505050565b60005b8381101561057557818101518382015260200161055d565b83811115610584576000848401525b50505050565b600081518084526105a281602086016020860161055a565b601f017fffffffffffffffffffffffffffffffffffffffffffffffffffffffffffffffe0169290920160200192915050565b6020815260006105e7602083018461058a565b9392505050565b7f4e487b7100000000000000000000000000000000000000000000000000000000600052601160045260246000fd5b60008219821115610630576106306105ee565b500190565b73ffffffffffffffffffffffffffffffffffffffff8416815263ffffffff83166020820152606060408201526000610670606083018461058a565b95945050505050565b6000845161068b81846020890161055a565b80830190507f2e0000000000000000000000000000000000000000000000000000000000000080825285516106c7816001850160208a0161055a565b600192019182015283516106e281600284016020880161055a565b0160020195945050505050565b60007fffffffffffffffffffffffffffffffffffffffffffffffffffffffffffffffff8203610720576107206105ee565b5060010190565b7f4e487b7100000000000000000000000000000000000000000000000000000000600052601260045260246000fd5b60008261076557610765610727565b500490565b7f4e487b7100000000000000000000000000000000000000000000000000000000600052604160045260246000fd5b6000828210156107ab576107ab6105ee565b500390565b6000826107bf576107bf610727565b500690565b7f4e487b7100000000000000000000000000000000000000000000000000000000600052603260045260246000fdfea164736f6c634300080f000a",
  "devdoc": {
    "version": 1,
    "kind": "dev",
    "methods": {
      "constructor": {
        "params": {
          "_recipient": "Address that will receive the accumulated fees."
        }
      },
      "version()": {
        "returns": {
          "_0": "Semver contract version as a string."
        }
      }
    },
    "title": "L1FeeVault"
  },
  "userdoc": {
    "version": 1,
    "kind": "user",
    "methods": {
      "MIN_WITHDRAWAL_AMOUNT()": {
        "notice": "Minimum balance before a withdrawal can be triggered."
      },
      "RECIPIENT()": {
        "notice": "Wallet that will receive the fees on L1."
      },
      "totalProcessed()": {
        "notice": "Total amount of wei processed by the contract."
      },
      "version()": {
        "notice": "Returns the full semver contract version."
      },
      "withdraw()": {
        "notice": "Triggers a withdrawal of funds to the L1 fee wallet."
      }
    },
    "events": {
      "Withdrawal(uint256,address,address)": {
        "notice": "Emits each time that a withdrawal occurs."
      }
    },
    "notice": "The L1FeeVault accumulates the L1 portion of the transaction fees."
  },
  "storageLayout": {
    "storage": [
      {
        "astId": 10859,
        "contract": "contracts/L2/L1FeeVault.sol:L1FeeVault",
        "label": "totalProcessed",
        "offset": 0,
        "slot": "0",
        "type": "t_uint256"
      }
    ],
    "types": {
      "t_uint256": {
        "encoding": "inplace",
        "label": "uint256",
        "numberOfBytes": "32"
      }
    }
  }
}