{
  "address": "0x7C90C8D8b0a8E614bB6c3f0eB58DF29cd3330Bc7",
  "abi": [
    {
      "type": "constructor",
      "inputs": [],
      "stateMutability": "nonpayable"
    },
    {
      "type": "receive",
      "stateMutability": "payable"
    },
    {
      "type": "function",
      "name": "MESSENGER",
      "inputs": [],
      "outputs": [
        {
          "name": "",
          "type": "address",
          "internalType": "contract CrossDomainMessenger"
        }
      ],
      "stateMutability": "view"
    },
    {
      "type": "function",
      "name": "OHTER_BRIDGE",
      "inputs": [],
      "outputs": [
        {
          "name": "",
          "type": "address",
          "internalType": "contract StandardBridge"
        }
      ],
      "stateMutability": "view"
    },
    {
      "type": "function",
      "name": "bridgeERC20",
      "inputs": [
        {
          "name": "_localToken",
          "type": "address",
          "internalType": "address"
        },
        {
          "name": "_remoteToken",
          "type": "address",
          "internalType": "address"
        },
        {
          "name": "_amount",
          "type": "uint256",
          "internalType": "uint256"
        },
        {
          "name": "_minGasLimit",
          "type": "uint32",
          "internalType": "uint32"
        },
        {
          "name": "_extraData",
          "type": "bytes",
          "internalType": "bytes"
        }
      ],
      "outputs": [],
      "stateMutability": "nonpayable"
    },
    {
      "type": "function",
      "name": "bridgeERC20To",
      "inputs": [
        {
          "name": "_localToken",
          "type": "address",
          "internalType": "address"
        },
        {
          "name": "_remoteToken",
          "type": "address",
          "internalType": "address"
        },
        {
          "name": "_to",
          "type": "address",
          "internalType": "address"
        },
        {
          "name": "_amount",
          "type": "uint256",
          "internalType": "uint256"
        },
        {
          "name": "_minGasLimit",
          "type": "uint32",
          "internalType": "uint32"
        },
        {
          "name": "_extraData",
          "type": "bytes",
          "internalType": "bytes"
        }
      ],
      "outputs": [],
      "stateMutability": "nonpayable"
    },
    {
      "type": "function",
      "name": "bridgeETH",
      "inputs": [
        {
          "name": "_minGasLimit",
          "type": "uint32",
          "internalType": "uint32"
        },
        {
          "name": "_extraData",
          "type": "bytes",
          "internalType": "bytes"
        }
      ],
      "outputs": [],
      "stateMutability": "payable"
    },
    {
      "type": "function",
      "name": "bridgeETHTo",
      "inputs": [
        {
          "name": "_to",
          "type": "address",
          "internalType": "address"
        },
        {
          "name": "_minGasLimit",
          "type": "uint32",
          "internalType": "uint32"
        },
        {
          "name": "_extraData",
          "type": "bytes",
          "internalType": "bytes"
        }
      ],
      "outputs": [],
      "stateMutability": "payable"
    },
    {
      "type": "function",
      "name": "deposits",
      "inputs": [
        {
          "name": "",
          "type": "address",
          "internalType": "address"
        },
        {
          "name": "",
          "type": "address",
          "internalType": "address"
        }
      ],
      "outputs": [
        {
          "name": "",
          "type": "uint256",
          "internalType": "uint256"
        }
      ],
      "stateMutability": "view"
    },
    {
      "type": "function",
      "name": "finalizeBridgeERC20",
      "inputs": [
        {
          "name": "_localToken",
          "type": "address",
          "internalType": "address"
        },
        {
          "name": "_remoteToken",
          "type": "address",
          "internalType": "address"
        },
        {
          "name": "_from",
          "type": "address",
          "internalType": "address"
        },
        {
          "name": "_to",
          "type": "address",
          "internalType": "address"
        },
        {
          "name": "_amount",
          "type": "uint256",
          "internalType": "uint256"
        },
        {
          "name": "_extraData",
          "type": "bytes",
          "internalType": "bytes"
        }
      ],
      "outputs": [],
      "stateMutability": "nonpayable"
    },
    {
      "type": "function",
      "name": "finalizeBridgeETH",
      "inputs": [
        {
          "name": "_from",
          "type": "address",
          "internalType": "address"
        },
        {
          "name": "_to",
          "type": "address",
          "internalType": "address"
        },
        {
          "name": "_amount",
          "type": "uint256",
          "internalType": "uint256"
        },
        {
          "name": "_extraData",
          "type": "bytes",
          "internalType": "bytes"
        }
      ],
      "outputs": [],
      "stateMutability": "payable"
    },
    {
      "type": "function",
      "name": "finalizeBridgeETHDirect",
      "inputs": [
        {
          "name": "_from",
          "type": "address",
          "internalType": "address"
        },
        {
          "name": "_to",
          "type": "address",
          "internalType": "address"
        },
        {
          "name": "_amount",
          "type": "uint256",
          "internalType": "uint256"
        },
        {
          "name": "_extraData",
          "type": "bytes",
          "internalType": "bytes"
        }
      ],
      "outputs": [],
      "stateMutability": "payable"
    },
    {
      "type": "function",
      "name": "initialize",
      "inputs": [
        {
          "name": "_postdeploys",
          "type": "address",
          "internalType": "contract Postdeploys"
        },
        {
          "name": "_otherBridge",
          "type": "address",
          "internalType": "contract StandardBridge"
        }
      ],
      "outputs": [],
      "stateMutability": "nonpayable"
    },
    {
      "type": "function",
      "name": "messenger",
      "inputs": [],
      "outputs": [
        {
          "name": "",
          "type": "address",
          "internalType": "contract CrossDomainMessenger"
        }
      ],
      "stateMutability": "view"
    },
    {
      "type": "function",
      "name": "otherBridge",
      "inputs": [],
      "outputs": [
        {
          "name": "",
          "type": "address",
          "internalType": "contract StandardBridge"
        }
      ],
      "stateMutability": "view"
    },
    {
      "type": "function",
      "name": "postdeploys",
      "inputs": [],
      "outputs": [
        {
          "name": "",
          "type": "address",
          "internalType": "contract Postdeploys"
        }
      ],
      "stateMutability": "view"
    },
    {
      "type": "function",
      "name": "version",
      "inputs": [],
      "outputs": [
        {
          "name": "",
          "type": "string",
          "internalType": "string"
        }
      ],
      "stateMutability": "view"
    },
    {
      "type": "event",
      "name": "ERC20BridgeFinalized",
      "inputs": [
        {
          "name": "localToken",
          "type": "address",
          "indexed": true,
          "internalType": "address"
        },
        {
          "name": "remoteToken",
          "type": "address",
          "indexed": true,
          "internalType": "address"
        },
        {
          "name": "from",
          "type": "address",
          "indexed": true,
          "internalType": "address"
        },
        {
          "name": "to",
          "type": "address",
          "indexed": false,
          "internalType": "address"
        },
        {
          "name": "amount",
          "type": "uint256",
          "indexed": false,
          "internalType": "uint256"
        },
        {
          "name": "extraData",
          "type": "bytes",
          "indexed": false,
          "internalType": "bytes"
        }
      ],
      "anonymous": false
    },
    {
      "type": "event",
      "name": "ERC20BridgeInitiated",
      "inputs": [
        {
          "name": "localToken",
          "type": "address",
          "indexed": true,
          "internalType": "address"
        },
        {
          "name": "remoteToken",
          "type": "address",
          "indexed": true,
          "internalType": "address"
        },
        {
          "name": "from",
          "type": "address",
          "indexed": true,
          "internalType": "address"
        },
        {
          "name": "to",
          "type": "address",
          "indexed": false,
          "internalType": "address"
        },
        {
          "name": "amount",
          "type": "uint256",
          "indexed": false,
          "internalType": "uint256"
        },
        {
          "name": "extraData",
          "type": "bytes",
          "indexed": false,
          "internalType": "bytes"
        }
      ],
      "anonymous": false
    },
    {
      "type": "event",
      "name": "ETHBridgeFinalized",
      "inputs": [
        {
          "name": "from",
          "type": "address",
          "indexed": true,
          "internalType": "address"
        },
        {
          "name": "to",
          "type": "address",
          "indexed": true,
          "internalType": "address"
        },
        {
          "name": "amount",
          "type": "uint256",
          "indexed": false,
          "internalType": "uint256"
        },
        {
          "name": "extraData",
          "type": "bytes",
          "indexed": false,
          "internalType": "bytes"
        }
      ],
      "anonymous": false
    },
    {
      "type": "event",
      "name": "ETHBridgeInitiated",
      "inputs": [
        {
          "name": "from",
          "type": "address",
          "indexed": true,
          "internalType": "address"
        },
        {
          "name": "to",
          "type": "address",
          "indexed": true,
          "internalType": "address"
        },
        {
          "name": "amount",
          "type": "uint256",
          "indexed": false,
          "internalType": "uint256"
        },
        {
          "name": "extraData",
          "type": "bytes",
          "indexed": false,
          "internalType": "bytes"
        }
      ],
      "anonymous": false
    },
    {
      "type": "event",
      "name": "Initialized",
      "inputs": [
        {
          "name": "version",
          "type": "uint8",
          "indexed": false,
          "internalType": "uint8"
        }
      ],
      "anonymous": false
    }
  ],
  "transactionHash": "0x9b904184701c16a5d3badeb884d80896e88dc89da11866ac9e4035879e0efa6d",
  "args": [],
  "numDeployments": 1,
  "solcInputHash": "9778d091a5acf256a03d242fa5a61eb7",
  "bytecode": "0x60806040523480156200001157600080fd5b506200001c62000022565b620000e3565b600054610100900460ff16156200008f5760405162461bcd60e51b815260206004820152602760248201527f496e697469616c697a61626c653a20636f6e747261637420697320696e697469604482015266616c697a696e6760c81b606482015260840160405180910390fd5b60005460ff90811614620000e1576000805460ff191660ff9081179091556040519081527f7f26b83ff96e1f2b6a682f133852f6798a09c465da95921460cefb38474024989060200160405180910390a15b565b612cc080620000f36000396000f3fe6080604052600436106100ec5760003560e01c80637c916ee91161008a578063a47a5c3511610059578063a47a5c351461039a578063c89701a2146103ad578063cfb39914146103da578063e11013dd1461040757600080fd5b80637c916ee9146102de57806387087623146103095780638f601f6614610329578063927ede2d1461036f57600080fd5b80633cb747bf116100c65780633cb747bf146101f1578063485cc95514610248578063540abf731461026857806354fd4d501461028857600080fd5b80630166a07a146101ab57806309fc8843146101cb5780631635f5fd146101de57600080fd5b366101a657333b15610185576040517f08c379a000000000000000000000000000000000000000000000000000000000815260206004820152603760248201527f5374616e646172644272696467653a2066756e6374696f6e2063616e206f6e6c60448201527f792062652063616c6c65642066726f6d20616e20454f4100000000000000000060648201526084015b60405180910390fd5b6101a433333462030d406040518060200160405280600081525061041a565b005b600080fd5b3480156101b757600080fd5b506101a46101c6366004612698565b6105e4565b6101a46101d9366004612749565b61098f565b6101a46101ec36600461279c565b610a66565b3480156101fd57600080fd5b5060035461021e9073ffffffffffffffffffffffffffffffffffffffff1681565b60405173ffffffffffffffffffffffffffffffffffffffff90911681526020015b60405180910390f35b34801561025457600080fd5b506101a461026336600461280f565b610ec0565b34801561027457600080fd5b506101a4610283366004612848565b611198565b34801561029457600080fd5b506102d16040518060400160405280600581526020017f312e302e3000000000000000000000000000000000000000000000000000000081525081565b60405161023f9190612935565b3480156102ea57600080fd5b5060045473ffffffffffffffffffffffffffffffffffffffff1661021e565b34801561031557600080fd5b506101a4610324366004612948565b6111dd565b34801561033557600080fd5b5061036161034436600461280f565b600260209081526000928352604080842090915290825290205481565b60405190815260200161023f565b34801561037b57600080fd5b5060035473ffffffffffffffffffffffffffffffffffffffff1661021e565b6101a46103a836600461279c565b6112b1565b3480156103b957600080fd5b5060045461021e9073ffffffffffffffffffffffffffffffffffffffff1681565b3480156103e657600080fd5b5060325461021e9073ffffffffffffffffffffffffffffffffffffffff1681565b6101a46104153660046129cb565b61165f565b8234146104a9576040517f08c379a000000000000000000000000000000000000000000000000000000000815260206004820152603e60248201527f5374616e646172644272696467653a206272696467696e6720455448206d757360448201527f7420696e636c7564652073756666696369656e74204554482076616c75650000606482015260840161017c565b6104b5858585846116a8565b60035460045460405173ffffffffffffffffffffffffffffffffffffffff92831692633dbb202b9287929116907f1635f5fd0000000000000000000000000000000000000000000000000000000090610518908b908b9086908a90602401612a2e565b604080517fffffffffffffffffffffffffffffffffffffffffffffffffffffffffffffffe08184030181529181526020820180517bffffffffffffffffffffffffffffffffffffffffffffffffffffffff167fffffffff000000000000000000000000000000000000000000000000000000009485161790525160e086901b90921682526105ab92918890600401612a77565b6000604051808303818588803b1580156105c457600080fd5b505af11580156105d8573d6000803e3d6000fd5b50505050505050505050565b60035473ffffffffffffffffffffffffffffffffffffffff16331480156106b7575060048054600354604080517f6e296e45000000000000000000000000000000000000000000000000000000008152905173ffffffffffffffffffffffffffffffffffffffff938416949390921692636e296e459282820192602092908290030181865afa15801561067b573d6000803e3d6000fd5b505050506040513d601f19601f8201168201806040525081019061069f9190612abc565b73ffffffffffffffffffffffffffffffffffffffff16145b610769576040517f08c379a000000000000000000000000000000000000000000000000000000000815260206004820152604160248201527f5374616e646172644272696467653a2066756e6374696f6e2063616e206f6e6c60448201527f792062652063616c6c65642066726f6d20746865206f7468657220627269646760648201527f6500000000000000000000000000000000000000000000000000000000000000608482015260a40161017c565b61077287611715565b156108c0576107818787611777565b610833576040517f08c379a000000000000000000000000000000000000000000000000000000000815260206004820152604760248201527f5374616e646172644272696467653a2077726f6e672072656d6f746520746f6b60448201527f656e20666f72205061746578204d696e7461626c65204552433230206c6f636160648201527f6c20746f6b656e00000000000000000000000000000000000000000000000000608482015260a40161017c565b6040517f40c10f1900000000000000000000000000000000000000000000000000000000815273ffffffffffffffffffffffffffffffffffffffff8581166004830152602482018590528816906340c10f1990604401600060405180830381600087803b1580156108a357600080fd5b505af11580156108b7573d6000803e3d6000fd5b50505050610942565b73ffffffffffffffffffffffffffffffffffffffff8088166000908152600260209081526040808320938a16835292905220546108fe908490612b08565b73ffffffffffffffffffffffffffffffffffffffff8089166000818152600260209081526040808320948c1683529390529190912091909155610942908585611897565b610986878787878787878080601f01602080910402602001604051908101604052809392919081815260200183838082843760009201919091525061196b92505050565b50505050505050565b333b15610a1e576040517f08c379a000000000000000000000000000000000000000000000000000000000815260206004820152603760248201527f5374616e646172644272696467653a2066756e6374696f6e2063616e206f6e6c60448201527f792062652063616c6c65642066726f6d20616e20454f41000000000000000000606482015260840161017c565b610a613333348686868080601f01602080910402602001604051908101604052809392919081815260200183838082843760009201919091525061041a92505050565b505050565b60035473ffffffffffffffffffffffffffffffffffffffff1633148015610b39575060048054600354604080517f6e296e45000000000000000000000000000000000000000000000000000000008152905173ffffffffffffffffffffffffffffffffffffffff938416949390921692636e296e459282820192602092908290030181865afa158015610afd573d6000803e3d6000fd5b505050506040513d601f19601f82011682018060405250810190610b219190612abc565b73ffffffffffffffffffffffffffffffffffffffff16145b610beb576040517f08c379a000000000000000000000000000000000000000000000000000000000815260206004820152604160248201527f5374616e646172644272696467653a2066756e6374696f6e2063616e206f6e6c60448201527f792062652063616c6c65642066726f6d20746865206f7468657220627269646760648201527f6500000000000000000000000000000000000000000000000000000000000000608482015260a40161017c565b823414610c7a576040517f08c379a000000000000000000000000000000000000000000000000000000000815260206004820152603a60248201527f5374616e646172644272696467653a20616d6f756e742073656e7420646f657360448201527f206e6f74206d6174636820616d6f756e74207265717569726564000000000000606482015260840161017c565b3073ffffffffffffffffffffffffffffffffffffffff851603610d1f576040517f08c379a000000000000000000000000000000000000000000000000000000000815260206004820152602360248201527f5374616e646172644272696467653a2063616e6e6f742073656e6420746f207360448201527f656c660000000000000000000000000000000000000000000000000000000000606482015260840161017c565b60035473ffffffffffffffffffffffffffffffffffffffff90811690851603610dca576040517f08c379a000000000000000000000000000000000000000000000000000000000815260206004820152602860248201527f5374616e646172644272696467653a2063616e6e6f742073656e6420746f206d60448201527f657373656e676572000000000000000000000000000000000000000000000000606482015260840161017c565b610e0c85858585858080601f0160208091040260200160405190810160405280939291908181526020018383808284376000920191909152506119f392505050565b6000610e29855a8660405180602001604052806000815250611a52565b905080610eb8576040517f08c379a000000000000000000000000000000000000000000000000000000000815260206004820152602360248201527f5374616e646172644272696467653a20455448207472616e736665722066616960448201527f6c65640000000000000000000000000000000000000000000000000000000000606482015260840161017c565b505050505050565b600054610100900460ff1615808015610ee05750600054600160ff909116105b80610efa5750303b158015610efa575060005460ff166001145b610f86576040517f08c379a000000000000000000000000000000000000000000000000000000000815260206004820152602e60248201527f496e697469616c697a61626c653a20636f6e747261637420697320616c72656160448201527f647920696e697469616c697a6564000000000000000000000000000000000000606482015260840161017c565b600080547fffffffffffffffffffffffffffffffffffffffffffffffffffffffffffffff001660011790558015610fe457600080547fffffffffffffffffffffffffffffffffffffffffffffffffffffffffffff00ff166101001790555b61100273420000000000000000000000000000000000000783611a6c565b603280547fffffffffffffffffffffffff00000000000000000000000000000000000000001673ffffffffffffffffffffffffffffffffffffffff8516908117909155604080517f97d7577600000000000000000000000000000000000000000000000000000000815290516397d75776916004808201926020929091908290030181865afa158015611099573d6000803e3d6000fd5b505050506040513d601f19601f820116820180604052508101906110bd9190612abc565b73ffffffffffffffffffffffffffffffffffffffff16634c802f38306001600061dead6040518563ffffffff1660e01b81526004016110ff9493929190612b4e565b600060405180830381600087803b15801561111957600080fd5b505af115801561112d573d6000803e3d6000fd5b505050508015610a6157600080547fffffffffffffffffffffffffffffffffffffffffffffffffffffffffffff00ff169055604051600181527f7f26b83ff96e1f2b6a682f133852f6798a09c465da95921460cefb38474024989060200160405180910390a1505050565b61098687873388888888888080601f016020809104026020016040519081016040528093929190818152602001838380828437600092019190915250611b5692505050565b333b1561126c576040517f08c379a000000000000000000000000000000000000000000000000000000000815260206004820152603760248201527f5374616e646172644272696467653a2066756e6374696f6e2063616e206f6e6c60448201527f792062652063616c6c65642066726f6d20616e20454f41000000000000000000606482015260840161017c565b610eb886863333888888888080601f016020809104026020016040519081016040528093929190818152602001838380828437600092019190915250611b5692505050565b60045473ffffffffffffffffffffffffffffffffffffffff167fffffffffffffffffffffffffeeeeffffffffffffffffffffffffffffffffeeef330173ffffffffffffffffffffffffffffffffffffffff161461139257604080517f08c379a00000000000000000000000000000000000000000000000000000000081526020600482015260248101919091527f4c32426c6173744272696467653a2066756e6374696f6e2063616e206f6e6c7960448201527f2062652063616c6c65642066726f6d20746865206f7468657220627269646765606482015260840161017c565b823414611421576040517f08c379a000000000000000000000000000000000000000000000000000000000815260206004820152603960248201527f4c32426c6173744272696467653a20616d6f756e742073656e7420646f65732060448201527f6e6f74206d6174636820616d6f756e7420726571756972656400000000000000606482015260840161017c565b3073ffffffffffffffffffffffffffffffffffffffff8516036114c6576040517f08c379a000000000000000000000000000000000000000000000000000000000815260206004820152602260248201527f4c32426c6173744272696467653a2063616e6e6f742073656e6420746f20736560448201527f6c66000000000000000000000000000000000000000000000000000000000000606482015260840161017c565b60035473ffffffffffffffffffffffffffffffffffffffff90811690851603611571576040517f08c379a000000000000000000000000000000000000000000000000000000000815260206004820152602760248201527f4c32426c6173744272696467653a2063616e6e6f742073656e6420746f206d6560448201527f7373656e67657200000000000000000000000000000000000000000000000000606482015260840161017c565b6115b385858585858080601f0160208091040260200160405190810160405280939291908181526020018383808284376000920191909152506119f392505050565b60006115d0855a8660405180602001604052806000815250611a52565b905080610eb8576040517f08c379a000000000000000000000000000000000000000000000000000000000815260206004820152602260248201527f4c32426c6173744272696467653a20455448207472616e73666572206661696c60448201527f6564000000000000000000000000000000000000000000000000000000000000606482015260840161017c565b6116a23385348686868080601f01602080910402602001604051908101604052809392919081815260200183838082843760009201919091525061041a92505050565b50505050565b8273ffffffffffffffffffffffffffffffffffffffff168473ffffffffffffffffffffffffffffffffffffffff167f2849b43074093a05396b6f2a937dee8565b15a48a7b3d4bffb732a5017380af58484604051611707929190612bab565b60405180910390a350505050565b6000611741827f1d1d8b6300000000000000000000000000000000000000000000000000000000611dd7565b806117715750611771827fec4fc8e300000000000000000000000000000000000000000000000000000000611dd7565b92915050565b60006117a3837f1d1d8b6300000000000000000000000000000000000000000000000000000000611dd7565b1561184c578273ffffffffffffffffffffffffffffffffffffffff1663c01e1bd66040518163ffffffff1660e01b8152600401602060405180830381865afa1580156117f3573d6000803e3d6000fd5b505050506040513d601f19601f820116820180604052508101906118179190612abc565b73ffffffffffffffffffffffffffffffffffffffff168273ffffffffffffffffffffffffffffffffffffffff16149050611771565b8273ffffffffffffffffffffffffffffffffffffffff1663d6c0b2c46040518163ffffffff1660e01b8152600401602060405180830381865afa1580156117f3573d6000803e3d6000fd5b60405173ffffffffffffffffffffffffffffffffffffffff8316602482015260448101829052610a619084907fa9059cbb00000000000000000000000000000000000000000000000000000000906064015b604080517fffffffffffffffffffffffffffffffffffffffffffffffffffffffffffffffe08184030181529190526020810180517bffffffffffffffffffffffffffffffffffffffffffffffffffffffff167fffffffff0000000000000000000000000000000000000000000000000000000090931692909217909152611dfa565b8373ffffffffffffffffffffffffffffffffffffffff168573ffffffffffffffffffffffffffffffffffffffff168773ffffffffffffffffffffffffffffffffffffffff167fd59c65b35445225835c83f50b6ede06a7be047d22e357073e250d9af537518cd8686866040516119e393929190612bc4565b60405180910390a4505050505050565b8273ffffffffffffffffffffffffffffffffffffffff168473ffffffffffffffffffffffffffffffffffffffff167f31b2166ff604fc5672ea5df08a78081d2bc6d746cadce880747f3643d819e83d8484604051611707929190612bab565b600080600080845160208601878a8af19695505050505050565b600054610100900460ff16611b03576040517f08c379a000000000000000000000000000000000000000000000000000000000815260206004820152602b60248201527f496e697469616c697a61626c653a20636f6e7472616374206973206e6f74206960448201527f6e697469616c697a696e67000000000000000000000000000000000000000000606482015260840161017c565b6003805473ffffffffffffffffffffffffffffffffffffffff9384167fffffffffffffffffffffffff00000000000000000000000000000000000000009182161790915560048054929093169116179055565b603260009054906101000a900473ffffffffffffffffffffffffffffffffffffffff1673ffffffffffffffffffffffffffffffffffffffff166331a0edec6040518163ffffffff1660e01b8152600401602060405180830381865afa158015611bc3573d6000803e3d6000fd5b505050506040513d601f19601f82011682018060405250810190611be79190612abc565b73ffffffffffffffffffffffffffffffffffffffff168773ffffffffffffffffffffffffffffffffffffffff1614611ca1576040517f08c379a000000000000000000000000000000000000000000000000000000000815260206004820152603b60248201527f4c32426c6173744272696467653a206f6e6c7920555344422063616e2062652060448201527f77697468647261776e2066726f6d2074686973206272696467652e0000000000606482015260840161017c565b603254604080517f31a0edec0000000000000000000000000000000000000000000000000000000081529051611d3c9273ffffffffffffffffffffffffffffffffffffffff16916331a0edec9160048083019260209291908290030181865afa158015611d12573d6000803e3d6000fd5b505050506040513d601f19601f82011682018060405250810190611d369190612abc565b87611777565b611dc8576040517f08c379a000000000000000000000000000000000000000000000000000000000815260206004820152602b60248201527f4c32426c6173744272696467653a2077726f6e672072656d6f746520746f6b6560448201527f6e20666f7220555344422e000000000000000000000000000000000000000000606482015260840161017c565b61098687878787878787611f06565b6000611de283612231565b8015611df35750611df38383612295565b9392505050565b6000611e5c826040518060400160405280602081526020017f5361666545524332303a206c6f772d6c6576656c2063616c6c206661696c65648152508573ffffffffffffffffffffffffffffffffffffffff166123649092919063ffffffff16565b805190915015610a615780806020019051810190611e7a9190612c02565b610a61576040517f08c379a000000000000000000000000000000000000000000000000000000000815260206004820152602a60248201527f5361666545524332303a204552433230206f7065726174696f6e20646964206e60448201527f6f74207375636365656400000000000000000000000000000000000000000000606482015260840161017c565b611f0f87611715565b1561205d57611f1e8787611777565b611fd0576040517f08c379a000000000000000000000000000000000000000000000000000000000815260206004820152604760248201527f5374616e646172644272696467653a2077726f6e672072656d6f746520746f6b60448201527f656e20666f72205061746578204d696e7461626c65204552433230206c6f636160648201527f6c20746f6b656e00000000000000000000000000000000000000000000000000608482015260a40161017c565b6040517f9dc29fac00000000000000000000000000000000000000000000000000000000815273ffffffffffffffffffffffffffffffffffffffff868116600483015260248201859052881690639dc29fac90604401600060405180830381600087803b15801561204057600080fd5b505af1158015612054573d6000803e3d6000fd5b505050506120f1565b61207f73ffffffffffffffffffffffffffffffffffffffff881686308661237b565b73ffffffffffffffffffffffffffffffffffffffff8088166000908152600260209081526040808320938a16835292905220546120bd908490612c24565b73ffffffffffffffffffffffffffffffffffffffff8089166000908152600260209081526040808320938b16835292905220555b6120ff8787878787866123d9565b60035460045460405173ffffffffffffffffffffffffffffffffffffffff92831692633dbb202b9216907f0166a07a0000000000000000000000000000000000000000000000000000000090612163908b908d908c908c908c908b90602401612c3c565b604080517fffffffffffffffffffffffffffffffffffffffffffffffffffffffffffffffe08184030181529181526020820180517bffffffffffffffffffffffffffffffffffffffffffffffffffffffff167fffffffff000000000000000000000000000000000000000000000000000000009485161790525160e085901b90921682526121f692918790600401612a77565b600060405180830381600087803b15801561221057600080fd5b505af1158015612224573d6000803e3d6000fd5b5050505050505050505050565b600061225d827f01ffc9a700000000000000000000000000000000000000000000000000000000612295565b8015611771575061228e827fffffffff00000000000000000000000000000000000000000000000000000000612295565b1592915050565b604080517fffffffff000000000000000000000000000000000000000000000000000000008316602480830191909152825180830390910181526044909101909152602080820180517bffffffffffffffffffffffffffffffffffffffffffffffffffffffff167f01ffc9a700000000000000000000000000000000000000000000000000000000178152825160009392849283928392918391908a617530fa92503d9150600051905082801561234d575060208210155b80156123595750600081115b979650505050505050565b60606123738484600085612451565b949350505050565b60405173ffffffffffffffffffffffffffffffffffffffff808516602483015283166044820152606481018290526116a29085907f23b872dd00000000000000000000000000000000000000000000000000000000906084016118e9565b8373ffffffffffffffffffffffffffffffffffffffff168573ffffffffffffffffffffffffffffffffffffffff168773ffffffffffffffffffffffffffffffffffffffff167f7ff126db8024424bbfd9826e8ab82ff59136289ea440b04b39a0df1b03b9cabf8686866040516119e393929190612bc4565b6060824710156124e3576040517f08c379a000000000000000000000000000000000000000000000000000000000815260206004820152602660248201527f416464726573733a20696e73756666696369656e742062616c616e636520666f60448201527f722063616c6c0000000000000000000000000000000000000000000000000000606482015260840161017c565b73ffffffffffffffffffffffffffffffffffffffff85163b612561576040517f08c379a000000000000000000000000000000000000000000000000000000000815260206004820152601d60248201527f416464726573733a2063616c6c20746f206e6f6e2d636f6e7472616374000000604482015260640161017c565b6000808673ffffffffffffffffffffffffffffffffffffffff16858760405161258a9190612c97565b60006040518083038185875af1925050503d80600081146125c7576040519150601f19603f3d011682016040523d82523d6000602084013e6125cc565b606091505b5091509150612359828286606083156125e6575081611df3565b8251156125f65782518084602001fd5b816040517f08c379a000000000000000000000000000000000000000000000000000000000815260040161017c9190612935565b73ffffffffffffffffffffffffffffffffffffffff8116811461264c57600080fd5b50565b60008083601f84011261266157600080fd5b50813567ffffffffffffffff81111561267957600080fd5b60208301915083602082850101111561269157600080fd5b9250929050565b600080600080600080600060c0888a0312156126b357600080fd5b87356126be8161262a565b965060208801356126ce8161262a565b955060408801356126de8161262a565b945060608801356126ee8161262a565b93506080880135925060a088013567ffffffffffffffff81111561271157600080fd5b61271d8a828b0161264f565b989b979a50959850939692959293505050565b803563ffffffff8116811461274457600080fd5b919050565b60008060006040848603121561275e57600080fd5b61276784612730565b9250602084013567ffffffffffffffff81111561278357600080fd5b61278f8682870161264f565b9497909650939450505050565b6000806000806000608086880312156127b457600080fd5b85356127bf8161262a565b945060208601356127cf8161262a565b935060408601359250606086013567ffffffffffffffff8111156127f257600080fd5b6127fe8882890161264f565b969995985093965092949392505050565b6000806040838503121561282257600080fd5b823561282d8161262a565b9150602083013561283d8161262a565b809150509250929050565b600080600080600080600060c0888a03121561286357600080fd5b873561286e8161262a565b9650602088013561287e8161262a565b9550604088013561288e8161262a565b9450606088013593506128a360808901612730565b925060a088013567ffffffffffffffff81111561271157600080fd5b60005b838110156128da5781810151838201526020016128c2565b838111156116a25750506000910152565b600081518084526129038160208601602086016128bf565b601f017fffffffffffffffffffffffffffffffffffffffffffffffffffffffffffffffe0169290920160200192915050565b602081526000611df360208301846128eb565b60008060008060008060a0878903121561296157600080fd5b863561296c8161262a565b9550602087013561297c8161262a565b94506040870135935061299160608801612730565b9250608087013567ffffffffffffffff8111156129ad57600080fd5b6129b989828a0161264f565b979a9699509497509295939492505050565b600080600080606085870312156129e157600080fd5b84356129ec8161262a565b93506129fa60208601612730565b9250604085013567ffffffffffffffff811115612a1657600080fd5b612a228782880161264f565b95989497509550505050565b600073ffffffffffffffffffffffffffffffffffffffff808716835280861660208401525083604083015260806060830152612a6d60808301846128eb565b9695505050505050565b73ffffffffffffffffffffffffffffffffffffffff84168152606060208201526000612aa660608301856128eb565b905063ffffffff83166040830152949350505050565b600060208284031215612ace57600080fd5b8151611df38161262a565b7f4e487b7100000000000000000000000000000000000000000000000000000000600052601160045260246000fd5b600082821015612b1a57612b1a612ad9565b500390565b7f4e487b7100000000000000000000000000000000000000000000000000000000600052602160045260246000fd5b73ffffffffffffffffffffffffffffffffffffffff8581168252608082019060038610612b7d57612b7d612b1f565b85602084015260028510612b9357612b93612b1f565b84604084015280841660608401525095945050505050565b82815260406020820152600061237360408301846128eb565b73ffffffffffffffffffffffffffffffffffffffff84168152826020820152606060408201526000612bf960608301846128eb565b95945050505050565b600060208284031215612c1457600080fd5b81518015158114611df357600080fd5b60008219821115612c3757612c37612ad9565b500190565b600073ffffffffffffffffffffffffffffffffffffffff80891683528088166020840152808716604084015280861660608401525083608083015260c060a0830152612c8b60c08301846128eb565b98975050505050505050565b60008251612ca98184602087016128bf565b919091019291505056fea164736f6c634300080f000a",
  "devdoc": {
    "version": 1,
    "kind": "dev",
    "methods": {
      "MESSENGER()": {},
      "bridgeERC20(address,address,uint256,uint32,bytes)": {
        "params": {
          "_amount": "Amount of local tokens to deposit.",
          "_extraData": "Extra data to be sent with the transaction. Note that the recipient will                     not be triggered with this data, but it will be emitted and can be used                     to identify the transaction.",
          "_localToken": "Address of the ERC20 on this chain.",
          "_minGasLimit": "Minimum amount of gas that the bridge can be relayed with.",
          "_remoteToken": "Address of the corresponding token on the remote chain."
        }
      },
      "bridgeERC20To(address,address,address,uint256,uint32,bytes)": {
        "params": {
          "_amount": "Amount of local tokens to deposit.",
          "_extraData": "Extra data to be sent with the transaction. Note that the recipient will                     not be triggered with this data, but it will be emitted and can be used                     to identify the transaction.",
          "_localToken": "Address of the ERC20 on this chain.",
          "_minGasLimit": "Minimum amount of gas that the bridge can be relayed with.",
          "_remoteToken": "Address of the corresponding token on the remote chain.",
          "_to": "Address of the receiver."
        }
      },
      "bridgeETH(uint32,bytes)": {
        "params": {
          "_extraData": "Extra data to be sent with the transaction. Note that the recipient will                     not be triggered with this data, but it will be emitted and can be used                     to identify the transaction.",
          "_minGasLimit": "Minimum amount of gas that the bridge can be relayed with."
        }
      },
      "bridgeETHTo(address,uint32,bytes)": {
        "params": {
          "_extraData": "Extra data to be sent with the transaction. Note that the recipient will                     not be triggered with this data, but it will be emitted and can be used                     to identify the transaction.",
          "_minGasLimit": "Minimum amount of gas that the bridge can be relayed with.",
          "_to": "Address of the receiver."
        }
      },
      "constructor": {
        "params": {
          "_otherBridge": "Address of the L1PatexBridge."
        }
      },
      "finalizeBridgeERC20(address,address,address,address,uint256,bytes)": {
        "params": {
          "_amount": "Amount of the ERC20 being bridged.",
          "_extraData": "Extra data to be sent with the transaction. Note that the recipient will                     not be triggered with this data, but it will be emitted and can be used                     to identify the transaction.",
          "_from": "Address of the sender.",
          "_localToken": "Address of the ERC20 on this chain.",
          "_remoteToken": "Address of the corresponding token on the remote chain.",
          "_to": "Address of the receiver."
        }
      },
      "finalizeBridgeETH(address,address,uint256,bytes)": {
        "params": {
          "_amount": "Amount of ETH being bridged.",
          "_extraData": "Extra data to be sent with the transaction. Note that the recipient will                   not be triggered with this data, but it will be emitted and can be used                   to identify the transaction.",
          "_from": "Address of the sender.",
          "_to": "Address of the receiver."
        }
      }
    },
    "title": "L2PatexBridge"
  },
  "userdoc": {
    "version": 1,
    "kind": "user",
    "methods": {
      "MESSENGER()": {
        "notice": "Getter for messenger contract."
      },
      "OTHER_BRIDGE()": {
        "notice": "Corresponding bridge on the other domain."
      },
      "bridgeERC20(address,address,uint256,uint32,bytes)": {
        "notice": "Sends ERC20 tokens to the sender's address on the other chain. Note that if the         ERC20 token on the other chain does not recognize the local token as the correct         pair token, the ERC20 bridge will fail and the tokens will be returned to sender on         this chain."
      },
      "bridgeERC20To(address,address,address,uint256,uint32,bytes)": {
        "notice": "Sends ERC20 tokens to a receiver's address on the other chain. Note that if the         ERC20 token on the other chain does not recognize the local token as the correct         pair token, the ERC20 bridge will fail and the tokens will be returned to sender on         this chain."
      },
      "bridgeETH(uint32,bytes)": {
        "notice": "Sends ETH to the sender's address on the other chain."
      },
      "bridgeETHTo(address,uint32,bytes)": {
        "notice": "Sends ETH to a receiver's address on the other chain. Note that if ETH is sent to a         smart contract and the call fails, the ETH will be temporarily locked in the         StandardBridge on the other chain until the call is replayed. If the call cannot be         replayed with any amount of gas (call always reverts), then the ETH will be         permanently locked in the StandardBridge on the other chain. ETH will also         be locked if the receiver is the other bridge, because finalizeBridgeETH will revert         in that case."
      },
      "constructor": {
        "notice": "Constructs the L2PatexBridge contract."
      },
      "deposits(address,address)": {
        "notice": "Mapping that stores deposits for a given pair of local and remote tokens."
      },
      "finalizeBridgeERC20(address,address,address,address,uint256,bytes)": {
        "notice": "Finalizes an ERC20 bridge on this chain. Can only be triggered by the other         StandardBridge contract on the remote chain."
      },
      "finalizeBridgeETH(address,address,uint256,bytes)": {
        "notice": "Finalizes an ETH bridge on this chain. Can only be triggered by the other         StandardBridge contract on the remote chain."
      },
      "finalizeBridgeETHDirect(address,address,uint256,bytes)": {
        "notice": "Modified StandardBridge.finalizeBridgeETH function to allow calls directly from         the L1PatexBridge without going through a messenger.See { StandardBridge-finalizeBridgeETH }"
      },
      "initialize(address)": {
        "notice": "Initializer"
      },
      "messenger()": {
        "notice": "Messenger contract on this domain. This public getter is deprecated         and will be removed in the future. Please use `messenger` instead."
      },
      "otherBridge()": {
        "notice": "Getter for the remote domain bridge contract."
      }
    },
    "events": {
      "ERC20BridgeFinalized(address,address,address,address,uint256,bytes)": {
        "notice": "Emitted when an ERC20 bridge is finalized on this chain."
      },
      "ERC20BridgeInitiated(address,address,address,address,uint256,bytes)": {
        "notice": "Emitted when an ERC20 bridge is initiated to the other chain."
      },
      "ETHBridgeFinalized(address,address,uint256,bytes)": {
        "notice": "Emitted when an ETH bridge is finalized on this chain."
      },
      "ETHBridgeInitiated(address,address,uint256,bytes)": {
        "notice": "Emitted when an ETH bridge is initiated to the other chain."
      }
    },
    "notice": "The L2PatexBridge is responsible for transfering ETH and USDB tokens between L1 and         L2. In the case that an ERC20 token is native to L2, it will be escrowed within this         contract."
  },
  "storageLayout": {
    "storage": [
      {
        "astId": 21417,
        "contract": "contracts/mainnet-bridge/L2PatexBridge.sol:L2PatexBridge",
        "label": "_initialized",
        "offset": 0,
        "slot": "0",
        "type": "t_uint8"
      },
      {
        "astId": 21420,
        "contract": "contracts/mainnet-bridge/L2PatexBridge.sol:L2PatexBridge",
        "label": "_initializing",
        "offset": 1,
        "slot": "0",
        "type": "t_bool"
      },
      {
        "astId": 27319,
        "contract": "contracts/mainnet-bridge/L2PatexBridge.sol:L2PatexBridge",
        "label": "spacer_0_2_20",
        "offset": 2,
        "slot": "0",
        "type": "t_address"
      },
      {
        "astId": 27322,
        "contract": "contracts/mainnet-bridge/L2PatexBridge.sol:L2PatexBridge",
        "label": "spacer_1_0_20",
        "offset": 0,
        "slot": "1",
        "type": "t_address"
      },
      {
        "astId": 27329,
        "contract": "contracts/mainnet-bridge/L2PatexBridge.sol:L2PatexBridge",
        "label": "deposits",
        "offset": 0,
        "slot": "2",
        "type": "t_mapping(t_address,t_mapping(t_address,t_uint256))"
      },
      {
        "astId": 27333,
        "contract": "contracts/mainnet-bridge/L2PatexBridge.sol:L2PatexBridge",
        "label": "messenger",
        "offset": 0,
        "slot": "3",
        "type": "t_contract(CrossDomainMessenger)25361"
      },
      {
        "astId": 27338,
        "contract": "contracts/mainnet-bridge/L2PatexBridge.sol:L2PatexBridge",
        "label": "__gap",
        "offset": 0,
        "slot": "4",
        "type": "t_array(t_uint256)46_storage"
      },
      {
        "astId": 15758,
        "contract": "contracts/mainnet-bridge/L2PatexBridge.sol:L2PatexBridge",
        "label": "postdeploys",
        "offset": 0,
        "slot": "50",
        "type": "t_contract(Postdeploys)7926"
      }
    ],
    "types": {
      "t_address": {
        "encoding": "inplace",
        "label": "address",
        "numberOfBytes": "20"
      },
      "t_array(t_uint256)46_storage": {
        "encoding": "inplace",
        "label": "uint256[46]",
        "numberOfBytes": "1472",
        "base": "t_uint256"
      },
      "t_bool": {
        "encoding": "inplace",
        "label": "bool",
        "numberOfBytes": "1"
      },
      "t_contract(CrossDomainMessenger)25361": {
        "encoding": "inplace",
        "label": "contract CrossDomainMessenger",
        "numberOfBytes": "20"
      },
      "t_contract(Postdeploys)7926": {
        "encoding": "inplace",
        "label": "contract Postdeploys",
        "numberOfBytes": "20"
      },
      "t_mapping(t_address,t_mapping(t_address,t_uint256))": {
        "encoding": "mapping",
        "key": "t_address",
        "label": "mapping(address => mapping(address => uint256))",
        "numberOfBytes": "32",
        "value": "t_mapping(t_address,t_uint256)"
      },
      "t_mapping(t_address,t_uint256)": {
        "encoding": "mapping",
        "key": "t_address",
        "label": "mapping(address => uint256)",
        "numberOfBytes": "32",
        "value": "t_uint256"
      },
      "t_uint256": {
        "encoding": "inplace",
        "label": "uint256",
        "numberOfBytes": "32"
      },
      "t_uint8": {
        "encoding": "inplace",
        "label": "uint8",
        "numberOfBytes": "1"
      }
    }
  }
}