{
  "address": "0x7640334E0f3C5Cc2aAd6379993af2A3f79776116",
  "abi": [
    {
      "type": "constructor",
      "inputs": [
        {
          "name": "_reporter",
          "type": "address",
          "internalType": "address"
        }
      ],
      "stateMutability": "nonpayable"
    },
    {
      "type": "function",
      "name": "REPORTER",
      "inputs": [],
      "outputs": [
        {
          "name": "",
          "type": "address",
          "internalType": "address"
        }
      ],
      "stateMutability": "view"
    },
    {
      "type": "function",
      "name": "addValue",
      "inputs": [
        {
          "name": "value",
          "type": "uint256",
          "internalType": "uint256"
        }
      ],
      "outputs": [],
      "stateMutability": "nonpayable"
    },
    {
      "type": "function",
      "name": "count",
      "inputs": [],
      "outputs": [
        {
          "name": "",
          "type": "uint256",
          "internalType": "uint256"
        }
      ],
      "stateMutability": "view"
    },
    {
      "type": "function",
      "name": "initialize",
      "inputs": [
        {
          "name": "_price",
          "type": "uint256",
          "internalType": "uint256"
        },
        {
          "name": "_postdeploys",
          "type": "address",
          "internalType": "contract Postdeploys"
        }
      ],
      "outputs": [],
      "stateMutability": "nonpayable"
    },
    {
      "type": "function",
      "name": "pending",
      "inputs": [],
      "outputs": [
        {
          "name": "",
          "type": "uint256",
          "internalType": "uint256"
        }
      ],
      "stateMutability": "view"
    },
    {
      "type": "function",
      "name": "postdeploys",
      "inputs": [],
      "outputs": [
        {
          "name": "",
          "type": "address",
          "internalType": "contract Postdeploys"
        }
      ],
      "stateMutability": "view"
    },
    {
      "type": "function",
      "name": "price",
      "inputs": [],
      "outputs": [
        {
          "name": "",
          "type": "uint256",
          "internalType": "uint256"
        }
      ],
      "stateMutability": "view"
    },
    {
      "type": "function",
      "name": "version",
      "inputs": [],
      "outputs": [
        {
          "name": "",
          "type": "string",
          "internalType": "string"
        }
      ],
      "stateMutability": "view"
    },
    {
      "type": "event",
      "name": "Initialized",
      "inputs": [
        {
          "name": "version",
          "type": "uint8",
          "indexed": false,
          "internalType": "uint8"
        }
      ],
      "anonymous": false
    },
    {
      "type": "event",
      "name": "NewPrice",
      "inputs": [
        {
          "name": "price",
          "type": "uint256",
          "indexed": false,
          "internalType": "uint256"
        }
      ],
      "anonymous": false
    },
    {
      "type": "error",
      "name": "DistributeFailed",
      "inputs": [
        {
          "name": "count",
          "type": "uint256",
          "internalType": "uint256"
        },
        {
          "name": "pending",
          "type": "uint256",
          "internalType": "uint256"
        }
      ]
    },
    {
      "type": "error",
      "name": "InvalidReporter",
      "inputs": []
    },
    {
      "type": "error",
      "name": "PriceIsInitialized",
      "inputs": []
    }
  ],
  "transactionHash": "0x7513ff902ff066f6476da6490b9128dfbadd5e8706ff5892f93fdcf2128ba34d",
  "args": [
    "0x16Cc7b51de361A845AD070ed6E792b2BB720f8c6"
  ],
  "numDeployments": 1,
  "solcInputHash": "9778d091a5acf256a03d242fa5a61eb7",
  "bytecode": "0x61010060405234801561001157600080fd5b50604051610e50380380610e5083398101604081905261003091610119565b6001600160a01b038116608052600160a052600060c081905260e05261005461005a565b50610149565b600054610100900460ff16156100c65760405162461bcd60e51b815260206004820152602760248201527f496e697469616c697a61626c653a20636f6e747261637420697320696e697469604482015266616c697a696e6760c81b606482015260840160405180910390fd5b60005460ff90811614610117576000805460ff191660ff9081179091556040519081527f7f26b83ff96e1f2b6a682f133852f6798a09c465da95921460cefb38474024989060200160405180910390a15b565b60006020828403121561012b57600080fd5b81516001600160a01b038116811461014257600080fd5b9392505050565b60805160a05160c05160e051610cc861018860003960006101b80152600061018f0152600061016601526000818160d3015261080a0152610cc86000f3fe608060405234801561001057600080fd5b50600436106100885760003560e01c8063a035b1fe1161005b578063a035b1fe1461011a578063cfb3991414610123578063da35a26f14610143578063e20ccec31461015657600080fd5b806306661abd1461008d57806354fd4d50146100a45780635b9af12b146100b95780637ae556b5146100ce575b600080fd5b6033545b6040519081526020015b60405180910390f35b6100ac61015f565b60405161009b919061098e565b6100cc6100c73660046109df565b610202565b005b6100f57f000000000000000000000000000000000000000000000000000000000000000081565b60405173ffffffffffffffffffffffffffffffffffffffff909116815260200161009b565b61009160015481565b6034546100f59073ffffffffffffffffffffffffffffffffffffffff1681565b6100cc610151366004610a1a565b61020e565b61009160025481565b606061018a7f00000000000000000000000000000000000000000000000000000000000000006104d7565b6101b37f00000000000000000000000000000000000000000000000000000000000000006104d7565b6101dc7f00000000000000000000000000000000000000000000000000000000000000006104d7565b6040516020016101ee93929190610a4a565b604051602081830303815290604052905090565b61020b81610614565b50565b600054610100900460ff161580801561022e5750600054600160ff909116105b806102485750303b158015610248575060005460ff166001145b6102d9576040517f08c379a000000000000000000000000000000000000000000000000000000000815260206004820152602e60248201527f496e697469616c697a61626c653a20636f6e747261637420697320616c72656160448201527f647920696e697469616c697a656400000000000000000000000000000000000060648201526084015b60405180910390fd5b600080547fffffffffffffffffffffffffffffffffffffffffffffffffffffffffffffff00166001179055801561033757600080547fffffffffffffffffffffffffffffffffffffffffffffffffffffffffffff00ff166101001790555b6103408361071d565b603480547fffffffffffffffffffffffff00000000000000000000000000000000000000001673ffffffffffffffffffffffffffffffffffffffff8416908117909155604080517f97d7577600000000000000000000000000000000000000000000000000000000815290516397d75776916004808201926020929091908290030181865afa1580156103d7573d6000803e3d6000fd5b505050506040513d601f19601f820116820180604052508101906103fb9190610ac0565b73ffffffffffffffffffffffffffffffffffffffff16634c802f38306001600061dead6040518563ffffffff1660e01b815260040161043d9493929190610b13565b600060405180830381600087803b15801561045757600080fd5b505af115801561046b573d6000803e3d6000fd5b5050505080156104d257600080547fffffffffffffffffffffffffffffffffffffffffffffffffffffffffffff00ff169055604051600181527f7f26b83ff96e1f2b6a682f133852f6798a09c465da95921460cefb38474024989060200160405180910390a15b505050565b60608160000361051a57505060408051808201909152600181527f3000000000000000000000000000000000000000000000000000000000000000602082015290565b8160005b8115610544578061052e81610b9f565b915061053d9050600a83610c06565b915061051e565b60008167ffffffffffffffff81111561055f5761055f610c1a565b6040519080825280601f01601f191660200182016040528015610589576020820181803683370190505b5090505b841561060c5761059e600183610c49565b91506105ab600a86610c60565b6105b6906030610c74565b60f81b8183815181106105cb576105cb610c8c565b60200101907effffffffffffffffffffffffffffffffffffffffffffffffffffffffffffff1916908160001a905350610605600a86610c06565b945061058d565b949350505050565b61061d816107f3565b603460009054906101000a900473ffffffffffffffffffffffffffffffffffffffff1673ffffffffffffffffffffffffffffffffffffffff16632577bba16040518163ffffffff1660e01b8152600401602060405180830381865afa15801561068a573d6000803e3d6000fd5b505050506040513d601f19601f820116820180604052508101906106ae9190610ac0565b73ffffffffffffffffffffffffffffffffffffffff16635b9af12b826040518263ffffffff1660e01b81526004016106e891815260200190565b600060405180830381600087803b15801561070257600080fd5b505af1158015610716573d6000803e3d6000fd5b5050505050565b600054610100900460ff166107b4576040517f08c379a000000000000000000000000000000000000000000000000000000000815260206004820152602b60248201527f496e697469616c697a61626c653a20636f6e7472616374206973206e6f74206960448201527f6e697469616c697a696e6700000000000000000000000000000000000000000060648201526084016102d0565b600154156107ee576040517f4c72d1b400000000000000000000000000000000000000000000000000000000815260040160405180910390fd5b600155565b73ffffffffffffffffffffffffffffffffffffffff7f0000000000000000000000000000000000000000000000000000000000000000167fffffffffffffffffffffffffeeeeffffffffffffffffffffffffffffffffeeef330173ffffffffffffffffffffffffffffffffffffffff161461089a576040517f3ae6ee0a00000000000000000000000000000000000000000000000000000000815260040160405180910390fd5b80156108b85780600260008282546108b29190610c74565b90915550505b6108c06108c4565b5050565b60006108cf60335490565b60025410806108de5750603354155b156108e95750600090565b6033546002546108f99190610c06565b6001600082825461090a9190610c74565b909155505060335460025461091f9190610c60565b6002556001546040519081527f270b316b51ab2cf3a3bb8ca4d22e76a327d05e762fcaa8bd6afaf8cfde9270b79060200160405180910390a150600190565b60005b83811015610979578181015183820152602001610961565b83811115610988576000848401525b50505050565b60208152600082518060208401526109ad81604085016020870161095e565b601f017fffffffffffffffffffffffffffffffffffffffffffffffffffffffffffffffe0169190910160400192915050565b6000602082840312156109f157600080fd5b5035919050565b73ffffffffffffffffffffffffffffffffffffffff8116811461020b57600080fd5b60008060408385031215610a2d57600080fd5b823591506020830135610a3f816109f8565b809150509250929050565b60008451610a5c81846020890161095e565b80830190507f2e000000000000000000000000000000000000000000000000000000000000008082528551610a98816001850160208a0161095e565b60019201918201528351610ab381600284016020880161095e565b0160020195945050505050565b600060208284031215610ad257600080fd5b8151610add816109f8565b9392505050565b7f4e487b7100000000000000000000000000000000000000000000000000000000600052602160045260246000fd5b73ffffffffffffffffffffffffffffffffffffffff8581168252608082019060038610610b4257610b42610ae4565b85602084015260028510610b5857610b58610ae4565b84604084015280841660608401525095945050505050565b7f4e487b7100000000000000000000000000000000000000000000000000000000600052601160045260246000fd5b60007fffffffffffffffffffffffffffffffffffffffffffffffffffffffffffffffff8203610bd057610bd0610b70565b5060010190565b7f4e487b7100000000000000000000000000000000000000000000000000000000600052601260045260246000fd5b600082610c1557610c15610bd7565b500490565b7f4e487b7100000000000000000000000000000000000000000000000000000000600052604160045260246000fd5b600082821015610c5b57610c5b610b70565b500390565b600082610c6f57610c6f610bd7565b500690565b60008219821115610c8757610c87610b70565b500190565b7f4e487b7100000000000000000000000000000000000000000000000000000000600052603260045260246000fdfea164736f6c634300080f000a",
  "devdoc": {
    "version": 1,
    "kind": "dev",
    "methods": {
      "addValue(uint256)": {
        "params": {
          "value": "Amount of new yield"
        }
      },
      "count()": {
        "returns": {
          "_0": "Total number of shares."
        }
      },
      "version()": {
        "returns": {
          "_0": "Semver contract version as a string."
        }
      }
    },
    "title": "Shares"
  },
  "userdoc": {
    "version": 1,
    "kind": "user",
    "methods": {
      "REPORTER()": {
        "notice": "Approved yield reporter."
      },
      "addValue(uint256)": {
        "notice": "Report a yield event and update the share price."
      },
      "constructor": {
        "notice": "_reporter Address of approved yield reporter."
      },
      "count()": {
        "notice": "Get the total number of shares. Needs to be         overridden by the child contract."
      },
      "initialize(uint256,address)": {
        "notice": "Initializer."
      },
      "pending()": {
        "notice": "Accumulated yield that has not been distributed         to the share price."
      },
      "price()": {
        "notice": "Share price. This value can only increase."
      },
      "version()": {
        "notice": "Returns the full semver contract version."
      }
    },
    "events": {
      "NewPrice(uint256)": {
        "notice": "Emitted when a new share price is set after a yield event."
      }
    },
    "notice": "Integrated EVM contract to manage native ether share         rebasing from yield reports."
  },
  "storageLayout": {
    "storage": [
      {
        "astId": 21417,
        "contract": "contracts/L2/Shares.sol:Shares",
        "label": "_initialized",
        "offset": 0,
        "slot": "0",
        "type": "t_uint8"
      },
      {
        "astId": 21420,
        "contract": "contracts/L2/Shares.sol:Shares",
        "label": "_initializing",
        "offset": 1,
        "slot": "0",
        "type": "t_bool"
      },
      {
        "astId": 7986,
        "contract": "contracts/L2/Shares.sol:Shares",
        "label": "price",
        "offset": 0,
        "slot": "1",
        "type": "t_uint256"
      },
      {
        "astId": 7989,
        "contract": "contracts/L2/Shares.sol:Shares",
        "label": "pending",
        "offset": 0,
        "slot": "2",
        "type": "t_uint256"
      },
      {
        "astId": 7994,
        "contract": "contracts/L2/Shares.sol:Shares",
        "label": "__gap",
        "offset": 0,
        "slot": "3",
        "type": "t_array(t_uint256)48_storage"
      },
      {
        "astId": 8137,
        "contract": "contracts/L2/Shares.sol:Shares",
        "label": "_count",
        "offset": 0,
        "slot": "51",
        "type": "t_uint256"
      },
      {
        "astId": 8140,
        "contract": "contracts/L2/Shares.sol:Shares",
        "label": "postdeploys",
        "offset": 0,
        "slot": "52",
        "type": "t_contract(Postdeploys)7926"
      }
    ],
    "types": {
      "t_array(t_uint256)48_storage": {
        "encoding": "inplace",
        "label": "uint256[48]",
        "numberOfBytes": "1536",
        "base": "t_uint256"
      },
      "t_bool": {
        "encoding": "inplace",
        "label": "bool",
        "numberOfBytes": "1"
      },
      "t_contract(Postdeploys)7926": {
        "encoding": "inplace",
        "label": "contract Postdeploys",
        "numberOfBytes": "20"
      },
      "t_uint256": {
        "encoding": "inplace",
        "label": "uint256",
        "numberOfBytes": "32"
      },
      "t_uint8": {
        "encoding": "inplace",
        "label": "uint8",
        "numberOfBytes": "1"
      }
    }
  }
}